:020000040800F2
:10000000783D002071C7000835EC0008993A0008D7
:1000100037EC000839EC00083BEC00080000000059
:100020000000000000000000000000003DEC00089F
:100030003FEC00080000000041EC0008E99F0008C8
:100040006DC700086DC700086DC700086DC70008C0
:100050006DC700086DC700086DC700086DC70008B0
:100060006DC700086DC700086DC700086DC70008A0
:100070006DC700086DC700086DC700086DC7000890
:100080006DC700086DC700086DC700086DC7000880
:100090006DC700086DC700086DC700086DC7000870
:1000A00039D500086DC700086DC700080DD50008D8
:1000B00019D5000821D500086DC7000821E3000804
:1000C00085E200086DC700086DC700086DC700080D
:1000D0006DC700085DEB000869EB000875EB0008D0
:1000E0006DC700086DC7000845EC00086DC7000823
:1000F0006DC700086DC700082DD500086DC7000842
:100100006DC70008F98D00086DC700086DC70008AD
:100110006DC700086DC700086DC700086DC70008EF
:100120006DC700086DC700086DC700086DC70008DF
:100130006DC700086DC700086DC700086DC70008CF
:100140006DC700086DC700086DC7000875EC000892
:100150006DC700082D8E00086DC7000881EB0008F0
:100160006DC700086DC700086DC700086DC700089F
:100170006DC700086DC700086DC700086DC700088F
:100180006DC700086DC7000870B50646B6FBF2F4EF
:100190000846154614B12046FFF7F6FF05FB146428
:1001A000024B1B5D00F8013B70BD00BF2823010816
:1001B00010B50278202A034600F10100F9D0092A7F
:1001C000F7D02D2A03D10346BFEE000A04E02B2A04
:1001D00008BF0346B7EE000A9FED377A1A4613466A
:1001E00012F8011BA1F13000C4B2092C0AD805EEA7
:1001F000900AF8EEE57AF2EE046AE7EE267AB0EEBF
:10020000677AECE72E2915D1F2EE047AF0EE676AF0
:10021000134612F8011B3039C8B209280AD805EE76
:10022000901AB8EEE56A86EE276A67EEA67A37EE90
:10023000067AEDE71A7802F0DF02452A34D15A78BF
:100240002D2A02D10233012204E02B2A14BF0133EC
:1002500002330022013B002113F8010F3038C4B2F1
:10026000092C03D80A2404FB0101F5E7B1F59A7FB4
:1002700034BF0B464FF49A731946F7EE007A0729FC
:1002800005D9DFED0E6A083967EEA67AF7E703F0C5
:1002900007032BB1F2EE046A67EEA67A013BF8E79A
:1002A00022B1C7EE277A03E0F7EE007A67EE277AED
:1002B00020EE270A10BD00BF0000000020BCBE4C8D
:1002C00010B5441E14F8011F21B1034B18680CF03F
:1002D000E5FFF7E710BD00BF282500200148FFF724
:1002E000EFBF00BF4D23010810B50748FFF7E8FF37
:1002F0000024064B0648E1581A190C34526805F0E0
:100300002DFBC02CF5D110BD7D230108482201082A
:100310009323010870B509F089FE294B1A88294BEF
:100320004FF47A71B0FBF1F11B78274805F016FB0A
:1003300001F080F8254B1968254B1A68254B53F8B6
:100340002110254B0546B2FBF3F2244805F006FBCD
:100350000024E3B2224A52F8231049B1012202FAE2
:1003600003F32B4202D01F4805F0F8FA0134F0E7FE
:10037000022001F045F898B11B4C1C4B22781C4818
:1003800053F8221005F0EAFA2378022B08D1194B12
:1003900019481B7D002B0CBF6E216F2105F0DEFA82
:1003A0001648FFF78DFF164B1C880DF065FF2146A0
:1003B000024640F2C4431348BDE8704005F0CEBA8F
:1003C000C8250020240000209B23010804050020EC
:1003D00058000020BC33010840420F00D923010817
:1003E0009C33010802240108600900200823010849
:1003F000062401082825002010240108C52601082C
:10040000F60500201424010838B50C68054620467E
:1004100010F079FD214602462868BDE8384010F00A
:100420007BBD000008B50948FFF74AFF0121002005
:1004300000F070FF0648FFF743FF0A2009F007FEAF
:100440000020BDE8084009F029BE00BF462401088D
:10045000502401087FB5044610F055FD082824D12A
:1004600000231F49E25C09681144497801F0030147
:10047000022908BF203AE2540133082BF1D10025AC
:10048000665D1848314610F031FD28B1013560191C
:10049000314610F02BFD18B11348FFF711FF1CE097
:1004A000082DEDD1204600F085FE1048FFF708FF2B
:1004B00000230F4A1A4404A992F87F210A440949EB
:1004C000595C02F80C1C0133082BF2D100230948B7
:1004D0008DF80C3001A905F041FA04B070BD00BFE1
:1004E00090010020C43E01085F2401087F24010818
:1004F000B81F00209623010808B501F093FB0130D6
:100500000CBF03480348BDE80840FFF7D9BE00BF51
:1005100094240108BA2401082DE9F041054610F0A1
:10052000F2FC044601F080F906468CB92948FFF731
:10053000C7FE294B53F8241041B10123A340334295
:1005400002D0264805F00AFA0134F2E7244821E0F7
:1005500028462449224610F0DFFC58B92248234C93
:10056000FFF7AEFE54F8041F0029EFD01B4805F03A
:10057000F5F9F7E72B782D2B03BF013504F1FF3494
:100580004FF001084FF000080026134B53F8267077
:1005900027B91748BDE8F041FFF792BE2846394613
:1005A000224610F0B9FC98B90120B040B8F1000F14
:1005B00003D001F02BF90F4802E000F04BFF0E488A
:1005C000FFF77EFE39460D48BDE8F04105F0C6B99B
:1005D0000136DAE7D824010898210108022401082D
:1005E000C52601084F310108EB24010894210108B8
:1005F000002501081A250108242501089623010871
:1006000010B504460848FFF75BFE084A0023137044
:10061000074A1360074A137004F0A2FC2046BDE8A5
:100620001040FFF7FFBE00BF2D250108F901002093
:100630002C020020F801002008B50848FFF740FE12
:10064000012000F00FFF0648FFF73AFE0A2009F0EC
:10065000FEFC0020BDE8084009F020BD452501084A
:1006600052240108F8B5074610F04DFC044638B98D
:100670001A4B1B485A791B4B013A53F8221028E0B9
:1006800038461949224610F047FC60B91748184C03
:10069000FFF716FE54F8041F19B1164805F05EF96D
:1006A000F8E7154805E000250E4B53F8256026B9FC
:1006B0001248BDE8F840FFF703BE384631462246EF
:1006C00010F02AFC01350028EED1044B0C485D7176
:1006D0003146BDE8F84005F041B900BFB81F002021
:1006E00060250108EC2101084F310108742501083B
:1006F000E821010802240108C52601088725010810
:100700009F25010810B50446204610F0FCFB10F0B0
:10071000FF0F07D10B4B0C4893F8BC14BDE81040F9
:1007200005F01CB9204610F097FB022808D8054BAD
:10073000064C83F8BC040020014600F0EBFDE3E723
:1007400010BD00BFB81F0020B1250108D528010841
:1007500070B5044610F0D7FB08B9204830E02046B9
:100760001F4910F027FC00242646254678B12CB1FD
:10077000012C06D110F070FB064602E010F06CFB75
:10078000054617490020013410F014FCEEE70B2D4C
:1007900005D914480C21BDE8704005F0DFB8012CE4
:1007A00008DC114B114833F915202946BDE870408B
:1007B00005F0D4B8A6F57A73B3F57A7F04D90C485E
:1007C000BDE8704005F0CAB80A482946324605F02F
:1007D000C5F8054B23F8156070BD00BFC72501089B
:1007E0009F280108012601089E26002027260108CF
:1007F0003F2601086126010838B5054610F083FB45
:10080000C0B268B90446124B124803EB44032146B8
:10081000B3F84620013405F0A1F8182CF3D138BD07
:10082000284610F019FB172804460BDC2021284627
:1008300010F05CFB10F010FB054B03EB4404A4F834
:10084000460038BD04481821BDE8384005F086B898
:10085000B41E00207A26010886260108931E232B49
:1008600028BF0A22031E10B50C4603DA2D2001F81A
:10087000010B5842FFF788FC00230370204610BD8F
:1008800030B52DED028B87B0B0EE408A00210C22EE
:10089000044603A810F015FBB5EEC08ADFED2B7AF5
:1008A000F1EE10FACCBF38EE278A38EE678ADFED1A
:1008B000287A28EE278A6946BDEEC88A0A2218EEF1
:1008C000105A85EAE570A0EBE570FFF7C7FF002D31
:1008D000ACBF20232D2368468DF80C3010F013FB9D
:1008E000012807D130238DF80D308DF80E308DF8AA
:1008F0000F300CE0022805D130238DF80D308DF833
:100900000E3004E0032804BF30238DF80D30694613
:1009100003A810F0DEFA03A810F0F5FA0338C5B208
:100920002A4603A9204610F019FB002363552046F0
:10093000084910F0CEFA03A92046294410F0C9FA5C
:10094000204607B0BDEC028B30BD00BF6F12033AEA
:1009500000007A445D24010837B5037904460D464A
:10096000052B37D8DFE803F003060A0D111483685E
:10097000197830E0836893F900102CE083681988B7
:1009800029E08368B3F9001025E08368196822E044
:100990008368684693ED000AFFF772FF014613482B
:1009A00004F0DCFF05B3D4ED037A6846B8EEE70A3D
:1009B000FFF766FF01460E4804F0D0FF94ED040AED
:1009C0006846B8EEC00AFFF75BFF0146084804F02E
:1009D000C5FF09E00021074804F0C0FF25B1064823
:1009E000E168226904F0BAFF03B030BD0D240108AC
:1009F0000C240108B0260108AC2601082DE9F843B3
:100A00002DED028B054610F07EFA4E4E074620B1C2
:100A1000012816D12B782A2B13D14B48FFF750FC15
:100A200000243159494804F099FF30193946FFF73D
:100A300093FF14344648FFF743FCB4F52F6FF0D111
:100A40007CE028463D2110F051FA00285FD0441C7C
:100A5000204610F001FA81462046FFF7A9FB002747
:100A6000B0EE408A14247C4356F80480404610F0CF
:100A70004AFA41460246284610F04EFA00283CD178
:100A8000304B1C4494ED037AF8EEC77AB4EEE78A53
:100A9000F1EE10FA2FDB94ED047AF8EEC77AB4EE9B
:100AA000E78AF1EE10FA26D82279052A18BF08EE57
:100AB000109A18EE103A052A11D8DFE802F0030365
:100AC0000606090DA268137009E0A268138006E00B
:100AD000A26882ED008A02E0A36883ED008A4146A5
:100AE0001C4804F03BFFBDEC028B20460021BDE812
:100AF000F843FFF731BF184803E001378C2FB1D11D
:100B00001648BDEC028BBDE8F843FFF7D9BB04469D
:100B100037592946384610F033FA58B10B48394650
:100B200004F01CFF074800212044FFF715FF084888
:100B300004F014FF1434B4F52F6FE9D1BDEC028B2F
:100B4000BDE8F883CC330108B326010892270108D9
:100B5000C5260108C8260108D3260108F826010881
:100B600070B52DED048B5D485D4C84B0FFF7A8FB9C
:100B70005C4804F0F3FE5C48FFF73EFE62795B4B95
:100B80005B48013A264653F8221004F0E7FED4ED04
:100B9000047AF5EE407AF1EE10FA5FD018340025B1
:100BA00014ED028AB5EE408AF1EE10FA52D001350A
:100BB000504854ED019A94ED009AD4ED018A2946EB
:100BC00004F0CCFEB5EEC08AF1EE10FA02D54A4828
:100BD00004F0C4FEB0EE480A6846FFF751FE014635
:100BE000464804F0BBFEF5EEC09AF1EE10FA02D5CD
:100BF000414804F0B3FEB0EE690A6846FFF740FED4
:100C000001463E4804F0AAFEB5EEC09AF1EE10FA95
:100C100002D5394804F0A2FEB0EE490A6846FFF753
:100C20002FFE0146354804F099FEF5EEC08AF1EE3C
:100C300010FA02D5304804F091FEB0EE680A68461A
:100C4000FFF71EFE01462E4804F088FE0C2D04F12D
:100C50001004A5D12B48691C04F080FE00F0E4FDCF
:100C6000294C054654F8041F19B1284804F076FEB3
:100C7000F8E70C46264B53F8241041B10123A3405A
:100C80002B4202D0234804F069FE0134F2E77318C6
:100C900004AA93F87F3113441F4A8A5C03F8102C8E
:100CA00001310829F3D100241C488DF80840694619
:100CB00004F054FE1A4D1B48615904F04FFE2819E8
:100CC0000021FFF749FE14341748FFF7F9FAB4F58D
:100CD0002F6FEFD104B0BDEC048B70BD4D23010824
:100CE000B81F002015270108D5280108EC210108AC
:100CF00045270108502701089F2801080D240108F5
:100D00009623010858270108942101086A27010841
:100D10009821010878270108C43E010885270108A9
:100D2000CC3301088E270108C5260108F0B589B02B
:100D3000044610F0E8F8C5B2002D72D17F48804C0F
:100D4000FFF7BEFA54ED027AF5EE407AF1EE10FAB2
:100D50002CD0013529467B4804F000FE14ED020A30
:100D600004A8FFF78DFD0146774804F0F7FD14ED68
:100D7000010A04A8FFF784FD0146734804F0EEFD64
:100D800094ED000A04A8FFF77BFD01466E4804F0CD
:100D9000E5FD94ED010A04A8FFF772FD01466B48DA
:100DA00004F0DCFD0C2D04F11004CBD1DFED687AEA
:100DB000684BB0EE677AF0EE676A0022AA4203F150
:100DC00010030DDA13ED045A53ED035A13ED026AC2
:100DD000013276EE856A77EEA57A37EE067AEDE790
:100DE0005D48CDED016ACDED027A8DED037AFFF716
:100DF00067FA002408AB234413ED077ADFED577A36
:100E0000574B5848B0EEC77AB4EEE77AF1EE10FAD5
:100E1000D8BF18460434FFF753FA0C2CEAD15248D5
:100E200074E020465149052210F076F838B9504B4D
:100E3000034410300022C0281A61F8D17BE020461C
:100E40004C49042210F068F80546204605BB2021D5
:100E500010F04CF800286ED0461C304610F053F8C5
:100E60002C460746444B53F824500DB943484DE0F7
:100E700030462946FAB210F04FF838B9204604F04F
:100E80004FF93F48294604F069FD4CE00134E9E799
:100E90000FF0E2FF461E0B2E074648DC20462021BD
:100EA00010F024F8054650B1451C2846FFF780F99C
:100EB0002F4B03EB071787ED000A012400E00446DF
:100EC0002846202110F012F8054648B1451C284656
:100ED000FFF76EF9264B03EB061383ED050A013489
:100EE0002846202110F002F8054648B1451C284646
:100EF000FFF75EF91E4B03EB061383ED060A013480
:100F0000284620210FF0F2FF18B91E48FFF7D8F944
:100F100011E00130FFF74CF9154B032C03EB0616DB
:100F200086ED070AF1D11848FFF700FF03E01748E4
:100F30000C2104F013FD09B0F0BD00BFA02701088B
:100F4000D01F0020CB270108D127010896230108D4
:100F500000000000CC1F0020D52701080AD7233C41
:100F60009C27010898270108C5260108E4270108E5
:100F7000B81F0020EA270108EC2101088725010895
:100F8000EF27010802280108D52801083C2801089C
:100F90002DE9F047674B1A7886B0984642B901238D
:100FA000654888F80030FFF78BF96448FFF788F947
:100FB000634D28680CF082F9A946002800F0B7803C
:100FC0002868604C0CF07FF90928014601D03F28C1
:100FD0004FD14FF0000A25685B4F56462DB15B4854
:100FE00039682A460FF098FF10B9BA4606B93E464E
:100FF000574B0C379F42F1D3CEB1D6F800E0DAF868
:1010000000C02B461EF803701CF80300B84201D044
:1010100023600CE05A1C4D4930B92D2B04D82027F1
:10102000CF542260885402E0CF541346EAE7236885
:101030000BB1564512D04748FFF742F9564509D83B
:1010400056F80C0BFFF73CF9D9F8000009210CF019
:1010500025F9F3E73948FFF733F9002523689D4266
:10106000A6D23A4BD9F80000595D0CF017F90135BA
:10107000F4E723682BB9042836D13448FFF7C0FAC7
:1010800055E00C2801D134488DE70A2901D00D29FB
:1010900044D132482D4DFFF713F922682A490395B0
:1010A0000023AB5404932E4B009303A810220C236F
:1010B0000FF0D6FE064638B100680FF024FF01306D
:1010C000B3682844984702E02648FFF7F9F81F481C
:1010D000002130220FF0F5FE0023236098F8003045
:1010E000002B7FF462AF22E00C28CCD07F2903D103
:1010F0005EE72F2B3FF65CAFA1F12002D2B25E2A51
:101100003FF656AF13B920293FF452AF5A1C226064
:101110000E4A2868D1540CF0C1F849E77F29E8D17C
:10112000013B0A4A23600021D1540F483EE706B034
:10113000BDE8F087F8010020642801089C28010818
:10114000282500202C02002048220108F901002057
:1011500008230108A1280108A6280108C5260108BE
:1011600009040008B1280108D22801080F4B1A7899
:10117000482A18D1598840F2C442914213D11A79B1
:10118000BE2A10D193F8C024EF2A4FF000000CD1F2
:1011900013F8012B5040064A9342F9D1D0F10100D7
:1011A00038BF0020704700207047704700000E08CD
:1011B000C4040E0870B50546441E14F8011F61B141
:1011C000064E30460FF092FE0028F6D0861B0448EB
:1011D0003044631B80F87F31EFE770BDC43E0108E7
:1011E000B81F002008B5FFF7C1FF10B90A2008F0AA
:1011F00039FF0D4B0D49184640F2C4420FF058FE1E
:1012000090F8BC24022A84BF002280F8BC2490F805
:10121000BC144FF4827202FB010101F5D87104483D
:101220000FF046FE08BD00BFB81F002000000E08EA
:10123000B41E00202DE9F0472E4890F82050C47FBE
:10124000002303FB03F11939694301F6C411594323
:1012500040F6C412614391FBF2F1274A22F81310C1
:101260000133072BEDD1254A90F82130B2F84061C7
:10127000B2F842A190F822E0C3F1640903EB830CB9
:101280005C425FFA89F94FEA4C0CCEF16408C6EB78
:101290000A0AA4B20022A1B20FB2002F04DC002976
:1012A00014BF1D46012500E04D4611FB01F101FB75
:1012B0000EF115FB05F591FBF5F545440A217D433B
:1012C00095FBF1F565442DB24FF47A7105FB0AF5F3
:1012D00095FBF1F50A493544555202320A34182A71
:1012E000A4B2D8D1007803F0C5F8BDE8F04700F00B
:1012F000B5BB00BFB41E002078260020B81F002018
:101300008025002008B5FFF76DFFBDE80840FFF716
:1013100091BF0000F8B52F4B48221A7040F2C4422A
:101320005A80BE221A71EF2283F8C0240022074699
:1013300083F8C1241E4651B193F8BC0426494FF4EA
:10134000827202FB003000F5D8700FF0B1FD002270
:101350001346B15C01324B4040F2C4418A42F8D19D
:101360001C4A002582F8C13409F060FBF32009F023
:1013700073FB5820022109F0A1FB082815D1174C56
:10138000331903F1774303F572032046196809F016
:10139000CBFB082805D0013509F056FB032DE3D11E
:1013A00003E00F4B04349C42EAD109F04DFB032DBE
:1013B00002D0FFF7DBFE10B90A2008F053FEFFF75A
:1013C000A1FF37B10F2014210122BDE8F84002F03F
:1013D0008FBDF8BDB81F0020B41E002000000E080D
:1013E000C4040E0838B505460C4608F06AFE2846C7
:1013F0002146FFF78FFFBDE8384008F05FBE0000D0
:10140000034B1B6818420CBF00200120704700BF2F
:1014100030020020024B1A6810431860704700BF6A
:1014200030020020024B1A6822EA00001860704760
:1014300030020020014B1868704700BF30020020C6
:10144000034B9B6818420CBF00200120704700BF6F
:10145000B81F0020024B9A6810439860704700BF85
:10146000B81F00202DE9F3470446FFF77FFE10B1B7
:10147000002C00F0B781DD4ADD4D10685168DD4C6D
:101480006B4603C340F2C442002128460FF019FD09
:1014900000214FF4827220460FF013FD48232B7079
:1014A0004FF4004003236B71FFF7D4FF4FF48070BB
:1014B000FFF7D0FF4FF40060FFF7CCFF0820FFF7E5
:1014C000C9FF4FF41673A5F86231FA23A5F8643109
:1014D0002A23A5F860314FF4FA73A5F86831202368
:1014E00085F866316E2385F87B312B2385F87C31B6
:1014F000212385F87D3140F24C43A5F88C3140F230
:101500006C730026012704224FF008094FF4C870BD
:10151000022140F2DC5EA5F88E3140F27E4385F870
:10152000532185F8542185F85591A5F8760185F861
:101530008711A5F88AE185F8BC64A5F86A61A5F869
:101540006C61A5F86E61A5F85661A5F85861A5F81B
:101550005A6185F85D6185F85E6185F85C7185F892
:101560007E6185F8886185F8AA7185F8AB6185F898
:10157000AC6185F8906185F8917185F89271A5F854
:10158000403140F23A73A5F8423185F89B114FF48F
:101590007A734FF4E131A5F84431C5F8A01140F257
:1015A0007E534FF41651A5F84631A5F84E0140F28E
:1015B000EA531720C5F8A41140F6C411A5F8483124
:1015C000A98140F2B45340F6FF716075A0755520B3
:1015D0004FF02808A5F84A31A5F8961132231E21AC
:1015E000E0702D20A5F84C31A5F85031E17221733F
:1015F000607323714FF00B0C85F89A7185F8A86120
:1016000085F8A961AE7385F8936185F8BE7485F895
:10161000BF74267084F8018084F80280E675A67392
:10162000267684F8233084F8243084F8213015237A
:1016300084F805C084F831304FF0140C6E4B84F8F8
:1016400006C084F8109084F811C04FF00E094FF0D6
:10165000500C4FF0640A6363684BA07684F80790DF
:1016600084F81BC04FF00A094FF05A0C84F81CA0F4
:101670002075A3634120624B84F808C04FF0780ABC
:1016800084F81FC084F8200084F82510A4F826E010
:1016900084F82E20E673667684F8129084F8098028
:1016A00084F80AA0A77784F822606685A685268537
:1016B00084F82F8084F83080E363524B23645248CF
:1016C00084F84470192384F84530FFF773FD4FF414
:1016D0004873A4F87A30C82384F8CF304FF4966367
:1016E000A4F8D03040F2D933A4F8D23084F8766030
:1016F00084F8776084F8788084F8797084F87C6066
:1017000084F8CE9023464FF47F72A4F87E204FF4E5
:10171000FA62A4F880201DF8062084F8842001369F
:1017200040F2DC51082EA4F8821004F10A04EAD138
:10173000012283F8D42083F8D52083F8D62083F8BB
:10174000DC206422A3F8DE204FF49672A3F8E02098
:101750002822A3F8E2204FF07C52C3F8E420C3F81B
:10176000E8200F22A3F8F020A3F8F220A3F8F42039
:1017700040F26C72C820A3F8F62040F21452A3F88D
:10178000D800A3F8FA2014201E244FF07E5283F8CC
:10179000DA0083F8DB40A3F8EE00A3F8F810A3F812
:1017A000FC60C3F80021522385F8BD340023EA18F9
:1017B00010330021C02B1161F9D10024281900F544
:1017C000D8700C494FF4827204F582740FF070FBEC
:1017D000B4F5437FF2D10020014602B0BDE8F047E6
:1017E000FFF700BE02B0BDE8F08700BFBC3E0108B5
:1017F000B81F0020B41E00209A99193FF6287C3F9C
:101800003D0A773F0000A040CD3E0108024B9A6898
:1018100022EA000098607047B81F0020014B0022A8
:101820009A607047B81F0020014B9868704700BF4E
:10183000B81F002038B5044C00252070E56108F081
:10184000F5FB2562606238BDB024002007EE100A67
:10185000F8EEC77A9FED0A0A9FED0A7AF5EEC07A94
:10186000F1EE10FAD8BFF1EE677A87EE800A08B57C
:1018700020EE070A0DF05AFB034B83ED000A08BD6A
:101880008096184B35FA8E3C1000002010B5121AC5
:1018900007EE902A5B1A2DED028BF8EEE78A07EE31
:1018A000903A184B059CB8EEE78AD3ED007A28EE03
:1018B000278A28EE080AA8EEA80A0DF0FFFDDFED42
:1018C000127A049B20EE270AF0EE480AFDEEC07A59
:1018D000B1EE680AC3ED007A0DF04AFCDFED0B7A39
:1018E0009FED0B7AE0EE077ABDEC028BFDEEE77A16
:1018F00017EE903A002BBCBF03F50C43A0332360D6
:1019000010BD00BF100000202C7D8E3F00A00C46B3
:10191000A00CB34507EE900AB8EEE77AD2ED017A53
:1019200027EE277AD1ED007AE7EE007A10B5C1ED07
:10193000007A92ED037AF1EE476AFDEEE77AFDEE6A
:10194000E66ABDEEC77A0C4617EE102A17EE900A2B
:1019500016EE901A05F07CFE07EE100AF8EEC77A34
:10196000C4ED007AFDEEE77A17EE900A10BD000094
:1019700030B5002213460E49CC5C0D469CB12E2C8E
:1019800004D1013378B11D4400242C54C95C0A24CD
:101990006243A1F13004092C9CBF303A52180E2B3F
:1019A00003D80133E7E7104630BD002030BD00BF4B
:1019B0005403002038B50C4DEB7AA3B10B4B1B78C8
:1019C000042B10D90A4B0B4C18685B6863602060CD
:1019D000FFF73CFF084B1A88084B1A80084B1B88FE
:1019E000A36001232B7338BD52250020362600202A
:1019F00018260020D425002018270020E602002009
:101A00007425002010B5002213460E480E4C00210C
:101A100019520E4819520E481444195200202060E1
:101A20006160A0600B4C1444023320606160A060D0
:101A3000094C1444042B20606160A06002F1140280
:101A4000E3D110BDF0050020A00200207C2500207D
:101A500098250020600200201C0300203A4BDFED97
:101A60003B7A58793A4AD97B07EE100AB8EE477AA2
:101A7000987987EE277AF2EE046A82ED007A07EE13
:101A8000101AB8EE477A3349D16087EE277A82ED93
:101A9000017A07EE100AB8EE477A2F4A187CD16017
:101AA00087EE267A82ED007A07EE100AB8EE477AC2
:101AB000987E87EE277A06EE100A82ED017AB8EE5C
:101AC000466A9FED267AD87986EE076A82ED026A29
:101AD00006EE100AB8EE466A214A587CD16086EEBE
:101AE000266A82ED006A06EE100AB8EE466AD87ED3
:101AF00086EE276A82ED016A06EE100AB8EE466AA3
:101B000086EE076A82ED026A164A127CDAB119790A
:101B1000154A987B1B7E06EE101AB8EE466AC6EE92
:101B2000266AC2ED006A06EE900AF8EE666AC6EE14
:101B3000A77AC2ED017A07EE903AF8EE677A87EE5F
:101B4000877A82ED027A7047B41E00200000C842F6
:101B5000CC0200200000FA440403002000007A4474
:101B6000882400205225002098240020F7B506463E
:101B70000020FFF75FFE4FF48070FFF761FC002844
:101B80003ED0204D6E7008F051FA0024A8606C60C1
:101B90001D4D95F89A31A3420CBF01270327FFF78B
:101BA0005DFF1A4B009403EB061621467268184835
:101BB0003B460CF0E7FE174B98600120FFF73AFE1A
:101BC00095F99C31042BC8BF85F89C4195F99C215F
:101BD000531C114B0AD0114902EB420201EB4202A5
:101BE00011689288C3F80A10DA8109E00C4A11687A
:101BF000C3F80610981D5168C3F80A1013890381B1
:101C000003B0F0BDB0240020B81F00209C400108A4
:101C10000010014028250020000000207C40010821
:101C2000724001082DE9F041194B1B78042B2BD190
:101C3000184D20236B83184B4FF480425A83174C66
:101C4000A0680BF03BFB50B120262E83A0682768CC
:101C50000BF039FB014638460BF020FB6E83206801
:101C60000E4F0BF02BFB0028E9D00B4C3868D7F84F
:101C700008804FF4804626830BF025FB0146404642
:101C80000BF00CFB6683DAE74FF0FF30BDE8F08124
:101C9000B024002000080240000C0240282500204B
:101CA00073B51A4C036823600B686360184D0068B5
:101CB000184EFFF7CBFD184B009395E8030094E80E
:101CC0000C000196FFF7E2FD60686968134A33680B
:101CD0001360411A07EE901A1149206891ED007ABD
:101CE0002968104AF8EEE77A411A67EE877A1160A0
:101CF000FDEEE77AC2ED017A0B4A13600B4BB3F8A5
:101D0000DE200B4B1A8002B070BD00BFE80200203D
:101D10001826002048030020AC2400208024002046
:101D2000100000209403002064030020B41E002053
:101D30009003002044F25063984203DDA0F50C406C
:101D4000A0387047034B9842BCBF00F50C40A03050
:101D5000704700BFB0B9FFFF264BF0B51D680246C3
:101D600000F1100714782B1911465E7806F004066E
:101D7000013206F0FF036EB1BA42F3D10020F0BD8C
:101D80001BB103EB83035B00DBB210F8012B303A8D
:101D90001344DBB20A1A022AF2DC002281420AD979
:101DA0001AB102EB82025200D2B210F8016B303E3F
:101DB0003244D2B2F2E72E2C0FD14C1C0420002169
:101DC0000A2671432678AF197F787F0702D530390C
:101DD000013431440138F3D100E000210648424388
:101DE000642000FB012106240448B1FBF4F100FB50
:101DF0000310F0BD9001002040420F008096980033
:101E00002DE9F04F964C2DED048BA3688BB0D3B920
:101E1000944E3378013B042B00F2E786DFE813F0A1
:101E2000FD05FD05FD05D706BA068D4B98680BF03C
:101E30004AFA8D4B93F89A31012B054600F0348114
:101E400007D3022B05D0A0680BF038FA0028ECD19C
:101E5000DEE7242D0CD006D80A2D00F09A800D2D37
:101E600000F09780E8E02A2D0AD02C2D08D0E3E07E
:101E70007E4A002313707E4A13707E4A1370ECE092
:101E80007B4FDFF8E8813A787B4B98F800600021BF
:101E900099547A4AEEB919781670472919D15978A8
:101EA000502916D19978472907D1D978472904D1E3
:101EB0001979412901D10121117098786E49522870
:101EC00007D1C8784D2804D10979432904BF0221DC
:101ED00011701278012A02D0022A39D04EE0B21EC7
:101EE000072A4BD8DFE802F0040A121820284A2EED
:101EF0006148FFF731FF624B18603FE01B78532BBE
:101F00003CD15F4B1A6852421A6037E05A48FFF7DB
:101F100023FF5B4B586031E01B78572B2ED1584B79
:101F20005A6852425A6029E01A78564B302A94BFB8
:101F300000220122DA7221E00020FFF719FD504B48
:101F400018721BE00020FFF713FD4D4B588115E080
:101F5000072E07D0082E11D10120FFF709FD484BAD
:101F6000D8810BE00120FFF703FD41F218434FF445
:101F70007A725843B0FBF2F3414A93810136002351
:101F80002A2D88F800603B7061D13F4A0121117011
:101F900063E03D4E3378002B4BD037490B78402B14
:101FA00004D9A3F137021201D2B202E01B0103F0FF
:101FB000F0024B78402B8CBF373B303BDBB21344F5
:101FC0002C4A1178DBB2994232D12C4B1D78012D6D
:101FD00009D0022D2CD12A4B2C4A99891180DA89FB
:101FE0002B4B1A8024E0DFF89C8098F80B300BB95B
:101FF00001231EE0224A274B11681960516859607D
:10200000254B117A254F1970042053893B80FFF727
:10201000F7F90028ECD198F81030002BE8D0204BCD
:102020003A889B68D21A64235A431E4B1A60DFE732
:1020300000230022327010E00D4A13780E2B03D8D3
:10204000591C11700C4AD5540F4B1B7823B9094AFF
:1020500011784D40157000E0002303F001037EE18C
:1020600028250020B0240020B81F00207003002085
:10207000880200209C0200205403002092030020CC
:102080008003002052250020FC0200209C25002017
:102090000805002018260020362600207425002080
:1020A000D4250020FC240020944B19780022082914
:1020B00000F25481DFE801F00A0511172533506959
:1020C0007400622801D1022205E01A70B52D40F09B
:1020D00045811A7801321A7040E103221A70884B48
:1020E0001870884B0BE0864904221A70854B0A78D9
:1020F00018782A44D2B20A7002441A70824B1D70BA
:102100002CE17F4905221A707E4B0A7818782A4400
:10211000D2B20A7002441A707C4B1D801EE17849CD
:1021200006221A70774B0A7818782A44D2B20A70BD
:1021300002441A70754B1A8802EB0525ADB2B5F54D
:10214000007F01D81D8003E000221A806B4B1A70BB
:102150006F4A0023138002E169486A4A01781678C1
:102160002944C9B201703144117069490A88C72AEB
:102170009CBF68488554013292B20A80634909883D
:10218000914240F0EB800722A5E708221A705C4BD1
:102190001B78834200F0E280584A00231370DEE08F
:1021A0001A70584B1B78834240F0D880564B1B78EE
:1021B000062B4AD004D8022B12D0032B35D0CDE009
:1021C000122B55D0302B40F0C980524B1A79524B0C
:1021D000102A88BF10221A7019784E4A00236DE029
:1021E0004C4B4E4A59685160996811601A694C4DC0
:1021F0004C4E4FF47A7392FBF3F32B804A4B1B78CF
:10220000F3724A4B012204201A70FFF7F9F80028F4
:1022100069D1337C002B66D0454B2A889B68D21A43
:1022200064235A43434B1A605DE03A4A537913F0F2
:10223000010303D01379D81E434243413A4A137035
:10224000002B50D1374AD3724DE0324BDA7A12F07C
:10225000010203D09A7AD11E4A424A4132490A7099
:102260000AB93049CA7293F82F20334B1A703AE0FA
:10227000284B324E5A6932809A69314D42F21073BE
:1022800092FBF3F32B802F4B012208201A70FFF7EB
:10229000B7F840BB234B1B7C2BB33388642B22D96C
:1022A0002A880A23B2FBF3F2274B91B2198009B2B4
:1022B000B32918DDA2F5B4721A8014E08B4202F142
:1022C0000C0210DA214812F8045C1D54204812F860
:1022D000035C1D541F4812F8015C1D541E481578FC
:1022E0001D540133EAE711490B78BBB3154B1A783B
:1022F000A2B300221A700A70012330E0E402002029
:10230000DC020020DD0200205D0200209A02002095
:10231000C8020020A0030020372600201826002035
:1023200074250020522500207C030020DE020020BE
:10233000D4250020FC240020362600209C250020E7
:1023400008050020F002002018270020402500206A
:10235000FA25002020260020682600200023002BDC
:102360003FF471AD9A4DAB68EB6007F05FFEA8607B
:102370002020FFF74FF8974B1A78012A0CBF002254
:1023800001221A70944BDA7A002A3FF45CAD934A2A
:102390001278042A7FF657AD5A7812B9197C01B920
:1023A0001A731B7B13B90AB1FFF704FB8C4B8D4DDD
:1023B0001A784FF0050E013292FBFEFE0EEB8E0EE8
:1023C000CEEB020E83F800E0874B1B780293874B1D
:1023D00003EB8E0E0023864A86499858DFF8508218
:1023E000854E585090FBF8F1995103EB830A834EC8
:1023F000DFF8409206FB010053F809705EF80A60AE
:102400004EF80A00BF1B42F2107C90FBFCFC052634
:10241000384443F8090090FBF6F008FB01017848C6
:10242000195002981FFA8CFC012803EB020B25F8C7
:1024300002CF164606D1ACF1020CBCF5797F98BFED
:10244000CBF800100433082BC5D16E4F6E4DDFF86A
:1024500088A107F0EBFD3B689FED6C7AC01A05EE92
:10246000100AF8EE457AB7EE008AC7EE877AC5ED16
:10247000007A07F0DBFDD5ED007A3860F4EEC87A1B
:10248000F1EE10FA58BFF0EE487A06AAC5ED007AD0
:102490005F4B009207AA019296E803000CCBFFF76E
:1024A000F5F9069A5B490798642392FBF3F20A80D8
:1024B000594A90FBF3F313809AF80C302F460BB96E
:1024C0000B8013805549564B0A78002A3DD0D5ED34
:1024D000007A30681A68C8EE277A821A70684FF05E
:1024E000020807EE102AB8EEC77A5A6827EE277A54
:1024F000801ABDEEC77A4B4A17EE10BA07EE100AE3
:10250000D2ED006A484AB8EEC77AB2F902E0B2F9F1
:10251000009027EE267A09FA8BF067EE277A90FB77
:10252000F8F0FDEEE77A80B217EE90CA0EFA8CFE54
:102530009EFBF8FEDFF800C110801FFA8EFEACF89B
:1025400002E0ACF80000A2F802E001220A70306854
:102550007168596018609AF8083023B91E4BDB790E
:10256000002B3FF470ACDFF8D480DFF8D490DFF8B4
:10257000D4B0CDF80090CDF804B098E80C00FFF787
:1025800085F9D8F804107268284B8A1A07EE902A49
:10259000244AD8F8001092ED007A3268F8EEE77A13
:1025A0008A1A67EE877A1A60FDEEE77A9AF81020A9
:1025B000C3ED017ADFF830A012B102228AF80020C0
:1025C0009AF90020012A3FD0022A00F0D0803AE494
:1025D000B0240020EF0500205225002036260020E0
:1025E0009C030020FC0200207C0500203402002017
:1025F0001826002074030020F4020020806967FF81
:1026000090020020E00200201403002000007A4421
:10261000D4250020D2250020E02500205C020020E7
:1026200068030020100000204403002094030020D1
:10263000809698004C03002018030020E802002038
:10264000AC240020480300207C4E002553F81500E0
:102650007B4ADFF820A2D2ED007A35F80A20DFF8B5
:102660001C9297ED000ADFF8108205EE100AB8EE12
:10267000C57A15EE101A67EE277AFDEEE77A17EEA7
:10268000900A801A6F4A80B2A85200B207EE900AF0
:10269000B8EEE77AD9ED007A049367EE277A08441A
:1026A000FDEEE77A31464A4617EE90BAFFF732F967
:1026B0006549DFED665A91F8DA10049B97ED007AD0
:1026C00053F81520D6ED027AD9ED026A06EE101AFB
:1026D000B8EE466A7168726026EE256A511A88EE75
:1026E000066A1FFA8BFB584425F808004FF4FA627B
:1026F00005EE101A36EE076AF8EEC55A87EE066A3E
:10270000534985EE877A37EE677AE6EE077AC6EDAB
:10271000047AC6ED027A66EEA77A0493FDEEE77AB4
:1027200017EE900A04F094FF35F80A204949313237
:1027300092B2622A35F8082098BF0020104480B277
:1027400025F8080040F6B83200B204F081FF424A92
:1027500028F805000A2101FB0522023556F8141B52
:102760001160042D049B7FF471AFFFF76CBB99EDF2
:10277000009A354B19EE100AB3F9E080374B90FB05
:10278000F2F29045A8BF90461A881FFA88F80FFA0F
:1027900088F011B288420EDD95ED007ADFED307AD7
:1027A00067EE277AFDEEE77A17EE908A90441FFADB
:1027B00088F8A3F800802B4BDBF800501B68C3EBB4
:1027C000050B5846FFF7B6FA002841F2931201DDD7
:1027D000904201E043429342CCBF00230123DFED4E
:1027E000228A224E002B4BD005EE10BAB8EEC50A55
:1027F000B8EEC99A20EE280A0CF01EFC20EE090A59
:102800001B4B1449BDEEC00A40F6B83210EE100A58
:1028100080B2188000B204F01BFF48F6A0432844A1
:10282000984203DDA0F50C40A03804E00028BCBFAE
:1028300000F50C40A030306023E000BF60020020B3
:10284000CC0200208A020020B41E0020DB0FC94009
:1028500030F8FFFF48F4FFFF1C0300209003002026
:102860000000C84264030020D302373980240020CE
:10287000980200201803002098250020040300205F
:1028800035603368AF4EC3F50C53283307EE103A6A
:10289000F8EEC77A002567EEA88AB0EE680A0CF059
:1028A00045FB8DED090AB0EE680A0CF0C5FB8DED15
:1028B000080AA54ADFF8D0B2AA5E0FFA88F10AA882
:1028C00007EE902A07EE101A00EB450353ED026A5B
:1028D0009E49B8EEC77AF8EEE77A4FF47A72D6EEF0
:1028E000877AFDEEE77A17EE900A80B225F80B00A2
:1028F00000B204F0ADFE80B225F80B0000B2944B9C
:1029000097ED000AD3ED007A049305EE100AB8EEB5
:10291000C57A314667EE277A1A46FDEEE77A17EE5A
:1029200090CA1FFA8CFCCDF814C0FEF7F3FF35F9FE
:102930000B20DFF858B2DFED875A9BF8DA10049BC2
:1029400097ED007AD3ED026A7368D6ED027ADDF86E
:1029500014C0726006EE101AB8EE466AD31A26EE5C
:10296000256A05EE103A88EE066A84447A4B7B4964
:1029700040F6B832F8EEC55A36EE076A87EE066AB8
:1029800085EE877A37EE677AE6EE077AC6ED047A47
:10299000C6ED027A66EEA77AFDEEE77A17EE900AA8
:1029A000604480B2E85200B2049304F051FE049BEC
:1029B00058536B4B0A2202FB0533023556F8142B91
:1029C0001A60042D5B467FF474AF93F8DC2032B1BB
:1029D000644A1168642291FBF2F1634A1180B3F8F2
:1029E000D830D9F800209A420EDD604B1868604B51
:1029F0001B68C01AFFF79EF942F210730028B8BF97
:102A0000404298427FF71FAA01238AF80030594BB1
:102A10001A88554B1A80FFF716BA574B93F89A71DC
:102A2000984617B1012F09D088E07278534BA068FF
:102A300003EB021359680AF04BFC7CE0A068DFF856
:102A400050910AF04AFC002878D033784C4D022B84
:102A50003BD0032B44D0012B70D107F0E7FA6B6A0F
:102A6000C31A632B074669D9EB69042B2BDC0820BA
:102A7000FEF7E6FC414D90B9F369A06805EB03133E
:102A800059680AF025FC7378A06805EB0315A9685E
:102A90000AF009FCF36977620133F3614EE04020EC
:102AA000FEF7CEFC0028E7D098F88931002BE3D15F
:102AB000F36905EB03135B68B3F5964FDCD9304B34
:102AC0000322DA61D8E7022036E06A782B4BD9F886
:102AD000080003EB021359680AF0FAFB03202BE00D
:102AE0002B69012B0DD0022B25D03BBB2A6A254B2D
:102AF0002F6153F83210696103EBC2035B68AB616D
:102B00001CE0EB69AA69934209DA6A69D9F80800FE
:102B1000D15C0AF0C3FBEB690133EB610EE02A6A7A
:102B2000184901322A6251F832200023EB6102B9C0
:102B300002232B6102E00420FEF77CFE0023736079
:102B400053E000BF1C0300201803002018FCFFFF07
:102B500088240020DB0FC9409825002048F4FFFF9F
:102B60006002002080240020D82600204803002096
:102B700064030020E6020020B81F00209C400108EA
:102B8000B0240020D83E01088A020020B41E002094
:102B9000282500207268174B01327260164A92F89D
:102BA0009D214AB15A780132D2B20521B2FBF1F12E
:102BB00001EB8101521A5A7007F038FA0F4AB060DF
:102BC000002313700E4A3361D37201200BE007F02B
:102BD0002DFAB36840F6C412C01A904205D92020DD
:102BE000FEF720FC0520FEF725FE0BB0BDEC048BA4
:102BF000BDE8F08FB0240020B81F0020362600204A
:102C00005225002038B5294D2DED048BD5ED008AD5
:102C1000B0EE680A04460CF089F9B0EE408AB0EED6
:102C2000680A0CF009FA95ED019AF0EE408AB0EED0
:102C3000490A0CF07BF9F0EE409AB0EE490A0CF02C
:102C4000FBF9D4ED017AD4ED026A67EEA80AB0EE82
:102C5000407A60EE870A28EEE60A66EE876A94ED0F
:102C6000007AE7EE290AA7EE880AE6EE880A0CF059
:102C70007FFADFED0F7A9FED0F7A0F4B20EE270AD8
:102C800080EE070A93ED007A30EE070AB2EE047A7E
:102C900080EE070A0CF086F9BDEC048B83B21A04AF
:102CA00044BF00F5B4739BB218B238BDCC04002009
:102CB0000000E144DB0F49409804002038B5284C5F
:102CC000DFED287A94F84530274D00EE103AB8EE43
:102CD000C00A20EE270A0CF029F92B8807EE903A5B
:102CE000F8EEE77A27EE800A0CF05CF92D889FED6C
:102CF0001F7A1F4B07EE905AF8EEE77A1880C7EE5E
:102D0000277A1C4B08209FED1C7AC7EE877A9FED2F
:102D10001B7AC3ED007AB4F87A3007EE903AF8EEF9
:102D2000E77A174BC7EE277A9FED167A67EE877A18
:102D300094ED107AC3ED007ADFED137A134B67EE52
:102D4000277AB6EE007AC7EE277AC3ED007AFEF74F
:102D500057FB18B1BDE8384003F0FCBA38BD00BFDE
:102D6000B41E002035FA8E3C3E0000200AE81C41CB
:102D700000050020F024002000401C4600006144B3
:102D8000142500204C3D0F44DB0F4940182500203E
:102D900090ED010A90ED007AD0ED027A20EE000A63
:102DA00038B5A7EE070A04460D46A7EEA70A0CF0B1
:102DB00085FBB5EE400AF1EE10FA11D0D4ED007AA1
:102DC000C7EE807AC5ED007AD4ED017AC7EE807A3D
:102DD000C5ED017AD4ED027A87EE800A85ED020A0C
:102DE00038BD38B52DED0A8B91ED008A90ED00AA23
:102DF000D0ED01AA90ED029AB0EE480A04460D46C5
:102E00000CF094F8F0EE409AB0EE480A0CF014F989
:102E100095ED018AB0EE40BAB0EE480A0CF086F8A3
:102E2000F0EE408AB0EE480A0CF006F995ED02CAC1
:102E3000B0EE408AB0EE4C0A0CF078F8F0EE40BAF2
:102E4000B0EE4C0A0CF0F8F86BEE005A2BEEA97AB3
:102E5000B0EE655AA7EE485AA5EEC87A20EE296A68
:102E60006BEE2B7A2AEE877A28EEC00AF0EE466ADD
:102E7000E7EE886AAAEE007AE6EE087A6BEEA8BA68
:102E8000A9EE277A6BEE687A6AEEA66A6AEEA77AEE
:102E9000EAEE2B6AEAEE087A68EEA98AE9EE056A9C
:102EA000E9EE287ABDEC0A8BC4ED006A84ED017A64
:102EB000C4ED027A38BD80EAE073A3EBE0738B4285
:102EC00006DB002801DD401A704702D00844704735
:102ED00000207047F0B506EE900A2DED028B564BA0
:102EE000DFED567A9FED567A564DF8EE668A87B03A
:102EF00068EEA78AD3ED007AF1EE677ACDED007A1D
:102F0000D3ED017A504BB3F90030F1EE677ACDED95
:102F1000017A07EE903A4D4BF8EEE77AB3F90020CC
:102F200067EEC77A0646CDED027A07EE902AB3F92E
:102F30000220B3F90430F8EEE77A03A8CDED037A66
:102F400007EE902AF8EEE77A6946CDED047A07EEAF
:102F5000903AF8EEE77ACDED057AFFF742FF95F863
:102F60004430DDED057A012B1BD1394B5A78394BB2
:102F700072B91A68402192FBF1F1511A07EE101A4A
:102F8000B8EEC77A37EE277ABDEEC77A83ED007ABE
:102F90001A68402392FBF3F306EE903AB8EEE67A15
:102FA00005E02D4B1B8807EE103AB8EEC77A77EE96
:102FB000C77A2A4ACDED057AD2ED007A284B294C02
:102FC00093ED008A9DED030A276878EEA77AC8EE94
:102FD000A78ADDED057A77EEC87AA8EEA78A83ED99
:102FE000008A0BF0DFFF95F83010FFF764FF9DEDCE
:102FF000040A3844206067680BF0D4FF95F830105D
:10300000FFF759FFB0EE480A38446060A7680BF03C
:10301000C9FF95F82F10FFF74EFF134B1A6816449F
:103020001E60124B1A6838440132A0601A6007B063
:10303000BDEC028BF0BD00BFCC040020BD3786354F
:1030400035FA8E3CB41E0020182700200C250020E5
:10305000522500209C0400203E000020182500205E
:10306000E0040020E4240020E8040020C404002040
:103070002DE9F0472DED028B84B002F0CBFF002844
:1030800000F0578106F0B8FFAC4BAD4F1968AD4A60
:103090001860C1EB000A07EE90AAAB4997F82E0022
:1030A000B8EE676AD1ED037A002326EE276A194647
:1030B00001AD05EB4304A54D5E5F07EE906AF8EEA7
:1030C000E77AA34E67EE867AC4ED007AA14CD8B1B8
:1030D00007EE900AB8EEE77AF7EE006A86EE877A96
:1030E000E45E07EE904AF8EEE77A67EE877A36EE0E
:1030F000C77AD2ED006AE6EE877AC2ED007AFDEE7D
:10310000E77A17EE904A00E0E45AF452F45A023398
:10311000062B14FB041102F10402C9D18E4B8F4817
:103120001B88DFF87482642461435B4391FBF3F4F2
:10313000493CA4B201A9FFF754FE3B2C874C5AD955
:10314000874BD4ED020AB3F9003094ED010A854EA5
:10315000DFF8489207EE903AF8EEE77A824BF4EE09
:10316000E70AF1EE10FAD4BF002201225A730BF0E5
:10317000FFFF94ED027AD4ED017A86ED000A27EE86
:10318000070A94ED008AA7EEA70A0CF097F9B1EEB2
:10319000488AF0EE400AB0EE480A0BF0E9FF9FEDD6
:1031A000738A86ED010A96ED000A20EE080A0BF0FC
:1031B000F9FE96ED010AA9F8000020EE080A0BF0CE
:1031C000F1FEA9F802000820FEF71AF9002844D001
:1031D000674801A9FFF705FEB8F86431644A07EEB5
:1031E000103AB8EE477AF7EE007A37EE276A0023F6
:1031F00087EE866A1EE0B8F8621107EE101AB8EE84
:10320000477AF7EE007A37EE276A224687EE866A1B
:103210000023F15E0233062B07EE901AD2ED006A0E
:10322000F8EEE77AE6EE877A67EE866AE2EC016A04
:10323000EFD185E74F49D2ED006A595E07EE901A4B
:10324000F8EEE77A0233E6EE877A062B67EE866AB7
:10325000E2EC016AEED1464808E0474801A9FFF7D1
:10326000C0FD45480146FFF793FD4348FFF7CAFC00
:10327000424B18805046FFF72DFE97F87C30002B0C
:103280003ED094ED010AD4ED007A94ED028A3C4CD4
:1032900020EE000AA7EEA70AA8EE080A0CF00EF925
:1032A00088EE000ADFED377AB4EEE70AF1EE10FAA5
:1032B00002D80023238023E00BF0FCFE324BD3ED39
:1032C000007A20EE270A0BF06DFEB0F5617FA8BFF3
:1032D0004FF4617007EE900AB8EEE70ADFED2B7A43
:1032E00080EE270A0BF0A8FE154B93F87C3007EE12
:1032F000903AF8EEE77A27EE800A0BF053FE208032
:1033000098F80530012B224B0DD1224AB5F9040063
:103310001488022114FB0101032091FBF0F189B212
:103320009980118001E0AA889A802A881A806A8888
:103330005A8004B0BDEC028BBDE8F087B4040020D5
:10334000B41E00206C040020DC260020DC240020B9
:103350000C250020F42400203E0000201C25002025
:1033600000050020CC040020522500204C3D0F44D5
:10337000F00400200025002018000020182700205D
:10338000D80400208FC2753C14250020EFB6B0444D
:103390008C040020B0040020B81F00208804002006
:1033A000044A0023136053609360034A1360034A86
:1033B00013607047E4240020C4040020E8040020C7
:1033C0002DE9F84F2DED048B06F016FEBB4BB3F83C
:1033D00002A0B3F800B0BA4B1A68821A09EE902A1C
:1033E00019EE901A46F2A712914240F2EE81B54EC4
:1033F00018603388DFF84493B34C9FEDB49AB44F10
:10340000DFEDB48AB44DDFF83883B7EE008A53B3EA
:10341000B24894F83130D9F800100268DFEDB00AF4
:10342000013BB1FBF3F1082392FBF3FECEEB02026A
:103430000A4492FBF3F306EE103AB8EEC60A0260B5
:1034400080EE090A0BF096FE00232B60C8F80030CE
:103450003388013B338038EE400A20EE280ABDEE67
:10346000C00A87ED000A94F83130D9F80020DFED6A
:103470009C0A9C4E013BB2FBF3F306EE903AB8EE89
:10348000660A0FFA8BFB80EE090A0BF073FE0FFA47
:103490008AFABBF1000FB8BFCBF1000BBAF1000FF5
:1034A000B8BFCAF1000AD345A8BFDA461FFA8AFAA4
:1034B00038EE400A20EE280A0BF074FD3B68D4ED8C
:1034C0000D7A96ED006AC01A06EE900AB8EEE60A8A
:1034D00078EE676AB8EEC67A20EE260A0FFA8AF707
:1034E000A7EE270A0BF05EFDFA2F7F4B03DD4FF0AE
:1034F000FF321A6013E093ED007A07EE907AF8EE4F
:10350000C76AB8EEE77ADFED797A37EEC77A26EE4A
:10351000877AC7EE277AFDEEE77AC3ED007A1B685B
:103520005A1EC62A724A03D8C01A1060336025E0BA
:103530001268002BC2EB000030601FDDC3F59671EE
:1035400007EE101ADFED6B7A6B4AB8EEC77A06EE1B
:10355000103A87EE277A634BF8EEC66A06EE100A39
:10356000F8EEC67A38EE476A82ED007A67EE867A20
:10357000E6EE877AFDEEE77AC3ED007A5F4BDFED8A
:10358000605AD3ED007A5F4B94ED0F6AD3ED026A77
:103590005D4B5E4A93ED007A5D4B1168F8EEE66A8A
:1035A000B8EEC77AF8EE677AC6EE878A914693ED51
:1035B000007AD5ED006A336828EE877A67EEA55A5F
:1035C00027EE277AB6EE005A66EEA57A27EE055A60
:1035D000C91AE5EE257A09311229D8ED005A98BFAB
:1035E000136077EEA55A07EE903AB8EEE75A78EEF8
:1035F000467A36EE877A65EE277A85ED007AE5EE33
:10360000867AC8ED007AFFF7CBFE424B3268196824
:103610009FED417A1A60511A07EE901AF8EEE77A98
:10362000F8EE699A67EE877A40F2DC52C7EEA99A03
:103630003A49FDEEE99A19EE900A04F009F80A21D8
:10364000FFF739FCD4ED0E7A95ED007A06EE100AFC
:1036500038EE678AB8EEC60A20EE080AA7EE270AF7
:1036600085ED000A0BF09EFC05218046FFF723FC48
:103670002B4B2C4D1860B7F5487F2B4F80F29F8065
:103680002A4B1B78002B5DD1294B2A491868D9F8A1
:1036900000304FF4FA72C01A03F0DAFF0A21FFF784
:1036A0000AFC094B24491B798022584390FBF2F015
:1036B0004FF4967203F0CCFF46E000BF8804002070
:1036C000AC04002036090020B41E002080E6C54767
:1036D00084040020D048874A68040020EC040020BD
:1036E000B1DC423EA404002014000020000061442C
:1036F000A80400200000C84278040020E80400204C
:10370000BD378635E4240020C4040020FC240020BA
:10371000F0240020C80400200024744924FAFFFF8C
:10372000E4040020FC04002080040020C2040020E7
:10373000082500200CFEFFFFD4FEFFFFDC04002064
:1037400094040020234B1868C8EB0008A07A224993
:10375000224E202308FB00F090FBF3F04FF496720A
:1037600003F076FF33682860207D1D491D4A08FB61
:103770000030306003F06CFFA47F97ED007A30607A
:1037800007EE904A38EE877AF8EEE77A2B6867EE14
:10379000877A9FED157A67EE877A42F20406FDEE8E
:1037A000E77A90FBF6F61E4417EE900A6FF095014B
:1037B00096222E6003F04CFF301A286001E00023AF
:1037C0002B60C7ED008A012000E00020BDEC048BD7
:1037D000BDE8F88FD4040020D4FEFFFFA004002031
:1037E000E0FCE6FF200319000000003BF0B50120DB
:1037F00087B007F003FB07F0A9FB0028FBD0974B2D
:10380000974D012200201A60FDF72CFEFDF77AFD8E
:103810000AF098FB0BF0E8F9286008F0CFFF09F0F8
:10382000D9F84FF40040FDF70BFEA8B10AF0E0FB19
:103830008C4B4FF400425A8314268A4C636983F4FC
:10384000004363611920013E06F001FC16F0FF06FB
:10385000F3D14FF40043638303F002FF0F20FDF721
:10386000D9FD02F0DBFA0120FDF7CAFD10B90320F3
:1038700006F0F8FB00237C4A40F2DE5199520233F5
:10388000242BF8D1794B7A4A1A6008206875FDF725
:10389000D7FDC0B1774B93F88731042B13D8DFE8FD
:1038A00003F00303070B0F00704802F0EBF90AE086
:1038B0006E4802F0DBF806E06C4802F05FFA02E0C6
:1038C0006A4802F091F84FF40060FDF7B9FD10B1BD
:1038D000694803F0DBFF4FF48070FDF7B1FD20B1C4
:1038E000644B93F89B01FEF741F94FF40020FDF77C
:1038F000A7FD08B104F00AFF604F20237B83594BDA
:103900004FF480421A8314267B69564C83F02003BF
:103910007B61192006F09BFB636983F4804363613C
:103920001920013E06F093FB16F0FF06ECD1534B35
:1039300020221A834FF48043638302F093FEFFF743
:10394000BDF901F025FB4FF48070FDF779FD08B952
:10395000002308E00820FDF773FD0028F8D0EB688D
:10396000003318BF01234FF480308DF80730FDF786
:1039700067FD8DF808000120FDF762FD18B90820E9
:10398000FDF75EFD00E0012000F001008DF805006C
:103990000820FDF755FD8DF806004FF40040FDF7B7
:1039A0004FFD8DF804002020FDF74AFD314C20B971
:1039B00063795D1F6B426B4100E001238DF8093094
:1039C0006379591E4A424A41B3F10E0043424341D2
:1039D0008DF80B30B4F84E31ADF80E30B4F85031EC
:1039E000ADF810304FF480404FF47A738DF80A2010
:1039F000ADF81230FDF724FD20B11E4BB3F84A316B
:103A0000ADF81230BDF80E30B3F5FA7F84BF002355
:103A1000ADF81230B4F88A31ADF81430184B01A863
:103A2000B3F8D230ADF8163009F028FB06F0E4FA0E
:103A3000144B18606379052B03D1134B4FF4C872F4
:103A40001A80124B4FF47A721A80114BC8221A80D6
:103A5000104B01225A7300F01BFDFCE70405002007
:103A600028250020000C02403E260020DC05002016
:103A7000B1430008B81F0020004800400008024081
:103A8000B41E0020800500203409002046090020D3
:103A90003609002052250020054B20225A834FF47E
:103AA0008042A3F81A244FF40042A3F81A24FEE738
:103AB000000802402DE9F04F854BB3F90220B3F91D
:103AC000003087B0002AB8BF5242002BB8BF5B421B
:103AD00000249A42B8BF1A4605922546A0462746BA
:103AE000A446A2462646DFF800B29BF803301BB975
:103AF0009BF80430002B40D0022E3ED0754B744909
:103B0000B3F86821744B485F5B5FDFF8E091514286
:103B100003EB400003F09CFD704B99F81C2035F935
:103B200003C005EB0903CCEB0000B3F92A3000EB2E
:103B3000030C99F80800CDF810C000FB0CF06423CA
:103B40006FF00401514390FBF3F002EB820203F0AB
:103B50007FFD634BDDF810C062498246E058039355
:103B6000604442F2107203F073FD039B99F812C097
:103B7000E0500CFB00FC4FEA2C3C9BF8033023B1D7
:103B8000594B1B790BB9022E40D1584BDFF840B18D
:103B9000DFF884813BF90570554906EB030907EB13
:103BA000870099F80130000190FBF3F0514BEA5E79
:103BB000801A54F80820039310444FF47A52CDF839
:103BC00010C003F045FD039B48F80400EB5EDDF8F0
:103BD00010C0002BB8BF5B42B3F5207F08DC022E7B
:103BE00009D1BBF90430002BB8BF5B42642B02DD66
:103BF000002348F8043058F804207D2392FBF3F8A2
:103C000099F80B3003FB08F84FEAA818364B1A79DD
:103C1000A2B1022E12D0DDF81490C9F5FA7309FB97
:103C200007F109FB08F003FB0A114FF4FA7203FBDA
:103C30000C0391FBF2F193FBF2F308E0DB780BB19C
:103C4000022E02D14346394601E0634651462A48D6
:103C5000284A16F800B0AA5A6FF04F0012FB0BFB6F
:103C60009BFBF0FB594401912449685E6A520FFAAC
:103C700082F9C0EB0900224ADFF8A090A15854F85D
:103C800009B0A0501F4A44F809108B44B25CCDF82B
:103C900008B0834402FB0BF1202291FBF2F1019A60
:103CA000581A1044184AA852184A0198A050184AA5
:103CB0000136A350174B4942032EE15005F102058E
:103CC00004F104047FF40FAF07B0BDE8F08F00BF2C
:103CD000C0250020B81F0020F00500208804002027
:103CE000FC050020F0D8FFFF52250020B41E002064
:103CF00080C1FFFF8C04002065260020760500208F
:103D00008805002062260020CC2500200C260020FB
:103D100068250020B42500200C050020C0050020E7
:103D20002DE9F84F002425462746022F4A4EDFF89A
:103D30005C8107D196F82430B8F904201B33534333
:103D40005B1130E0454B38F90500EB5E44491844FF
:103D50004FF4FA7203F07CFC424B7219EB5EB2F93D
:103D60002A20C01A831807EE103AF8EEC77AB2EE8E
:103D7000047AC7EE877A3C4AD378FDEEE77A17EEED
:103D8000901A6BB996F8233038F9050012791B3375
:103D900043431B113AB1B27C514303EB212302E0B0
:103DA000337A4B431B11314ADFF8E4B035F9028016
:103DB000DFF8E090BBF800002D493E44C8EB030853
:103DC000F27A54F8093096F801A000FB08F0C0120E
:103DD00002FB00304FF4001244F8090003F038FCF5
:103DE000244BDFF8B4C0E15844F80380BBF800303E
:103DF00044F809004FF6FF721B09B2FBF3F31E4AA9
:103E0000C1EB08010AFB08FA594354F8028054F840
:103E10000C3044F80C808911A1504344727D0B444E
:103E20004FEAEA1A401353431B12144A0AEB0001EB
:103E30001944A952124A44F802A0124A0137A0506C
:103E4000114A032FA35005F1020504F104047FF485
:103E50006CAFBDE8F88F00BFB41E0020F005002055
:103E60000CFEFFFF88040020522500208C04002057
:103E70000000E0FFE0050020AC050020CC2500207C
:103E80000C26002068250020B4250020C025002035
:103E9000F60500200C0500209C05002008B5074B06
:103EA0005A780AB100225A704FF40020FDF7C8FA80
:103EB00018B1BDE8084004F011BC08BD522500202F
:103EC000084B094A1B681168591A002909DB03F5D8
:103ED000F42303F590731360044B5A6982F4004293
:103EE0005A61704730050020A8050020000C0240F0
:103EF0002DE9F0478046894692460025EBB25345AE
:103F000016D20024E3B243450DD20A4B0A4E5A6939
:103F1000102782F020025A614846378306F097F84E
:103F200001347783EEE73C2006F091F80135E5E7B0
:103F3000BDE8F087000802400000024008B5104BC1
:103F40001A88104B92B99A7882B15A78BAB901227C
:103F50005A700D4B1A880D4B4FF400201A80FDF754
:103F60006FFA60B1BDE8084004F0CCBA5B7833B9B1
:103F70000220FF210122BDE80840FFF7B9BF08BDBC
:103F80004609002052250020182700203C2600204A
:103F90002DE9F04FC04BB3F90600C04B2DED028B5D
:103FA000DA8C904285B00FDBB0F5FA6F93F82540BC
:103FB00007DA811A4C43A2F5FA6294FBF2F46434F6
:103FC00003E0C4F1640400E06424B54A93F823706C
:103FD000B2F88A1192F95C210091524292B293F8A0
:103FE000765093F8776093F824300292002101977D
:103FF00003930A46A84BDDF8008031F903C0C8EBF3
:104000000C0303F2F31E40F2E637BE4503D8002B43
:10401000B8BF5B4201E04FF4FA73022ADFF88C82EA
:104020002CD025B1AB42CCBFC5EB030300236427E2
:1040300093FBF7FEDFF8CCA26FF0630B3AF81E900B
:104040000BFB0E3B0EF1010E3AF91EA00FFA89FE92
:10405000CEEB0A0E0EFB0BFE9EFBF7FECE4428F8BD
:1040600001E0DDF8048003FB08FE8E4B9EFBF3F3BA
:104070003B449BB2634393FBF7F714E026B1B34292
:10408000CCBFC6EB03030023DDF808E003FB0EF70B
:10409000A8F80470039F002BB8BF5B427B43814F9D
:1040A00093FBF7F764377D4BDFF85C8202EB030E7E
:1040B00064239EF8019007FB09F999FBF3F902F8D4
:1040C00008909EF80B90DFF844829EF815E007FBFD
:1040D00009F999FBF3F907FB0EF702F80890DDF8F0
:1040E000008097FBF3F3704FC445D3556F4F02DA4E
:1040F0007B5A5B427B520132032A01F102017FF4B9
:1041000079AF674E694CB6F88C114FF4FA6203F040
:104110009FFAB6F88C314FF47A75C01A4543C3F54F
:10412000FA63B5FBF3F5642195FBF1F360486FF09A
:10413000630E30F813200EFB0355013330F91300E2
:1041400013B2C31A5D4395FBF1F15A4D6B7A0A44E1
:10415000FA80D3B3584BDFED597AB3F90020584BAE
:10416000B3F90030D31A08EE903AF8EEE88A68EE18
:10417000A78ADFED547AC8EEA78AB0EE680A0AF083
:10418000D5FEB0EE408AB0EE680A0AF055FFB4F9E9
:1041900002E0B4F9001006EE90EA07EE901AF8EE8D
:1041A000E66AF8EEE77A20EE667AA7EE887A67EE9E
:1041B000807ABDEEC77AE6EE887A17EE103AFDEE09
:1041C000E77A238017EE903A63800220FDF738F9F2
:1041D000002858D03C4C3D4B3D4F1A88236813446F
:1041E0003C4A236013780133DBB213700622B3FB21
:1041F000F2F802FB183818F0FF0836D1364B1A686F
:104200004FF0080992FBF9F0101A344A118808445B
:10421000186090FBF9F080B201F06AFE96F87E31EA
:10422000388013B32E4B1A6892FBF9F0101A1860FD
:1042300090FBF9F080B201F07DFE2A4B22681860F5
:10424000294B42434FF47A7192FBF1F2D3E900011A
:10425000801841EBE271C3E90001244A00230DF00C
:10426000BFFC234BC4F800801860224B3A881B889F
:104270009342214B03D396F87D11914201D900223C
:1042800000E004221A701D4B1B88002B40D11C4BF0
:104290001B88002B41D146E03E260020B41E0020A2
:1042A000B81F00200CFEFFFF62260020C025002062
:1042B000802500205225002018270020DB0F4940D0
:1042C0003C2600200000344304060020F6050020B0
:1042D000C8250020F9050020B80500202C05002085
:1042E000D00500203826002020050020407E050053
:1042F00078250020CA2500209805002034090020D8
:10430000460900207826002065260020302600205F
:104310000220FDF775F80028B9D0204B5A6982F0C9
:1043200020025A610BE0AB7813B11C4B20225A8358
:104330006B7813B1194B20221A8303F0B9FA184B8A
:1043400018491B680A689A1A002A10DB687B164A0B
:1043500058B99070114A506903F5F42380F0200099
:1043600003F5907350610B6001E00123937002F03C
:1043700015FA0E4B1B785BB94FF40060FDF760F83F
:1043800030B105B0BDEC028BBDE8F04F03F091BA3F
:1043900005B0BDEC028BBDE8F08F00BF0008024005
:1043A000300500202805002052250020F8010020BB
:1043B000024B184490F87F0108F0C6BDB81F0020DA
:1043C0002DE9F0410820FDF73BF8DFF8A480234FEA
:1043D000002837D1224C06460546D8F80030E8B20E
:1043E0009847A0F2EE2240F2DC5392B29A4288BF84
:1043F0001C4B1D4988BFB3F88A010A681B4B134048
:10440000002B03DA013B63F00303013303EB850C5C
:10441000134B23F81C00208863880344A0880344BE
:10442000E08803441BB20420013593FBF0F3082D10
:10443000BB5304F1080406F10206CED101320A6032
:10444000BDE8F0810024E0B2D8F80030984727F8A2
:1044500014000134082CF6D1BDE8F0813E2600207E
:1044600034050020B81F0020D8050020030000807C
:10447000DC0500200128034B14BF034A034A1A60DD
:10448000704700BF28000020B53A0008213D000811
:104490002DE9F84F08202DED048BFCF7D1FFA74D37
:1044A000C0B195F88731042B13D8DFE803F003037C
:1044B00006090C0001F0E0FB0CE001F005FB09E04F
:1044C00001F076FC06E001F081FA003018BF01200F
:1044D00000E000209A499B4A0B6814681C1B002CC2
:1044E000884602DA002800F0FD8203F59C43203361
:1044F0001360FFF765FF4FF48040FCF7A1FF20B188
:10450000914B1B780BB9FFF7C9FC4FF40070FCF717
:1045100097FF8E4F00283BD08D4E8E4C96F8CE30B4
:10452000B4F9001003EB830291421CDDDFF82C92FA
:1045300099F80120BAB1B5F88A213A807A80BA8018
:10454000B6F8D020FA8096F8CF20134403EB83030B
:10455000994204DDFFF7A2FC002389F800307E4B6E
:104560001A8801321A8096F8CE30B4F9002003EB95
:1045700083039A4209DD794E96F80190B9F1000F54
:1045800003D1FFF78BFC86F800902388013323804A
:104590000022B5F88C01B5F88E411346B95E9B0830
:1045A0008142C4BF63F07F03DBB20232A142B8BFD5
:1045B00043F04003082AF1D1694CDFF8CC9122780E
:1045C0009A4205D199F80020F92A04D8013200E076
:1045D000002289F800204FF480402370FCF730FF60
:1045E0005B4E58B1B5F88A11B5F84C21B7F90630D1
:1045F000881A834202DD0A4493420DDB4FF4804067
:10460000FCF71EFF30B9B7F90620B5F88C319A4295
:1046100002DB12E0002010E0524A002313605360D6
:104620009360514A13605360B6F8463023B1464B4D
:104630001B78002B40F02E840120B6F846306BB179
:10464000414B1B7853B9454B5B783BB195F89131A1
:1046500013B1FFF723FC01E00028FAD199F80030EC
:10466000142B40F0C4803D4B93F801B09A46BBF147
:10467000000F18D0B6F8463023B923785F2B01D14C
:10468000FFF70CFC95F89031002B00F0B080B6F8E5
:104690004630002B40F0AB8023787D2B40F0A78084
:1046A000FFF7FCFBA3E02378572B18D12F4B4FF4D7
:1046B0007A724FF480701A80FCF7C2FE08B1FDF7E1
:1046C00079F90420FCF79CFE10B1294B0A221A80CC
:1046D0000820FCF795FEE8B9264B18801AE0042064
:1046E000FCF7AEFEB0B11E4B1B785A2B12D1224BF9
:1046F0001A7822B183F800B00122204B09E0204B48
:104700001A7882F001021A701E4B0AB1022200E0F0
:1047100003221A7023785D2B00F0C5835B2B00F019
:10472000C4835E2B00F0C383B6F8463073BB227897
:104730006F2A2BD1FFF702FC3CE000BFB81F00201E
:104740003005002094050020E22500203E260020B0
:10475000B41E00200A050020D405002052250020A8
:10476000990500200C050020FC05002046090020CA
:104770003609002018270020FA05002074050020C3
:10478000840500200C060020EE05002095F89021FD
:104790001AB113B923787E2BCCD02378972B04D170
:1047A000844B4FF4C8721A8004E0A72B04BF012386
:1047B0008AF80E302378BB2B02D1B38D023303E08D
:1047C000B72B03D1B38D023BB38509E0BE2B02D1D9
:1047D000738D023303E0BD2B09D1738D023B7385CA
:1047E00001200146FCF796FD002389F800300420E3
:1047F000FCF726FE48B3704A704B117871B17049CE
:10480000497859B1B7F90600B5F88C11884205DD31
:10481000197819B96B481170322404805B7C53B14C
:10482000694B1A782AB9694A127812B9654A322155
:104830001180012208E0654B1A7832B1604A527843
:104840001AB91A70624B01221A70624801230022C1
:1048500030F8021FA1F21554B4F5C77F8CBF0024B5
:1048600001249C4009B2224340F21354A142CCBF20
:10487000002401245F1EBC40224340F2A464A142F4
:10488000D4BF002101215C1CA14003330A430D2B3E
:1048900092B2DDD1002306EB4301484FB1F8461038
:1048A0000A420CBF00210121D9550133182BF2D146
:1048B0007B78434C4BB9484BB3F90020474B93F8F6
:1048C000CE3003EB83039A420CDD0220FCF798FD07
:1048D00040B1E37843B9424A13605360384B012238
:1048E000DA7001E00023E370BB7853B10023E3707A
:1048F00023793BB93A4A13605360314B01221A7154
:1049000000E023713B780BB901232370E278354B2B
:1049100012B92B4A12791AB14FF480421A8302E07D
:104920004FF480425A830420FCF76AFD10B3FB78F1
:104930008BB1A37983B9224A012191712A4A116866
:104940002A4A11602A4AD1882A4A11802A4A1360C9
:104950002A4A136000E0A3714FF40050FCF770FD89
:1049600040B13B792BB1E37B23B9154B0122DA73BC
:1049700000E0E3730220FCF743FD10B17B7933B90B
:104980000FE00820FCF73CFD0028F7D143E06379F5
:1049900043B90B4B01225A71194B1A88194B1A80D3
:1049A00000E06371BB797BB3637A73BB044B012274
:1049B0005A722AE03409002084050020E2250020F4
:1049C00052250020BC050020CC050020FA0500205F
:1049D00074050020442600200A050020B41E002093
:1049E000FC050020000C0240FC24002008250020CB
:1049F000C0250020EC050020A0040020FC040020BD
:104A000018270020D82600206372FB791BB19B4B2E
:104A10001A889B4B1A802020FCF7F2FC002853D008
:104A2000E27A984B002A4AD0974A1278042A46D94B
:104A3000964A4FF400411183BA7A7AB1DA79002AA2
:104A400044D101219248D9711A72924B011D1A70FA
:104A5000FDF726F9904B02221A7037E0DA718F4A7F
:104A6000D27A12B38E49B6F8E220B1F900000028DC
:104A7000B8BF4042904218DAB1F902100029B8BF1D
:104A80004942914211DA1A7A02BB01261E72814B09
:104A900084481A70844B011D1A685B684360026089
:104AA000FDF7FEF87C4B1E7010E000232372794B5B
:104AB0001A785AB901221A70FCF7A4FF06E0764A68
:104AC0000023E37123721370FFF7FAF93B7B03B104
:104AD0000123A3726B79082B01D00E2B39D100234F
:104AE000637236E0714C2368042B32D8DFE803F0A0
:104AF000030C16202B00012308202360FCF780FC08
:104B000010B101F03FFC20BB236804200133236077
:104B1000FCF776FC10B101F045FAD0B92368042007
:104B200001332360FCF76CFC10B1FEF749FC80B93F
:104B300023684FF4807001332360FCF781FC10B1CF
:104B4000FDF75EF905E000234FF400502360FCF709
:104B500077FC05F051FAAA89C8F80000544B22B13D
:104B60001968411A0029C0F2B38110441860FEF799
:104B70007FFA05F041FA4F4B4F491A68C8F8000018
:104B8000821A18600A80FFF703FA0820FCF738FC45
:104B90004A4E002831D0424A918801F145039BB228
:104BA0008A2B1446354B464A25D83648477917B3E1
:104BB0001F881388407BFA1A92B293B21FB2B337A0
:104BC000BCBF02F5B4739BB21AB2B32AC4BFA3F53B
:104BD000B4739BB295F85C2178B152B25242534300
:104BE000727A9BB213FB02F36FF01D0293FBF2F398
:104BF0001944A18001E01B8813800420FCF700FC0D
:104C0000002800F09C801F4B9A79002A00F09780C2
:104C1000187C234C002840F08A8096F87910294FA0
:104C200096F87820284B002958D0B4F806E0B7F958
:104C300000100FFA8EF7C1EB070CBCF1000FB8BFE4
:104C4000CCF1000C94450DDD8F42C8BF52421F4D80
:104C50001FFA8EFEC8BF92B22860724401201870FD
:104C6000E2806CE01A7822B1194A18701768194A64
:104C70001760194B1868084451E000BF182700203E
:104C80003C2600205225002036260020000C024041
:104C9000D42500202C0000207C050020E2250020E7
:104CA000C0250020A025002018260020180500207F
:104CB0000806002080050020F6050020B41E002014
:104CC000D8260020EC050020F8050020A0040020D4
:104CD000FC24002008250020FC040020B7F9000077
:104CE000B4F906703F1A87EAE77EAEEBE77E964599
:104CF00009DD022297FBF2F7774A78491760012213
:104D00000A701A7008E01A7832B1754A197017687B
:104D1000744A1760714A1170734B1B681844B5F8D8
:104D20004011B5F8422102F093FCE08007E06E4BA1
:104D3000628895F992111B6801FB0323638096F842
:104D40007C3053B1694BDA780AB91B792BB1684BC7
:104D5000684A1188DA880A44DA802020FCF750FB80
:104D6000002800F08580614BDA7912B91A7A002A9E
:104D700079D01B7B002B76D05F4BDFED607AB3F9E7
:104D8000003008EE103AB8EEC88A28EE278AB0EE56
:104D9000480A0AF051F9F0EE408AB0EE480A0AF0EB
:104DA000C5F8524B1B7CB0EE409A002B60D196F8B0
:104DB000DB30534F534E544DB2EE048A83B3534C01
:104DC000B6F90200B4F802800FFA88F3C01AFCF7B3
:104DD000B1FF97F8DB20514202F03AFC4044B4F8AE
:104DE00000806080B6F900000FFA88F3C01AFCF763
:104DF000A1FF97F8DB20514202F02AFC40441FFA41
:104E000080F8A4F80080B4F902400FFA88F807EEA1
:104E1000104A07EE908AB8EEC77AF8EEE76A0BE020
:104E2000B6F90220B6F9006007EE102A06EE906A85
:104E3000B8EEC77AF8EEE66A68EEE67AE7EE097A47
:104E400026EE899AC7EE887AA7EE289AFDEEE77AD1
:104E500089EE089A17EE903ABDEEC99A2B8019EEAA
:104E6000103A6B8004E0284B00221A805A809A8006
:104E7000274B1B68984700F08FF900F079F94FF441
:104E80000020FCF7DDFA18B3BDEC048BBDE8F84F49
:104E900002F092BE154B1B78002B3FF4CDABFFF711
:104EA0004DF8FFF7C9BB012202E0022200E0032215
:104EB0005FFA82FB00200BF1FF33014685F8BC341A
:104EC000FCF728FA022028215A46FFF711F82BE4B4
:104ED000BDEC048BBDE8F88FD4040020C204002090
:104EE000FC24002008250020FC040020522500207E
:104EF000C0250020D80400201827002035FA8E3C59
:104F0000B41E002098250020F00500207C250020FC
:104F100028000020074B0A2202FB0033B3F882303E
:104F20001AB2112A04DC0728DCBF034B33F8123015
:104F300018B27047B41E00203E260020074B0A22FC
:104F400002FB0030B0F8863043FA01F111F0010F96
:104F50000CBF01204FF0FF30704700BFB41E00208F
:104F600010B500244FF48040FCF76AFA064B10B1EC
:104F7000B3F84A3101E0B3F84431044AA352023491
:104F8000182CEFD110BD00BFB81F00209E260020B6
:104F9000F8B5594C594D6379594F05EBC30320209F
:104FA0005B78003318BF0123BB75FCF749FA08B1E1
:104FB0000123BB756379172B19D100256319D3ED34
:104FC000047AF5EE407AF1EE10FA02D1BB7D63BBB4
:104FD00025E010330FCB4B4E2E4486E80F004A4B92
:104FE0001A7810350132C02D1A70E7D1EEE715F8A6
:104FF00033E0454A05EBC30582F800E0D5F804C06C
:10500000BCF1000FE2D000257545DFDA3D4E2B01E3
:105010001E4463440FCB013586E80F00F4E74FF4DC
:105020008040FCF70DFA20BB1CE06279374B384911
:1050300013F83200087003EBC2035D68002DEED058
:1050400000238342EBDAC3EBC3016A18314FD2F875
:1050500000E047F801E07E189188B1809279B27142
:105060000133EEE7637903F0EF02082A2A4A20D1E0
:1050700021E0254B19780129F4D9284B00228A42D6
:1050800003F11003EEDA13ED047AF6EE007A27EE60
:10509000277A013203ED047A13ED057A27EE277A99
:1050A00003ED057A13ED037A67EE277A43ED037A71
:1050B000E5E70E2B19D10121182B117417D100230C
:1050C000E21892F9D21091B1124852F8D05FC5504F
:1050D000C118908892798A710D4A888011780733B7
:1050E0000131702B1170EBD101E000231374BDE886
:1050F000F840FFF735BF00BFB81F00200443010888
:1051000028250020300600202F060020284701080F
:105110002E060020F0060020522500203806002030
:105120002DE9F0410023461C0F4A99181033002046
:10513000C02B08619446F7D10C4B03EBC60298468E
:10514000576877B1002418F836309C4209DA2301F9
:105150000CEB03053B440FCB103585E80F00013401
:10516000F1E7BDE8F08100BFB81F0020044301084B
:1051700010B50023D8B25C1C054B1B78834206D9BE
:10518000044B33F8101007F0C3FE2346F2E710BDBE
:105190002F060020862600202DE9F04FB54B1A7807
:1051A000032A8BB00FD9B44BB44CB3F90420B4F933
:1051B0000400002AB8BF52426FF06301891A6432BA
:1051C00002F046FAA080AB4A1178012905D8AC4E0E
:1051D000AC4D337C002B3FD14FE0A74BAA4AD88877
:1051E000A64B92F9D4205C881D88B3F90430524252
:1051F00003FB02FEA54B00228A4203F11003E6D214
:105200002EB207EE90EA06EE106A06B205EE906A3C
:1052100026B2F8EEE76A07EE906A13ED027A9C4E2A
:10522000F8EEE77AF8EEE55A67EE877A13ED047A3E
:10523000E5EE877AB8EEC66A13ED037AE6EE077AF2
:1052400013ED017AE6EE877AFDEEE77A17EE907AB3
:1052500026F812700132CFE773788D4C1BB9B5F880
:105260004431238009E0844BB5F84011B3F90600BE
:10527000B5F8422102F0ECF920806A79013AD2B205
:10528000172A00F228814FF00108824808FA02F23A
:10529000104030BBD20640F11E81DFF8ECA1DFF8F0
:1052A00010929AF884B0B9F802707B4CFFF732FE86
:1052B0004FFA8BFB1BFB07FB32279BFBF7FB58448A
:1052C0009AF88EA02080B9F800904046FFF722FEA1
:1052D0004FFA8AFA1AFB09F999FBF7F7384460800C
:1052E000F9E0B37A0BB1644B00E0644B1A88ADF877
:1052F00010205A88ADF812209B88ADF81430644B0A
:10530000664A1B881189ADF81630B5F88A31591AEA
:10531000ADF818105189591AADF81A109189591A17
:10532000ADF81C10D189591AADF81E101188591A00
:10533000ADF820105188591AADF822109188D28802
:10534000591A9B1AADF82410ADF8263000242046D7
:10535000FFF7E0FD504B23F814000134082CF6D180
:105360004FF000084E4B1B785FFA88F4A34240F2DE
:10537000A1804C4AE000031B13449979134621B1E4
:10538000494F3944097D00296DD0011B0B44575CFE
:105390003D4A93F905A093F904B093F801900A21CE
:1053A00001FB0721B1F88000B1F87E20821A92B289
:1053B000642002FB0AFA510802FB0BFB9AFBF0FA8D
:1053C0009BFBF0FBC1EB0A0AD8781FFA8AFAC1EB03
:1053D0000B0BCDF808A01FFA8BFBDFF8D0A04FEA2B
:1053E000490230B90AAB1A4432F8182C2AF81420B2
:1053F00012E00AA911443AF9142031F918EC724567
:1054000003DA10441146724602E005DD101A7146B7
:1054100002F01EF92AF81400DFF87CC049463CF877
:10542000173003933846CDF804C0FFF787FD1D4AB7
:105430003AF81430C4EBC4041444814694F90200D1
:1054400010FB03F0642390FBF3F0029B0FFA8BF147
:105450001AB202F0FDF8039BDDF804C000FB09302E
:105460002CF8170002E0114B23F8141008F1010882
:1054700078E700BF2F060020C0250020CC250020A3
:1054800052250020B81F0020B41E00203006002046
:1054900086260020892098002E0000203E2600202D
:1054A0002E060020F0060020E22500200E06002037
:1054B000880400207A4A00237A48518818440A3325
:1054C00090F9840010FB01F1642091FBF0F1502B66
:1054D00022F8021FF0D12020FBF7B2FF714F002805
:1054E00044D00020FFF716FD6F4C8046208001203D
:1054F000FFF710FD6D4B60801B7ABBB397F8D63079
:1055000097F88E1013F0020F694B1CD01A8897F988
:1055100084E0B3F9023049B211FB02F1CEF1000E82
:10552000322203FB0EF391FBF2F16FF0310E89B2E0
:1055300093FBFEFE8E4493FBF2F2F0441144A4F878
:105540000080084411E05A8897F984E01B881EFB0C
:1055500002FE49B232229EFBF2FE11FB03F1F0443F
:1055600091FBF2F2A4F80080104460804C4CDFF80C
:10557000348104F11009B4F90200B8F97E10B8F9C9
:10558000802002F065F824F8020F4C4508F10A0863
:10559000F1D197F8D6305B0706D4464B464F1A78C0
:1055A000B7F8008001230FE0444BDF7D0024043F67
:1055B000434B03EB4403E019C0B21989013407F0EF
:1055C000B5FC042CF4D1E8E793420AD237F9131062
:1055D0000FFA88F84145A8BF88461FFA88F80133BA
:1055E000F2E70024A146334A1378994554D2B5F81E
:1055F00042310FFA88F29A4204DD3A5BC8EB0303AA
:1056000013443B534FF48040FBF71AFF2C4B824668
:1056100098B1B3F90610B5F88A212A4B385F914248
:10562000C7BFB3F84811B3F84221B3F84411B3F837
:10563000462102F00DF8385325E03A190292385FFE
:10564000B5F84221B5F84011019302F001F8019B31
:10565000DFF870B0B3F90620B5F88C3138539A42B0
:105660000FDA1020FBF7ECFE20B9029ABBF84031AC
:10567000138008E0029ABBF844311380012373744D
:1056800001E086F811A0737813B90F4BE35A3B532E
:1056900009F101090234A6E70BB0BDE8F08F00BFA5
:1056A0002C000020B41E00202E000020E225002047
:1056B000880400202F0600208626002028250020B0
:1056C0003E260020B81F00209E260020F0B50124B1
:1056D000B0FBF4F58D4201D34C43F9E70026DCB171
:1056E000B0FBF4F504FB1500B4FBF1F41EB9002D7A
:1056F00001DC002CF3D1092D03F101075FFA85FCD1
:1057000004DD002A0CBF5725372500E0302565440D
:105710001D7001363B46E2E71C70F0BDF0B5012478
:10572000B0FBF4F58D4201D34C43F9E70026DCB120
:10573000B0FBF4F504FB1500B4FBF1F41EB9002D29
:1057400001DC002CF3D1092D03F101075FFA85FC80
:1057500004DD002A0CBF5725372500E030256544BD
:105760001D7001363B46E2E71C70F0BD2DE9F041AB
:10577000069C002B06460F460CBF4FF020084FF04A
:105780003008234613F8011B09B9154603E0002A27
:10579000FBDD013AF6E7002D04DD30464146B8470F
:1057A000013DF8E714F8011B11B13046B847F9E79D
:1057B000BDE8F08103685A1C0260197070472DE93A
:1057C000F04F074689B0884615469B462978002940
:1057D00000F0B780252902D001353846AFE06C785B
:1057E000302C03D002354FF0000903E0AC784FF0C5
:1057F00001090335A4F13003092B4FF0000619D835
:10580000A4F13003DAB2092A05D80A2202FB0636CF
:1058100015F8014BF4E7A4F16103052B02D8A4F1BC
:10582000570305E0A4F14103052B03D8A4F1370386
:105830000A2BEADD6C2C03BF2C78012201350022F3
:10584000632C66D006D8252C77D0582C3FD0002C5E
:1058500077D0BBE7732C63D002D8642C11D0B5E7A6
:10586000752C02D0782C32D0B0E70BF1040A05ACCD
:10587000DBF800000A2112B10022234613E0234680
:1058800020E00BF1040A05ACDBF8000072B100283F
:1058900006DA2D238DF8143040420DF1150300E097
:1058A00023460A210022FFF711FF0DE0002806DA47
:1058B0002D238DF8143040420DF1150300E02346EE
:1058C0000A210022FFF72AFFD34600941AE00BF1C9
:1058D000040303930DF1140ADBF80000102132B128
:1058E000583C624262415346FFF7F0FE06E0B4F1D5
:1058F00058035A425A415346FFF710FFDDF80CB0E7
:10590000CDF800A03846414632464B46FFF72EFF01
:105910005CE738469BF800100BF10404C0470AE02E
:10592000DBF80030009338464146324600230BF145
:105930000404FFF71BFFA34648E738462146C0474B
:1059400044E709B0BDE8F08F024B1960024B1860C4
:10595000704700BF60070020640700200FB407B540
:10596000074904AB0868074953F8042B09680193F9
:10597000FFF725FF03B05DF804EB04B0704700BFEC
:1059800064070020600700200EB40FB505AB01903E
:1059900053F8042B0649039301A8FFF710FF019B5E
:1059A00000221A7004B05DF804EB03B0704700BF2A
:1059B000B5570008014B33F8100070473E26002011
:1059C000014B01221A70704768070020044B1878B9
:1059D000002218B103491A700A800120704700BFE5
:1059E000680700200A05002008B1014B03607047DA
:1059F000B5590008054B1844054B90F87F2153F822
:105A00002200400800F5777080B27047B81F002070
:105A10007407002038B5044604F0EEFA0F4B1A68FC
:105A2000186040F6C411821A8A420D4A84BF0021D0
:105A3000117013780BB90F2C0FD10A480021017097
:105A40004BB1094D1D44182B05F8014C03D101231E
:105A50001170037038BD0133137038BD6C0700201E
:105A60006907002070070020940700200F4B13B532
:105A7000B3F88A11A1F577710446490000230C4A56
:105A800099500433202BFAD10123009309480A4985
:105A90000A4A052308F076FF094B18610CB1094A40
:105AA000226008225A7502B010BD00BFB81F002046
:105AB0007407002000140140155A0008A086010058
:105AC00028250020F5590008294B1A7810B50AB985
:105AD000002010BD00224FF400701A70FBF7B0FCDC
