:020000040800F2
:10000000583200206998000809BB00087D3A0008B2
:100010000BBB00080DBB00080FBB00080000000070
:1000200000000000000000000000000011BB0008FC
:1000300013BB00080000000015BB00086171000838
:10004000659800086598000865980008659800089C
:10005000659800086598000865980008659800088C
:10006000659800086598000865980008659800087C
:10007000659800086598000865980008659800086C
:10008000659800086598000865980008659800085C
:10009000659800086598000865980008659800084C
:1000A000659800086598000865980008E5A40008B0
:1000B000F1A40008F9A400086598000865980008F4
:1000C00065980008D9B200083DB20008659800089C
:1000D0006598000845BA000851BA00085DBA0008E2
:1000E000659800086598000819BB00086598000825
:1000F000659800086598000805A50008659800083F
:1001000065980008659800086598000865980008DB
:1001100065980008659800086598000865980008CB
:1001200065980008659800086598000865980008BB
:1001300065980008659800086598000865980008AB
:1001400065980008659800086598000849BB000894
:10015000659800086598000865980008659800088B
:10016000659800086598000865980008659800087B
:10017000659800086598000865980008659800086B
:10018000659800086598000808B5414BB3F8E6206B
:100190002DED068B1AB9D3F8E810002974D012B2ED
:1001A00008EE902A9FED3B7ADFED3B7AB3F9E82029
:1001B000B3F9EA303949F8EEE88A08EE102A68EE19
:1001C000878AB8EEC88AC8EEA78A0020087028EE91
:1001D000078A0AEE903A88EE278AF8EEEAAAB0EE8D
:1001E000680A2AEE877AC7EE27AA0BF009FEB0EE5E
:1001F000409AB0EE680A0BF089FEF0EE409AB0EE3D
:10020000480A0BF0FDFDF0EE408AB0EE480A0BF014
:100210007DFEB0EE408AB0EE6A0A0BF0F1FDB0EE62
:1002200040AAB0EE6A0A0BF071FE20EE097A69EE80
:100230008A7AF0EE475AE7EE885A194B2AEE096A95
:1002400069EE806AC3ED035AF0EE465AE6EEC85AEC
:10025000E7EE087AE6EE486A2AEE28AA28EEC00AF7
:1002600069EEE89A68EE898A83ED00AA83ED010AB7
:1002700083ED028AC3ED045AC3ED059AC3ED066A05
:10028000C3ED077AC3ED088ABDEC068B08BD00BF3D
:10029000F41A0020DB0F4940000034430000002026
:1002A000EC02002038B5B0F90030224C2DED048B63
:1002B00008EE903AB0F9023094ED030AD4ED007ADA
:1002C00009EE103AB8EEC99AF8EEE88AB0F90430AF
:1002D00029EE000A08EE103AA7EEA80A0546B8EE85
:1002E000C88AD4ED067AA7EE880A0BF0C5FD94ED16
:1002F000040AD4ED017A288029EE000AA7EEA80AA4
:10030000D4ED077AA7EE880A0BF0B6FD94ED050A46
:10031000D4ED027A688029EE000AA7EEA80AD4ED8F
:10032000087AA7EE880A0BF0A7FDBDEC048BA88025
:1003300038BD00BFEC020020013A072A30D8DFE8C0
:1003400002F004080F14191E222603880B8043882C
:1003500003E043880B8003885B424B8083881EE068
:1003600003885B420B804388F6E743885B420B803F
:100370000388F2E703885B420B8043880CE04388E4
:100380000B80038808E003880B80438803E04388E0
:100390005B420B8003885B424B8083885B428B808F
:1003A000034B1B7813B90846FFF77CBF704700BFAB
:1003B0000000002070B50646B6FBF2F4084615466C
:1003C00014B12046FFF7F6FF05FB1464024B1B5DDA
:1003D00000F8013B70BD00BF34EC000810B5027896
:1003E000202A034600F10100F9D0092AF7D02D2A6E
:1003F00003D10346BFEE000A04E02B2A08BF0346E0
:10040000B7EE000A9FED377A1A46134612F8011B21
:10041000A1F13000C4B2092C0AD805EE900AF8EE1A
:10042000E57AF2EE046AE7EE267AB0EE677AECE758
:100430002E2915D1F2EE047AF0EE676A134612F80F
:10044000011B3039C8B209280AD805EE901AB8EE57
:10045000E56A86EE276A67EEA67A37EE067AEDE75A
:100460001A7802F0DF02452A34D15A782D2A02D1B7
:100470000233012204E02B2A14BF0133023300228D
:10048000013B002113F8010F3038C4B2092C03D806
:100490000A2404FB0101F5E7B1F59A7F34BF0B464E
:1004A0004FF49A731946F7EE007A072905D9DFED64
:1004B0000E6A083967EEA67AF7E703F007032BB157
:1004C000F2EE046A67EEA67A013BF8E722B1C7EEC6
:1004D000277A03E0F7EE007A67EE277A20EE270A04
:1004E00010BD00BF0000000020BCBE4C10B5441E73
:1004F00014F8011F21B1034B186809F0BBFEF7E7A0
:1005000010BD00BF1C1F00200148FFF7EFBF00BF58
:1005100059EC000810B50748FFF7E8FF0024064B28
:100520000648E1581A190C34526806F0B5F8C02C88
:10053000F5D110BD87EC000854EB00089DEC0008D5
:1005400070B506F02FFE294B1A88294B4FF47A71AB
:10055000B0FBF1F11B78274806F09EF801F082F815
:10056000254B1968254B1A68254B53F82110254B4C
:100570000546B2FBF3F2244806F08EF80024E3B2FD
:10058000224A52F8231049B1012202FA03F32B4206
:1005900002D01F4806F080F80134F0E7022001F095
:1005A00047F898B11B4C1C4B22781C4853F822107A
:1005B00006F072F82378022B08D1194B19481B7EDC
:1005C000002B0CBF6E216F2106F066F81648FFF76E
:1005D0008DFF164B1C880AF02BFE214602464FF475
:1005E0006D731348BDE8704006F056B8A01F002098
:1005F00018000020A5EC0008200600204C01002077
:1006000084FB000840420F00E3EC000864FB000894
:100610000CED00086609002014EC000810ED00083D
:100620001C1F00201AED0008CFEF0008D80600209C
:100630001EED000838B50C68054620460DF0CFFBCE
:10064000214602462868BDE838400DF0D1BB0000C5
:1006500008B50948FFF74AFF0121002000F072FFAA
:100660000648FFF743FF0A2006F0ADFD0020BDE875
:10067000084006F0CFBD00BF50ED00085AED00085D
:100680007FB504460DF0ABFB082824D100231F4999
:10069000E25C09681144497801F00301022908BFAE
:1006A000203AE2540133082BF1D10025665D184849
:1006B00031460DF087FB28B10135601931460DF048
:1006C00081FB18B11348FFF711FF1CE0082DEDD195
:1006D000204600F089FE1048FFF708FF00230F4A6C
:1006E0001A4404A992F80F210A440949595C02F8F6
:1006F0000C1C0133082BF2D1002309488DF80C3073
:1007000001A905F0C9FF04B070BD00BF840200203C
:100710003805010869ED000889ED0008F41A002089
:10072000A0EC000808B501F077FB01300CBF0348CE
:100730000348BDE80840FFF7D9BE00BF9EED0008A2
:10074000C4ED00082DE9F04105460DF048FB0446D4
:1007500001F04AF906468CB92948FFF7C7FE294B34
:1007600053F8241041B10123A340334202D026485C
:1007700005F092FF0134F2E7244821E0284624499D
:1007800022460DF035FB58B92248234CFFF7AEFE48
:1007900054F8041F0029EFD01B4805F07DFFF7E750
:1007A0002B782D2B03BF013504F1FF344FF00108E6
:1007B0004FF000080026134B53F8267027B917484E
:1007C000BDE8F041FFF792BE2846394622460DF0BB
:1007D0000FFB98B90120B040B8F1000F03D001F031
:1007E000FBF80F4802E000F04DFF0E48FFF77EFED9
:1007F00039460D48BDE8F04105F04EBF0136DAE755
:10080000E2ED0008B8EA00080CED0008CFEF0008A0
:1008100045F90008F5ED0008B4EA00080AEE000802
:1008200024EE00082EEE0008A0EC000810B50446E7
:100830000848FFF75BFE084A00231370074A13605D
:10084000074A137004F0A4FA2046BDE81040FFF7F1
:10085000FFBE00BF37EE0008110300204403002054
:100860001003002008B50848FFF740FE012000F003
:1008700011FF0648FFF73AFE0A2006F0A4FC00200C
:10088000BDE8084006F0C6BC4FEE00085CED00086D
:10089000F8B507460DF0A3FA044638B91A4B1B48C1
:1008A0005A791B4B013A53F8221028E0384619496F
:1008B00022460DF09DFA60B91748184CFFF716FE56
:1008C00054F8041F19B1164805F0E6FEF8E715487C
:1008D00005E000250E4B53F8256026B91248BDE807
:1008E000F840FFF703BE3846314622460DF080FA45
:1008F00001350028EED1044B0C485D713146BDE84E
:10090000F84005F0C9BE00BFF41A00206AEE0008E6
:10091000F8EA000845F900087EEE0008F4EA00084D
:100920000CED0008CFEF000891EE0008A9EE0008DA
:1009300010B5044620460DF052FA10F0FF0F07D113
:100940000B4B0C4893F8B013BDE8104005F0A4BE63
:1009500020460DF0EDF9022808D8054B064C83F827
:10096000B0030020014600F0EDFDE3E710BD00BF3D
:10097000F41A0020BBEE0008DFF1000870B5044651
:100980000DF02DFA08B9204830E020461F490DF03F
:100990007DFA00242646254678B12CB1012C06D1DB
:1009A0000DF0C6F9064602E00DF0C2F905461749FA
:1009B000002001340DF06AFAEEE70B2D05D914483A
:1009C0000C21BDE8704005F067BE012C08DC114B1E
:1009D000114833F915202946BDE8704005F05CBE8A
:1009E000A6F57A73B3F57A7F04D90C48BDE8704058
:1009F00005F052BE0A482946324605F04DFE054B29
:100A000023F8156070BD00BFD1EE0008A9F1000801
:100A10000BEF00086220002031EF000849EF0008CA
:100A20006BEF000838B505460DF0D9F9C0B268B9CA
:100A30000446124B124803EB44032146B3F8462008
:100A4000013405F029FE152CF3D138BD28460DF0F0
:100A50006FF9142804460BDC202128460DF0B2F96A
:100A60000DF066F9054B03EB4404A4F8460038BDCD
:100A700004481521BDE8384005F00EBE241A0020B8
:100A800084EF000890EF0008931E232B28BF0A2252
:100A9000031E10B50C4603DA2D2001F8010B584255
:100AA000FFF788FC00230370204610BD30B52DED04
:100AB000028B87B0B0EE408A00210C22044603A8C6
:100AC0000DF06BF9B5EEC08ADFED2B7AF1EE10FA7E
:100AD000CCBF38EE278A38EE678ADFED287A28EE19
:100AE000278A6946BDEEC88A0A2218EE105A85EA9E
:100AF000E570A0EBE570FFF7C7FF002DACBF20232A
:100B00002D2368468DF80C300DF069F9012807D1C6
:100B100030238DF80D308DF80E308DF80F300CE04D
:100B2000022805D130238DF80D308DF80E3004E009
:100B3000032804BF30238DF80D30694603A80DF05B
:100B400034F903A80DF04BF90338C5B22A4603A9BE
:100B500020460DF06FF900236355204608490DF03B
:100B600024F903A9204629440DF01FF9204607B0B7
:100B7000BDEC028B30BD00BF6F12033A00007A4417
:100B800067ED000837B5037904460D46052B37D8C5
:100B9000DFE803F003060A0D11148368197830E0CA
:100BA000836893F900102CE08368198829E0836832
:100BB000B3F9001025E08368196822E0836868466D
:100BC00093ED000AFFF772FF0146134805F064FD3C
:100BD00005B3D4ED037A6846B8EEE70AFFF766FF7F
:100BE00001460E4805F058FD94ED040A6846B8EE3B
:100BF000C00AFFF75BFF0146084805F04DFD09E01C
:100C00000021074805F048FD25B10648E168226942
:100C100005F042FD03B030BD17ED000816ED0008E9
:100C2000BAEF0008B6EF00082DE9F8432DED028B6E
:100C300005460DF0D4F84F4E074620B1012817D1D4
:100C40002B782A2B14D14C48FFF750FC0024315943
:100C50004A4805F021FD30193946FFF793FF48480F
:100C6000FFF744FC143440F69C139C42EFD17DE026
:100C700028463D210DF0A6F800285FD0441C2046F0
:100C80000DF056F881462046FFF7A8FB0027B0EE8E
:100C9000408A14247C4356F8048040460DF09FF8A7
:100CA0004146024628460DF0A3F800283CD1314BBE
:100CB0001C4494ED037AF8EEC77AB4EEE78AF1EEBD
:100CC00010FA2FDB94ED047AF8EEC77AB4EEE78AD7
:100CD000F1EE10FA26D82279052A18BF08EE109AEC
:100CE00018EE103A052A11D8DFE802F003030606D1
:100CF000090DA268137009E0A268138006E0A268DB
:100D000082ED008A02E0A36883ED008A41461D4817
:100D100005F0C2FCBDEC028B20460021BDE8F84383
:100D2000FFF730BF184803E001377B2FB1D11748D8
:100D3000BDEC028BBDE8F843FFF7D8BB044637593A
:100D4000294638460DF088F858B10C48394605F068
:100D5000A3FC084800212044FFF714FF084805F0D1
:100D60009BFC143440F69C139C42E8D1BDEC028BF2
:100D7000BDE8F88394FB0008BDEF00089CF0000874
:100D8000CFEF0008D2EF0008DDEF000802F0000806
:100D900070B52DED048B5E485E4C84B0FFF7A6FB6A
:100DA0005D4805F079FC5D48FFF73CFE62795C4BDD
:100DB0005C48013A264653F8221005F06DFCD4ED4C
:100DC000047AF5EE407AF1EE10FA5FD0183400257F
:100DD00014ED028AB5EE408AF1EE10FA52D00135D8
:100DE000514854ED019A94ED009AD4ED018A2946B8
:100DF00005F052FCB5EEC08AF1EE10FA02D54B4870
:100E000005F04AFCB0EE480A6846FFF74FFE01467F
:100E1000474805F041FCF5EEC09AF1EE10FA02D514
:100E2000424805F039FCB0EE690A6846FFF73EFE1D
:100E300001463F4805F030FCB5EEC09AF1EE10FADD
:100E400002D53A4805F028FCB0EE490A6846FFF79B
:100E50002DFE0146364805F01FFCF5EEC08AF1EE86
:100E600010FA02D5314805F017FCB0EE680A684662
:100E7000FFF71CFE01462F4805F00EFC0C2D04F177
:100E80001004A5D12C48691C05F006FC00F0ACFD4F
:100E90002A4C054654F8041F19B1294805F0FCFBFB
:100EA000F8E70C46274B53F8241041B10123A34027
:100EB0002B4202D0244805F0EFFB0134F2E773180F
:100EC00004AA93F80F311344204A8A5C03F8102CCB
:100ED00001310829F3D100241D488DF808406946E6
:100EE00005F0DAFB1B4D1C48615905F0D5FB2819AC
:100EF0000021FFF747FE1948FFF7F8FA143440F6CF
:100F00009C139C42EED104B0BDEC048B70BD00BFBD
:100F100059EC0008F41A00201FF00008DFF1000867
:100F2000F8EA00084FF000085AF00008A9F100089C
:100F300017ED0008A0EC000862F00008B4EA000811
:100F400074F00008B8EA000882F0000838050108CB
:100F50008FF0000894FB000898F00008CFEF00081D
:100F6000F0B589B004460CF03AFFC5B2002D72D13D
:100F70007F48804CFFF7BAFA54ED027AF5EE407ADA
:100F8000F1EE10FA2CD0013529467B4805F084FBA0
:100F900014ED020A04A8FFF789FD0146774805F021
:100FA0007BFB14ED010A04A8FFF780FD014673489E
:100FB00005F072FB94ED000A04A8FFF777FD0146E7
:100FC0006E4805F069FB94ED010A04A8FFF76EFD79
:100FD00001466B4805F060FB0C2D04F11004CBD1E9
:100FE000DFED687A684BB0EE677AF0EE676A002250
:100FF000AA4203F110030DDA13ED045A53ED035A1C
:1010000013ED026A013276EE856A77EEA57A37EE45
:10101000067AEDE75D48CDED016ACDED027A8DED02
:10102000037AFFF763FA002408AB234413ED077A31
:10103000DFED577A574B5848B0EEC77AB4EEE77AEF
:10104000F1EE10FAD8BF18460434FFF74FFA0C2C13
:10105000EAD1524874E02046514905220CF0C8FEFE
:1010600038B9504B034410300022C0281A61F8D11F
:101070007BE020464C4904220CF0BAFE054620468F
:1010800005BB20210CF09EFE00286ED0461C304689
:101090000CF0A5FE2C460746444B53F824500DB9DE
:1010A00043484DE030462946FAB20CF0A1FE38B96B
:1010B000204603F00BFF3F48294605F0EDFA4CE0CF
:1010C0000134E9E70CF034FE461E0B2E074648DCDF
:1010D000204620210CF076FE054650B1451C2846DE
:1010E000FFF77CF92F4B03EB071787ED000A01246C
:1010F00000E00446284620210CF064FE054648B175
:10110000451C2846FFF76AF9264B03EB061383EDCF
:10111000050A0134284620210CF054FE054648B14A
:10112000451C2846FFF75AF91E4B03EB061383EDC7
:10113000060A0134284620210CF044FE18B91E4846
:10114000FFF7D4F911E00130FFF748F9154B032CF4
:1011500003EB061686ED070AF1D11848FFF700FFEA
:1011600003E017480C2105F097FA09B0F0BD00BF65
:10117000AAF000080C1B0020D5F00008DBF00008E6
:10118000A0EC000800000000081B0020DFF00008B1
:101190000AD7233CA6F00008A2F00008CFEF000811
:1011A000EEF00008F41A0020F4F00008F8EA000855
:1011B00091EE0008F9F000080CF10008DFF10008DA
:1011C00046F100082DE9F047674B1A7886B098463B
:1011D00042B90123654888F80030FFF787F9644871
:1011E000FFF784F9634D286809F054F8A9460028F0
:1011F00000F0B7802868604C09F051F809280146D2
:1012000001D03F284FD14FF0000A25685B4F56466A
:101210002DB15B4839682A460CF0EAFD10B9BA4690
:1012200006B93E46574B0C379F42F1D3CEB1D6F8A4
:1012300000E0DAF800C02B461EF803701CF803002B
:10124000B84201D023600CE05A1C4D4930B92D2B17
:1012500004D82027CF542260885402E0CF5413468C
:10126000EAE723680BB1564512D04748FFF73EF92D
:10127000564509D856F80C0BFFF738F9D9F8000095
:10128000092108F0F7FFF3E73948FFF72FF90025A8
:1012900023689D42A6D23A4BD9F80000595D08F068
:1012A000E9FF0135F4E723682BB9042836D1344827
:1012B000FFF7BCFA55E00C2801D134488DE70A2924
:1012C00001D00D2944D132482D4DFFF70FF9226886
:1012D0002A4903950023AB5404932E4B009303A893
:1012E00010220C230CF028FD064638B100680CF0E3
:1012F00076FD0130B3682844984702E02648FFF79E
:10130000F5F81F48002130220CF047FD0023236030
:1013100098F80030002B7FF462AF22E00C28CCD08C
:101320007F2903D15EE72F2B3FF65CAFA1F12002AE
:10133000D2B25E2A3FF656AF13B920293FF452AF1E
:101340005A1C22600E4A2868D15408F093FF49E7DE
:101350007F29E8D1013B0A4A23600021D1540F487C
:101360003EE706B0BDE8F087100300206EF10008EC
:10137000A6F100081C1F00204403002054EB0008C5
:101380001103002014EC0008ABF10008B0F10008D4
:10139000CFEF000835060008BBF10008DCF10008BB
:1013A0000F4B1A78412A17D15A88B2F56D7F13D1A5
:1013B0001A79BE2A10D193F8B223EF2A4FF0000019
:1013C0000CD113F8012B5040064A9342F9D1D0F1C9
:1013D000010038BF0020704700207047704700BFF1
:1013E00000000E08B4030E0870B50546441E14F83C
:1013F000011F61B1064E30460CF0E4FC0028F6D027
:10140000861B04483044631B80F80F31EFE770BD42
:1014100038050108F41A002008B5FFF7C1FF10B91C
:101420000A2005F0DBFE0C4B0C4918464FF46D7298
:101430000CF0AAFC90F8B023022A84BF002280F8A6
:10144000B02390F8B013D02202FB010101F5A07186
:1014500003480CF099FC08BDF41A002000000E08A7
:10146000241A00202DE9F0472E4890F82050C47F20
:10147000002303FB03F11939694301F6C4115943F1
:1014800040F6C412614391FBF2F1274A22F813108F
:101490000133072BEDD1254A90F82130B2F8D06006
:1014A000B2F8D2A090F822E0C3F1640903EB830CF8
:1014B0005C425FFA89F94FEA4C0CCEF16408C6EB46
:1014C0000A0AA4B20022A1B20FB2002F04DC002944
:1014D00014BF1D46012500E04D4611FB01F101FB43
:1014E0000EF115FB05F591FBF5F545440A217D4309
:1014F00095FBF1F565442DB24FF47A7105FB0AF5C1
:1015000095FBF1F50A493544555202320A34182A3E
:10151000A4B2D8D1007802F003FFBDE8F04700F094
:10152000DDBB00BF241A00203C200020F41A00205C
:10153000681F002008B5FFF76FFFBDE80840FFF700
:1015400091BF0000F8B52F4B41221A704FF46D7215
:101550005A80BE221A71EF2283F8B2230022074676
:1015600083F8B3231E4649B193F8B0032649D0222D
:1015700002FB003000F5A0700CF006FC00221346C0
:10158000B15C0132B2F56D7F83EA0103F8D11D4AE7
:10159000002582F8B33306F0EDFAF32006F000FBE5
:1015A0005820022106F02EFB082815D1174C3319BC
:1015B00003F1774303F572032046196806F058FBE0
:1015C000082805D0013506F0E3FA032DE3D103E046
:1015D0000F4B04349C42EAD106F0DAFA032D02D014
:1015E000FFF7DEFE10B90A2005F0F8FDFFF7A2FFB5
:1015F00037B10F2014210122BDE8F84002F030BCC1
:10160000F8BD00BFF41A0020241A002000000E08C4
:10161000B4030E0838B505460C4605F00EFE284604
:101620002146FFF78FFFBDE8384005F003BE0000FC
:10163000034B1B6818420CBF00200120704700BFFD
:1016400048030020024B1A6810431860704700BF1F
:1016500048030020024B1A6822EA00001860704715
:1016600048030020014B1868704700BF4803002062
:10167000034B9B6818420CBF00200120704700BF3D
:10168000F41A0020024B9A6810439860704700BF1C
:10169000F41A00202DE9F3470446FFF781FE10B14C
:1016A000002C00F08581C44AC44D10685168C44CB8
:1016B0006B4603C34FF46D72002128460CF06DFB9E
:1016C0000021D02220460CF068FB4FF0410A032392
:1016D0004FF400406B7185F800A0FFF7D3FF4FF483
:1016E0008070FFF7CFFF4FF40060FFF7CBFF4FF4A0
:1016F0001673A5F8F230FA23A5F8F4302A23A5F8DA
:10170000F0304FF4FA73A5F8F830202385F8F6305E
:101710006E2385F80B312B2385F80C31212385F8B6
:101720000D3140F24C43A5F81C3140F26C73A5F822
:101730001E3140F27E43A5F8D03040F23A730026C5
:1017400001270422022140F2DC50A5F8D23040F2F9
:10175000424385F8E22085F8E32085F8E410A5F8F7
:101760001A0185F8B063A5F8FA60A5F8FC60A5F841
:10177000FE60A5F8E660A5F8E860A5F8EA6085F8DF
:10178000ED6085F8EC7085F80E6185F8176185F8D5
:101790003A6185F83B6185F83C6185F8206185F800
:1017A000226185F82371A5F8D43085F82B114FF408
:1017B000614140F27E534FF4C87EC5F83011C5F840
:1017C000341140F6AC51A5F8D630A5F8DEE040F271
:1017D000EA534FF01E0EA9811721A5F8D83084F8DE
:1017E0000BE040F2B453617584F80CE0A1754FF042
:1017F0000B0E55214FF02808A5F8DA30E17032239E
:101800002D2184F805E04FF0080C4FF0140EA5F8D8
:10181000DC30A5F8E0306173237184F806E084F8C9
:1018200010C085F82A7185F8386185F83961AE7382
:1018300085F82461267084F8018084F80280E675BA
:10184000A6732676E6736676A17684F82130152392
:1018500084F831305B4B63635B4BA3634FF00E0C3A
:101860005A4B84F807C084F811E04FF0640C4FF035
:10187000500EE363564B84F81BE04FF00A094FF01B
:101880005A0E84F81CC0E0844FF0780C2364514851
:1018900084F808E0192384F8453084F8129084F81D
:1018A000098084F80AC02175A77784F81FE084F8BE
:1018B00020A084F8236084F8246084F8256084F8EC
:1018C00022606685A685268584F82E2084F82F80E0
:1018D00084F8308084F84470FFF786FD4FF4487335
:1018E000A4F87430C82384F8B9304FF49663A4F890
:1018F000BA3040F2D933A4F8BC3084F8706084F870
:10190000716084F8728084F8737084F8766084F86B
:10191000B89023464FF47F72A4F878204FF4FA620F
:10192000A4F87A2040F2DC52A4F87C201DF80620AE
:1019300084F87E200136082E04F10804EAD1012241
:1019400083F8BE2083F8BF2083F8C020C82183F825
:10195000C6206422A3F8C210A3F8C82014214FF4B3
:10196000967283F8C410A3F8CA201E21282283F897
:10197000C510A3F8CC20522385F8B1330023EA1810
:1019800010330021C02B1161F9D10024281900F572
:10199000A0700B49D022D0340CF0F6F9B4F51C7FBE
:1019A000F4D10020014602B0BDE8F047FFF732BE97
:1019B00002B0BDE8F08700BF30050108F41A00202E
:1019C000241A00209A99193FF6287C3F3D0A773F58
:1019D0000000A04041050108024B9A6822EA00007D
:1019E00098607047F41A0020014B9868704700BF58
:1019F000F41A002010B5044C00232070236105F078
:101A0000D1FB606110BD00BFAC1E002007EE100AC4
:101A1000F8EEC77A9FED0A0A9FED0A7AF5EEC07AD2
:101A2000F1EE10FAD8BFF1EE677A87EE800A08B5BA
:101A300020EE070A0AF0E4F9034B83ED000A08BD23
:101A40008096184B35FA8E3C0400002010B5121A0F
:101A500007EE902A5B1A2DED028BF8EEE78A07EE6F
:101A6000903A184B059CB8EEE78AD3ED007A28EE41
:101A7000278A28EE080AA8EEA80A0AF089FCDFEDFA
:101A8000127A049B20EE270AF0EE480AFCEEC07A98
:101A9000B1EE680AC3ED007A0AF0D4FADFED0B7AF2
:101AA0009FED0B7AE0EE077ABDEC028BFDEEE77A54
:101AB00017EE903A002BBCBF03F50C43A033236014
:101AC00010BD00BF040000202C7D8E3F00A00C46FE
:101AD000A00CB34507EE900AB8EEE77AD2ED017A92
:101AE00027EE277AD1ED007AE7EE007A10B5C1ED46
:101AF000007A92ED037AF1EE476AFDEEE77AFDEEA9
:101B0000E66ABDEEC77A0C4617EE102A17EE900A69
:101B100016EE901A05F00CFB07EE100AF8EEC77AE5
:101B2000C4ED007AFDEEE77A17EE900A10BD0000D2
:101B300030B5002213460E49CC5C0D469CB12E2CCC
:101B400004D1013378B11D4400242C54C95C0A240B
:101B50006243A1F13004092C9CBF303A52180E2B7D
:101B600003D80133E7E7104630BD002030BD00BF89
:101B700005040020F8B52C4B2C4C93F82A3113B1F6
:101B8000012B0AD04CE06278294B03EB0213294A5F
:101B90005968906808F088FB3FE0264DA86808F077
:101BA00088FB2E4600283BD02378012B1ED105F060
:101BB000F9FA6369C31A632B064633D92369042BE8
:101BC00012D81B4FA86807EB0313596808F06CFB89
:101BD0006378A86807EB0317B96808F050FB23691E
:101BE0006661013323611BE0022017E023693BB9E2
:101BF00062780F4BA86803EB0213596808F054FB96
:101C000023690A4D8B2B08D80B4AB068D15C08F0C9
:101C100031FB2B6901332B6102E00320FFF7EAFE61
:101C200000236360F8BD00BFF41A0020AC1E002042
:101C3000B00601081C1F00202406010810B50B4C3B
:101C4000E37A8BB10A4B1B78042B0DD9094A0A4B56
:101C5000106852685A601860FFF7D8FE074B1A8860
:101C6000074B1A800123237310BD00BF4A1F0020B9
:101C7000FA1F0020DC1F0020AC1F0020181F0020CE
:101C80001A04002010B5002213460E480E4C002105
:101C900019520E4819520E4814441952002020605F
:101CA0006160A0600B4C1444023320606160A0604E
:101CB000094C1444042B20606160A06002F11402FE
:101CC000E3D110BDD4060020C8030020641F00200B
:101CD000801F002050030020580400202B4BDFED14
:101CE0002C7A58792B4AD97B07EE100AB8EE477A3E
:101CF000987987EE277AF2EE046A82ED007A07EE91
:101D0000101AB8EE477A2449D16087EE277A82ED1F
:101D1000017A07EE100AB8EE477A204A187CD160A3
:101D200087EE267A82ED007A07EE100AB8EE477A3F
:101D3000987E87EE277A06EE100A82ED017AB8EED9
:101D4000466A9FED177AD87986EE076A82ED026AB5
:101D500006EE100AB8EE466A124A587CDB7ED16065
:101D6000C6EE266AC2ED006A06EE900AF8EE666AD2
:101D7000C6EEA77AC2ED017A07EE903AF8EE677ADE
:101D800087EE877A82ED027A704700BF241A00201E
:101D90000000C842F40300200000FA44340400208C
:101DA00000007A44B803002073B506460020FFF710
:101DB00021FE4FF48070FFF75BFC08B3114D6E708D
:101DC00005F0F0F9104BA86093F82A310024A342E3
:101DD0006C600CBF01250325FFF780FF0B4B0094BF
:101DE00003EB061621462B467268094809F04AFDA6
:101DF000084B9860012002B0BDE87040FFF7FABDC3
:101E000002B070BDAC1E0020F41A0020B00601081C
:101E1000004400401C1F0020F8B5194B1B78032B11
:101E20002AD1184C4FF4005363834FF480436383EB
:101E3000154DA86808F02EFA58B14FF400562683C5
:101E4000A8682F6808F02BFA0146384608F012FA05
:101E5000668328680C4E08F01DFA0028E8D04FF47D
:101E6000804525833068B76808F019FA014638467E
:101E700008F000FA6583DBE74FF0FF30F8BD00BFE4
:101E8000AC1E0020000802401C1F002073B51A4C35
:101E9000036823600B686360184D0068184EFFF7F5
:101EA000B5FD184B009395E8030094E80C000196EB
:101EB000FFF7CCFD60686968134A33681360411A04
:101EC00007EE901A1149206891ED007A2968104AAE
:101ED000F8EEE77A411A67EE877A1160FDEEE77A4D
:101EE000C2ED017A0B4A13600B4BB3F8C8200B4BC1
:101EF0001A8002B070BD00BF20040020DC1F00204B
:101F000044040020880400201C0400200400002059
:101F1000B00400208C040020241A0020AC0400200F
:101F200044F25063984203DDA0F50C40A03870479E
:101F3000034B9842BCBF00F50C40A030704700BF77
:101F4000B0B9FFFF264BF0B51D68024600F110073F
:101F500014782B1911465E7806F00406013206F05B
:101F6000FF036EB1BA42F3D10020F0BD1BB103EB09
:101F700083035B00DBB210F8012B303A1344DBB271
:101F80000A1A022AF2DC002281420AD91AB102EBB3
:101F900082025200D2B210F8016B303E3244D2B20B
:101FA000F2E72E2C0FD14C1C042000210A2671438D
:101FB0002678AF197F787F0702D530390134314454
:101FC0000138F3D100E0002106484243642000FBC1
:101FD000012106240448B1FBF4F100FB0310F0BD1D
:101FE0008402002040420F00809698002DE9F04FB7
:101FF000994B2DED028B9A6889B0CAB9974C23781A
:10200000013B032B00F2C385DFE813F0870587054A
:10201000A1058A05904B986808F041F9904B93F818
:102020002A31012B044600F0D98008D3022B06D0B8
:102030008949886808F02EF90028EBD1DEE7242CC6
:1020400007D1884A00231370874A1370874A137098
:10205000C0E02C2C01D02A2C7FD1834E814F3278C6
:10206000834B3D7800209854824AB5B91978157091
:10207000472968D15978502965D19978472940F086
:102080007585D978472940F071851979412940F043
:102090006D850121117000F069BD1278012A3AD1D5
:1020A000022D05D11846FFF74DFF734B18604AE02B
:1020B000032D07D11B78532B45D16F4B1A68524221
:1020C0001A6040E0042D05D11846FFF73BFF6A4B2C
:1020D000586038E0052D07D11B78572B33D1664B5C
:1020E0005A6852425A602EE0062D07D11A78634B87
:1020F000302A94BF00220122DA7224E0072D04D195
:10210000FFF716FD5E4B18701DE0092D1BD1FFF780
:102110000FFD5C4B16E0022A15D1072D0CD10120D2
:10212000FFF706FD41F218434FF47A725843B0FBB3
:10213000F2F3554A138006E0082D04D10120FFF781
:10214000F7FC524B1880013500232A2C3D70337068
:1021500037D14F4B01221A703CE00D2C4C4B01D073
:102160000A2C24D11A78F2B1414908784978A0F1B3
:102170003002D2B2092A84BFA0F13702D2B202F0F3
:102180000F021001A1F13002D2B2092A84BFA1F1DD
:102190003702D2B2354902F00F0202440978D2B2B6
:1021A0008C1A62426241002119707AB912E02E49FC
:1021B0000A780E2A03D8501C08702D498C541B78BD
:1021C00043B92A4B1A7854401C7003E0294B1B7802
:1021D000012B00D0002303F0010358E12D4B1978A7
:1021E0000022082900F25281DFE801F00A051119E6
:1021F00027607D96A100622801D1022205E01A70B5
:10220000B52C40F043811A7801321A703EE1032266
:102210001A70214B1870214B1870214B0BE01F498D
:1022200004221A701E4B0A7818782244D2B20A701F
:1022300002441A701B4B1C7028E1184905221A70C1
:10224000174B0A7818782244D2B20A7002441A70E6
:10225000154B1C801AE100BF1C1F0020AC1E002083
:10226000F41A00204C030020B203002004040020D4
:102270000504002028040020DC1F00204A1F002045
:10228000FA1F00205C1F0020841F00204806002049
:10229000780300205404002090040020150400203E
:1022A000180400204D030020160400206249062275
:1022B0001A70624B0A7818782244D2B20A7002442B
:1022C0001A705F4B1A8802EB0424A4B2B4F5007FA5
:1022D00001D81C8003E000221A805A4B1A705A4A17
:1022E00000231380D3E05448544A017815782144E0
:1022F000C9B201702944117053490A88C72A9CBF8A
:1023000052488454013292B20A804D490988914260
:1023100040F0BC80072278E708221A70464B1B78F1
:10232000834200F0B380474A00231370AFE01A7075
:10233000424B1B78834240F0A980454B1B78062B0B
:1023400039D004D8022B12D0032B24D09EE0122BBC
:1023500044D0302B40F09A803C4B1A793D4B102AE8
:1023600088BF10221A701978384A002344E0374B8E
:10237000394A59685160996811601A694FF47A7343
:1023800092FBF3F2354B1A80354B1A78354BDA72E3
:102390000122354B20E02D4A537913F0010303D07D
:1023A0001379D81E434243412D4A1370002B38D174
:1023B0002C4AD37235E0254BDA7A12F0010203D0B1
:1023C0009A7AD11E4A424A4125490A700AB92549DA
:1023D000CA7293F82F20254B1A7022E01B4B244918
:1023E0005A690A809A6942F2107392FBF3F2214B08
:1023F0001A800122204BEFE78B4202F10C0210DA27
:102400001E4812F8044C1C541D4812F8034C1C546E
:102410001C4812F8014C1C541B4814781C540133FE
:10242000EAE711490B788BB3134B1A7872B3002289
:102430001A700A7001232AE01504002018040020F5
:102440001604002054040020F0030020BC040020E7
:102450004D030020FB1F0020DC1F00205C1F00201C
:10246000A40400204A1F002014040020FA1F0020AA
:10247000841F00204806002092040020381F0020FE
:10248000CB1F0020E41F00202C2000200023002B65
:102490003FF4CEAD954CA368E36004F083FEA060EA
:1024A0002020FFF7CFF8924B1A78012A0CBF0022A8
:1024B00001221A708F4BDA7A002A3FF4B9AD8E4AA6
:1024C0001278042A7FF6B4AD5A7802B91A731B7BCE
:1024D00013B90AB1FFF7B2FB884B894C1A7805256E
:1024E000013292FBF5F505EB8505551B1D70854BFB
:1024F00093F800A0844B03EB85050023834A8449AD
:102500009858DFF84CC2834E585090FBFCF199511B
:1025100003EB8309804EDFF83C829F1806FB010025
:10252000029753F8086055F8097045F80900C7EBA1
:10253000060B42F2107E90FBFEFE0526584443F83F
:10254000080090FBF6F00CFB010174481FFA8EFEA8
:10255000BAF1010F24F802EF1950164606D1AEF178
:10256000020EBEF5797F9CBF029801600433082BF0
:10257000C4D16B4D6B4C04F015FE2B689FED6A7A4D
:10258000C01A05EE100AF8EE457A2746C7EE877A9C
:10259000C4ED007A04F006FED4ED007A2860FDEE6A
:1025A000E77A04AA17EE903A012BA8BF012307EEA1
:1025B000103AF8EEC77A5D4BC4ED007A009205AA96
:1025C000019296E803000CCBFFF740FA049A5849B1
:1025D0000598484D6423B2FBF3F20A80554A90FBFC
:1025E000F3F313802B7B0BB90B8013805248534BB2
:1025F0000278002A3FD0D4ED007A31681A68DFF8FB
:1026000058C1B7EE007AC7EE277A8A1A71684FF080
:10261000020807EE102AB8EEC77A5A6827EE277A22
:102620008A1ABDEEC77A17EE109A07EE102A444AAE
:10263000B8EEC77AD2ED006A424A27EE267AB2F99E
:10264000021067EE277AFDEEE77A17EE90EA01FABC
:102650008EFEB2F9001001FA89F19EFBF8FE91FBA3
:10266000F8F11FFA8EFE89B2ACF802E0ACF8001067
:10267000A2F802E01180012202707168306859608E
:1026800018602B7A23B91B4BDB79002B3FF4D0ACBD
:102690002D4DDFF8C880DFF8C8A0CDF80080CDF858
:1026A00004A095E80C00FFF7D1F969687268274B20
:1026B000DFF850908A1A07EE902A214A296892ED95
:1026C000007A3268F8EEE77A8A1A67EE877A1A603B
:1026D00099F90020FDEEE77A012AC3ED017A9B46C5
:1026E00040D0022A00F0CA80A2E400BFAC1E002045
:1026F000720600204A1F0020FA1F0020B8040020A4
:102700002E0400205806002088030020DC1F002033
:102710009C04002048040020806967FF800300209B
:102720002C040020A804002000007A44AC1F0020E4
:10273000AA1F0020B41F0020910400209404002050
:1027400004000020B403002020040020B004002076
:102750008096980080040020500400208804002007
:1027600044040020764D00245BF81400754BDFF81C
:102770000C92D3ED007A34F80930DFF8048297ED3B
:10278000000A714E05EE100AB8EEC57A15EE101A61
:1027900067EE277A4246FDEEE77A17EE900AC01AF6
:1027A0006A4B80B2E05200B207EE900AB8EEE77AC8
:1027B000D8ED007A67EE277A0844FDEEE77A2946DD
:1027C00017EE90AAFFF786F9614ADFED625A92F898
:1027D000C4205BF8143097ED007AD5ED027AD8ED7D
:1027E000026A5D4906EE102AB8EE466A6A686B60B6
:1027F00026EE256AF7EE005A85EE866A9A1A1FFAC7
:102800008AFA5044A05305EE102A36EE076AF8EE15
:10281000C55A87EE066A4FF4FA6285EE877A37EE7C
:10282000677AE6EE077AC5ED047AC5ED027A66EEC0
:10283000A77AFDEEE77A17EE900A04F079FC34F8F7
:102840000930464931339BB2622BA35B98BF00200D
:10285000184480B2A05340F6B83200B204F068FCCD
:102860003F4B30530A2202FB0433023455F8142B39
:102870001A60042C7FF478AFFFF7DABB344BD8F83A
:1028800000B0B3F9CA604FEA5B039E42A8BF1E4680
:10289000344B1A88B6B230B211B288420CDD94EDD6
:1028A000007ADFED317A67EE277AFDEEE77A17EEF0
:1028B000906A1644B6B21E802C4BDAF800401B68B2
:1028C000C3EB040A5046FFF72BFB002841F293129A
:1028D00001DD904201E043429342CCBF002301233B
:1028E0009FED238A234D002B4CD007EE10AAB8EEA3
:1028F000C70A20EE080A09F009FB05EE10BAF8EE47
:10290000457A1D4B154920EE270A40F6B832BDEE38
:10291000C00A10EE100A80B2188000B204F008FC61
:1029200048F6A0432044984203DDA0F50C40A038AF
:1029300004E00028BCBF00F50C40A030286022E075
:1029400050030020F4030020801F00207A030020A1
:10295000241A0020DB0FC94030F8FFFF48F4FFFFC6
:1029600058040020AC0400200000C8428C04002061
:10297000D30237391C040020B0030020500400208B
:10298000340400202C602B68834DC3F50C5328338E
:1029900007EE103AF8EEC77A002427EE888AB0EEE8
:1029A000480A09F02DFA8DED070AB0EE480A09F041
:1029B000ADFA8DED060A794ADFF814A2A25EDFF8BF
:1029C00014B231B208A807EE902A07EE101A00EBF5
:1029D000440353ED026A7249B8EEC77AF8EEE77A1B
:1029E0004FF47A72D6EE877AFDEEE77A17EE900A08
:1029F00080B224F80A0000B204F09AFB80B224F8F6
:102A00000A0000B205EE100ADBED007A97ED000A2D
:102A1000B8EEC57A294667EE277A5A46FDEEE77A80
:102A200017EE903A9BB20393FFF754F834F90A205B
:102A3000DFF8A4A1DFED5B5A9AF8C41097ED007A95
:102A4000D5ED027ADBED026A039BDFF890B106EE6A
:102A5000101AB8EE466A69686A6026EE256AF7EED3
:102A6000005A85EE866A511A034440F6B83205EEE4
:102A7000101A36EE076AF8EEC55A87EE066A4A491A
:102A800085EE877A37EE677AE6EE077AC5ED047A47
:102A9000C5ED027A66EEA77AFDEEE77A17EE900AA8
:102AA000184480B224F80B0000B204F041FB3F4B05
:102AB0002BF804000A2202FB0433023455F8142BCD
:102AC0001A60042C53467FF476AF93F8C62032B1D7
:102AD000374A1168642291FBF2F1364A1180B3F84B
:102AE000C230D8F800209A420ED9334B1868334BC5
:102AF0001B68C01AFFF714FA42F210730028B8BF1F
:102B0000404298427FF794AA012389F800302C4B69
:102B10001A88284B1A80FFF78BBAFFF72BF836E09C
:102B200063680133636063780133DBB20522B3FB72
:102B3000F2F202EB82029B1A637004F033FB214A2B
:102B4000A06000231370204A0120D3720BE004F030
:102B500029FBA36840F6C412C01A904217D920205E
:102B6000FEF778FD0420FEF745FF10E09B7817493B
:102B7000522B7FF4E8AACB784D2B7FF4E4AA0B7993
:102B8000432B7FF4E0AA02231370FFF7DCBA09B0ED
:102B9000BDEC028BBDE8F08F5804002050040020EB
:102BA00018FCFFFFDB0FC94048F4FFFF5003002073
:102BB0001C0400209C200020440400208C040020E1
:102BC0001A040020FA1F00204A1F002005040020DC
:102BD0007A030020B8030020241A0020801F002060
:102BE00038B5294D2DED048BD5ED008AB0EE680A7D
:102BF000044609F005F9B0EE408AB0EE680A09F023
:102C000085F995ED019AF0EE408AB0EE490A09F097
:102C1000F7F8F0EE409AB0EE490A09F077F9D4EDF2
:102C2000017AD4ED026A67EEA80AB0EE407A60EE4F
:102C3000870A28EEE60A66EE876A94ED007AE7EEE8
:102C4000290AA7EE880AE6EE880A09F0FBF9DFED0B
:102C50000F7A9FED0F7A0F4B20EE270A80EE070ABE
:102C600093ED007A30EE070AB2EE047A80EE070A9E
:102C700009F002F9BDEC048B83B21A0444BF00F5DD
:102C8000B4739BB218B238BDEC0500200000E144DB
:102C9000DB0F49409805002038B5354C0820258DBC
:102CA000FEF7C6FC334BC8B129B2642291FBF2F0A7
:102CB00002FB101212B207EE102AF8EEC76A07EEF6
:102CC000100AF8EEC77A9FED2C7AE6EE877AB2EE1C
:102CD000047A67EE877AC3ED007A01E000221A6079
:102CE00094F84530DFED257A254D00EE103AB8EE28
:102CF000C00A20EE270A09F083F82B8807EE903AE5
:102D0000F8EEE77A27EE800A09F0B6F82D889FEDF5
:102D10001D7A1D4B07EE905AF8EEE77A1880C7EE41
:102D2000277A1A4B9FED1A7AC7EE877A9FED197AA8
:102D3000C3ED007AB4F8743007EE903AF8EEE77A13
:102D4000154BC7EE277A9FED157A67EE877A94EDDB
:102D5000107AC3ED007ADFED127A124B67EE277A14
:102D6000B6EE007AC7EE277AC3ED007A38BD00BF11
:102D7000241A0020980500208988883C35FA8E3C6A
:102D8000380100200AE81C4118060020DC1E002043
:102D900000401C4600006144001F00204C3D0F44D1
:102DA000DB0F4940081F002090ED010A90ED007AEA
:102DB000D0ED027A20EE000A38B5A7EE070A0446E5
:102DC0000D46A7EEA70A09F0E3FAB5EE400AF1EEC8
:102DD00010FA11D0D4ED007AC7EE807AC5ED007AF2
:102DE000D4ED017AC7EE807AC5ED017AD4ED027A8E
:102DF00087EE800A85ED020A38BD38B52DED0A8BC5
:102E000091ED008A90ED00AAD0ED01AA90ED029A12
:102E1000B0EE480A04460D4608F0F2FFF0EE409A84
:102E2000B0EE480A09F072F895ED018AB0EE40BAAA
:102E3000B0EE480A08F0E4FFF0EE408AB0EE480A2F
:102E400009F064F895ED02CAB0EE408AB0EE4C0A83
:102E500008F0D6FFF0EE40BAB0EE4C0A09F056F892
:102E60006BEE005A2BEEA97AB0EE655AA7EE485ADF
:102E7000A5EEC87A20EE296A6BEE2B7A2AEE877AC5
:102E800028EEC00AF0EE466AE7EE886AAAEE007AFB
:102E9000E6EE087A6BEEA8BAA9EE277A6BEE687AAE
:102EA0006AEEA66A6AEEA77AEAEE2B6AEAEE087A7A
:102EB00068EEA98AE9EE056AE9EE287ABDEC0A8B8C
:102EC000C4ED006A84ED017AC4ED027A38BD0000D9
:102ED0002DE9F04106EE900A2DED028B574BDFED08
:102EE000587A9FED587A584DB8EE668A86B028EE2B
:102EF000278AD3ED007AF1EE677ACDED007AD3ED33
:102F0000017A524BB3F90030F1EE677ACDED017AD8
:102F100007EE903A4E4BF8EEE77AB3F9002067EEF1
:102F2000C77A0746CDED027A07EE902AB3F9022060
:102F3000B3F90430F8EEE77A03A8CDED037A07EE93
:102F4000902AF8EEE77A6946CDED047A07EE903ADA
:102F5000F8EEE77ACDED057AFFF74FFF95F84430AC
:102F6000DDED057A012B1BD13A4B5A783A4B72B9F9
:102F70001A68402192FBF1F1511A07EE101AB8EECF
:102F8000C77A37EE277ABDEEC77A83ED007A1A68E2
:102F9000402392FBF3F306EE903AB8EEE67A05E0B2
:102FA0002E4B1B8807EE103AB8EEC77A2C4B2D4EED
:102FB0002D4C9DED030AD4F8008077EEC77A93ED8F
:102FC000007ACDED057A38EE077AD6ED007A88EEF4
:102FD000078A9DED057A37EE677AE8EE077AC6ED47
:102FE000007A08F049FF95F8301004F0A9F89DED3B
:102FF000040A40442060D4F8048008F03DFF95F8AE
:10300000301004F09DF896ED000A40446060D4F85A
:10301000088008F031FF95F82F1004F091F8134B59
:103020001A6817441F60124B1A6840440132A060AE
:103030001A6006B0BDEC028BBDE8F081EC05002003
:10304000BD37863535FA8E3C241A0020181F002023
:10305000F81E00204A1F0020E4050020380100204F
:10306000081F0020BC050020D01E00200C060020F8
:103070001C0600202DE9F0472DED028B84B003F0F3
:10308000A3FF0220FEF7D4FAB54DB64C002800F09D
:10309000468103F07BFE04F06BF8B34BB34F196825
:1030A000B34A1860C1EB000A07EE90AAB14997F83D
:1030B0002E00B8EE676AD1ED037A002326EE276A68
:1030C00019460DF1040E0EEB430635F903E007EE49
:1030D00090EAF8EEE77A67EE867AC6ED007AA64EB9
:1030E000E0B107EE900AB8EEE77AF7EE006A86EEF6
:1030F000877A34F903E007EE90EAF8EEE77A67EEB4
:10310000877A36EEC77AD2ED006AE6EE877AC2EDAC
:10311000007AFDEEE77A17EE90EA01E034F803E07A
:1031200026F803E036F803E00233062B1EFB0E11EF
:1031300002F10402C5D1914B91481B88DFF87482DB
:10314000642461435B4391FBF3F4493CA4B201A9BD
:10315000FFF753FE3B2C8A4C5AD98A4BD4ED020A16
:10316000B3F9003094ED010A874EDFF8549207EE70
:10317000903AF8EEE77A854BF4EEE70AF1EE10FAB2
:10318000D4BF002201225A7308F05CFF94ED027A4A
:10319000D4ED017A86ED000A27EE070A94ED008A45
:1031A000A7EEA70A09F0F4F8B1EE488AF0EE400A5B
:1031B000B0EE480A08F046FF9FED758A86ED010AD9
:1031C00096ED000A20EE080A08F056FE96ED010A78
:1031D000A9F8000020EE080A08F04EFEA9F8020047
:1031E0000820FEF725FA002845D06A4801A9FFF714
:1031F00004FEB8F8F480674A07EE108AB8EE477A02
:10320000F7EE007A37EE276A002387EE866A1FE022
:10321000B8F8F21007EE101AB8EE477AF7EE007A17
:1032200037EE276A224687EE866A002336F903E0E6
:103230000233062B07EE90EAD2ED006AF8EEE77A49
:10324000E6EE877A67EE866AE2EC016AEED184E701
:103250005149D2ED006A595E07EE901AF8EEE77A0E
:103260000233E6EE877A062B67EE866AE2EC016AA5
:10327000EED1484808E0494801A9FFF7BEFD47489C
:103280000146FFF791FD4548FFF7AAFC444B188023
:103290005046FFF71DFE97F87630002B42D094ED94
:1032A000010AD4ED007A94ED028A3E4C20EE000A29
:1032B000A7EEA70AA8EE080A09F06AF888EE000A45
:1032C000DFED397AB4EEE70AF1EE10FA02D8002306
:1032D000238027E008F058FE344BD3ED007A20EE2F
:1032E000270A08F0C9FDB0F5617FA8BF4FF46170EF
:1032F00007EE900AB8EEE70ADFED2D7A80EE270A96
:1033000008F004FE194B93F8763007EE903AF8EE89
:10331000E77A27EE800A08F0AFFD208002E02080E7
:103320006080A080234B5B79012B234B0DD1234A76
:10333000B5F904001488022114FB0101032091FB5C
:10334000F0F189B29980118001E0AA889A802A88D8
:103350001A806A885A8004B0BDEC028BBDE8F08701
:10336000C81E0020E01E0020E8050020241A0020CE
:1033700084050020A0200020F81E00203801002035
:103380000C1F002018060020EC0500204A1F00201A
:103390004C3D0F44C0050020EC1E00200C00002016
:1033A000181F0020B40500208FC2753C001F0020AC
:1033B000EFB6B044F41A0020A205002094050020C6
:1033C000AC050020044A0023136053609360034A55
:1033D0001360034A13607047D01E00201C060020B3
:1033E0000C0600202DE9F84F2DED048B03F0C0FEF4
:1033F000BC4BB3F802B0B3F80080BB4B1A68821A1A
:1034000009EE902A19EE901A46F2A712914240F264
:10341000EE81B64E18603388DFF844A3B44C9FEDBC
:10342000B59ADFF84093DFEDB48AB44DB44FB7EEF0
:10343000008A4BB3B34894F83130DAF800100268D0
:10344000DFEDB10A013BB1FBF3F1082392FBF3FE80
:10345000CEEB02020A4492FBF3F306EE103AB8EE0A
:10346000C60A026080EE090A08F0EEFD00232B6018
:103470003B603388013B338038EE400A20EE280A57
:10348000BDEEC00A89ED000A94F83130DAF8002068
:10349000DFED9D0A9D4E013BB2FBF3F306EE903A41
:1034A000B8EE660A0FFA88F880EE090A08F0CCFD3B
:1034B0000FFA8BFBB8F1000FB8BFC8F10008BBF1E1
:1034C000000FB8BFCBF1000BD845B8BFD8461FFAE4
:1034D00088F80FFA88F838EE400A20EE280A08F03B
:1034E000CBFCD9F80030D4ED0D7A96ED006AC01A05
:1034F00006EE900AB8EEE60A78EE676AB8EEC67A8B
:1035000020EE260AA7EE270A08F0B6FCB8F1FA0F5B
:103510007F4B03DD4FF0FF321A6013E093ED007A2A
:1035200007EE908AF8EEC76AB8EEE77ADFED797AAF
:1035300037EEC77A26EE877AC7EE277AFDEEE77A6E
:10354000C3ED007A1B6874495A1EC62A03D8C01AF4
:103550000860336025E00968002BC1EB0000306093
:103560001FDDC3F5967107EE101ADFED6C7A6C491A
:10357000B8EEC77A06EE103A87EE277A634BF8EE7C
:10358000C66A06EE100AF8EEC67A38EE476A81ED92
:10359000007A67EE867AE6EE877AFDEEE77AC3ED8B
:1035A000007A604BDFED605AD3ED007A5F4B94ED0B
:1035B0000F6AD3ED026A5E4B93ED007A5D4BF8EE35
:1035C000E66AB8EEC77AF8EE677AC6EE878AC62A48
:1035D00093ED007AD5ED006A336828EE877A67EEBE
:1035E000A55A27EE277AB6EE005A66EEA57A27EEA0
:1035F000055A36EE877AE5EE257AD7ED005A85ED45
:10360000007A77EEA55A07EE903AB8EEE75A78EED0
:10361000467A65EE277AE5EE867AC7ED007A88BFAE
:10362000FDEEE77A444F94BF3B60C7ED007AFFF7A9
:10363000C9FE424B326819689FED417A1A60511AEF
:1036400007EE901AF8EEE77AF8EE699A67EE877A55
:1036500040F2DC52C7EEA99A3A49FDEEE99A19EE1A
:10366000900A03F065FD0A2103F06AFDD4ED0E7A9D
:1036700095ED007A06EE100A38EE678AB8EEC60AB3
:1036800020EE080AA7EE270A85ED000A08F0F4FBF1
:103690000521064603F054FD2B4B2C4D1860B8F560
:1036A000487FDFF8C48080F29C80294B1B78002B78
:1036B0005CD1284B284918683B684FF4FA72C01A4D
:1036C00003F036FD0A2103F03BFD094B23491B792A
:1036D0008022584390FBF2F04FF4967203F028FDDD
:1036E00046E000BFAC050020A8050020280A002005
:1036F000241A002080E6C547D048874ADC05002010
:1037000008060020D4050020B1DC423EB0050020B0
:103710000800002000006144000600200000C842AC
:10372000100600200C060020BD378635D01E002074
:103730001C060020DC1E0020E81E0020B80500202A
:103740000024744924FAFFFF040600201406002018
:10375000E0050020F41E00200CFEFFFFD4FEFFFF5A
:10376000FC050020F8050020CC050020224B18683D
:10377000871BA07A2149224E2023784390FBF3F047
:103780004FF4967203F0D4FC33682860207D1D4905
:103790001D4A07FB0030306003F0CAFCA47F98ED9F
:1037A000007A306007EE904A38EE877AF8EEE77AD2
:1037B0002B6867EE877A9FED157A67EE877A42F27B
:1037C0000406FDEEE77A90FBF6F61E4417EE900A2B
:1037D0006FF0950196222E6003F0AAFC301A286043
:1037E00001E000232B60C8ED008A012000E00020EA
:1037F000BDEC048BBDE8F88FF4050020D4FEFFFF7C
:10380000D0050020E0FCE6FF200319000000003B8B
:1038100070B5012086B004F095FB04F03BFC002855
:10382000FBD00020FDF736FFFDF784FE07F064FBB8
:1038300008F044F9844E854D30604FF4004406F0A2
:1038400039F806F043F92C832046FDF711FF08B143
:1038500007F0A8FB6C83FCF797FC0F20FDF7F2FE46
:1038600003F066F90120FDF7E3FE10B9032003F031
:10387000B5FC0023764A40F2DE5199520233242BE4
:10388000F8D1744B744A1A6008207076FDF7F0FE88
:10389000724CB8B194F81731042B13D8DFE803F059
:1038A0000303070B0F006B4803F074F80AE0694844
:1038B00002F064FF06E0674803F0EAF802E06548BA
:1038C00002F01AFF4FF40060FDF7D2FE10B1644819
:1038D00003F01CFC4FF48070FDF7CAFE18B194F899
:1038E0002B01FEF761FA01F0ABFF01F069FAFFF777
:1038F000D3F94FF48070FDF7BBFE08B9002308E050
:103900000820FDF7B5FE0028F8D0F368003318BF93
:1039100001234FF480308DF80730FDF7A9FE8DF8B4
:1039200008000120FDF7A4FE18B90820FDF7A0FE4D
:1039300000E0012000F001008DF805000820FDF7EF
:1039400097FE8DF806004FF40040FDF791FE8DF8CC
:1039500004002020FDF78CFE20B963795E1F7342BE
:10396000734100E001238DF809306379591E4A4202
:103970004A41B3F10E00434243418DF80B30B4F895
:10398000DE30ADF80E30B4F8E030ADF810304FF462
:1039900080404FF47A738DF80A20ADF81230FDF7AD
:1039A00067FE20B12D4BB3F8DA30ADF81230BDF818
:1039B0000E30B3F5FA7F84BF0023ADF81230B4F8AF
:1039C0001A31ADF81430274B01A8B3F8BC30ADF86C
:1039D000163006F05BFB03F0CBFB234B18606379DA
:1039E000052B03D1214B4FF4C8721A80204B4FF4A2
:1039F0007A721A801F4BC8221A801F4B01225A73F9
:103A00004FF400536B834FF480432B8314266B6970
:103A10000E4C83F400536B61192003F0D4FB6B69E7
:103A200083F480436B611920013E03F0CCFB16F058
:103A3000FF06ECD14FF4005323834FF4804363839C
:103A400000F07CFCFCE700BF1C1F002000080240C7
:103A500002200020CC0600205D420008F41A00205D
:103A600000100140241A0020B406002004090020A0
:103A700050090020280A00204A1F0020034B4FF461
:103A800000525A834FF480425A83FEE700080240F6
:103A9000024B5A780AB100225A7070474A1F002020
:103AA0002DE9F04F854BB3F90220B3F9003087B010
:103AB000002AB8BF5242002BB8BF5B4200249A4292
:103AC000B8BF1A4604922546A04627460394A2464C
:103AD0002646DFF800B29BF803301BB99BF8043090
:103AE000002B3FD0022E3DD0754B7449B3F8F8201F
:103AF000744B485F5B5FDFF8E091514203EB40009D
:103B000003F016FB704B99F81C2035F903C005EB48
:103B10000903CCEB0000B3F92A3000EB030C99F851
:103B20000800CDF808C000FB0CF064236FF004011E
:103B3000514390FBF3F002EB820203F0F9FA634B7E
:103B4000DDF808C062498246E0580293604442F2C0
:103B5000107203F0EDFA029BE05099F812305843CE
:103B6000001303909BF8033023B15A4B1B790BB918
:103B7000022E3CD1584BDFF844B1DFF870813BF99D
:103B80000570564906EB030907EB870099F80130E9
:103B9000000190FBF3F0524BEA5E801A54F80820C3
:103BA000029310444FF47A5203F0C2FA029B48F891
:103BB0000400EB5E002BB8BF5B42B3F5207F08DC4E
:103BC000022E09D1BBF90430002BB8BF5B42642B35
:103BD00002DD002348F8043058F804207D2392FBCE
:103BE000F3F899F80B3003FB08F84FEAA818394BA3
:103BF0001A79B2B1022E14D0049BDDF81090DDF8D2
:103C00000CC0C3F5FA7209FB08F07B4302FB0A33D0
:103C10004FF4FA7102FB0C0293FBF1F392FBF1F209
:103C200008E0DB780BB1022E02D142463B4601E0B0
:103C3000039A53462A49DFF8B8B0685A294935F93A
:103C40000BC0715C25F80B000FFA80F90591DFF8C5
:103C5000A4B0CCEB0901DFF8A0C0009154F80B90A0
:103C600054F80C1089440099894454F80C1044F815
:103C70000B10009944F80C10DFF880C016F80CC047
:103C80000CFB09F14FF0200CDDF8149091FBFCF1D6
:103C9000521A10FB09F06FF04F0190FBF1F0034452
:103CA000013611481344032E2B5204F1040405F18C
:103CB00002057FF40EAF07B0BDE8F08F981F00201B
:103CC000F41A0020D4060020AC050020DC060020F9
:103CD000F0D8FFFF4A1F0020241A002080C1FFFFF8
:103CE000A205002029200020A41F00202806002073
:103CF000BE0600204C060020EC06002026200020F6
:103D00002DE9F84F002425462746022F464EDFF8BE
:103D1000408107D196F82430B8F904201B3353436F
:103D20005B1130E0414B38F90500EB5E4049184427
:103D30004FF4FA7203F0FCF93E4B7219EB5EB2F9E4
:103D40002A20C01A831807EE103AF8EEC77AB2EEAE
:103D5000047AC7EE877A384AD378FDEEE77A17EE11
:103D6000901A6BB996F8233038F9050012791B3395
:103D700043431B113AB1B27C514303EB212302E0D0
:103D8000337A4B431B112D4ADFF8C8A035F9028066
:103D9000DFF8C490BAF8000029493E44C8EB030894
:103DA000F27A54F8093096F801B000FB08F0C0121E
:103DB00002FB00304FF4001244F8090003F0B8F998
:103DC000204BDFF898C0E15844F80380BAF800307F
:103DD00044F809004FF6FF721B09B2FBF3F3C1EB85
:103DE00008015943184B54F80C200BFB08FB54F8FE
:103DF000038044F80C804FEAEB1B89110BEB603B0E
:103E00004244707DE1500A445043104B01370BEBA4
:103E10002020032FE85204F1040405F102057FF489
:103E200074AFBDE8F88F00BF241A0020D40600202C
:103E30000CFEFFFFAC0500204A1F0020A205002059
:103E40000000E0FFF806002038060020A41F002034
:103E5000981F0020D80600202806002064060020B5
:103E60002DE9F0478046894692460025EBB253453E
:103E700016D20024E3B243450DD20A4B0A4E5A69CA
:103E8000102782F400525A614846378303F09BF9A9
:103E900001347783EEE73C2003F095F90135E5E73F
:103EA000BDE8F08700080240000002400B4B1A8872
:103EB0000B4B52B99A7842B15A786AB901225A70BA
:103EC000084B1A88084B1A8070475B7823B9022088
:103ED000FF210122FFF7C4BF704700BF5009002037
:103EE0004A1F0020181F0020002000202DE9F04F5D
:103EF000A84BB3F90600A84B2DED028BDA8C90424B
:103F000085B00FDBB0F5FA6F93F8254007DA811A18
:103F10004C43A2F5FA6294FBF2F4643403E0C4F17A
:103F2000640400E064249D4A93F82370B2F81A11E7
:103F300092F9EC200091524292B293F8705093F8AB
:103F4000716093F8243002920021019703930A468E
:103F5000904BDDF8008031F903C0C8EB0C0303F28D
:103F6000F31E40F2E637BE4503D8002BB8BF5B42D4
:103F700001E04FF4FA73022ADFF82C822CD025B12D
:103F8000AB42CCBFC5EB03030023642793FBF7FED2
:103F9000DFF844A26FF0630B3AF81E900BFB0E3B68
:103FA0000EF1010E3AF91EA00FFA89FECEEB0A0EB1
:103FB0000EFB0BFE9EFBF7FECE4428F801E0DDF879
:103FC000048003FB08FE764B9EFBF3F33B449BB25D
:103FD000634393FBF7F714E026B1B342CCBFC6EBC3
:103FE00003030023DDF808E003FB0EF7A8F80470D4
:103FF000039F002BB8BF5B427B43694F93FBF7F7EE
:104000006437654BDFF8D48102EB030E64239EF81E
:10401000019007FB09F999FBF3F902F808909EF863
:104020000B90DFF8BC819EF815E007FB09F999FBBE
:10403000F3F907FB0EF702F80890DDF8008097FB14
:10404000F3F3584FC445D355574F02DA7B5A5B42BE
:104050007B520132032A01F102017FF479AF4F4C08
:104060004FF4FA62B4F81C1103F062F8B4F81C3192
:104070004D4CC01A4FF47A754543C3F5FA63B5FB4E
:10408000F3F5642195FBF1F348486FF0630630F8CF
:10409000132006FB0355013330F9130013B2C31A82
:1040A0005D4395FBF1F1424D6B7A0A44FA80D3B33C
:1040B000404BDFED417AB3F90020404BB3F90030BB
:1040C000D31A08EE903AF8EEE88A68EEA78ADFED98
:1040D0003C7AC8EEA78AB0EE680A07F091FEB0EE0F
:1040E000408AB0EE680A07F011FFB4F902E0B4F9B3
:1040F000001006EE90EA07EE901AF8EEE66AF8EE87
:10410000E77A20EE667AA7EE887A67EE807ABDEECF
:10411000C77AE6EE887A17EE103AFDEEE77A23804A
:1041200017EE903A6380274B1B881BB9264B1B88E0
:104130002BB90AE00220FDF77BFA0028F6D0234BCA
:104140005A6982F400525A610DE0AB781BB11F4BE3
:104150004FF400525A836B781BB11C4B4FF4005242
:104160001A8302F0E3FF1A4A1A4913680868181AFA
:104170000028144638DB687B0D4A98BB9070134AC0
:10418000506903F5F42380F4005003F590735061F7
:104190000B6029E002200020241A0020F41A0020DD
:1041A0000CFEFFFF26200020981F0020681F002023
:1041B0004A1F0020181F0020DB0F4940002000206C
:1041C0000000344304090020500900200008024088
:1041D00004070020D00600203C20002029200020D9
:1041E000F41F00200123937002F0F8F8154B1B78A0
:1041F00033B94FF40060FDF73BFA08B102F097FFC6
:104200002020FDF715FA98B10F4A23681168591A52
:1042100000290DDB0D490978042909D903F512336A
:1042200003F5F87313600A4B5A6982F480425A61AD
:10423000084B9B680BB10848984705B0BDEC028B52
:10424000BDE8F08F10030020E8060020FA1F0020D0
:1042500000080240A0200020481F0020024B184404
:1042600090F80F0105F086BEF41A00202DE9F04108
:104270000820FDF7FDF9DFF8A480234F002837D18F
:10428000224C06460546D8F80030E8B29847A0F21E
:10429000EE2240F2DC5392B29A4288BF1C4B1D4979
:1042A00088BFB3F81A010A681B4B1340002B03DACE
:1042B000013B63F00303013303EB850C134B23F83D
:1042C0001C00208863880344A0880344E0880344DA
:1042D0001BB20420013593FBF0F3082DBB5304F10E
:1042E000080406F10206CED101320A60BDE8F08171
:1042F0000024E0B2D8F80030984727F814000134C1
:10430000082CF6D1BDE8F0810220002074060020C0
:10431000F41A0020E406002003000080CC060020F0
:104320000128034B14BF034A034A1A60704700BFB9
:104330001C000020A13A0008013D00082DE9F84FBB
:1043400008202DED048BFDF793F9A54DA8B195F844
:104350001731042B10D8DFE803F0030306090C0023
:1043600002F012FB09E002F037FA06E002F0AAFBC5
:1043700003E002F0B3F900E000209A499A4A0B6882
:1043800014681C1B002C884602DA002800F0F68214
:1043900003F59C4320331360FFF768FF4FF4804020
:1043A000FDF766F920B1914B1B780BB9FFF770FB55
:1043B0004FF40070FDF75CF98D4F00283BD08D4E17
:1043C0008D4C96F8B830B4F9001003EB830291429B
:1043D0001CDDDFF82C9299F80120BAB1B5F81A214A
:1043E0003A807A80BA80B6F8BA20FA8096F8B92076
:1043F000134403EB8303994204DDFFF749FB0023D9
:1044000089F800307D4B1A8801321A8096F8B8304E
:10441000B4F9002003EB83039A4209DD784E96F845
:104420000190B9F1000F03D1FFF732FB86F800903D
:104430002388013323800022B5F81C01B5F81E4102
:104440001346B95E9B088142C4BF63F07F03DBB2B1
:104450000232A142B8BF43F04003082AF1D1694CAF
:10446000DFF8C89122789A4205D199F80020F92AFC
:1044700004D8013200E0002289F800204FF4804087
:104480002370FDF7F5F85B4E58B1B5F81A11B5F881
:10449000DC20B7F90630881A834202DD0A449342D1
:1044A0000DDB4FF48040FDF7E3F830B9B7F9062093
:1044B000B5F81C319A4202DB12E0002010E0524AAB
:1044C0000023136053609360504A13605360B6F842
:1044D000463023B1454B1B78002B40F00684012069
:1044E000B6F846306BB1414B1B7853B9444B5B78FF
:1044F0003BB195F8213113B1FFF7CAFA01E000286A
:10450000FAD199F80030142B40F0C3803C4B93F85B
:1045100001B09A46BBF1000F18D0B6F8463023B967
:1045200023785F2B01D1FFF7B3FA95F82031002BE8
:1045300000F0AF80B6F84630002B40F0AA80237818
:104540007D2B40F0A680FFF7A3FAA2E02378572B3B
:1045500018D12F4B4FF47A724FF480701A80FDF708
:1045600087F808B1FDF76AFB0420FDF761F810B188
:10457000284B0A221A800820FDF75AF8E8B9264B82
:1045800018801AE00420FDF773F8B0B11D4B1B78BA
:104590005A2B12D1214B1A7822B183F800B0012294
:1045A0001F4B09E01F4B1A7882F001021A701E4B54
:1045B0000AB1022200E003221A7023785D2B00F07A
:1045C0009D835B2B00F09C835E2B00F09B83B6F8F1
:1045D00046306BBB22786F2A2AD1FFF767FC3BE09D
:1045E000F41A002004070020B8060020B61F00209F
:1045F00002200020241A002024060020C6060020E5
:104600004A1F0020C506002028060020DC060020E6
:1046100050090020280A0020181F0020340600201E
:10462000C406002060060020C8060020C90600203D
:1046300095F820211AB113B923787E2BCDD0237899
:10464000972B04D1844B4FF4C8721A8004E0A72B37
:1046500004BF01238AF80E302378BB2B02D1B38D1F
:10466000023303E0B72B03D1B38D023BB38509E0DE
:10467000BE2B02D1738D023303E0BD2B09D1738DA4
:10468000023B738501200146FCF75CFF002389F89B
:1046900000300420FCF7ECFF48B3704A704B1178EF
:1046A00071B17049497859B1B7F90600B5F81C11D4
:1046B000884205DD197819B96B48117032240480DD
:1046C0005B7C53B1694B1A782AB9694A127812B9DE
:1046D000654A32211180012208E0654B1A7832B117
:1046E000604A52781AB91A70624B01221A706248F5
:1046F0000123002230F8021FA1F21554B4F5C77F40
:104700008CBF002401249C4009B2224340F2135480
:10471000A142CCBF002401245F1EBC40224340F2D2
:10472000A464A142D4BF002101215C1CA140033339
:104730000A430D2B92B2DDD1002306EB4301484F13
:10474000B1F846100A420CBF00210121D9550133AE
:10475000152BF2D17B78434C4BB9484BB3F9002071
:10476000474B93F8B83003EB83039A420CDD0220E9
:10477000FCF75EFF40B1E37843B9424A13605360EF
:10478000384B0122DA7001E00023E370BB7853B1AB
:104790000023E37023793BB93A4A13605360314BED
:1047A00001221A7100E023713B780BB901232370B9
:1047B000E278354B12B92B4A12791AB14FF4804284
:1047C0001A8302E04FF480425A830420FCF730FF42
:1047D00010B3FB788BB1A37983B9224A012191717F
:1047E0002A4A11682A4A11602A4AD1882A4A118025
:1047F0002A4A13602A4A136000E0A3714FF4005064
:10480000FCF736FF40B13B792BB1E37B23B9154B65
:104810000122DA7300E0E3730220FCF709FF10B114
:104820007B7933B90FE00820FCF702FF0028F7D1AD
:1048300043E0637943B90B4B01225A71194B1A8833
:10484000194B1A8000E06371BB797BB3637A73BB49
:10485000044B01225A722AE004090020600600205D
:10486000B61F00204A1F0020BC060020DA060020E8
:1048700034060020C4060020082000202406002062
:10488000241A0020DC06002000080240E81E002058
:10489000F41E0020981F002070060020D005002084
:1048A00014060020181F00209C2000206372FB7952
:1048B0001BB1994B1A88994B1A802020FCF7B8FE3F
:1048C00000284FD0E27A964B002A46D0954A1278BB
:1048D000042A42D9BA7A7AB1DA79002A42D101217E
:1048E0009148D9711A72914B011D1A70FDF7CEFAD9
:1048F0008F4B02221A7035E0DA718E4AD27A12B3E7
:104900008D49B6F8CC20B1F900000028B8BF40426C
:10491000904218DAB1F902100029B8BF4942914219
:1049200011DA1A7AF2B901261E72804B83481A7086
:10493000834B011D1A685B6843600260FDF7A6FAAD
:104940007B4B1E700EE000232372784B1A784AB915
:1049500001221A70FDF796F904E0754A0023E3710D
:10496000237213703B7B03B10123A3726B79082B75
:1049700001D00E2B28D10023637225E0714B1A68F9
:10498000012A1C460BD0022A16D0EAB901230820BE
:104990002360FCF74DFE10B102F024FBA0B92368A0
:1049A000042001332360FCF743FE68B102F01EFAD5
:1049B00050B1FEF717FD07E018604FF48070FCF768
:1049C00057FE08B1FDF712FB02F0D2FBAA89C8F826
:1049D00000005D4B22B11968411A0029C0F2A38181
:1049E00010441860FEF746FB02F0C2FB574B5849D3
:1049F0001A68C8F80000821A18600A80FFF776FA71
:104A00000820FCF715FE534E002831D04A4A918801
:104A100001F145039BB28A2B14463F4B4E4A25D8E1
:104A20003F48477917B31F881388407BFA1A92B220
:104A300093B21FB2B337BCBF02F5B4739BB21AB2C4
:104A4000B32AC4BFA3F5B4739BB295F8EC2078B138
:104A500052B252425343727A9BB213FB02F36FF08D
:104A60001D0293FBF2F31944A18001E01B8813801F
:104A70000420FCF7DDFD002800F09C80284B9A798B
:104A8000002A00F09780187C2B4C002840F08A8088
:104A900096F87310314F96F87220314B39B3B4F851
:104AA00006E0B7F900100FFA8EF7C1EB070CBCF166
:104AB000000FB8BFCCF1000C94450DDD8F42C8BF8C
:104AC0005242284D1FFA8EFEC8BF92B2286072442F
:104AD00001201870E2806DE01A7822B1224A187025
:104AE0001768224A1760224B1868084452E0B7F949
:104AF0000000B4F906703F1A87EAE77EAEEBE77E66
:104B000096453BDD022297FBF2F71A4A1A491760D5
:104B100001220A701A703AE0181F002000200020BD
:104B20004A1F0020FA1F0020AC1F0020190000209F
:104B300058060020B61F0020981F0020881F002064
:104B4000DC1F00205C06002044060020B406002084
:104B5000D8060020241A00209C2000207006002087
:104B600059060020D0050020E81E0020F41E002079
:104B700014060020F4050020E00500201A7832B168
:104B80006B4A197017686B4A17606B4A11706B4B50
:104B90001B681844B5F8D010B5F8D22002F0C8FA56
:104BA000E08007E0654B628895F923111B6801FBE3
:104BB0000323638096F8763053B1614BDA780AB9F3
:104BC0001B792BB15F4B604A1188DA880A44DA807E
:104BD0002020FCF72DFD00287AD0594BDA7912B944
:104BE0001A7A002A74D01B7B002B71D0574BDFED53
:104BF000587AB3F90030574F574D08EE103AB8EED7
:104C0000C88A28EE278AB0EE480A07F07FF9F0EE4E
:104C1000408AB0EE480A07F0F3F896F8C5304F4ED8
:104C2000B0EE409AB2EE048A83B34D4CB6F902005E
:104C3000B4F802800FFA88F3C01AFDF771F997F8FB
:104C4000C520514202F074FA4044B4F800806080FC
:104C5000B6F900000FFA88F3C01AFDF761F997F86A
:104C6000C520514202F064FA40441FFA80F8A4F8CB
:104C70000080B4F902400FFA88F807EE104A07EEF8
:104C8000908AB8EEC77AF8EEE76A0BE0B6F9022030
:104C9000B6F9006007EE102A06EE906AB8EEC77A01
:104CA000F8EEE66A68EEE67AE7EE097A26EE899A89
:104CB000C7EE887AA7EE289AFDEEE77A89EE089A81
:104CC00017EE903ABDEEC99A2B8019EE103A6B8020
:104CD000244B1B68984700F095F900F01FF9BDECD4
:104CE000048BBDE8F84F00F079B9154B1B78002B09
:104CF0003FF4F5ABFFF7DAF8FFF7F1BB012202E072
:104D0000022200E003225FFA82FB00200BF1FF3356
:104D1000014685F8B033FCF715FC022028215A46DD
:104D2000FFF79EF853E4BDEC048BBDE8F88F00BF9D
:104D3000E81E0020F41E0020E005002014060020DC
:104D40004A1F0020981F0020B4050020181F0020D3
:104D500035FA8E3C241A0020D4060020801F002043
:104D6000641F00201C000020074B03EBC003B3F8B6
:104D70007C301AB2112A04DC0728DCBF034B33F85D
:104D8000123018B2704700BF241A00200220002001
:104D900010B500244FF48040FCF76AFC064B10B1BC
:104DA000B3F8DA3001E0B3F8D430044AA352023445
:104DB000182CEFD110BD00BFF41A00206220002093
:104DC000F8B53B4E3B4D73793B4C05EBC3032020BC
:104DD0005B78003318BF0123A376FCF749FC08B1C8
:104DE0000123A3767379162B1CD100243319D3ED3C
:104DF000047AF5EE407AF1EE10FA05D14FF48040D6
:104E0000FCF736FC50BB24E010330FCB2B4D254470
:104E100085E80F002A4B1A7810340132C02C1A7022
:104E2000E4D1EBE715F83370254A05EBC30517709D
:104E3000D5F804E0BEF1000FE0D00024BC42DDDA7A
:104E40001E4D23011D4473440FCB013485E80F0030
:104E5000F4E772791B4B082A20D121E0184B19780E
:104E60000129F6D9184B00228A4203F11003F0DA27
:104E700013ED047AF6EE007A27EE277A013203ED7D
:104E8000047A13ED057A27EE277A03ED057A13ED00
:104E9000037A67EE277A43ED037AE5E70E2A01D11C
:104EA000012200E000221A74BDE8F840FFF770BF4D
:104EB000F41A0020700801081C1F00200C070020B5
:104EC000080700204A1F0020140700202DE9F041A8
:104ED0000023461C0F4A991810330020C02B08618C
:104EE0009446F7D10C4B03EBC6029846576877B14E
:104EF000002418F836309C4209DA23010CEB030534
:104F00003B440FCB103585E80F000134F1E7BDE8D5
:104F1000F08100BFF41A0020700801082A4B9B7E24
:104F200010B5002B4ED0294B5B79013B142B3AD89E
:104F3000DFE803F00B3939213D393919393939396D
:104F400039293939393939212900214B93F8BF30B2
:104F50001BB1204B0020598930E01F4B58780028A6
:104F6000F7D101462AE01B4C0020E18804F0F4FF51
:104F70000120218922E0174C0020218904F0ECFF58
:104F8000012061891AE0134C0020E18804F0E4FF5D
:104F90000120218904F0E0FF0220618904F0DCFF98
:104FA0000320A1890AE02020FCF762FB50B1094CE4
:104FB0000020218804F0D0FF61880120BDE8104066
:104FC00004F0CABF10BD00BF1C1F0020F41A00204F
:104FD000241A0020200000204A1F002010B50023C2
:104FE000D8B25C1C054B1B78834206D9044B33F8BE
:104FF000101004F0A3FF2346F2E710BD08070020BD
:105000004A2000202DE9F74FBF4F3B78032B0FD9E3
:10501000BE4BBF4CB3F90420B4F90400002AB8BF5A
:1050200052426FF06301891A643202F081F8A08065
:105030003978B84C01291CD8B74D6B79013B142B3A
:1050400000F20682DFE813F09A000402040257001F
:10505000AD00040204023C01040204020402040242
:105060000402D10004020402040204020402A201A8
:10507000D201A64B94F9BE20D888A54B5D881E8826
:10508000B3F90430524203FB02F8A44B00228A42D7
:1050900003F11003D0D20FFA86FE07EE908A06EED7
:1050A00010EA0FFA80FE05EE90EA0FFA85FEF8EEA0
:1050B000E76A07EE90EA13ED027ADFF86CE2F8EEA9
:1050C000E77AF8EEE55A67EE877A13ED047AE5EEB3
:1050D000877AB8EEC66A13ED037AE6EE077A13ED27
:1050E000017AE6EE877AFDEEE77A17EE90CA2EF89F
:1050F00012C00132CBE794F89E20854B884EB3F85E
:105100000490B3F8028012F0020F0CBF4FF0010BB5
:105110004FF0FF3B042012F0010F0CBF4FF0010ACB
:105120004FF0FF3AFFF720FE94F8A6300BFB09FB87
:1051300013F0020F0AFB08FA1FFA8BFB0CBF0122C7
:105140004FF0FF32584413F0010F1FFA8AFA8244DD
:105150000CBF01234FF0FF33052002FB09F903FBCD
:1051600008F8A6F808A0FFF7FFFD1FFA89F91FFA53
:1051700088F848448044A6F80A8069E194F8A6308B
:1051800013F0010F624B9B880CBF01264FF0FF36D6
:1051900005205E43FFF7E8FDB6B2614B304458810D
:1051A00056E1DFF88C9194F87EA0B9F802805C4E4D
:1051B0000020FFF7D9FD4FFA8AFA1AFB08FA4FF0E0
:1051C00032089AFBF8FA504494F886A03080B9F877
:1051D00000900120FFF7C8FD4FFA8AFA1AFB09F97F
:1051E00099FBF8F84044708032E14E4B4C4E5A78AF
:1051F00099461AB9B5F8D430F38109E0434BB5F8B4
:10520000D010B3F90600B5F8D22001F091FFF0817B
:10521000454BF2891A8095F82231DFF8FC802BB3D8
:105220000220FFF7A1FDB4F98810B4F98A2001F03B
:105230007FFF3E4BB8F81A111A88081A0FFA82FE3F
:1052400000B2864503DA98F82201024403E003DD48
:1052500098F82201121A1A8094F98E201B8812FBEA
:1052600003F3642293FBF2F31944B18099F80A30F6
:105270005BB1264B1A88F28032819A8872815B88F2
:10528000B381DFF89C80032601E0214BF2E704EBB9
:10529000C602B8F8063092F97E9019FB03F9642330
:1052A00099FBF3F9A8F806903046FFF75DFD01364B
:1052B0004844072EA8F8060008F10208E7D1C7E025
:1052C000184B174E5A7898461AB9B5F8D430F3816E
:1052D00009E00E4BB5F8D010B3F90600B5F8D220AE
:1052E00001F026FFF081104BF28994F896101A8095
:1052F00098F80A3011F0010F0CBF01204FF0FF3079
:10530000C3B1024A17E000BF08070020981F002021
:10531000A41F0020241A0020F41A00200C070020EB
:10532000200000204A1F00204A2000200A070020F9
:10533000AC050020B54A5388128811F0020F0CBF4B
:1053400001214FF0FF31514300FB0311F18094F82C
:105350009E1011F0010F0CBF01204FF0FF3011F033
:10536000020F0CBF01214FF0FF314A4300FB032322
:1053700003203381FFF7F8FCF3881844F080042001
:10538000FFF7F2FC33891844308161E0DFF87C825A
:1053900094F89E20B8F802309D4E12F0010F0CBF19
:1053A0004FF001094FF0FF3909FB03F91FFA89F9A2
:1053B0000420A6F80890FFF7D7FC94F8A620B8F8C8
:1053C000003012F0010F0CBF4FF001084FF0FF3812
:1053D000484408FB03F830811FFA88F80520A6F836
:1053E0000A80FFF7C1FC4044708131E0874BB3F87D
:1053F00004B003269A4604EBC603C6F1060193F8EF
:105400007E30DFF80C82490813F0020F0CBF012236
:105410004FF0FF323AF8111013F0010F0CBF4FF0AC
:1054200001094FF0FF3909FB01F902FB0B991FFA43
:1054300089F928F816903046FFF796FC484428F87A
:1054400016000136072ED6D1724BDA88724B1A80BD
:105450002020FCF70DF9002847D00020FFF784FC3E
:105460006B4E804630800120FFF77EFC6B4B7080D6
:105470001B7A002B39D094F8C030694A94F8861012
:1054800013F0020F674B1CD0B3F800E092F97E20B6
:10549000B3F9023049B211FB0EF152424FF0320E15
:1054A000534391FBFEF16FF0310289B293FBF2F2AC
:1054B0000A4493FBFEFE90447144A6F80080084421
:1054C00012E0B3F802E092F97E201B8812FB0EFE78
:1054D00049B232229EFBF2FE11FB03F1F04491FB34
:1054E000F2F2A6F80080104470804F4EDFF8308151
:1054F00006F11009B6F90200B8F97810B8F97A2067
:1055000001F016FE26F8020F4E4508F10808F1D109
:1055100094F8C0305B0705D43F4E3A78B6F8008067
:1055200001230FE0414BDE7E0024043E404B03EBA1
:105530004403A019C0B21989013404F00DFD042CF4
:10554000F4D1E9E793420AD236F913100FFA88F83A
:105550004145A8BF88461FFA88F80133F2E70024C6
:10556000A1463B7899454DD2B5F8D2300FFA88F272
:105570009A4204DD325BC8EB0303134433534FF408
:105580008040FCF775F82A4B98B1B3F90610B5F8CE
:105590001A21284B305F9142C7BFB3F8D810B3F837
:1055A000D220B3F8D410B3F8D62001F0C1FD3053A7
:1055B0001EE0B5F8D220305FB5F8D010019301F0AD
:1055C000B7FD019BDFF86CB0B3F90620B5F81C31CC
:1055D00030539A4206EB040A0ADA1020FCF748F826
:1055E00010B9BBF8D03001E0BBF8D430AAF80030D5
:1055F000114B5B7813B9114BE35A335309F101098D
:105600000234AEE703B0BDE8F08F00BFA41F002056
:1056100020000020981F00204A200020B61F0020F4
:10562000241A0020AC0500201E0000201C1F0020B2
:1056300002200020F41A00204A1F002062200020CF
:10564000F8B5154E154C164D0746C1B2706921705C
:1056500004F010FE22782B7870695340C7F30721BD
:105660002B70217004F006FE22782B78706953406D
:10567000C7F307412B70217004F0FCFD22782B78D2
:1056800070695340390E2B70217004F0F3FD2B78B4
:10569000227853402B70F8BD1C1F0020CD0700203E
:1056A000CC070020F8B50C4E0C4D0D4CC1B207468E
:1056B0007069297004F0DEFD2A7823787069534000
:1056C000C7F307212370297004F0D4FD23782A78CA
:1056D00053402370F8BD00BF1C1F0020D0070020DE
:1056E000CC070020054B10B504462146586904F04C
:1056F000C1FD034B1A7854401C7010BD1C1F0020C4
:10570000CC070020034A1378591C1170024AD05C60
:10571000704700BFE9070020EA07002010B5FFF737
:10572000F1FF0446FFF7EEFF04EB002080B210BD4E
:1057300010B5FFF7F3FF0446FFF7F0FF04EB00405E
:1057400010BD000038B5044624200D46FFF7CAFFFF
:105750004D20FFF7C7FF002C0CBF3E202120FFF794
:10576000C1FF064B284600221A70FFF7BBFF044B0F
:105770001878BDE83840FFF7B5BF00BFCC07002060
:10578000D307002001460020FFF7DCBF01460120BF
:10579000FFF7D8BF014B1878FFF7A4BFCC07002054
:1057A00070B5064608460D46FFF7ECFF0024E3B24D
:1057B0009D4204D0305DFFF795FF0134F7E770BDDF
:1057C00010B5441E14F8010F10B1FFF78BFFF9E775
:1057D00010BD00002DE9F047002701240025154BDE
:1057E0001B789D421DDA144B144E15F803800C23D0
:1057F00003FB0863B246586808F0F1FA81460CB919
:10580000264601E007440AE04E4508DA0C2303FB74
:1058100008A35B68985DFFF765FF0136F4E7013583
:10582000DDE724B1F8B2FFF7ADFF0024D6E7BDE80D
:10583000F08700BFCF070020D407002030000020F1
:10584000F8B5454D454C2846FF21152208F0A5FA2C
:1058500001260023022026702B70FBF7E9FE38B1E9
:1058600023789A1CEE543344DBB222700222EA54AD
:105870000420FBF7DDFE80B12378384E5A1C2270DD
:105880004FF400500322EA54FBF7F2FE28B13378BC
:105890005A1C3270304A0421D1540220FBF7C8FE52
:1058A00068B123780522EA545A1CD2B20621A954C1
:1058B000DA1C0233DBB222700722EA5404E008202B
:1058C000FBF7B6FE0028ECD12020FBF7D1FE20B17B
:1058D00023785A1C22700822EA544FF48070FBF798
:1058E000C7FE40B123780A22EA549A1C0133DBB286
:1058F00022700B22EA541A4A5379082B174601D01A
:105900000E2B04D123785A1C22700C22EA542378DF
:10591000124E5A1C227004200D22EA54FBF7A8FEF6
:1059200028B133785A1C32700B4A1121D154237894
:1059300097F83C01094E5A1C0030227018BF012014
:105940001322EA54FBF794FE28B133785A1C3270C4
:10595000014A1421D154F8BDD4070020CF070020FC
:10596000F41A00202DE9F041BC4B1B787BB1BDE857
:10597000F041FBF727BC6069B94C04F090FC237838
:10598000FBB9B0F124025342534123703BB1B54CF3
:10599000606904F07FFC0028EDD100F012BDB24B2D
:1059A0005B78002BF3D1232802D1FBF70BFCEEE749
:1059B000AE4B93F8B1338342E9D1012001F02AFCC8
:1059C000E5E7012B05D14D2814BF0023022300F089
:1059D000F5BC022B05D13C2814BF0023032300F0A3
:1059E000EDBC032B0FD140284FF0000300F2E684FA
:1059F0009F4A10709F4A13709F4A13709F4B1870F4
:105A0000042300F0DBBC042B08D19D4B18709B4B8A
:105A10001A7850401870052300F0D0BC052BB6D181
:105A20009449934B0A781B789342944B07D91C787E
:105A300044401C70531C0B70924B9854A7E71B7882
:105A4000834240F0BA848E4B1B78782B00F07D8225
:105A500079D86D2B00F00C8342D8682B00F0A98216
:105A600025D8652B00F0BA8119D8642B40F0A084AA
:105A700007207E4DFFF786FEE720FFF733FE6879AB
:105A8000FFF730FE0020FFF72DFE95F822017E4B38
:105A90007E4A00280CBF1046184600F033BC662B27
:105AA00000F01A82672B40F08384794882E26A2BE7
:105AB00000F0AE82C0F082826B2B00F0C7826C2BAC
:105AC00040F07684734D0620FFF75CFEB5F90000C8
:105AD000FFF7E8FDB5F90200FFF7E4FD6E4BCFE2FA
