:020000040800F2
:10000000103E00205DCC00080DF10008993A000870
:100010000FF1000811F1000813F1000800000000C2
:1000200000000000000000000000000015F10008C2
:1000300017F100080000000019F10008D5A400081D
:1000400059CC000859CC000859CC000859CC0008FC
:1000500059CC000859CC000859CC000859CC0008EC
:1000600059CC000859CC000859CC000859CC0008DC
:1000700059CC000859CC000859CC000859CC0008CC
:1000800059CC000859CC000859CC000859CC0008BC
:1000900059CC000859CC000859CC000859CC0008AC
:1000A00035DA000859CC000859CC000809DA0008F4
:1000B00015DA00081DDA000859CC00081DE8000810
:1000C00081E7000859CC000859CC000859CC000839
:1000D00059CC000835F0000841F000084DF0000848
:1000E00059CC000859CC00081DF1000859CC000873
:1000F00059CC000859CC000829DA000859CC00086E
:1001000059CC0008E592000859CC000859CC0008E9
:1001100059CC000859CC000859CC000859CC00082B
:1001200059CC000859CC000859CC000859CC00081B
:1001300059CC000859CC000859CC000859CC00080B
:1001400059CC000859CC000859CC00084DF10008E2
:1001500059CC00081993000859CC000859F0000840
:1001600059CC000859CC000859CC000859CC0008DB
:1001700059CC000859CC000859CC000859CC0008CB
:1001800059CC000859CC000870B50646B6FBF2F40D
:100190000846154614B12046FFF7F6FF05FB146428
:1001A000024B1B5D00F8013B70BD00BF0028010839
:1001B00010B50278202A034600F10100F9D0092A7F
:1001C000F7D02D2A03D10346BFEE000A04E02B2A04
:1001D00008BF0346B7EE000A9FED377A1A4613466A
:1001E00012F8011BA1F13000C4B2092C0AD805EEA7
:1001F000900AF8EEE57AF2EE046AE7EE267AB0EEBF
:10020000677AECE72E2915D1F2EE047AF0EE676AF0
:10021000134612F8011B3039C8B209280AD805EE76
:10022000901AB8EEE56A86EE276A67EEA67A37EE90
:10023000067AEDE71A7802F0DF02452A34D15A78BF
:100240002D2A02D10233012204E02B2A14BF0133EC
:1002500002330022013B002113F8010F3038C4B2F1
:10026000092C03D80A2404FB0101F5E7B1F59A7FB4
:1002700034BF0B464FF49A731946F7EE007A0729FC
:1002800005D9DFED0E6A083967EEA67AF7E703F0C5
:1002900007032BB1F2EE046A67EEA67A013BF8E79A
:1002A00022B1C7EE277A03E0F7EE007A67EE277AED
:1002B00020EE270A10BD00BF0000000020BCBE4C8D
:1002C00010B5441E14F8011F21B1034B18680DF03E
:1002D0005BFAF7E710BD00BFC02500200148FFF71B
:1002E000EFBF00BF2528010810B50748FFF7E8FF5A
:1002F0000024064B0648E1581A190C34526805F0E0
:100300008FFDC02CF5D110BD55280108202701080C
:100310006B28010870B50AF0FFF8294B1A88294BA1
:100320004FF47A71B0FBF1F11B78274805F078FDA6
:1003300001F080F8254B1968254B1A68254B53F8B6
:100340002110254B0546B2FBF3F2244805F068FD69
:100350000024E3B2224A52F8231049B1012202FAE2
:1003600003F32B4202D01F4805F05AFD0134F0E799
:10037000022001F045F898B11B4C1C4B22781C4818
:1003800053F8221005F04CFD2378022B08D1194BAD
:1003900019481B7D002B0CBF6E216F2105F040FD1D
:1003A0001648FFF78DFF164B1C880EF0E3F9214627
:1003B000024640F2C4431348BDE8704005F030BD2A
:1003C000602600202C00002073280108FC04002077
:1003D000580000209438010840420F00B12801085D
:1003E00074380108DA2801085A090020E0270108BA
:1003F000DE280108C0250020E82801089D2B0108FF
:10040000AE050020EC28010838B50C6805462046EA
:1004100010F0E5FF214602462868BDE8384010F09C
:10042000E7BF000008B50948FFF74AFF0121002097
:1004300000F070FF0648FFF743FF0A200AF07DF83E
:100440000020BDE808400AF09FB800BF1E2901083F
:10045000282901087FB5044610F0C1FF082824D1DF
:1004600000231F49E25C09681144497801F0030147
:10047000022908BF203AE2540133082BF1D10025AC
:10048000665D1848314610F09DFF28B101356019AE
:10049000314610F097FF18B11348FFF711FF1CE029
:1004A000082DEDD1204600F085FE1048FFF708FF2B
:1004B00000230F4A1A4404A992F87F210A440949EB
:1004C000595C02F80C1C0133082BF2D100230948B7
:1004D0008DF80C3001A905F0A3FC04B070BD00BF7D
:1004E000900100209C430108372901085729010881
:1004F000502000206E28010808B501F093FB013060
:100500000CBF03480348BDE80840FFF7D9BE00BF51
:100510006C290108922901082DE9F041054610F0E7
:100520005EFF044601F080F906468CB92948FFF7C2
:10053000C7FE294B53F8241041B10123A340334295
:1005400002D0264805F06CFC0134F2E7244821E093
:1005500028462449224610F04BFF58B92248234C24
:10056000FFF7AEFE54F8041F0029EFD01B4805F03A
:1005700057FCF7E72B782D2B03BF013504F1FF342F
:100580004FF001084FF000080026134B53F8267077
:1005900027B91748BDE8F041FFF792BE2846394613
:1005A000224610F025FF98B90120B040B8F1000FA5
:1005B00003D001F02BF90F4802E000F04BFF0E488A
:1005C000FFF77EFE39460D48BDE8F04105F028BC36
:1005D0000136DAE7B029010870260108DA28010897
:1005E0009D2B010827360108C32901086C26010844
:1005F000D8290108F2290108FC2901086E28010800
:1006000010B504460848FFF75BFE084A0023137044
:10061000074A1360074A137004F004FF2046BDE840
:100620001040FFF7FFBE00BF052A0108F9010020B6
:100630002C020020F801002008B50848FFF740FE12
:10064000012000F00FFF0648FFF73AFE0A2009F0EC
:1006500074FF0020BDE8084009F096BF1D2A01087C
:100660002A290108F8B5074610F0B9FE044638B942
:100670001A4B1B485A791B4B013A53F8221028E0B9
:1006800038461949224610F0B3FE60B91748184C95
:10069000FFF716FE54F8041F19B1164805F0C0FB09
:1006A000F8E7154805E000250E4B53F8256026B9FC
:1006B0001248BDE8F840FFF703BE384631462246EF
:1006C00010F096FE01350028EED1044B0C485D7108
:1006D0003146BDE8F84005F0A3BB00BF5020002024
:1006E000382A0108C4260108273601084C2A0108C7
:1006F000C0260108DA2801089D2B01085F2A01089D
:10070000772A010810B50446204610F068FE10F064
:10071000FF0F07D10B4B0C4893F8BC14BDE81040F9
:1007200005F07EBB204610F003FE022808D8054BDA
:10073000064C83F8BC040020014600F0EBFDE3E723
:1007400010BD00BF50200020892A0108AD2D0108EE
:1007500070B5044610F043FE08B9204830E020464A
:100760001F4910F093FE00242646254678B12CB18F
:10077000012C06D110F0DCFD064602E010F0D8FD99
:10078000054617490020013410F080FEEEE70B2DDE
:1007900005D914480C21BDE8704005F041BB012C7F
:1007A00008DC114B114833F915202946BDE870408B
:1007B00005F036BBA6F57A73B3F57A7F04D90C48F9
:1007C000BDE8704005F02CBB0A482946324605F0CA
:1007D00027FB054B23F8156070BD00BF9F2A010859
:1007E000772D0108D92A010836270020FF2A0108A1
:1007F000172B0108392B010838B5054610F0EFFD1D
:10080000C0B268B90446124B124803EB44032146B8
:10081000B3F84620013405F003FB182CF3D138BDA2
:10082000284610F085FD172804460BDC20212846B9
:1008300010F0C8FD10F07CFD054B03EB4404A4F858
:10084000460038BD04481821BDE8384005F0E8BA34
:100850004C1F0020522B01085E2B0108931E232BF6
:1008600028BF0A22031E10B50C4603DA2D2001F81A
:10087000010B5842FFF788FC00230370204610BD8F
:1008800030B52DED028B87B0B0EE408A00210C22EE
:10089000044603A810F081FDB5EEC08ADFED2B7A87
:1008A000F1EE10FACCBF38EE278A38EE678ADFED1A
:1008B000287A28EE278A6946BDEEC88A0A2218EEF1
:1008C000105A85EAE570A0EBE570FFF7C7FF002D31
:1008D000ACBF20232D2368468DF80C3010F07FFD2F
:1008E000012807D130238DF80D308DF80E308DF8AA
:1008F0000F300CE0022805D130238DF80D308DF833
:100900000E3004E0032804BF30238DF80D30694613
:1009100003A810F04AFD03A810F061FD0338C5B22A
:100920002A4603A9204610F085FD00236355204682
:10093000084910F03AFD03A92046294410F035FD7E
:10094000204607B0BDEC028B30BD00BF6F12033AEA
:1009500000007A443529010837B5037904460D466D
:10096000052B37D8DFE803F003060A0D111483685E
:10097000197830E0836893F900102CE083681988B7
:1009800029E08368B3F9001025E08368196822E044
:100990008368684693ED000AFFF772FF014613482B
:1009A00005F03EFA05B3D4ED037A6846B8EEE70ADF
:1009B000FFF766FF01460E4805F032FA94ED040A8F
:1009C0006846B8EEC00AFFF75BFF0146084805F02D
:1009D00027FA09E00021074805F022FA25B1064868
:1009E000E168226905F01CFA03B030BDE528010872
:1009F000E4280108882B0108842B01082DE9F8431D
:100A00002DED028B054610F0EAFC4E4E074620B154
:100A1000012816D12B782A2B13D14B48FFF750FC15
:100A200000243159494805F0FBF930193946FFF7E0
:100A300093FF14344648FFF743FCB4F52F6FF0D111
:100A40007CE028463D2110F0BDFC00285FD0441C0E
:100A5000204610F06DFC81462046FFF7A9FB0027D9
:100A6000B0EE408A14247C4356F80480404610F0CF
:100A7000B6FC41460246284610F0BAFC00283CD19C
:100A8000304B1C4494ED037AF8EEC77AB4EEE78A53
:100A9000F1EE10FA2FDB94ED047AF8EEC77AB4EE9B
:100AA000E78AF1EE10FA26D82279052A18BF08EE57
:100AB000109A18EE103A052A11D8DFE802F0030365
:100AC0000606090DA268137009E0A268138006E00B
:100AD000A26882ED008A02E0A36883ED008A4146A5
:100AE0001C4805F09DF9BDEC028B20460021BDE8B5
:100AF000F843FFF731BF184803E001378C2FB1D11D
:100B00001648BDEC028BBDE8F843FFF7D9BB04469D
:100B100037592946384610F09FFC58B10B483946E2
:100B200005F07EF9074800212044FFF715FF08482B
:100B300005F076F91434B4F52F6FE9D1BDEC028BD2
:100B4000BDE8F883A43801088B2B01086A2C010842
:100B50009D2B0108A02B0108AB2B0108D02B01080D
:100B600070B52DED048B5D485D4C84B0FFF7A8FB9C
:100B70005C4805F055F95C48FFF73EFE62795B4B37
:100B80005B48013A264653F8221005F049F9D4EDA6
:100B9000047AF5EE407AF1EE10FA5FD018340025B1
:100BA00014ED028AB5EE408AF1EE10FA52D001350A
:100BB000504854ED019A94ED009AD4ED018A2946EB
:100BC00005F02EF9B5EEC08AF1EE10FA02D54A48CA
:100BD00005F026F9B0EE480A6846FFF751FE0146D7
:100BE000464805F01DF9F5EEC09AF1EE10FA02D56F
:100BF000414805F015F9B0EE690A6846FFF740FE76
:100C000001463E4805F00CF9B5EEC09AF1EE10FA37
:100C100002D5394805F004F9B0EE490A6846FFF7F5
:100C20002FFE0146354805F0FBF8F5EEC08AF1EEDF
:100C300010FA02D5304805F0F3F8B0EE680A6846BD
:100C4000FFF71EFE01462E4805F0EAF80C2D04F1D0
:100C50001004A5D12B48691C05F0E2F800F0E4FD72
:100C6000294C054654F8041F19B1284805F0D8F856
:100C7000F8E70C46264B53F8241041B10123A3405A
:100C80002B4202D0234805F0CBF80134F2E7731869
:100C900004AA93F87F3113441F4A8A5C03F8102C8E
:100CA00001310829F3D100241C488DF80840694619
:100CB00005F0B6F81A4D1B48615905F0B1F828192E
:100CC0000021FFF749FE14341748FFF7F9FAB4F58D
:100CD0002F6FEFD104B0BDEC048B70BD2528010847
:100CE00050200020ED2B0108AD2D0108C42601087D
:100CF0001D2C0108282C0108772D0108E528010882
:100D00006E280108302C01086C260108422C0108CD
:100D100070260108502C01089C4301085D2C010835
:100D2000A4380108662C01089D2B0108F0B589B094
:100D3000044610F054FBC5B2002D72D17F48804CA0
:100D4000FFF7BEFA54ED027AF5EE407AF1EE10FAB2
:100D50002CD0013529467B4805F062F814ED020AD3
:100D600004A8FFF78DFD0146774805F059F814ED0A
:100D7000010A04A8FFF784FD0146734805F050F806
:100D800094ED000A04A8FFF77BFD01466E4805F0CC
:100D900047F894ED010A04A8FFF772FD01466B487D
:100DA00005F03EF80C2D04F11004CBD1DFED687A8C
:100DB000684BB0EE677AF0EE676A0022AA4203F150
:100DC00010030DDA13ED045A53ED035A13ED026AC2
:100DD000013276EE856A77EEA57A37EE067AEDE790
:100DE0005D48CDED016ACDED027A8DED037AFFF716
:100DF00067FA002408AB234413ED077ADFED577A36
:100E0000574B5848B0EEC77AB4EEE77AF1EE10FAD5
:100E1000D8BF18460434FFF753FA0C2CEAD15248D5
:100E200074E020465149052210F0E2FA38B9504BDF
:100E3000034410300022C0281A61F8D17BE020461C
:100E40004C49042210F0D4FA0546204605BB202167
:100E500010F0B8FA00286ED0461C304610F0BFFAE9
:100E60002C460746444B53F824500DB943484DE0F7
:100E700030462946FAB210F0BBFA38B9204604F0E1
:100E8000B1FB3F48294604F0CBFF4CE00134E9E7D1
:100E900010F04EFA461E0B2E074648DC2046202155
:100EA00010F090FA054650B1451C2846FFF780F92E
:100EB0002F4B03EB071787ED000A012400E00446DF
:100EC0002846202110F07EFA054648B1451C2846E8
:100ED000FFF76EF9264B03EB061383ED050A013489
:100EE0002846202110F06EFA054648B1451C2846D8
:100EF000FFF75EF91E4B03EB061383ED060A013480
:100F00002846202110F05EFA18B91E48FFF7D8F9DC
:100F100011E00130FFF74CF9154B032C03EB0616DB
:100F200086ED070AF1D11848FFF700FF03E01748E4
:100F30000C2104F075FF09B0F0BD00BF782C01084A
:100F400068200020A32C0108A92C01086E280108A4
:100F50000000000064200020AD2C01080AD7233CCB
:100F6000742C0108702C01089D2B0108BC2C010871
:100F700050200020C22C0108C42601085F2A010865
:100F8000C72C0108DA2C0108AD2D0108142D010829
:100F90002DE9F047674B1A7886B0984642B901238D
:100FA000654888F80030FFF78BF96448FFF788F947
:100FB000634D28680CF0F8FBA946002800F0B780C4
:100FC0002868604C0CF0F5FB0928014601D03F2849
:100FD0004FD14FF0000A25685B4F56462DB15B4854
:100FE00039682A4610F004FA10B9BA4606B93E46E6
:100FF000574B0C379F42F1D3CEB1D6F800E0DAF868
:1010000000C02B461EF803701CF80300B84201D044
:1010100023600CE05A1C4D4930B92D2B04D82027F1
:10102000CF542260885402E0CF541346EAE7236885
:101030000BB1564512D04748FFF742F9564509D83B
:1010400056F80C0BFFF73CF9D9F8000009210CF019
:101050009BFBF3E73948FFF733F9002523689D42EE
:10106000A6D23A4BD9F80000595D0CF08DFB013542
:10107000F4E723682BB9042836D13448FFF7C0FAC7
:1010800055E00C2801D134488DE70A2901D00D29FB
:1010900044D132482D4DFFF713F922682A490395B0
:1010A0000023AB5404932E4B009303A810220C236F
:1010B00010F042F9064638B1006810F090F901309E
:1010C000B3682844984702E02648FFF7F9F81F481C
:1010D0000021302210F061F90023236098F80030DD
:1010E000002B7FF462AF22E00C28CCD07F2903D103
:1010F0005EE72F2B3FF65CAFA1F12002D2B25E2A51
:101100003FF656AF13B920293FF452AF5A1C226064
:101110000E4A2868D1540CF037FB49E77F29E8D103
:10112000013B0A4A23600021D1540F483EE706B034
:10113000BDE8F087F80100203C2D0108742D01085E
:10114000C02500202C02002020270108F9010020E2
:10115000E0270108792D01087E2D01089D2B01084B
:1011600009040008892D0108AA2D01080F4B1A78DF
:10117000482A18D1598840F2C442914213D11A79B1
:10118000BE2A10D193F8C024EF2A4FF000000CD1F2
:1011900013F8012B5040064A9342F9D1D0F10100D7
:1011A00038BF0020704700207047704700000E08CD
:1011B000C4040E0870B50546441E14F8011F61B141
:1011C000064E304610F0FEF80028F6D0861B044884
:1011D0003044631B80F87F31EFE770BD9C4301080A
:1011E0005020002008B5FFF7C1FF10B90A2009F010
:1011F000AFF90D4B0D49184640F2C44210F0C4F847
:1012000090F8BC24022A84BF002280F8BC2490F805
:10121000BC144FF4827202FB010101F5D87104483D
:1012200010F0B2F808BD00BF5020002000000E08EA
:101230004C1F00202DE9F0472E4890F82050C47F25
:10124000002303FB03F11939694301F6C411594323
:1012500040F6C412614391FBF2F1274A22F81310C1
:101260000133072BEDD1254A90F82130B2F84061C7
:10127000B2F842A190F822E0C3F1640903EB830CB9
:101280005C425FFA89F94FEA4C0CCEF16408C6EB78
:101290000A0AA4B20022A1B20FB2002F04DC002976
:1012A00014BF1D46012500E04D4611FB01F101FB75
:1012B0000EF115FB05F591FBF5F545440A217D433B
:1012C00095FBF1F565442DB24FF47A7105FB0AF5F3
:1012D00095FBF1F50A493544555202320A34182A71
:1012E000A4B2D8D1007803F021FBBDE8F04700F0AC
:1012F000B5BB00BF4C1F002010270020502000204D
:101300001826002008B5FFF76DFFBDE80840FFF77D
:1013100091BF0000F8B52F4B48221A7040F2C4422A
:101320005A80BE221A71EF2283F8C0240022074699
:1013300083F8C1241E4651B193F8BC0426494FF4EA
:10134000827202FB003000F5D87010F01DF8002208
:101350001346B15C01324B4040F2C4418A42F8D19D
:101360001C4A002582F8C13409F0D6FDF32009F0AB
:10137000E9FD5820022109F017FE082815D1174C65
:10138000331903F1774303F572032046196809F016
:1013900041FE082805D0013509F0CCFD032DE3D12D
:1013A00003E00F4B04349C42EAD109F0C3FD032D46
:1013B00002D0FFF7DBFE10B90A2009F0C9F8FFF7E9
:1013C000A1FF37B10F2014210122BDE8F84002F03F
:1013D000EBBFF8BD502000204C1F002000000E087D
:1013E000C4040E0838B505460C4609F0E0F8284656
:1013F0002146FFF78FFFBDE8384009F0D5B800005F
:10140000034B1B6818420CBF00200120704700BF2F
:1014100030020020024B1A6810431860704700BF6A
:1014200030020020024B1A6822EA00001860704760
:1014300030020020014B1868704700BF30020020C6
:10144000034B9B6818420CBF00200120704700BF6F
:1014500050200020024B9A6810439860704700BFEC
:10146000502000202DE9F3470446FFF77FFE10B11E
:10147000002C00F0B781DD4ADD4D10685168DD4C6D
:101480006B4603C340F2C442002128460FF085FF9B
:1014900000214FF4827220460FF07FFF48232B700B
:1014A0004FF4004003236B71FFF7D4FF4FF48070BB
:1014B000FFF7D0FF4FF40060FFF7CCFF0820FFF7E5
:1014C000C9FF4FF41673A5F86231FA23A5F8643109
:1014D0002A23A5F860314FF4FA73A5F86831202368
:1014E00085F866316E2385F87B312B2385F87C31B6
:1014F000212385F87D3140F24C43A5F88C3140F230
:101500006C730026012704224FF008094FF4C870BD
:10151000022140F2DC5EA5F88E3140F27E4385F870
:10152000532185F8542185F85591A5F8760185F861
:101530008711A5F88AE185F8BC64A5F86A61A5F869
:101540006C61A5F86E61A5F85661A5F85861A5F81B
:101550005A6185F85D6185F85E6185F85C7185F892
:101560007E6185F8886185F8AA7185F8AB6185F898
:10157000AC6185F8906185F8917185F89271A5F854
:10158000403140F23A73A5F8423185F89B114FF48F
:101590007A734FF4E131A5F84431C5F8A01140F257
:1015A0007E534FF41651A5F84631A5F84E0140F28E
:1015B000EA531720C5F8A41140F6C411A5F8483124
:1015C000A98140F2B45340F6FF716075A0755520B3
:1015D0004FF02808A5F84A31A5F8961132231E21AC
:1015E000E0702D20A5F84C31A5F85031E17221733F
:1015F000607323714FF00B0C85F89A7185F8A86120
:1016000085F8A961AE7385F8936185F8BE7485F895
:10161000BF74267084F8018084F80280E675A67392
:10162000267684F8233084F8243084F8213015237A
:1016300084F805C084F831304FF0140C6E4B84F8F8
:1016400006C084F8109084F811C04FF00E094FF0D6
:10165000500C4FF0640A6363684BA07684F80790DF
:1016600084F81BC04FF00A094FF05A0C84F81CA0F4
:101670002075A3634120624B84F808C04FF0780ABC
:1016800084F81FC084F8200084F82510A4F826E010
:1016900084F82E20E673667684F8129084F8098028
:1016A00084F80AA0A77784F822606685A685268537
:1016B00084F82F8084F83080E363524B23645248CF
:1016C00084F84470192384F84530FFF773FD4FF414
:1016D0004873A4F87A30C82384F8CF304FF4966367
:1016E000A4F8D03040F2D933A4F8D23084F8766030
:1016F00084F8776084F8788084F8797084F87C6066
:1017000084F8CE9023464FF47F72A4F87E204FF4E5
:10171000FA62A4F880201DF8062084F8842001369F
:1017200040F2DC51082EA4F8821004F10A04EAD138
:10173000012283F8D42083F8D52083F8D62083F8BB
:10174000DC206422A3F8DE204FF49672A3F8E02098
:101750002822A3F8E2204FF07C52C3F8E420C3F81B
:10176000E8200F22A3F8F020A3F8F220A3F8F42039
:1017700040F26C72C820A3F8F62040F21452A3F88D
:10178000D800A3F8FA2014201E244FF07E5283F8CC
:10179000DA0083F8DB40A3F8EE00A3F8F810A3F812
:1017A000FC60C3F80021522385F8BD340023EA18F9
:1017B00010330021C02B1161F9D10024281900F544
:1017C000D8700C494FF4827204F582740FF0DCFD7E
:1017D000B4F5437FF2D10020014602B0BDE8F047E6
:1017E000FFF700BE02B0BDE8F08700BF94430108D8
:1017F000502000204C1F00209A99193FF6287C3F6A
:101800003D0A773F0000A040A5430108024B9A68BB
:1018100022EA00009860704750200020014B00220F
:101820009A60704750200020014B9868704700BFB5
:101830005020002038B5044C00252070E56108F0E8
:101840006BFE2562606238BD4825002007EE100A55
:10185000F8EEC77A9FED0A0A9FED0A7AF5EEC07A94
:10186000F1EE10FAD8BFF1EE677A87EE800A08B57C
:1018700020EE070A0DF0C6FD034B83ED000A08BDFC
:101880008096184B35FA8E3C1000002010B5121AC5
:1018900007EE902A5B1A2DED028BF8EEE78A07EE31
:1018A000903A184B059CB8EEE78AD3ED007A28EE03
:1018B000278A28EE080AA8EEA80A0EF06BF8DFEDDA
:1018C000127A049B20EE270AF0EE480AFDEEC07A59
:1018D000B1EE680AC3ED007A0DF0B6FEDFED0B7ACB
:1018E0009FED0B7AE0EE077ABDEC028BFDEEE77A16
:1018F00017EE903A002BBCBF03F50C43A0332360D6
:1019000010BD00BF100000202C7D8E3F00A00C46B3
:10191000A00CB34507EE900AB8EEE77AD2ED017A53
:1019200027EE277AD1ED007AE7EE007A10B5C1ED07
:10193000007A92ED037AF1EE476AFDEEE77AFDEE6A
:10194000E66ABDEEC77A0C4617EE102A17EE900A2B
:1019500016EE901A06F0DEF807EE100AF8EEC77AD7
:10196000C4ED007AFDEEE77A17EE900A10BD000094
:1019700030B5002213460E49CC5C0D469CB12E2C8E
:1019800004D1013378B11D4400242C54C95C0A24CD
:101990006243A1F13004092C9CBF303A52180E2B3F
:1019A00003D80133E7E7104630BD002030BD00BF4B
:1019B0006903002038B50C4DEB7AA3B10B4B1B78B3
:1019C000042B10D90A4B0B4C18685B6863602060CD
:1019D000FFF73CFF084B1A88084B1A80084B1B88FE
:1019E000A36001232B7338BDEA250020CE260020FA
:1019F000B02600206C260020B02700200A0300201B
:101A00000C26002010B5002213460E480E4C002173
:101A100019520E4819520E481444195200202060E1
:101A20006160A0600B4C1444023320606160A060D0
:101A3000094C1444042B20606160A06002F1140280
:101A4000E3D110BD8C050020C00200201426002028
:101A50003026002060020020980200203A4BDFED83
:101A60003B7A58793A4AD97B07EE100AB8EE477AA2
:101A7000987987EE277AF2EE046A82ED007A07EE13
:101A8000101AB8EE477A3349D16087EE277A82ED93
:101A9000017A07EE100AB8EE477A2F4A187CD16017
:101AA00087EE267A82ED007A07EE100AB8EE477AC2
:101AB000987E87EE277A06EE100A82ED017AB8EE5C
:101AC000466A9FED267AD87986EE076A82ED026A29
:101AD00006EE100AB8EE466A214A587CD16086EEBE
:101AE000266A82ED006A06EE100AB8EE466AD87ED3
:101AF00086EE276A82ED016A06EE100AB8EE466AA3
:101B000086EE076A82ED026A164A127CDAB119790A
:101B1000154A987B1B7E06EE101AB8EE466AC6EE92
:101B2000266AC2ED006A06EE900AF8EE666AC6EE14
:101B3000A77AC2ED017A07EE903AF8EE677A87EE5F
:101B4000877A82ED027A70474C1F00200000C8425D
:101B5000EC0200200000FA443803002000007A4420
:101B600020250020EA25002030250020F7B5064674
:101B70000020FFF75FFE4FF48070FFF761FC002844
:101B80003ED0204D6E7008F0C7FC0024A8606C6049
:101B90001D4D95F89A31A3420CBF01270327FFF78B
:101BA0005DFF1A4B009403EB061621467268184835
:101BB0003B460DF053F9174B98600120FFF73AFEB2
:101BC00095F99C31042BC8BF85F89C4195F99C215F
:101BD000531C114B0AD0114902EB420201EB4202A5
:101BE00011689288C3F80A10DA8109E00C4A11687A
:101BF000C3F80610981D5168C3F80A1013890381B1
:101C000003B0F0BD48250020502000207445010895
:101C100000100140C025002000000020CD44010834
:101C2000C34401082DE9F041194B1B78042B2BD13B
:101C3000184D20236B83184B4FF480425A83174C66
:101C4000A0680BF0B1FD50B120262E83A068276854
:101C50000BF0AFFD014638460BF096FD6E83206811
:101C60000E4F0BF0A1FD0028E9D00B4C3868D7F8D7
:101C700008804FF4804626830BF09BFD01464046CA
:101C80000BF082FD6683DAE74FF0FF30BDE8F081AC
:101C90004825002000080240000C0240C02500201A
:101CA00073B51A4C036823600B686360184D0068B5
:101CB000184EFFF7CBFD184B009395E8030094E80E
:101CC0000C000196FFF7E2FD60686968134A33680B
:101CD0001360411A07EE901A1149206891ED007ABD
:101CE0002968104AF8EEE77A411A67EE877A1160A0
:101CF000FDEEE77AC2ED017A0B4A13600B4BB3F8A5
:101D0000DE200B4B1A8002B070BD00BF2003002004
:101D1000B026002054030020442500201825002070
:101D20001000002088030020640300204C1F0020C6
:101D30008603002044F25063984203DDA0F50C4076
:101D4000A0387047034B9842BCBF00F50C40A03050
:101D5000704700BFB0B9FFFF264BF0B51D680246C3
:101D600000F1100714782B1911465E7806F004066E
:101D7000013206F0FF036EB1BA42F3D10020F0BD8C
:101D80001BB103EB83035B00DBB210F8012B303A8D
:101D90001344DBB20A1A022AF2DC002281420AD979
:101DA0001AB102EB82025200D2B210F8016B303E3F
:101DB0003244D2B2F2E72E2C0FD14C1C0420002169
:101DC0000A2671432678AF197F787F0702D530390C
:101DD000013431440138F3D100E000210648424388
:101DE000642000FB012106240448B1FBF4F100FB50
:101DF0000310F0BD9001002040420F008096980033
:101E00002DE9F04F964C2DED048BA3688BB0D3B920
:101E1000944E3378013B042B00F2E786DFE813F0A1
:101E2000FD05FD05FD05D706BA068D4B98680BF03C
:101E3000C0FC8D4B93F89A31012B054600F034819C
:101E400007D3022B05D0A0680BF0AEFC0028ECD124
:101E5000DEE7242D0CD006D80A2D00F09A800D2D37
:101E600000F09780E8E02A2D0AD02C2D08D0E3E07E
:101E70007E4A002313707E4A13707E4A1370ECE092
:101E80007B4FDFF8E8813A787B4B98F800600021BF
:101E900099547A4AEEB919781670472919D15978A8
:101EA000502916D19978472907D1D978472904D1E3
:101EB0001979412901D10121117098786E49522870
:101EC00007D1C8784D2804D10979432904BF0221DC
:101ED00011701278012A02D0022A39D04EE0B21EC7
:101EE000072A4BD8DFE802F0040A121820284A2EED
:101EF0006148FFF731FF624B18603FE01B78532BBE
:101F00003CD15F4B1A6852421A6037E05A48FFF7DB
:101F100023FF5B4B586031E01B78572B2ED1584B79
:101F20005A6852425A6029E01A78564B302A94BFB8
:101F300000220122DA7221E00020FFF719FD504B48
:101F400018721BE00020FFF713FD4D4B588115E080
:101F5000072E07D0082E11D10120FFF709FD484BAD
:101F6000D8810BE00120FFF703FD41F218434FF445
:101F70007A725843B0FBF2F3414A93810136002351
:101F80002A2D88F800603B7061D13F4A0121117011
:101F900063E03D4E3378002B4BD037490B78402B14
:101FA00004D9A3F137021201D2B202E01B0103F0FF
:101FB000F0024B78402B8CBF373B303BDBB21344F5
:101FC0002C4A1178DBB2994232D12C4B1D78012D6D
:101FD00009D0022D2CD12A4B2C4A99891180DA89FB
:101FE0002B4B1A8024E0DFF89C8098F80B300BB95B
:101FF00001231EE0224A274B11681960516859607D
:10200000254B117A254F1970042053893B80FFF727
:10201000F7F90028ECD198F81030002BE8D0204BCD
:102020003A889B68D21A64235A431E4B1A60DFE732
:1020300000230022327010E00D4A13780E2B03D8D3
:10204000591C11700C4AD5540F4B1B7823B9094AFF
:1020500011784D40157000E0002303F001037EE18C
:10206000C02500204825002050200020FC02002030
:102070005003002068030020690300205C04002056
:102080000C030020EA250020340300203426002021
:102090005E050020B0260020CE2600200C26002061
:1020A0006C26002094250020944B197800220829E2
:1020B00000F25481DFE801F00A0511172533506959
:1020C0007400622801D1022205E01A70B52D40F09B
:1020D00045811A7801321A7040E103221A70884B48
:1020E0001870884B0BE0864904221A70854B0A78D9
:1020F00018782A44D2B20A7002441A70824B1D70BA
:102100002CE17F4905221A707E4B0A7818782A4400
:10211000D2B20A7002441A707C4B1D801EE17849CD
:1021200006221A70774B0A7818782A44D2B20A70BD
:1021300002441A70754B1A8802EB0525ADB2B5F54D
:10214000007F01D81D8003E000221A806B4B1A70BB
:102150006F4A0023138002E169486A4A01781678C1
:102160002944C9B201703144117069490A88C72AEB
:102170009CBF68488554013292B20A80634909883D
:10218000914240F0EB800722A5E708221A705C4BD1
:102190001B78834200F0E280584A00231370DEE08F
:1021A0001A70584B1B78834240F0D880564B1B78EE
:1021B000062B4AD004D8022B12D0032B35D0CDE009
:1021C000122B55D0302B40F0C980524B1A79524B0C
:1021D000102A88BF10221A7019784E4A00236DE029
:1021E0004C4B4E4A59685160996811601A694C4DC0
:1021F0004C4E4FF47A7392FBF3F32B804A4B1B78CF
:10220000F3724A4B012204201A70FFF7F9F80028F4
:1022100069D1337C002B66D0454B2A889B68D21A43
:1022200064235A43434B1A605DE03A4A537913F0F2
:10223000010303D01379D81E434243413A4A137035
:10224000002B50D1374AD3724DE0324BDA7A12F07C
:10225000010203D09A7AD11E4A424A4132490A7099
:102260000AB93049CA7293F82F20334B1A703AE0FA
:10227000284B324E5A6932809A69314D42F21073BE
:1022800092FBF3F32B802F4B012208201A70FFF7EB
:10229000B7F840BB234B1B7C2BB33388642B22D96C
:1022A0002A880A23B2FBF3F2274B91B2198009B2B4
:1022B000B32918DDA2F5B4721A8014E08B4202F142
:1022C0000C0210DA214812F8045C1D54204812F860
:1022D000035C1D541F4812F8015C1D541E481578FC
:1022E0001D540133EAE711490B78BBB3154B1A783B
:1022F000A2B300221A700A70012330E00903002003
:10230000FD020020FE0200205C0200209602002058
:10231000E802002094030020CF260020B0260020F1
:102320000C260020EA25002084030020080300205A
:102330006C26002094250020CE2600203426002084
:102340005E05002078030020B0270020D82500205B
:1023500092260020B8260020002700200023002B12
:102360003FF471AD9A4DAB68EB6008F0D5F8A8600A
:102370002020FFF74FF8974B1A78012A0CBF002254
:1023800001221A70944BDA7A002A3FF45CAD934A2A
:102390001278042A7FF657AD5A7812B9197C01B920
:1023A0001A731B7B13B90AB1FFF704FB8C4B8D4DDD
:1023B0001A784FF0050E013292FBFEFE0EEB8E0EE8
:1023C000CEEB020E83F800E0874B1B780293874B1D
:1023D00003EB8E0E0023864A86499858DFF8508218
:1023E000854E585090FBF8F1995103EB830A834EC8
:1023F000DFF8409206FB010053F809705EF80A60AE
:102400004EF80A00BF1B42F2107C90FBFCFC052634
:10241000384443F8090090FBF6F008FB01017848C6
:10242000195002981FFA8CFC012803EB020B25F8C7
:1024300002CF164606D1ACF1020CBCF5797F98BFED
:10244000CBF800100433082BC5D16E4F6E4DDFF86A
:1024500088A108F061F83B689FED6C7AC01A05EE20
:10246000100AF8EE457AB7EE008AC7EE877AC5ED16
:10247000007A08F051F8D5ED007A3860F4EEC87AA9
:10248000F1EE10FA58BFF0EE487A06AAC5ED007AD0
:102490005F4B009207AA019296E803000CCBFFF76E
:1024A000F5F9069A5B490798642392FBF3F20A80D8
:1024B000594A90FBF3F313809AF80C302F460BB96E
:1024C0000B8013805549564B0A78002A3DD0D5ED34
:1024D000007A30681A68C8EE277A821A70684FF05E
:1024E000020807EE102AB8EEC77A5A6827EE277A54
:1024F000801ABDEEC77A4B4A17EE10BA07EE100AE3
:10250000D2ED006A484AB8EEC77AB2F902E0B2F9F1
:10251000009027EE267A09FA8BF067EE277A90FB77
:10252000F8F0FDEEE77A80B217EE90CA0EFA8CFE54
:102530009EFBF8FEDFF800C110801FFA8EFEACF89B
:1025400002E0ACF80000A2F802E001220A70306854
:102550007168596018609AF8083023B91E4BDB790E
:10256000002B3FF470ACDFF8D480DFF8D490DFF8B4
:10257000D4B0CDF80090CDF804B098E80C00FFF787
:1025800085F9D8F804107268284B8A1A07EE902A49
:10259000244AD8F8001092ED007A3268F8EEE77A13
:1025A0008A1A67EE877A1A60FDEEE77A9AF81020A9
:1025B000C3ED017ADFF830A012B102228AF80020C0
:1025C0009AF90020012A3FD0022A00F0D0803AE494
:1025D00048250020F6050020EA250020CE26002010
:1025E000900300202E03002010050020340200205C
:1025F000B02600207C03002028030020806967FFAC
:102600008C0200201C0300204803002000007A44B4
:102610006C2600206A260020782600205103002026
:102620000003002010000020600300208803002029
:1026300080969800580300204C03002020030020BF
:1026400044250020540300207C4E002553F815003B
:102650007B4ADFF820A2D2ED007A35F80A20DFF8B5
:102660001C9297ED000ADFF8108205EE100AB8EE12
:10267000C57A15EE101A67EE277AFDEEE77A17EEA7
:10268000900A801A6F4A80B2A85200B207EE900AF0
:10269000B8EEE77AD9ED007A049367EE277A08441A
:1026A000FDEEE77A31464A4617EE90BAFFF732F967
:1026B0006549DFED665A91F8DA10049B97ED007AD0
:1026C00053F81520D6ED027AD9ED026A06EE101AFB
:1026D000B8EE466A7168726026EE256A511A88EE75
:1026E000066A1FFA8BFB584425F808004FF4FA627B
:1026F00005EE101A36EE076AF8EEC55A87EE066A3E
:10270000534985EE877A37EE677AE6EE077AC6EDAB
:10271000047AC6ED027A66EEA77A0493FDEEE77AB4
:1027200017EE900A05F0F6F935F80A2049493132DA
:1027300092B2622A35F8082098BF0020104480B277
:1027400025F8080040F6B83200B205F0E3F9424A35
:1027500028F805000A2101FB0522023556F8141B52
:102760001160042D049B7FF471AFFFF76CBB99EDF2
:10277000009A354B19EE100AB3F9E080374B90FB05
:10278000F2F29045A8BF90461A881FFA88F80FFA0F
:1027900088F011B288420EDD95ED007ADFED307AD7
:1027A00067EE277AFDEEE77A17EE908A90441FFADB
:1027B00088F8A3F800802B4BDBF800501B68C3EBB4
:1027C000050B5846FFF7B6FA002841F2931201DDD7
:1027D000904201E043429342CCBF00230123DFED4E
:1027E000228A224E002B4BD005EE10BAB8EEC50A55
:1027F000B8EEC99A20EE280A0CF08AFE20EE090AEB
:102800001B4B1449BDEEC00A40F6B83210EE100A58
:1028100080B2188000B205F07DF948F6A043284444
:10282000984203DDA0F50C40A03804E00028BCBFAE
:1028300000F50C40A030306023E000BF60020020B3
:10284000EC020020880200204C1F0020DB0FC94052
:1028500030F8FFFF48F4FFFF9802002086030020B5
:102860000000C84264030020D30237391825002035
:10287000940200204C030020302600203803002062
:1028800035603368AF4EC3F50C53283307EE103A6A
:10289000F8EEC77A002567EEA88AB0EE680A0CF059
:1028A000B1FD8DED090AB0EE680A0CF031FE8DED38
:1028B000080AA54ADFF8D0B2AA5E0FFA88F10AA882
:1028C00007EE902A07EE101A00EB450353ED026A5B
:1028D0009E49B8EEC77AF8EEE77A4FF47A72D6EEF0
:1028E000877AFDEEE77A17EE900A80B225F80B00A2
:1028F00000B205F00FF980B225F80B0000B2944B3E
:1029000097ED000AD3ED007A049305EE100AB8EEB5
:10291000C57A314667EE277A1A46FDEEE77A17EE5A
:1029200090CA1FFA8CFCCDF814C0FEF7F3FF35F9FE
:102930000B20DFF858B2DFED875A9BF8DA10049BC2
:1029400097ED007AD3ED026A7368D6ED027ADDF86E
:1029500014C0726006EE101AB8EE466AD31A26EE5C
:10296000256A05EE103A88EE066A84447A4B7B4964
:1029700040F6B832F8EEC55A36EE076A87EE066AB8
:1029800085EE877A37EE677AE6EE077AC6ED047A47
:10299000C6ED027A66EEA77AFDEEE77A17EE900AA8
:1029A000604480B2E85200B2049305F0B3F8049B8F
:1029B00058536B4B0A2202FB0533023556F8142B91
:1029C0001A60042D5B467FF474AF93F8DC2032B1BB
:1029D000644A1168642291FBF2F1634A1180B3F8F2
:1029E000D830D9F800209A420EDD604B1868604B51
:1029F0001B68C01AFFF79EF942F210730028B8BF97
:102A0000404298427FF71FAA01238AF80030594BB1
:102A10001A88554B1A80FFF716BA574B93F89A71DC
:102A2000984617B1012F09D088E07278534BA068FF
:102A300003EB021359680AF0C1FE7CE0A068DFF8DE
:102A400050910AF0C0FE002878D033784C4D022B0C
:102A50003BD0032B44D0012B70D107F05DFD6B6A96
:102A6000C31A632B074669D9EB69042B2BDC0820BA
:102A7000FEF7E6FC414D90B9F369A06805EB03133E
:102A800059680AF09BFE7378A06805EB0315A968E6
:102A90000AF07FFEF36977620133F3614EE0402074
:102AA000FEF7CEFC0028E7D098F88931002BE3D15F
:102AB000F36905EB03135B68B3F5964FDCD9304B34
:102AC0000322DA61D8E7022036E06A782B4BD9F886
:102AD000080003EB021359680AF070FE03202BE094
:102AE0002B69012B0DD0022B25D03BBB2A6A254B2D
:102AF0002F6153F83210696103EBC2035B68AB616D
:102B00001CE0EB69AA69934209DA6A69D9F80800FE
:102B1000D15C0AF039FEEB690133EB610EE02A6A01
:102B2000184901322A6251F832200023EB6102B9C0
:102B300002232B6102E00420FEF77CFE0023736079
:102B400053E000BF980200204C03002018FCFFFF58
:102B500020250020DB0FC9403026002048F4FFFF6D
:102B60006002002018250020702700205403002058
:102B7000640300200A03002050200020744501084F
:102B800048250020B0430108880200204C1F002087
:102B9000C02500207268174B01327260164A92F805
:102BA0009D214AB15A780132D2B20521B2FBF1F12E
:102BB00001EB8101521A5A7007F0AEFC0F4AB06067
:102BC000002313700E4A3361D37201200BE007F02B
:102BD000A3FCB36840F6C412C01A904205D9202065
:102BE000FEF720FC0520FEF725FE0BB0BDEC048BA4
:102BF000BDE8F08F4825002050200020CE26002080
:102C0000EA25002038B5294D2DED048BD5ED008A3D
:102C1000B0EE680A04460CF0F5FBB0EE408AB0EE68
:102C2000680A0CF075FC95ED019AF0EE408AB0EE62
:102C3000490A0CF0E7FBF0EE409AB0EE490A0CF0BE
:102C400067FCD4ED017AD4ED026A67EEA80AB0EE13
:102C5000407A60EE870A28EEE60A66EE876A94ED0F
:102C6000007AE7EE290AA7EE880AE6EE880A0CF059
:102C7000EBFCDFED0F7A9FED0F7A0F4B20EE270A6A
:102C800080EE070A93ED007A30EE070AB2EE047A7E
:102C900080EE070A0CF0F2FBBDEC048B83B21A0441
:102CA00044BF00F5B4739BB218B238BDBC04002019
:102CB0000000E144DB0F49409404002038B5284C63
:102CC000DFED287A94F84530274D00EE103AB8EE43
:102CD000C00A20EE270A0CF095FB2B8807EE903AED
:102CE000F8EEE77A27EE800A0CF0C8FB2D889FEDFE
:102CF0001F7A1F4B07EE905AF8EEE77A1880C7EE5E
:102D0000277A1C4B08209FED1C7AC7EE877A9FED2F
:102D10001B7AC3ED007AB4F87A3007EE903AF8EEF9
:102D2000E77A174BC7EE277A9FED167A67EE877A18
:102D300094ED107AC3ED007ADFED137A134B67EE52
:102D4000277AB6EE007AC7EE277AC3ED007AFEF74F
:102D500057FB18B1BDE8384003F05EBD38BD00BF79
:102D60004C1F002035FA8E3C3E0000200AE81C4132
:102D7000B80400208825002000401C460000614463
:102D8000AC2500204C3D0F44DB0F4940B02500200E
:102D900090ED010A90ED007AD0ED027A20EE000A63
:102DA00038B5A7EE070A04460D46A7EEA70A0CF0B1
:102DB000F1FDB5EE400AF1EE10FA11D0D4ED007A33
:102DC000C7EE807AC5ED007AD4ED017AC7EE807A3D
:102DD000C5ED017AD4ED027A87EE800A85ED020A0C
:102DE00038BD38B52DED0A8B91ED008A90ED00AA23
:102DF000D0ED01AA90ED029AB0EE480A04460D46C5
:102E00000CF000FBF0EE409AB0EE480A0CF080FBAC
:102E100095ED018AB0EE40BAB0EE480A0CF0F2FA35
:102E2000F0EE408AB0EE480A0CF072FB95ED02CA53
:102E3000B0EE408AB0EE4C0A0CF0E4FAF0EE40BA84
:102E4000B0EE4C0A0CF064FB6BEE005A2BEEA97A44
:102E5000B0EE655AA7EE485AA5EEC87A20EE296A68
:102E60006BEE2B7A2AEE877A28EEC00AF0EE466ADD
:102E7000E7EE886AAAEE007AE6EE087A6BEEA8BA68
:102E8000A9EE277A6BEE687A6AEEA66A6AEEA77AEE
:102E9000EAEE2B6AEAEE087A68EEA98AE9EE056A9C
:102EA000E9EE287ABDEC0A8BC4ED006A84ED017A64
:102EB000C4ED027A38BD80EAE073A3EBE0738B4285
:102EC00006DB002801DD401A704702D00844704735
:102ED00000207047F0B506EE900A2DED028B564BA0
:102EE000DFED567A9FED567A564DF8EE668A87B03A
:102EF00068EEA78AD3ED007AF1EE677ACDED007A1D
:102F0000D3ED017A504BB3F90030F1EE677ACDED95
:102F1000017A07EE903A4D4BF8EEE77AB3F90020CC
:102F200067EEC77A0646CDED027A07EE902AB3F92E
:102F30000220B3F90430F8EEE77A03A8CDED037A66
:102F400007EE902AF8EEE77A6946CDED047A07EEAF
:102F5000903AF8EEE77ACDED057AFFF742FF95F863
:102F60004430DDED057A012B1BD1394B5A78394BB2
:102F700072B91A68402192FBF1F1511A07EE101A4A
:102F8000B8EEC77A37EE277ABDEEC77A83ED007ABE
:102F90001A68402392FBF3F306EE903AB8EEE67A15
:102FA00005E02D4B1B8807EE103AB8EEC77A77EE96
:102FB000C77A2A4ACDED057AD2ED007A284B294C02
:102FC00093ED008A9DED030A276878EEA77AC8EE94
:102FD000A78ADDED057A77EEC87AA8EEA78A83ED99
:102FE000008A0CF04BFA95F83010FFF764FF9DED66
:102FF000040A3844206067680CF040FA95F83010F5
:10300000FFF759FFB0EE480A38446060A7680CF03B
:1030100035FA95F82F10FFF74EFF134B1A68164438
:103020001E60124B1A6838440132A0601A6007B063
:10303000BDEC028BF0BD00BFBC040020BD3786355F
:1030400035FA8E3C4C1F0020B0270020A42500201C
:10305000EA250020680400203E000020B025002062
:10306000DC0400207C250020E0040020B0040020C7
:103070002DE9F0472DED028B84B003F02DFA0028E6
:1030800000F0578107F02EFAAC4BAD4F1968AD4AEE
:103090001860C1EB000A07EE90AAAB4997F82E0022
:1030A000B8EE676AD1ED037A002326EE276A194647
:1030B00001AD05EB4304A54D5E5F07EE906AF8EEA7
:1030C000E77AA34E67EE867AC4ED007AA14CD8B1B8
:1030D00007EE900AB8EEE77AF7EE006A86EE877A96
:1030E000E45E07EE904AF8EEE77A67EE877A36EE0E
:1030F000C77AD2ED006AE6EE877AC2ED007AFDEE7D
:10310000E77A17EE904A00E0E45AF452F45A023398
:10311000062B14FB041102F10402C9D18E4B8F4817
:103120001B88DFF87482642461435B4391FBF3F4F2
:10313000493CA4B201A9FFF754FE3B2C874C5AD955
:10314000874BD4ED020AB3F9003094ED010A854EA5
:10315000DFF8489207EE903AF8EEE77A824BF4EE09
:10316000E70AF1EE10FAD4BF002201225A730CF0E4
:103170006BFA94ED027AD4ED017A86ED000A27EE1F
:10318000070A94ED008AA7EEA70A0CF003FCB1EE43
:10319000488AF0EE400AB0EE480A0CF055FA9FED6E
:1031A000738A86ED010A96ED000A20EE080A0CF0FB
:1031B00065F996ED010AA9F8000020EE080A0CF066
:1031C0005DF9A9F802000820FEF71AF9002844D09A
:1031D000674801A9FFF705FEB8F86431644A07EEB5
:1031E000103AB8EE477AF7EE007A37EE276A0023F6
:1031F00087EE866A1EE0B8F8621107EE101AB8EE84
:10320000477AF7EE007A37EE276A224687EE866A1B
:103210000023F15E0233062B07EE901AD2ED006A0E
:10322000F8EEE77AE6EE877A67EE866AE2EC016A04
:10323000EFD185E74F49D2ED006A595E07EE901A4B
:10324000F8EEE77A0233E6EE877A062B67EE866AB7
:10325000E2EC016AEED1464808E0474801A9FFF7D1
:10326000C0FD45480146FFF793FD4348FFF7CAFC00
:10327000424B18805046FFF72DFE97F87C30002B0C
:103280003ED094ED010AD4ED007A94ED028A3C4CD4
:1032900020EE000AA7EEA70AA8EE080A0CF07AFBB7
:1032A00088EE000ADFED377AB4EEE70AF1EE10FAA5
:1032B00002D80023238023E00CF068F9324BD3EDD1
:1032C000007A20EE270A0CF0D9F8B0F5617FA8BF8C
:1032D0004FF4617007EE900AB8EEE70ADFED2B7A43
:1032E00080EE270A0CF014F9154B93F87C3007EEAA
:1032F000903AF8EEE77A27EE800A0CF0BFF82080CB
:1033000098F80530012B224B0DD1224AB5F9040063
:103310001488022114FB0101032091FBF0F189B212
:103320009980118001E0AA889A802A881A806A8888
:103330005A8004B0BDEC028BBDE8F087B4040020D5
:103340004C1F00206C0400207427002074250020EE
:10335000A42500208C2500203E000020B42500205C
:10336000B8040020BC040020EA2500204C3D0F4496
:10337000F00400209825002018000020B02700202D
:103380008C0400208FC2753CAC250020EFB6B04401
:1033900078040020A4040020502000207E04002097
:1033A000044A0023136053609360034A1360034A86
:1033B000136070477C250020B0040020E00400204A
:1033C0002DE9F84F2DED048B07F08CF8BB4BB3F8CB
:1033D00002A0B3F800B0BA4B1A68821A09EE902A1C
:1033E00019EE901A46F2A712914240F2EE81B54EC4
:1033F00018603388DFF84493B34C9FEDB49AB44F10
:10340000DFEDB48AB44DDFF83883B7EE008A53B3EA
:10341000B24894F83130D9F800100268DFEDB00AF4
:10342000013BB1FBF3F1082392FBF3FECEEB02026A
:103430000A4492FBF3F306EE103AB8EEC60A0260B5
:1034400080EE090A0CF002F900232B60C8F8003066
:103450003388013B338038EE400A20EE280ABDEE67
:10346000C00A87ED000A94F83130D9F80020DFED6A
:103470009C0A9C4E013BB2FBF3F306EE903AB8EE89
:10348000660A0FFA8BFB80EE090A0CF0DFF80FFAE0
:103490008AFABBF1000FB8BFCBF1000BBAF1000FF5
:1034A000B8BFCAF1000AD345A8BFDA461FFA8AFAA4
:1034B00038EE400A20EE280A0BF0E0FF3B68D4ED1E
:1034C0000D7A96ED006AC01A06EE900AB8EEE60A8A
:1034D00078EE676AB8EEC67A20EE260A0FFA8AF707
:1034E000A7EE270A0BF0CAFFFA2F7F4B03DD4FF040
:1034F000FF321A6013E093ED007A07EE907AF8EE4F
:10350000C76AB8EEE77ADFED797A37EEC77A26EE4A
:10351000877AC7EE277AFDEEE77AC3ED007A1B685B
:103520005A1EC62A724A03D8C01A1060336025E0BA
:103530001268002BC2EB000030601FDDC3F59671EE
:1035400007EE101ADFED6B7A6B4AB8EEC77A06EE1B
:10355000103A87EE277A634BF8EEC66A06EE100A39
:10356000F8EEC67A38EE476A82ED007A67EE867A20
:10357000E6EE877AFDEEE77AC3ED007A5F4BDFED8A
:10358000605AD3ED007A5F4B94ED0F6AD3ED026A77
:103590005D4B5E4A93ED007A5D4B1168F8EEE66A8A
:1035A000B8EEC77AF8EE677AC6EE878A914693ED51
:1035B000007AD5ED006A336828EE877A67EEA55A5F
:1035C00027EE277AB6EE005A66EEA57A27EE055A60
:1035D000C91AE5EE257A09311229D8ED005A98BFAB
:1035E000136077EEA55A07EE903AB8EEE75A78EEF8
:1035F000467A36EE877A65EE277A85ED007AE5EE33
:10360000867AC8ED007AFFF7CBFE424B3268196824
:103610009FED417A1A60511A07EE901AF8EEE77A98
:10362000F8EE699A67EE877A40F2DC52C7EEA99A03
:103630003A49FDEEE99A19EE900A04F06BFA0A2174
:10364000FFF739FCD4ED0E7A95ED007A06EE100AFC
:1036500038EE678AB8EEC60A20EE080AA7EE270AF7
:1036600085ED000A0BF00AFF05218046FFF723FCD9
:103670002B4B2C4D1860B7F5487F2B4F80F29F8065
:103680002A4B1B78002B5DD1294B2A491868D9F8A1
:1036900000304FF4FA72C01A04F03CFA0A21FFF726
:1036A0000AFC094B24491B798022584390FBF2F015
:1036B0004FF4967204F02EFA46E000BF7E0400201C
:1036C000D4040020EA0800204C1F002080E6C547F3
:1036D00084040020D048874A64040020EC040020C1
:1036E000B1DC423E88040020140000200000614448
:1036F000D00400200000C842E4040020E0040020C0
:10370000BD3786357C250020B0040020942500209C
:1037100088250020D80400200024744924FAFFFFE3
:10372000C8040020E80400209C040020AC04002011
:10373000A02500200CFEFFFFD4FEFFFFCC040020DC
:1037400090040020234B1868C8EB0008A07A224997
:10375000224E202308FB00F090FBF3F04FF496720A
:1037600004F0D8F933682860207D1D491D4A08FB04
:103770000030306004F0CEF9A47F97ED007A30601D
:1037800007EE904A38EE877AF8EEE77A2B6867EE14
:10379000877A9FED157A67EE877A42F20406FDEE8E
:1037A000E77A90FBF6F61E4417EE900A6FF095014B
:1037B00096222E6004F0AEF9301A286001E0002352
:1037C0002B60C7ED008A012000E00020BDEC048BD7
:1037D000BDE8F88FC4040020D4FEFFFF9804002049
:1037E000E0FCE6FF200319000000003BF0B50120DB
:1037F00087B007F079FD07F01FFE0028FBD0974B3C
:10380000974D012200201A60FDF72CFEFDF77AFD8E
:103810000AF016FE0BF054FC286009F045FA09F096
:103820004FFB4FF40040FDF70BFEA8B10AF05EFE1F
:103830008C4B4FF400425A8314268A4C636983F4FC
:10384000004363611920013E06F077FE16F0FF0683
:10385000F3D14FF40043638304F064F90F20FDF7C4
:10386000D9FD02F03DFD0120FDF7CAFD10B903208E
:1038700006F06EFE00237C4A40F2DE51995202337C
:10388000242BF8D1794B7A4A1A6008206875FDF725
:10389000D7FDC0B1774B93F88731042B13D8DFE8FD
:1038A00003F00303070B0F00704802F04DFC0AE021
:1038B0006E4802F03DFB06E06C4802F0C1FC02E0FD
:1038C0006A4802F0F3FA4FF40060FDF7B9FD10B159
:1038D000694804F03DFA4FF48070FDF7B1FD20B166
:1038E000644B93F89B01FEF741F94FF40020FDF77C
:1038F000A7FD08B105F080F9604F20237B83594B69
:103900004FF480421A8314267B69564C83F02003BF
:103910007B61192006F011FE636983F480436361C3
:103920001920013E06F009FE16F0FF06ECD1534BBC
:1039300020221A834FF48043638303F0F5F8FFF7E6
:10394000BDF901F087FD4FF48070FDF779FD08B9EE
:10395000002308E00820FDF773FD0028F8D0EB688D
:10396000003318BF01234FF480308DF80730FDF786
:1039700067FD8DF808000120FDF762FD18B90820E9
:10398000FDF75EFD00E0012000F001008DF805006C
:103990000820FDF755FD8DF806004FF40040FDF7B7
:1039A0004FFD8DF804002020FDF74AFD314C20B971
:1039B00063795D1F6B426B4100E001238DF8093094
:1039C0006379591E4A424A41B3F10E0043424341D2
:1039D0008DF80B30B4F84E31ADF80E30B4F85031EC
:1039E000ADF810304FF480404FF47A738DF80A2010
:1039F000ADF81230FDF724FD20B11E4BB3F84A316B
:103A0000ADF81230BDF80E30B3F5FA7F84BF002355
:103A1000ADF81230B4F88A31ADF81430184B01A863
:103A2000B3F8D230ADF8163009F09EFD06F05AFD1D
:103A3000144B18606379052B03D1134B4FF4C872F4
:103A40001A80124B4FF47A721A80114BC8221A80D6
:103A5000104B01225A7300F07DFFFCE7FC040020AC
:103A6000C0250020000C0240D6260020D8050020EA
:103A7000694800085020002000480040000802402B
:103A80004C1F0020A8050020E80800205C09002049
:103A9000EA080020EA250020054B20225A834FF433
:103AA0008042A3F81A244FF40042A3F81A24FEE738
:103AB000000802402DE9F04F854BB3F90220B3F91D
:103AC000003087B0002AB8BF5242002BB8BF5B421B
:103AD00000249A42B8BF1A4605922546A0462746BA
:103AE000A446A2462646DFF800B29BF803301BB975
:103AF0009BF80430002B40D0022E3ED0754B744909
:103B0000B3F86821744B485F5B5FDFF8E091514286
:103B100003EB400003F0FEFF704B99F81C2035F9D1
:103B200003C005EB0903CCEB0000B3F92A3000EB2E
:103B3000030C99F80800CDF810C000FB0CF06423CA
:103B40006FF00401514390FBF3F002EB820203F0AB
:103B5000E1FF634BDDF810C062498246E0580393F1
:103B6000604442F2107203F0D5FF039B99F812C033
:103B7000E0500CFB00FC4FEA2C3C9BF8033023B1D7
:103B8000594B1B790BB9022E40D1584BDFF840B18D
:103B9000DFF884813BF90570554906EB030907EB13
:103BA000870099F80130000190FBF3F0514BEA5E79
:103BB000801A54F80820039310444FF47A52CDF839
:103BC00010C003F0A7FF039B48F80400EB5EDDF88C
:103BD00010C0002BB8BF5B42B3F5207F08DC022E7B
:103BE00009D1BBF90430002BB8BF5B42642B02DD66
:103BF000002348F8043058F804207D2392FBF3F8A2
:103C000099F80B3003FB08F84FEAA818364B1A79DD
:103C1000A2B1022E12D0DDF81490C9F5FA7309FB97
:103C200007F109FB08F003FB0A114FF4FA7203FBDA
:103C30000C0391FBF2F193FBF2F308E0DB780BB19C
:103C4000022E02D14346394601E0634651462A48D6
:103C5000284A16F800B0AA5A6FF04F0012FB0BFB6F
:103C60009BFBF0FB594401912449685E6A520FFAAC
:103C700082F9C0EB0900224ADFF8A090A15854F85D
:103C800009B0A0501F4A44F809108B44B25CCDF82B
:103C900008B0834402FB0BF1202291FBF2F1019A60
:103CA000581A1044184AA852184A0198A050184AA5
:103CB0000136A350174B4942032EE15005F102058E
:103CC00004F104047FF40FAF07B0BDE8F08F00BF2C
:103CD00058260020502000208C0500207E04002063
:103CE00014050020F0D8FFFFEA2500204C1F00201B
:103CF00080C1FFFF78040020FD260020F805002089
:103D00009C050020FA26002064260020A42600201E
:103D1000002600204C260020040600200405002078
:103D20002DE9F84F002425462746022F434EDFF8A1
:103D30003C8107D196F82430B8F904201B33534353
:103D40005B1122E038F905003D494FF4FA7240005A
:103D500003F0E0FE3B4BEB5EC01A7319B3F92A2067
:103D60001044394AD3786BB996F8233038F90510E6
:103D700012791B334B431B113AB1B27C504303EB16
:103D8000202302E0337A43431B11304ADFF8E0B0CE
:103D900035F90280DFF8DC90BBF800002C493E4486
:103DA000C8EB0308F27A54F8093096F801A000FB3A
:103DB00008F0C01202FB00304FF4001244F8090072
:103DC00003F0A8FE234BDFF8B0C0E15844F80380AD
:103DD000BBF8003044F809004FF6FF721B09B2FB34
:103DE000F3F31D4AC1EB08010AFB08FA594354F8E2
:103DF000028054F80C3044F80C808911A1504344DF
:103E0000727D0B444FEAEA1A401353431B12134AC4
:103E10000AEB00011944A952114A44F802A0114AC0
:103E20000137A050104A032FA35005F1020504F1F9
:103E300004047FF47AAFBDE8F88F00BF4C1F002068
:103E40000CFEFFFF7E040020EA25002078040020FD
:103E50000000E0FF64050020C80500206426002063
:103E6000A4260020002600204C26002058260020F2
:103E7000AE05002004060020DC0500202DE9F84FE7
:103E80009B4B9C4A18889C4F9C4E2DED0A8B012120
:103E900003F040FE06EE900ADFED999A9FED99CA75
:103EA0003B79B8EEE6BA6BEE299A39EE8CCA89EE08
:103EB0008CCA83B3B6F90030B6F9022083EAE37105
:103EC000A1EBE37182EAE270A0EBE2708842ACBF42
:103ED00004460C46B4F5E17F20DA8842DFED8A7AA9
:103EE0000ADD002A04DD07EE102AB8EEC78A0FE0CB
:103EF000524208EE102A09E0002B04DD06EE903A4B
:103F0000B8EEE68A04E05B4208EE103AB8EEC88AE2
:103F100088EE278A04E09FED7D8A01E0B7EE008AF3
:103F20009FED7AAA002425462746F0EE4AAA735F41
:103F300008EE903A704BDA78F8EEE88A12B91A79FE
:103F4000002A70D07249734A695EB2F86821DFF8BE
:103F5000DC81DFF8E49107EE901AF8EEE77AB0EE34
:103F6000007AE8EE877A5142FDEEE77A17EE900A82
:103F700003F0D0FD684A98F81C30AA5E05EB0801F2
:103F8000801AB1F92A10421806EE902A07EE903AEC
:103F900098F80830B8EEE69A06EE903AF8EE677AAE
:103FA000F8EE666AB1EE047A67EE877A69EE266A01
:103FB0009FED5A7A66EE876AB1EE677ABDEEC77AF0
:103FC000FDEEE66AFDEEE77A17EE101A17EE902A7C
:103FD00016EE900A03F09EFD54F8093006EE900AA2
:103FE000F8EEE6AA06EE903AF8EEE67A6FF01D01DA
:103FF000E9EE297A1E22FDEEE77A17EE900A03F029
:1040000089FD98F8128044F8090007EE100A0AEEBC
:10401000108AF8EEC77AB8EE4AAA27EE8AAADFED30
:10402000407A2AEE27AA344BDFF80491DA78002A86
:1040300040F0848039F90510DFF8F0A0DFF8F48053
:1040400081EAE170A0EBE170B0F5206F02DD48F885
:10405000042025E00AEB0702DFED327A527858F8A7
:10406000043007EE102A68EEA77AB8EE477A06EE1B
:10407000901A87EE877A6FF0BF01C022F8EEE67AD9
:1040800006EE903A37EE677AF8EEE67AE7EE297AAE
:10409000FDEEE77A17EE900A03F03CFD48F80400C5
:1040A0000AEB070258F80480D27A134B07EE902AE5
:1040B00007EE108AF8EE677AB8EEC77A1A7927EE1B
:1040C000279ADFED197A29EE279ADAB378EEEA8A91
:1040D00039EE4A9AF0EE6A6AB0EE4A7AE8EE286A59
:1040E000A8EE097AF0EE668AB0EE479A2AE000BFA1
:1040F000AE050020A0860100EA25002058260020F9
:10410000BD378635AF4C593C0000E143000000004C
:104110008C050020502000207E0400206F12033CFC
:104120000AD7A33D0000A0430AD7233C4C1F002020
:10413000780400200406002014050020B0EE4A9AFE
:10414000F0EE6A8A734939F80520795CDFF800B22D
:1041500012FB01F107EE901A12B206EE902A6E4A97
:10416000B8EEE77ADFED6D7A2244E7EE678A92EDEA
:10417000007AF8EEE67A38EE890A37EEC77AC2EDB1
:10418000007A87EE297A664A2244D2ED007A37EE29
:10419000677AECEE077A9FED637AC2ED007A624AA5
:1041A000BA5C0BEE902AF8EEEBBA013767EEABBAC9
:1041B0006BEE87BA30EE6B0A0BF060F9FDEEE88A21
:1041C0005A4A5B49505318EE903ABDEEC99AF1EE47
:1041D0006BBA44F80B30574819EE103AFDEEEBBAC3
:1041E00023501BEE903A022F635005F1020504F1B3
:1041F00004049046824689467FF499AE4E4DB6F946
:10420000043095F82440640028345C434B4BB3F9E8
:10421000043000EE103ABAEECF0A0BF02FF9641119
:10422000201A06EE900A002CB8BF6442322CF8EE39
:10423000E68A434C02DD0023A36021E0FDEECB7A49
:10424000DFED406A4049414A17EE903A23F00303FC
:1042500007EE903AF8EEE77A6B7BC7EEA67A07EEA8
:10426000103AB8EE477AA36828EE877A67EE277A85
:10427000FDEEE77A17EE900A184403F04BFCA060BD
:10428000A0684FF4807240136FF0FF0103F042FC0E
:10429000FDEEE88AEA7818EE903A53439B1106EE59
:1042A000900A07EE103AEA7DB8EEE68AF8EEC77A91
:1042B00012B1C2F5967201E04FF49672FDEEE77A04
:1042C000514217EE900A03F025FC07EE900AF8EE33
:1042D000E78A78EE887AFDEEE77A17EE903A9BB29D
:1042E000A8F804301BB200EE103AB8EEC00A0BF08A
:1042F000C5F8FDEEE88ABDEEC88ACBED028A8AEDEC
:10430000028ABDEC0A8B0023A8F80400C9F8083023
:10431000BDE8F88FFD260020EC050020A69B443B5D
:10432000B8050020F7CC9238FA2600206426002039
:104330004C260020002600204C1F0020780400207E
:104340000406002000803B45020000F0FEFFFF0F46
:10435000A426002008B5074B5A780AB100225A70EB
:104360004FF40020FDF76CF818B1BDE8084004F0E8
:104370002BBC08BDEA250020084B094A1B681168C0
:10438000591A002909DB03F5F42303F59073136030
:10439000044B5A6982F400425A61704700050020BC
:1043A000B4050020000C02402DE9F0478046894604
:1043B00092460025EBB2534516D20024E3B24345A2
:1043C0000DD20A4B0A4E5A69102782F020025A6118
:1043D0004846378306F0B1F801347783EEE73C2096
:1043E00006F0ABF80135E5E7BDE8F08700080240CC
:1043F0000000024008B5104B1A88104B92B99A7809
:1044000082B15A78BAB901225A700D4B1A880D4BF5
:104410004FF400201A80FDF713F860B1BDE80840A2
:1044200004F0E6BA5B7833B90220FF210122BDE82F
:104430000840FFF7B9BF08BD5C090020EA2500204D
:10444000B0270020D42600202DE9F04FC04BB3F94F
:104450000600C04B2DED028BDA8C904285B00FDB4D
:10446000B0F5FA6F93F8254007DA811A4C43A2F5AC
:10447000FA6294FBF2F4643403E0C4F1640400E0F3
:104480006424B54A93F82370B2F88A1192F95C213A
:104490000091524292B293F8765093F8776093F875
:1044A000243002920021019703930A46A84BDDF8BD
:1044B000008031F903C0C8EB0C0303F2F31E40F295
:1044C000E637BE4503D8002BB8BF5B4201E04FF48E
:1044D000FA73022ADFF88C822CD025B1AB42CCBF14
:1044E000C5EB03030023642793FBF7FEDFF8CCA2A0
:1044F0006FF0630B3AF81E900BFB0E3B0EF1010EB2
:104500003AF91EA00FFA89FECEEB0A0E0EFB0BFE47
:104510009EFBF7FECE4428F801E0DDF8048003FBA3
:1045200008FE8E4B9EFBF3F33B449BB2634393FB2D
:10453000F7F714E026B1B342CCBFC6EB0303002368
:10454000DDF808E003FB0EF7A8F80470039F002BCA
:10455000B8BF5B427B43814F93FBF7F764377D4BDA
:10456000DFF85C8202EB030E64239EF8019007FBE8
:1045700009F999FBF3F902F808909EF80B90DFF81F
:1045800044829EF815E007FB09F999FBF3F907FB54
:104590000EF702F80890DDF8008097FBF3F3704FF8
:1045A000C445D3556F4F02DA7B5A5B427B520132CE
:1045B000032A01F102017FF479AF674E694CB6F826
:1045C0008C114FF4FA6203F0A5FAB6F88C314FF46F
:1045D0007A75C01A4543C3F5FA63B5FBF3F5642158
:1045E00095FBF1F360486FF0630E30F813200EFB7B
:1045F0000355013330F9130013B2C31A5D4395FB21
:10460000F1F15A4D6B7A0A44FA80D3B3584BDFED7F
:10461000597AB3F90020584BB3F90030D31A08EE99
:10462000903AF8EEE88A68EEA78ADFED547AC8EE91
:10463000A78AB0EE680A0AF0E5FEB0EE408AB0EE56
:10464000680A0AF065FFB4F902E0B4F9001006EE5A
:1046500090EA07EE901AF8EEE66AF8EEE77A20EEB6
:10466000667AA7EE887A67EE807ABDEEC77AE6EEC4
:10467000887A17EE103AFDEEE77A238017EE903A2B
:1046800063800220FCF7DCFE002858D03C4C3D4BF8
:104690003D4F1A88236813443C4A23601378013342
:1046A000DBB213700622B3FBF2F802FB183818F0E5
:1046B000FF0836D1364B1A684FF0080992FBF9F023
:1046C000101A344A11880844186090FBF9F080B23F
:1046D00001F070FE96F87E31388013B32E4B1A68C5
:1046E00092FBF9F0101A186090FBF9F080B201F01B
:1046F00083FE2A4B22681860294B42434FF47A719B
:1047000092FBF1F2D3E90001801841EBE271C3E9B9
:104710000001244A00230DF0CFFC234BC4F8008095
:104720001860224B3A881B889342214B03D396F89A
:104730007D11914201D9002200E004221A701D4B24
:104740001B88002B40D11C4B1B88002B41D146E01D
:10475000D62600204C1F0020502000200CFEFFFF1A
:10476000FA2600205826002018260020EA250020DE
:10477000B0270020DB0F4940D4260020000034433E
:1047800070050020AE050020602600206005002096
:10479000B005002062050020C0050020D0260020C2
:1047A00078050020407E05001026002062260020AB
:1047B00098050020E80800205C0900201027002050
:1047C000FD260020C82600200220FCF719FE002844
:1047D000B9D0204B5A6982F020025A610BE0AB78C5
:1047E00013B11C4B20225A836B7813B1194B202232
:1047F0001A8303F0BFFA184B18491B680A689A1A03
:10480000002A10DB687B164A58B99070114A50692B
:1048100003F5F42380F0200003F5907350610B60E2
:1048200001E00123937002F01BFA0E4B1B785BB979
:104830004FF40060FCF704FE30B105B0BDEC028B14
:10484000BDE8F04F03F097BA05B0BDEC028BBDE8B0
:10485000F08F00BF0008024000050020D4050020B2
:10486000EA250020F8010020024B184490F87F014F
:1048700008F0E0BD502000202DE9F0410820FCF7B1
:10488000DFFDDFF8A480234F002837D1224C0646F5
:104890000546D8F80030E8B29847A0F2EE2240F280
:1048A000DC5392B29A4288BF1C4B1D4988BFB3F8B3
:1048B0008A010A681B4B1340002B03DA013B63F0AB
:1048C0000303013303EB850C134B23F81C002088F2
:1048D00063880344A0880344E08803441BB2042097
:1048E000013593FBF0F3082DBB5304F1080406F1E6
:1048F0000206CED101320A60BDE8F0810024E0B2A8
:10490000D8F80030984727F814000134082CF6D165
:10491000BDE8F081D62600201E0500205020002092
:104920008805002003000080D80500200128054BE1
:1049300003D0052803D0044A02E0044A00E0044AF8
:104940001A60704728000020B53A0008213D000891
:104950007D3E00082DE9F84F08202DED048BFCF773
:104960006FFDA74DC0B195F88731042B13D8DFE850
:1049700003F0030306090C0001F0E0FB0CE001F07A
:1049800005FB09E001F076FC06E001F081FA003059
:1049900018BF012000E000209A499B4A0B68146868
:1049A0001C1B002C884602DA002800F0FD8203F56B
:1049B0009C4320331360FFF75FFF4FF48040FCF708
:1049C0003FFD20B1914B1B780BB9FFF7C3FC4FF4AF
:1049D0000070FCF735FD8E4F00283BD08D4E8E4C7D
:1049E00096F8CE30B4F9001003EB830291421CDD3F
:1049F000DFF82C9299F80120BAB1B5F88A213A80F3
:104A00007A80BA80B6F8D020FA8096F8CF20134486
:104A100003EB8303994204DDFFF79CFC002389F834
:104A200000307E4B1A8801321A8096F8CE30B4F9E5
:104A3000002003EB83039A4209DD794E96F801903A
:104A4000B9F1000F03D1FFF785FC86F800902388A9
:104A5000013323800022B5F88C01B5F88E4113464E
:104A6000B95E9B088142C4BF63F07F03DBB20232B0
:104A7000A142B8BF43F04003082AF1D1694CDFF8E6
:104A8000CC9122789A4205D199F80020F92A04D8CD
:104A9000013200E0002289F800204FF480402370AA
:104AA000FCF7CEFC5B4E58B1B5F88A11B5F84C2135
:104AB000B7F90630881A834202DD0A4493420DDBBF
:104AC0004FF48040FCF7BCFC30B9B7F90620B5F8CC
:104AD0008C319A4202DB12E0002010E0524A00239F
:104AE000136053609360514A13605360B6F84630C8
:104AF00023B1464B1B78002B40F02E840120B6F8E2
:104B000046306BB1414B1B7853B9454B5B783BB199
:104B100095F8913113B1FFF71DFC01E00028FAD19F
:104B200099F80030142B40F0C4803D4B93F801B04D
:104B30009A46BBF1000F18D0B6F8463023B9237857
:104B40005F2B01D1FFF706FC95F89031002B00F0A8
:104B5000B080B6F84630002B40F0AB8023787D2B38
:104B600040F0A780FFF7F6FBA3E02378572B18D17E
:104B70002F4B4FF47A724FF480701A80FCF760FC70
:104B800008B1FCF717FF0420FCF73AFC10B1294BE1
:104B90000A221A800820FCF733FCE8B9264B18805B
:104BA0001AE00420FCF74CFCB0B11E4B1B785A2BCA
:104BB00012D1224B1A7822B183F800B00122204B87
:104BC00009E0204B1A7882F001021A701E4B0AB1DC
:104BD000022200E003221A7023785D2B00F0C583C7
:104BE0005B2B00F0C4835E2B00F0C383B6F8463025
:104BF00073BB22786F2A2BD1FFF7FCFB3CE000BF90
:104C00005020002000050020940500207A26002076
:104C1000D62600204C1F0020000600209205002010
:104C2000EA25002084050020040600201405002049
:104C30005C090020EA080020B0270020FE050020C3
:104C4000F4050020F5050020800500201C0500204B
:104C500095F890211AB113B923787E2BCCD0237804
:104C6000972B04D1844B4FF4C8721A8004E0A72B11
:104C700004BF01238AF80E302378BB2B02D1B38DF9
:104C8000023303E0B72B03D1B38D023BB38509E0B8
:104C9000BE2B02D1738D023303E0BD2B09D1738D7E
:104CA000023B738501200146FCF734FB002389F8A1
:104CB00000300420FCF7C4FB48B3704A704B1178F5
:104CC00071B17049497859B1B7F90600B5F88C113E
:104CD000884205DD197819B96B48117032240480B7
:104CE0005B7C53B1694B1A782AB9694A127812B9B8
:104CF000654A32211180012208E0654B1A7832B1F1
:104D0000604A52781AB91A70624B01221A706248CE
:104D10000123002230F8021FA1F21554B4F5C77F19
:104D20008CBF002401249C4009B2224340F213545A
:104D3000A142CCBF002401245F1EBC40224340F2AC
:104D4000A464A142D4BF002101215C1CA140033313
:104D50000A430D2B92B2DDD1002306EB4301484FED
:104D6000B1F846100A420CBF00210121D955013388
:104D7000182BF2D17B78434C4BB9484BB3F9002048
:104D8000474B93F8CE3003EB83039A420CDD0220AD
:104D9000FCF736FB40B1E37843B9424A13605360F5
:104DA000384B0122DA7001E00023E370BB7853B185
:104DB0000023E37023793BB93A4A13605360314BC7
:104DC00001221A7100E023713B780BB90123237093
:104DD000E278354B12B92B4A12791AB14FF480425E
:104DE0001A8302E04FF480425A830420FCF708FB48
:104DF00010B3FB788BB1A37983B9224A0121917159
:104E00002A4A11682A4A11602A4AD1882A4A1180FE
:104E10002A4A13602A4A136000E0A3714FF400503D
:104E2000FCF70EFB40B13B792BB1E37B23B9154B6B
:104E30000122DA7300E0E3730220FCF7E1FA10B11B
:104E40007B7933B90FE00820FCF7DAFA0028F7D1B4
:104E500043E0637943B90B4B01225A71194B1A880D
:104E6000194B1A8000E06371BB797BB3637A73BB23
:104E7000044B01225A722AE0E8080020F5050020C0
:104E80007A260020EA250020AC05002081050020BC
:104E9000FE050020F4050020DC260020000600208E
:104EA0004C1F002014050020000C02409425002017
:104EB000A02500205826002082050020980400200C
:104EC000E8040020B0270020702700206372FB79DF
:104ED0001BB19B4B1A889B4B1A802020FCF790FA41
:104EE000002853D0E27A984B002A4AD0974A127889
:104EF000042A46D9964A4FF400411183BA7A7AB10E
:104F0000DA79002A44D101219248D9711A72924B60
:104F1000011D1A70FCF7C4FE904B02221A7037E094
:104F2000DA718F4AD27A12B38E49B6F8E220B1F91B
:104F300000000028B8BF4042904218DAB1F90210D0
:104F40000029B8BF4942914211DA1A7A02BB012600
:104F50001E72814B84481A70844B011D1A685B686D
:104F600043600260FCF79CFE7C4B1E7010E0002347
:104F70002372794B1A785AB901221A70FCF742FD54
:104F800006E0764A0023E37123721370FFF7F4F909
:104F90003B7B03B10123A3726B79082B01D00E2B4D
:104FA00039D10023637236E0714C2368042B32D868
:104FB000DFE803F0030C16202B00012308202360F8
:104FC000FCF71EFA10B101F03FFC20BB236804205F
:104FD00001332360FCF714FA10B101F045FAD0B99F
:104FE0002368042001332360FCF70AFA10B1FEF7AE
:104FF000E7F980B923684FF4807001332360FCF730
:105000001FFA10B1FCF7FCFE05E000234FF400503E
:105010002360FCF715FA05F065FAAA89C8F80000C4
:10502000544B22B11968411A0029C0F2B3811044CF
:105030001860FEF71DF805F055FA4F4B4F491A68F6
:10504000C8F80000821A18600A80FFF7FDF90820EE
:10505000FCF7D6F94A4E002831D0424A918801F136
:1050600045039BB28A2B1446354B464A25D8364811
:10507000477917B31F881388407BFA1A92B293B20C
:105080001FB2B337BCBF02F5B4739BB21AB2B32AD6
:10509000C4BFA3F5B4739BB295F85C2178B152B24A
:1050A00052425343727A9BB213FB02F36FF01D021C
:1050B00093FBF2F31944A18001E01B8813800420C4
:1050C000FCF79EF9002800F09C801F4B9A79002A7B
:1050D00000F09780187C234C002840F08A8096F8D6
:1050E0007910294F96F87820284B002958D0B4F829
:1050F00006E0B7F900100FFA8EF7C1EB070CBCF110
:10510000000FB8BFCCF1000C94450DDD8F42C8BF35
:1051100052421F4D1FFA8EFEC8BF92B228607244E1
:1051200001201870E2806CE01A7822B1194A1870D8
:105130001768194A1760194B1868084451E000BFF6
:10514000B0270020D4260020EA250020CE2600200B
:10515000000C02406C2600202400002010050020D6
:105160007A2600205826002038260020B02600206D
:10517000E8050020C4050020A8050020AE05002099
:105180004C1F002070270020820500201D050020F4
:105190009804002094250020A0250020E804002089
:1051A000B7F90000B4F906703F1A87EAE77EAEEB64
:1051B000E77E964509DD022297FBF2F7774A7849A8
:1051C000176001220A701A7008E01A7832B1754A25
:1051D00019701768744A1760714A1170734B1B6815
:1051E0001844B5F84011B5F8422102F093FCE08074
:1051F00007E06E4B628895F992111B6801FB03234F
:10520000638096F87C3053B1694BDA780AB91B7920
:105210002BB1684B684A1188DA880A44DA8020206A
:10522000FCF7EEF8002800F08580614BDA7912B9BE
:105230001A7A002A79D01B7B002B76D05F4BDFEDEA
:10524000607AB3F9003008EE103AB8EEC88A28EE5A
:10525000278AB0EE480A0AF05BF9F0EE408AB0EE19
:10526000480A0AF0CFF8524B1B7CB0EE409A002B54
:1052700060D196F8DB30534F534E544DB2EE048A52
:1052800083B3534CB6F90200B4F802800FFA88F3E6
:10529000C01AFCF74FFD97F8DB20514202F03AFCB0
:1052A0004044B4F800806080B6F900000FFA88F33B
:1052B000C01AFCF73FFD97F8DB20514202F02AFCB0
:1052C00040441FFA80F8A4F80080B4F902400FFAB5
:1052D00088F807EE104A07EE908AB8EEC77AF8EE23
:1052E000E76A0BE0B6F90220B6F9006007EE102A73
:1052F00006EE906AB8EEC77AF8EEE66A68EEE67AED
:10530000E7EE097A26EE899AC7EE887AA7EE289A00
:10531000FDEEE77A89EE089A17EE903ABDEEC99A4B
:105320002B8019EE103A6B8004E0284B00221A8083
:105330005A809A80274B1B68984700F08FF900F03D
:1053400079F94FF40020FCF77BF818B3BDEC048B1F
:10535000BDE8F84F02F092BE154B1B78002B3FF4CE
:10536000CDABFFF747F8FFF7C9BB012202E00222ED
:1053700000E003225FFA82FB00200BF1FF330146BD
:1053800085F8BC34FBF7C6FF022028215A46FFF7F8
:105390000BF82BE4BDEC048BBDE8F88FC4040020AF
:1053A000AC04002094250020A0250020E804002063
:1053B000EA250020582600208C040020B027002079
:1053C00035FA8E3C4C1F0020302600208C05002032
:1053D0001426002028000020074B0A2202FB00337D
:1053E000B3F882301AB2112A04DC0728DCBF034B61
:1053F00033F8123018B270474C1F0020D626002018
:10540000074B0A2202FB0030B0F8863043FA01F164
:1054100011F0010F0CBF01204FF0FF30704700BFAB
:105420004C1F002010B500244FF48040FCF708F812
:10543000064B10B1B3F84A3101E0B3F84431044AE5
:10544000A3520234182CEFD110BD00BF5020002011
:1054500036270020F8B5594C594D6379594F05EB63
:10546000C30320205B78003318BF0123BB75FBF713
:10547000E7FF08B10123BB756379172B19D100250C
:105480006319D3ED047AF5EE407AF1EE10FA02D109
:10549000BB7D63BB25E010330FCB4B4E2E4486E81B
:1054A0000F004A4B1A7810350132C02D1A70E7D11F
:1054B000EEE715F833E0454A05EBC30582F800E056
:1054C000D5F804C0BCF1000FE2D000257545DFDA45
:1054D0003D4E2B011E4463440FCB013586E80F007F
:1054E000F4E74FF48040FBF7ABFF20BB1CE0627990
:1054F000374B384913F83200087003EBC2035D687C
:10550000002DEED000238342EBDAC3EBC3016A180F
:10551000314FD2F800E047F801E07E189188B18061
:105520009279B2710133EEE7637903F0EF02082A52
:105530002A4A20D121E0254B19780129F4D9284B9A
:1055400000228A4203F11003EEDA13ED047AF6EE3C
:10555000007A27EE277A013203ED047A13ED057AFB
:1055600027EE277A03ED057A13ED037A67EE277AA3
:1055700043ED037AE5E70E2B19D10121182B1174A5
:1055800017D10023E21892F9D21091B1124852F8C3
:10559000D05FC550C118908892798A710D4A888071
:1055A000117807330131702B1170EBD101E000232A
:1055B0001374BDE8F840FFF735BF00BF502000204E
:1055C000F8470108C02500203406002011060020FD
:1055D000004C010810060020F4060020EA250020F7
:1055E0003C0600202DE9F0410023461C0F4A991883
:1055F00010330020C02B08619446F7D10C4B03EB0D
:10560000C6029846576877B1002418F836309C4295
:1056100009DA23010CEB03053B440FCB103585E879
:105620000F000134F1E7BDE8F08100BF50200020F9
:10563000F847010810B50023D8B25C1C054B1B7855
:10564000834206D9044B33F8101007F0D7FE2346E7
:10565000F2E710BD110600201E2700202DE9F04FB3
:10566000B54B1A78032A8BB00FD9B44BB44CB3F9AD
:105670000420B4F90400002AB8BF52426FF063015D
:10568000891A643202F046FAA080AB4A11780129E7
:1056900005D8AC4EAC4D337C002B3FD14FE0A74B2F
:1056A000AA4AD888A64B92F9D4205C881D88B3F901
:1056B0000430524203FB02FEA54B00228A4203F152
:1056C0001003E6D22EB207EE90EA06EE106A06B29A
:1056D00005EE906A26B2F8EEE76A07EE906A13EDDF
:1056E000027A9C4EF8EEE77AF8EEE55A67EE877A92
:1056F00013ED047AE5EE877AB8EEC66A13ED037A05
:10570000E6EE077A13ED017AE6EE877AFDEEE77AA8
:1057100017EE907A26F812700132CFE773788D4C2D
:105720001BB9B5F84431238009E0844BB5F840112A
:10573000B3F90600B5F8422102F0ECF920806A794D
:10574000013AD2B2172A00F228814FF001088248AC
:1057500008FA02F2104030BBD20640F11E81DFF899
:10576000ECA1DFF810929AF884B0B9F802707B4C83
:10577000FFF732FE4FFA8BFB1BFB07FB32279BFB2D
:10578000F7FB58449AF88EA02080B9F80090404664
:10579000FFF722FE4FFA8AFA1AFB09F999FBF7F78D
:1057A00038446080F9E0B37A0BB1644B00E0644B9D
:1057B0001A88ADF810205A88ADF812209B88ADF8F1
:1057C0001430644B664A1B881189ADF81630B5F861
:1057D0008A31591AADF818105189591AADF81A10B2
:1057E0009189591AADF81C10D189591AADF81E10BB
:1057F0001188591AADF820105188591AADF82210A5
:105800009188D288591A9B1AADF82410ADF8263029
:1058100000242046FFF7E0FD504B23F8140001342C
:10582000082CF6D14FF000084E4B1B785FFA88F435
:10583000A34240F2A1804C4AE000031B1344997933
:10584000134621B1494F3944097D00296DD0011B10
:105850000B44575C3D4A93F905A093F904B093F8C3
:1058600001900A2101FB0721B1F88000B1F87E20E8
:10587000821A92B2642002FB0AFA510802FB0BFB67
:105880009AFBF0FA9BFBF0FBC1EB0A0AD8781FFAEF
:105890008AFAC1EB0B0BCDF808A01FFA8BFBDFF8DF
:1058A000D0A04FEA490230B90AAB1A4432F8182C9A
:1058B0002AF8142012E00AA911443AF9142031F907
:1058C00018EC724503DA10441146724602E005DD19
:1058D000101A714602F01EF92AF81400DFF87CC095
:1058E00049463CF8173003933846CDF804C0FFF71B
:1058F00087FD1D4A3AF81430C4EBC40414448146B1
:1059000094F9020010FB03F0642390FBF3F0029B78
:105910000FFA8BF11AB202F0FDF8039BDDF804C018
:1059200000FB09302CF8170002E0114B23F814108B
:1059300008F1010878E700BF110600205826002072
:1059400064260020EA250020502000204C1F002063
:10595000340600201E270020892098002E000020F9
:10596000D626002010060020F40600207A2600200B
:10597000120600207E0400207A4A00237A485188CB
:1059800018440A3390F9840010FB01F1642091FB64
:10599000F0F1502B22F8021FF0D12020FBF750FD30
:1059A000714F002844D00020FFF716FD6F4C804651
:1059B00020800120FFF710FD6D4B60801B7ABBB388
:1059C00097F8D63097F88E1013F0020F694B1CD061
:1059D0001A8897F984E0B3F9023049B211FB02F159
:1059E000CEF1000E322203FB0EF391FBF2F16FF0C9
:1059F000310E89B293FBFEFE8E4493FBF2F2F0442B
:105A00001144A4F80080084411E05A8897F984E012
:105A10001B881EFB02FE49B232229EFBF2FE11FBE6
:105A200003F1F04491FBF2F2A4F80080104460808E
:105A30004C4CDFF8348104F11009B4F90200B8F9D4
:105A40007E10B8F9802002F065F824F8020F4C456A
:105A500008F10A08F1D197F8D6305B0706D4464B17
:105A6000464F1A78B7F8008001230FE0444BDF7DE2
:105A70000024043F434B03EB4403E019C0B21989EF
:105A8000013407F0C9FC042CF4D1E8E793420AD2B0
:105A900037F913100FFA88F84145A8BF88461FFA56
:105AA00088F80133F2E70024A146334A1378994578
:105AB00054D2B5F842310FFA88F29A4204DD3A5BCB
:105AC000C8EB030313443B534FF48040FBF7B8FC8F
:105AD0002C4B824698B1B3F90610B5F88A212A4BAF
