:020000040800F2
:10000000583D0020CDC5000891EA00089D3A00083F
:1000100093EA000895EA000897EA0008000000004B
:1000200000000000000000000000000099EA000845
:100030009BEA0008000000009DEA0008AD9E000851
:10004000C9C50008C9C50008C9C50008C9C5000858
:10005000C9C50008C9C50008C9C50008C9C5000848
:10006000C9C50008C9C50008C9C50008C9C5000838
:10007000C9C50008C9C50008C9C50008C9C5000828
:10008000C9C50008C9C50008C9C50008C9C5000818
:10009000C9C50008C9C50008C9C50008C9C5000808
:1000A00095D30008C9C50008C9C5000869D3000870
:1000B00075D300087DD30008C9C500087DE100089C
:1000C000E1E00008C9C50008C9C50008C9C50008A5
:1000D000C9C50008B9E90008C5E90008D1E9000868
:1000E000C9C50008C9C50008A1EA0008C9C50008BB
:1000F000C9C50008C9C5000889D30008C9C50008DA
:10010000C9C50008C9C50008C9C50008C9C5000897
:10011000C9C50008C9C50008C9C50008C9C5000887
:10012000C9C50008C9C50008C9C50008C9C5000877
:10013000C9C50008C9C50008C9C50008C9C5000867
:10014000C9C50008C9C50008C9C50008D1EA00082A
:10015000C9C50008C9C50008C9C50008DDE900080F
:10016000C9C50008C9C50008C9C50008C9C5000837
:10017000C9C50008C9C50008C9C50008C9C5000827
:10018000C9C50008C9C5000870B50646B6FBF2F43B
:100190000846154614B12046FFF7F6FF05FB146428
:1001A000024B1B5D00F8013B70BD00BF88210108B8
:1001B00010B50278202A034600F10100F9D0092A7F
:1001C000F7D02D2A03D10346BFEE000A04E02B2A04
:1001D00008BF0346B7EE000A9FED377A1A4613466A
:1001E00012F8011BA1F13000C4B2092C0AD805EEA7
:1001F000900AF8EEE57AF2EE046AE7EE267AB0EEBF
:10020000677AECE72E2915D1F2EE047AF0EE676AF0
:10021000134612F8011B3039C8B209280AD805EE76
:10022000901AB8EEE56A86EE276A67EEA67A37EE90
:10023000067AEDE71A7802F0DF02452A34D15A78BF
:100240002D2A02D10233012204E02B2A14BF0133EC
:1002500002330022013B002113F8010F3038C4B2F1
:10026000092C03D80A2404FB0101F5E7B1F59A7FB4
:1002700034BF0B464FF49A731946F7EE007A0729FC
:1002800005D9DFED0E6A083967EEA67AF7E703F0C5
:1002900007032BB1F2EE046A67EEA67A013BF8E79A
:1002A00022B1C7EE277A03E0F7EE007A67EE277AED
:1002B00020EE270A10BD00BF0000000020BCBE4C8D
:1002C00010B5441E14F8011F21B1034B18680CF03F
:1002D00013FFF7E710BD00BF042500200148FFF71A
:1002E000EFBF00BFAD21010810B50748FFF7E8FFD9
:1002F0000024064B0648E1581A190C34526805F0E0
:1003000041FBC02CF5D110BDDD210108A82001085A
:10031000F321010870B509F0EBFD294B1A88294B30
:100320004FF47A71B0FBF1F11B78274805F02AFBF6
:1003300001F080F8254B1968254B1A68254B53F8B6
:100340002110254B0546B2FBF3F2244805F01AFBB9
:100350000024E3B2224A52F8231049B1012202FAE2
:1003600003F32B4202D01F4805F00CFB0134F0E7E9
:10037000022001F045F898B11B4C1C4B22781C4818
:1003800053F8221005F0FEFA2378022B08D1194BFE
:1003900019481B7D002B0CBF6E216F2105F0F2FA6E
:1003A0001648FFF78DFF164B1C880DF093FE214673
:1003B000024640F2C4431348BDE8704005F0E2BA7B
:1003C000A425002028000020FB210108F4040020BF
:1003D000540000201C32010840420F00392201085D
:1003E000FC31010862220108880800206821010808
:1003F0006622010804250020702201082525010835
:10040000760500207422010838B50C6805462046A0
:1004100010F0A9FC214602462868BDE8384010F0DB
:10042000ABBC000008B50948FFF74AFF01210020D6
:1004300000F070FF0648FFF743FF0A2009F069FD4E
:100440000020BDE8084009F08BBD00BFA6220108CE
:10045000B02201087FB5044610F085FC082824D19D
:1004600000231F49E25C09681144497801F0030147
:10047000022908BF203AE2540133082BF1D10025AC
:10048000665D1848314610F061FC28B101356019ED
:10049000314610F05BFC18B11348FFF711FF1CE068
:1004A000082DEDD1204600F085FE1048FFF708FF2B
:1004B00000230F4A1A4404A992F87F210A440949EB
:1004C000595C02F80C1C0133082BF2D100230948B7
:1004D0008DF80C3001A905F055FA04B070BD00BFCD
:1004E0008C010020243D0108BF220108DF22010801
:1004F000941F0020F621010808B501F095FB01309A
:100500000CBF03480348BDE80840FFF7D9BE00BF51
:10051000F42201081A2301082DE9F041054610F0E4
:1005200022FC044601F082F906468CB92948FFF7FF
:10053000C7FE294B53F8241041B10123A340334295
:1005400002D0264805F01EFA0134F2E7244821E0E3
:1005500028462449224610F00FFC58B92248234C63
:10056000FFF7AEFE54F8041F0029EFD01B4805F03A
:1005700009FAF7E72B782D2B03BF013504F1FF347F
:100580004FF001084FF000080026134B53F8267077
:1005900027B91748BDE8F041FFF792BE2846394613
:1005A000224610F0E9FB98B90120B040B8F1000FE5
:1005B00003D001F02DF90F4802E000F04BFF0E4888
:1005C000FFF77EFE39460D48BDE8F04105F0DAB987
:1005D0000136DAE738230108F81F01086222010812
:1005E00025250108AF2F01084B230108F41F01083E
:1005F000602301087A23010884230108F6210108F9
:1006000010B504460848FFF75BFE084A0023137044
:10061000074A1360074A137004F0BAFC2046BDE88D
:100620001040FFF7FFBE00BF8D230108F901002035
:100630002C020020F801002008B50848FFF740FE12
:10064000012000F00FFF0648FFF73AFE0A2009F0EC
:1006500060FC0020BDE8084009F082BCA523010829
:10066000B2220108F8B5074610F07DFB044638B900
:100670001A4B1B485A791B4B013A53F8221028E0B9
:1006800038461949224610F077FB60B91748184CD4
:10069000FFF716FE54F8041F19B1164805F072F959
:1006A000F8E7154805E000250E4B53F8256026B9FC
:1006B0001248BDE8F840FFF703BE384631462246EF
:1006C00010F05AFB01350028EED1044B0C485D7147
:1006D0003146BDE8F84005F055B900BF941F002031
:1006E000C02301084C200108AF2F0108D4230108C2
:1006F000482001086222010825250108E723010896
:10070000FF23010810B50446204610F02CFB10F022
:10071000FF0F07D10B4B0C4893F8BC14BDE81040F9
:1007200005F030B9204610F0C7FA022808D8054B6A
:10073000064C83F8BC040020014600F0EBFDE3E723
:1007400010BD00BF941F00201124010835270108A7
:1007500070B5044610F007FB08B9204830E0204689
:100760001F4910F057FB00242646254678B12CB1CE
:10077000012C06D110F0A0FA064602E010F09CFA17
:10078000054617490020013410F044FBEEE70B2D1D
:1007900005D914480C21BDE8704005F0F3B8012CD0
:1007A00008DC114B114833F915202946BDE870408B
:1007B00005F0E8B8A6F57A73B3F57A7F04D90C484A
:1007C000BDE8704005F0DEB80A482946324605F01B
:1007D000D9F8054B23F8156070BD00BF2724010828
:1007E000FF260108612401087A26002087240108D9
:1007F0009F240108C124010838B5054610F0B3FA5A
:10080000C0B268B90446124B124803EB44032146B8
:10081000B3F84620013405F0B5F8182CF3D138BDF3
:10082000284610F049FA172804460BDC20212846F8
:1008300010F08CFA10F040FA054B03EB4404A4F8D6
:10084000460038BD04481821BDE8384005F09AB884
:10085000901E0020DA240108E6240108931E232BB1
:1008600028BF0A22031E10B50C4603DA2D2001F81A
:10087000010B5842FFF788FC00230370204610BD8F
:1008800030B52DED028B87B0B0EE408A00210C22EE
:10089000044603A810F045FAB5EEC08ADFED2B7AC6
:1008A000F1EE10FACCBF38EE278A38EE678ADFED1A
:1008B000287A28EE278A6946BDEEC88A0A2218EEF1
:1008C000105A85EAE570A0EBE570FFF7C7FF002D31
:1008D000ACBF20232D2368468DF80C3010F043FA6E
:1008E000012807D130238DF80D308DF80E308DF8AA
:1008F0000F300CE0022805D130238DF80D308DF833
:100900000E3004E0032804BF30238DF80D30694613
:1009100003A810F00EFA03A810F025FA0338C5B2A8
:100920002A4603A9204610F049FA002363552046C1
:10093000084910F0FEF903A92046294410F0F9F9FE
:10094000204607B0BDEC028B30BD00BF6F12033AEA
:1009500000007A44BD22010837B5037904460D46EC
:10096000052B37D8DFE803F003060A0D111483685E
:10097000197830E0836893F900102CE083681988B7
:1009800029E08368B3F9001025E08368196822E044
:100990008368684693ED000AFFF772FF014613482B
:1009A00004F0F0FF05B3D4ED037A6846B8EEE70A29
:1009B000FFF766FF01460E4804F0E4FF94ED040AD9
:1009C0006846B8EEC00AFFF75BFF0146084804F02E
:1009D000D9FF09E00021074804F0D4FF25B10648FB
:1009E000E168226904F0CEFF03B030BD6D2201083A
:1009F0006C220108102501080C2501082DE9F84397
:100A00002DED028B054610F0AEF94E4E074620B193
:100A1000012816D12B782A2B13D14B48FFF750FC15
:100A200000243159494804F0ADFF30193946FFF729
:100A300093FF14344648FFF743FCB4F52F6FF0D111
:100A40007CE028463D2110F081F900285FD0441C4D
:100A5000204610F031F981462046FFF7A9FB002718
:100A6000B0EE408A14247C4356F80480404610F0CF
:100A70007AF941460246284610F07EF900283CD11A
:100A8000304B1C4494ED037AF8EEC77AB4EEE78A53
:100A9000F1EE10FA2FDB94ED047AF8EEC77AB4EE9B
:100AA000E78AF1EE10FA26D82279052A18BF08EE57
:100AB000109A18EE103A052A11D8DFE802F0030365
:100AC0000606090DA268137009E0A268138006E00B
:100AD000A26882ED008A02E0A36883ED008A4146A5
:100AE0001C4804F04FFFBDEC028B20460021BDE8FE
:100AF000F843FFF731BF184803E001378C2FB1D11D
:100B00001648BDEC028BBDE8F843FFF7D9BB04469D
:100B100037592946384610F063F958B10B48394621
:100B200004F030FF074800212044FFF715FF084874
:100B300004F028FF1434B4F52F6FE9D1BDEC028B1B
:100B4000BDE8F8832C32010813250108F2250108BD
:100B50002525010828250108332501085825010805
:100B600070B52DED048B5D485D4C84B0FFF7A8FB9C
:100B70005C4804F007FF5C48FFF73EFE62795B4B80
:100B80005B48013A264653F8221004F0FBFED4EDF0
:100B9000047AF5EE407AF1EE10FA5FD018340025B1
:100BA00014ED028AB5EE408AF1EE10FA52D001350A
:100BB000504854ED019A94ED009AD4ED018A2946EB
:100BC00004F0E0FEB5EEC08AF1EE10FA02D54A4814
:100BD00004F0D8FEB0EE480A6846FFF751FE014621
:100BE000464804F0CFFEF5EEC09AF1EE10FA02D5B9
:100BF000414804F0C7FEB0EE690A6846FFF740FEC0
:100C000001463E4804F0BEFEB5EEC09AF1EE10FA81
:100C100002D5394804F0B6FEB0EE490A6846FFF73F
:100C20002FFE0146354804F0ADFEF5EEC08AF1EE28
:100C300010FA02D5304804F0A5FEB0EE680A684606
:100C4000FFF71EFE01462E4804F09CFE0C2D04F119
:100C50001004A5D12B48691C04F094FE00F0E6FDB9
:100C6000294C054654F8041F19B1284804F08AFE9F
:100C7000F8E70C46264B53F8241041B10123A3405A
:100C80002B4202D0234804F07DFE0134F2E77318B2
:100C900004AA93F87F3113441F4A8A5C03F8102C8E
:100CA00001310829F3D100241C488DF80840694619
:100CB00004F068FE1A4D1B48615904F063FE2819C0
:100CC0000021FFF749FE14341748FFF7F9FAB4F58D
:100CD0002F6FEFD104B0BDEC048B70BDAD210108C6
:100CE000941F002075250108352701084C200108B4
:100CF000A5250108B0250108FF2601086D2201087D
:100D0000F6210108B8250108F41F0108CA250108C9
:100D1000F81F0108D8250108243D0108E525010830
:100D20002C320108EE25010825250108F0B589B00F
:100D3000044610F018F8C5B2002D72D17F48804CDF
:100D4000FFF7BEFA54ED027AF5EE407AF1EE10FAB2
:100D50002CD0013529467B4804F014FE14ED020A1C
:100D600004A8FFF78DFD0146774804F00BFE14ED53
:100D7000010A04A8FFF784FD0146734804F002FE4F
:100D800094ED000A04A8FFF77BFD01466E4804F0CD
:100D9000F9FD94ED010A04A8FFF772FD01466B48C6
:100DA00004F0F0FD0C2D04F11004CBD1DFED687AD6
:100DB000684BB0EE677AF0EE676A0022AA4203F150
:100DC00010030DDA13ED045A53ED035A13ED026AC2
:100DD000013276EE856A77EEA57A37EE067AEDE790
:100DE0005D48CDED016ACDED027A8DED037AFFF716
:100DF00067FA002408AB234413ED077ADFED577A36
:100E0000574B5848B0EEC77AB4EEE77AF1EE10FAD5
:100E1000D8BF18460434FFF753FA0C2CEAD15248D5
:100E200074E02046514905220FF0A6FF38B9504B17
:100E3000034410300022C0281A61F8D17BE020461C
:100E40004C4904220FF098FF0546204605BB20219F
:100E50000FF07CFF00286ED0461C30460FF083FF59
:100E60002C460746444B53F824500DB943484DE0F7
:100E700030462946FAB20FF07FFF38B9204604F019
:100E800067F93F48294604F07DFD4CE00134E9E76D
:100E90000FF012FF461E0B2E074648DC204620218D
:100EA0000FF054FF054650B1451C2846FFF780F966
:100EB0002F4B03EB071787ED000A012400E00446DF
:100EC000284620210FF042FF054648B1451C284620
:100ED000FFF76EF9264B03EB061383ED050A013489
:100EE000284620210FF032FF054648B1451C284610
:100EF000FFF75EF91E4B03EB061383ED060A013480
:100F0000284620210FF022FF18B91E48FFF7D8F914
:100F100011E00130FFF74CF9154B032C03EB0616DB
:100F200086ED070AF1D11848FFF700FF03E01748E4
:100F30000C2104F027FD09B0F0BD00BF0026010818
:100F4000AC1F00202B26010831260108F6210108DC
:100F500000000000A81F0020352601080AD7233C06
:100F6000FC250108F825010825250108442601086B
:100F7000941F00204A2601084C200108E72301089D
:100F80004F26010862260108352701089C26010822
:100F90002DE9F047674B1A7886B0984642B901238D
:100FA000654888F80030FFF78BF96448FFF788F947
:100FB000634D28680CF0B0F8A946002800F0B7800F
:100FC0002868604C0CF0ADF80928014601D03F2894
:100FD0004FD14FF0000A25685B4F56462DB15B4854
:100FE00039682A460FF0C8FE10B9BA4606B93E461F
:100FF000574B0C379F42F1D3CEB1D6F800E0DAF868
:1010000000C02B461EF803701CF80300B84201D044
:1010100023600CE05A1C4D4930B92D2B04D82027F1
:10102000CF542260885402E0CF541346EAE7236885
:101030000BB1564512D04748FFF742F9564509D83B
:1010400056F80C0BFFF73CF9D9F8000009210CF019
:1010500053F8F3E73948FFF733F9002523689D4239
:10106000A6D23A4BD9F80000595D0CF045F801358D
:10107000F4E723682BB9042836D13448FFF7C0FAC7
:1010800055E00C2801D134488DE70A2901D00D29FB
:1010900044D132482D4DFFF713F922682A490395B0
:1010A0000023AB5404932E4B009303A810220C236F
:1010B0000FF006FE064638B100680FF054FE01300E
:1010C000B3682844984702E02648FFF7F9F81F481C
:1010D000002130220FF025FE0023236098F8003015
:1010E000002B7FF462AF22E00C28CCD07F2903D103
:1010F0005EE72F2B3FF65CAFA1F12002D2B25E2A51
:101100003FF656AF13B920293FF452AF5A1C226064
:101110000E4A2868D1540BF0EFFF49E77F29E8D148
:10112000013B0A4A23600021D1540F483EE706B034
:10113000BDE8F087F8010020C4260108FC2601085C
:10114000042500202C020020A8200108F90100201D
:101150006821010801270108062701082525010843
:101160000904000811270108322701080F4B1A78DB
:10117000482A18D1598840F2C442914213D11A79B1
:10118000BE2A10D193F8C024EF2A4FF000000CD1F2
:1011900013F8012B5040064A9342F9D1D0F10100D7
:1011A00038BF0020704700207047704700000E08CD
:1011B000C4040E0870B50546441E14F8011F61B141
:1011C000064E30460FF0C2FD0028F6D0861B0448BC
:1011D0003044631B80F87F31EFE770BD243D010888
:1011E000941F002008B5FFF7C1FF10B90A2008F0CE
:1011F0009BFE0D4B0D49184640F2C4420FF088FD8E
:1012000090F8BC24022A84BF002280F8BC2490F805
:10121000BC144FF4827202FB010101F5D87104483D
:101220000FF076FD08BD00BF941F002000000E08DF
:10123000901E00202DE9F0472E4890F82050C47FE2
:10124000002303FB03F11939694301F6C411594323
:1012500040F6C412614391FBF2F1274A22F81310C1
:101260000133072BEDD1254A90F82130B2F84061C7
:10127000B2F842A190F822E0C3F1640903EB830CB9
:101280005C425FFA89F94FEA4C0CCEF16408C6EB78
:101290000A0AA4B20022A1B20FB2002F04DC002976
:1012A00014BF1D46012500E04D4611FB01F101FB75
:1012B0000EF115FB05F591FBF5F545440A217D433B
:1012C00095FBF1F565442DB24FF47A7105FB0AF5F3
:1012D00095FBF1F50A493544555202320A34182A71
:1012E000A4B2D8D1007803F0C7F8BDE8F04700F009
:1012F000B7BB00BF901E002054260020941F002082
:101300005C25002008B5FFF76DFFBDE80840FFF73A
:1013100091BF0000F8B52F4B48221A7040F2C4422A
:101320005A80BE221A71EF2283F8C0240022074699
:1013300083F8C1241E4651B193F8BC0426494FF4EA
:10134000827202FB003000F5D8700FF0E1FC002241
:101350001346B15C01324B4040F2C4418A42F8D19D
:101360001C4A002582F8C13409F0AAFAF32009F0DA
:10137000BDFA5820022109F0EBFA082815D1174CC4
:10138000331903F1774303F572032046196809F016
:1013900015FB082805D0013509F0A0FA032DE3D18B
:1013A00003E00F4B04349C42EAD109F097FA032D75
:1013B00002D0FFF7DBFE10B90A2008F0B5FDFFF7F9
:1013C000A1FF37B10F2014210122BDE8F84002F03F
:1013D00091BDF8BD941F0020901E002000000E0853
:1013E000C4040E0838B505460C4608F0CCFD284666
:1013F0002146FFF78FFFBDE8384008F0C1BD00006F
:10140000034B1B6818420CBF00200120704700BF2F
:1014100030020020024B1A6810431860704700BF6A
:1014200030020020024B1A6822EA00001860704760
:1014300030020020014B1868704700BF30020020C6
:10144000034B9B6818420CBF00200120704700BF6F
:10145000941F0020024B9A6810439860704700BFA9
:10146000941F00202DE9F3470446FFF77FFE10B1DB
:10147000002C00F0B981DE4ADE4D10685168DE4C68
:101480006B4603C340F2C442002128460FF049FCDA
:1014900000214FF4827220460FF043FC48232B704A
:1014A0004FF4004003236B71FFF7D4FF4FF48070BB
:1014B000FFF7D0FF4FF40060FFF7CCFF0820FFF7E5
:1014C000C9FF4FF40020FFF7C5FF4FF41673A5F8CE
:1014D0006231FA23A5F864312A23A5F860314FF46C
:1014E000FA73A5F86831202385F866316E2385F8F4
:1014F0007B312B2385F87C31212385F87D3140F227
:101500004C43A5F88C3140F26C730026012704226D
:101510004FF008094FF4C870022140F2DC5EA5F8D4
:101520008E3140F27E4385F8532185F8542185F8A9
:101530005591A5F8760185F88711A5F88AE185F817
:10154000BC64A5F86A61A5F86C61A5F86E61A5F8A0
:101550005661A5F85861A5F85A6185F85D6185F86E
:101560005E6185F85C7185F87E6185F8886185F833
:10157000AA7185F8AB6185F8AC6185F8906185F852
:10158000917185F89271A5F8403140F23A73A5F84F
:1015900042314FF47A73A5F8443185F89B1140F23B
:1015A0007E534FF4E131A5F84631A5F84E0140F2E3
:1015B000EA531720C5F8A0114FF41651A5F8483189
:1015C000C5F8A41140F2B45340F6FF716075A075E0
:1015D00055204FF02808A5F84A31A5F89611322376
:1015E0001E21E0702D20A5F84C31A5F85031AB81BB
:1015F000E1722173607323714FF00B0C85F89A71BF
:1016000085F8A86185F8A961AE7385F8936185F8BE
:10161000BE7485F8BF74267084F8018084F8028057
:10162000E675A673267684F8233084F8243084F88F
:101630002130152384F805C084F831304FF0140CA4
:101640006E4B84F806C084F8109084F811C04FF0F7
:101650000E094FF0500C4FF0640A6363684BA0769C
:1016600084F8079084F81BC04FF00A094FF05A0C19
:1016700084F81CA02075A3634120624B84F808C045
:101680004FF0780A84F81FC084F8200084F82510F1
:10169000A4F826E084F82E20E673667684F812908B
:1016A00084F8098084F80AA0A77784F82260668508
:1016B000A685268584F82F8084F83080E363524B1A
:1016C0002364524884F84470192384F84530FFF7A6
:1016D00071FD4FF44873A4F87A30C82384F8CF30F2
:1016E0004FF49663A4F8D03040F2D933A4F8D23046
:1016F00084F8766084F8776084F8788084F879706C
:1017000084F87C6084F8CE9023464FF47F72A4F86E
:101710007E204FF4FA62A4F880201DF8062084F899
:101720008420013640F2DC51082EA4F8821004F126
:101730000A04EAD1012283F8D42083F8D52083F863
:10174000D62083F8DC206422A3F8DE204FF49672C2
:10175000A3F8E0202822A3F8E2204FF07C52C3F83F
:10176000E420C3F8E8200F22A3F8F020A3F8F22029
:10177000A3F8F42040F26C72C820A3F8F62040F2DF
:101780001452A3F8D800A3F8FA2014201E244FF016
:101790007E5283F8DA0083F8DB40A3F8EE00A3F86A
:1017A000F810A3F8FC60C3F80021522385F8BD347B
:1017B0000023EA1810330021C02B1161F9D1002455
:1017C000281900F5D8700C494FF4827204F5827420
:1017D0000FF09EFAB4F5437FF2D10020014602B02B
:1017E000BDE8F047FFF7FEBD02B0BDE8F08700BFDF
:1017F0001C3D0108941F0020901E00209A99193F5B
:10180000F6287C3F3D0A773F0000A0402D3D0108AF
:10181000024B9A6822EA000098607047941F0020EB
:10182000014B00229A607047941F0020014B98687A
:10183000704700BF941F002038B5044C002520706D
:10184000E56108F055FB2562606238BD8C240020FC
:1018500007EE100AF8EEC77A9FED0A0A9FED0A7AA2
:10186000F5EEC07AF1EE10FAD8BFF1EE677A87EEA6
:10187000800A08B520EE070A0DF086FA034B83EDC7
:10188000000A08BD8096184B35FA8E3C10000020E7
:1018900010B5121A07EE902A5B1A2DED028BF8EEA6
:1018A000E78A07EE903A184B059CB8EEE78AD3ED2D
:1018B000007A28EE278A28EE080AA8EEA80A0DF07A
:1018C0002BFDDFED127A049B20EE270AF0EE480A8A
:1018D000FDEEC07AB1EE680AC3ED007A0DF076FB3A
:1018E000DFED0B7A9FED0B7AE0EE077ABDEC028B11
:1018F000FDEEE77A17EE903A002BBCBF03F50C43E0
:10190000A033236010BD00BF100000202C7D8E3F4F
:1019100000A00C46A00CB34507EE900AB8EEE77A9B
:10192000D2ED017A27EE277AD1ED007AE7EE007A40
:1019300010B5C1ED007A92ED037AF1EE476AFDEE43
:10194000E77AFDEEE66ABDEEC77A0C4617EE102A7E
:1019500017EE900A16EE901A05F078FE07EE100AC0
:10196000F8EEC77AC4ED007AFDEEE77A17EE900A3A
:1019700010BD000030B5002213460E49CC5C0D4668
:101980009CB12E2C04D1013378B11D4400242C5479
:10199000C95C0A246243A1F13004092C9CBF303A8F
:1019A00052180E2B03D80133E7E7104630BD002054
:1019B00030BD00BF9D02002038B50C4DEB7AA3B1BD
:1019C0000B4B1B78042B10D90A4B0B4C18685B6827
:1019D00063602060FFF73CFF084B1A88084B1A80B1
:1019E000084B1B88A36001232B7338BD2E250020D4
:1019F00012260020F4250020B0250020F426002027
:101A0000EA0200205025002010B5002213460E489F
:101A10000E4C002119520E4819520E481444195206
:101A2000002020606160A0600B4C144402332060F1
:101A30006160A060094C1444042B20606160A060C8
:101A400002F11402E3D110BDCC050020AC0200204D
:101A50005825002074250020600200202403002067
:101A60003A4BDFED3B7A58793A4AD97B07EE100AB8
:101A7000B8EE477A987987EE277AF2EE046A82ED1B
:101A8000007A07EE101AB8EE477A3349D16087EE34
:101A9000277A82ED017A07EE100AB8EE477A2F4ACC
:101AA000187CD16087EE267A82ED007A07EE100A64
:101AB000B8EE477A987E87EE277A06EE100A82ED16
:101AC000017AB8EE466A9FED267AD87986EE076AE3
:101AD00082ED026A06EE100AB8EE466A214A587C88
:101AE000D16086EE266A82ED006A06EE100AB8EE34
:101AF000466AD87E86EE276A82ED016A06EE100AF3
:101B0000B8EE466A86EE076A82ED026A164A127CD1
:101B1000DAB11979154A987B1B7E06EE101AB8EED9
:101B2000466AC6EE266AC2ED006A06EE900AF8EE34
:101B3000666AC6EEA77AC2ED017A07EE903AF8EE31
:101B4000677A87EE877A82ED027A7047901E0020CE
:101B50000000C842D40200200000FA44080300201C
:101B600000007A44642400202E25002074240020E4
:101B7000F7B506460020FFF75FFE4FF48070FFF7D1
:101B80005FFC00283ED0204D6E7008F0B1F90024B3
:101B9000A8606C601D4D95F89A31A3420CBF0127D7
:101BA0000327FFF75DFF1A4B009403EB061621464F
:101BB000726818483B460CF013FE174B98600120E2
:101BC000FFF73AFE95F99C31042BC8BF85F89C417C
:101BD00095F99C21531C114B0AD0114902EB42028A
:101BE00001EB420211689288C3F80A10DA8109E019
:101BF0000C4A1168C3F80610981D5168C3F80A1002
:101C00001389038103B0F0BD8C240020941F0020B1
:101C1000FC3E0108001001400425002000000020C7
:101C2000553E01084B3E01082DE9F041194B1B7848
:101C3000042B2BD1184D20236B83184B4FF480427B
:101C40005A83174CA0680BF067FA50B120262E83F8
:101C5000A06827680BF065FA014638460BF04CFA8D
:101C60006E8320680E4F0BF057FA0028E9D00B4C1A
:101C70003868D7F808804FF4804626830BF051FA75
:101C8000014640460BF038FA6683DAE74FF0FF3042
:101C9000BDE8F0818C24002000080240000C0240C6
:101CA0000425002073B51A4C036823600B68636039
:101CB000184D0068184EFFF7CBFD184B009395E8C0
:101CC000030094E80C000196FFF7E2FD6068696884
:101CD000134A33681360411A07EE901A11492068BD
:101CE00091ED007A2968104AF8EEE77A411A67EE1A
:101CF000877A1160FDEEE77AC2ED017A0B4A136034
:101D00000B4BB3F8DE200B4B1A8002B070BD00BF46
:101D1000EC020020F42500204C0300208824002041
:101D20005C240020100000208403002058030020C1
:101D3000901E0020E602002044F25063984203DD2A
:101D4000A0F50C40A0387047034B9842BCBF00F58B
:101D50000C40A030704700BFB0B9FFFF264BF0B574
:101D60001D68024600F1100714782B1911465E78A1
:101D700006F00406013206F0FF036EB1BA42F3D159
:101D80000020F0BD1BB103EB83035B00DBB210F856
:101D9000012B303A1344DBB20A1A022AF2DC002289
:101DA00081420AD91AB102EB82025200D2B210F873
:101DB000016B303E3244D2B2F2E72E2C0FD14C1CD4
:101DC000042000210A2671432678AF197F787F0707
:101DD00002D53039013431440138F3D100E000211B
:101DE00006484243642000FB012106240448B1FB5D
:101DF000F4F100FB0310F0BD8C01002040420F0005
:101E0000809698002DE9F04F964C2DED048BA36839
:101E10008BB0D3B9944E3378013B042B00F2E786A4
:101E2000DFE813F0FD05FD05FD05D706BA068D4B6D
:101E300098680BF076F98D4B93F89A31012B054693
:101E400000F0348107D3022B05D0A0680BF064F9B1
:101E50000028ECD1DEE7242D0CD006D80A2D00F0A6
:101E60009A800D2D00F09780E8E02A2D0AD02C2DC5
:101E700008D0E3E07E4A002313707E4A13707E4A46
:101E80001370ECE07B4FDFF8E8813A787B4B98F8F1
:101E90000060002199547A4AEEB9197816704729E2
:101EA00019D15978502916D19978472907D1D9786D
:101EB000472904D11979412901D10121117098785C
:101EC0006E49522807D1C8784D2804D10979432991
:101ED00004BF022111701278012A02D0022A39D0DF
:101EE0004EE0B21E072A4BD8DFE802F0040A1218AF
:101EF00020284A2E6148FFF731FF624B18603FE00F
:101F00001B78532B3CD15F4B1A6852421A6037E062
:101F10005A48FFF723FF5B4B586031E01B78572B83
:101F20002ED1584B5A6852425A6029E01A78564BC3
:101F3000302A94BF00220122DA7221E00020FFF74C
:101F400019FD504B18721BE00020FFF713FD4D4B9D
:101F5000588115E0072E07D0082E11D10120FFF778
:101F600009FD484BD8810BE00120FFF703FD41F24A
:101F700018434FF47A725843B0FBF2F3414A93810D
:101F8000013600232A2D88F800603B7061D13F4A5A
:101F90000121117063E03D4E3378002B4BD037495F
:101FA0000B78402B04D9A3F137021201D2B202E020
:101FB0001B0103F0F0024B78402B8CBF373B303BCA
:101FC000DBB213442C4A1178DBB2994232D12C4B4C
:101FD0001D78012D09D0022D2CD12A4B2C4A99892C
:101FE0001180DA892B4B1A8024E0DFF89C8098F866
:101FF0000B300BB901231EE0224A274B11681960F0
:1020000051685960254B117A254F19700420538966
:102010003B80FFF7F5F90028ECD198F81030002B41
:10202000E8D0204B3A889B68D21A64235A431E4B4F
:102030001A60DFE700230022327010E00D4A1378A7
:102040000E2B03D8591C11700C4AD5540F4B1B781A
:1020500023B9094A11784D40157000E0002303F0C0
:1020600001037EE1042500208C240020941F002021
:102070005C030020880200209C0200209D020020BA
:10208000800300206C0300202E2500205C0200202D
:102090007825002078050020F42500201226002055
:1020A00050250020B0250020D8240020944B19781A
:1020B0000022082900F25481DFE801F00A05111717
:1020C000253350697400622801D1022205E01A709C
:1020D000B52D40F045811A7801321A7040E1032293
:1020E0001A70884B1870884B0BE0864904221A70CE
:1020F000854B0A7818782A44D2B20A7002441A70C2
:10210000824B1D702CE17F4905221A707E4B0A78A4
:1021100018782A44D2B20A7002441A707C4B1D808F
:102120001EE1784906221A70774B0A7818782A44FB
:10213000D2B20A7002441A70754B1A8802EB052558
:10214000ADB2B5F5007F01D81D8003E000221A80F2
:102150006B4B1A706F4A0023138002E169486A4A88
:10216000017816782944C9B2017031441170694967
:102170000A88C72A9CBF68488554013292B20A80F7
:1021800063490988914240F0EB800722A5E70822C5
:102190001A705C4B1B78834200F0E280584A00239F
:1021A0001370DEE01A70584B1B78834240F0D880E1
:1021B000564B1B78062B4AD004D8022B12D0032B87
:1021C00035D0CDE0122B55D0302B40F0C980524B8A
:1021D0001A79524B102A88BF10221A7019784E4A69
:1021E00000236DE04C4B4E4A59685160996811606C
:1021F0001A694C4D4C4E4FF47A7392FBF3F32B80DB
:102200004A4B1B78F3724A4B012204201A70FFF7E5
:10221000F7F8002869D1337C002B66D0454B2A881B
:102220009B68D21A64235A43434B1A605DE03A4AD2
:10223000537913F0010303D01379D81E434243416D
:102240003A4A1370002B50D1374AD3724DE0324BCB
:10225000DA7A12F0010203D09A7AD11E4A424A4138
:1022600032490A700AB93049CA7293F82F20334BA9
:102270001A703AE0284B324E5A6932809A69314DD1
:1022800042F2107392FBF3F32B802F4B01220820B4
:102290001A70FFF7B5F840BB234B1B7C2BB3338878
:1022A000642B22D92A880A23B2FBF3F2274B91B27E
:1022B000198009B2B32918DDA2F5B4721A8014E0AE
:1022C0008B4202F10C0210DA214812F8045C1D5412
:1022D000204812F8035C1D541F4812F8015C1D547D
:1022E0001E4815781D540133EAE711490B78BBB33A
:1022F000154B1A78A2B300221A700A70012330E03D
:10230000E9020020E4020020E50200205E02002035
:102310009A02002058040020900300201326002079
:10232000F4250020502500202E25002068030020E1
:10233000E8020020B0250020D8240020122600202A
:1023400078250020780500205D030020F426002079
:102350001C250020D6250020FC2500204426002036
:102360000023002B3FF471AD9A4DAB68EB6007F092
:10237000BFFDA8602020FFF74DF8974B1A78012A7F
:102380000CBF002201221A70944BDA7A002A3FF423
:102390005CAD934A1278042A7FF657AD5A7812B989
:1023A000197C01B91A731B7B13B90AB1FFF704FB3F
:1023B0008C4B8D4D1A784FF0050E013292FBFEFECC
:1023C0000EEB8E0ECEEB020E83F800E0874B1B78EF
:1023D0000293874B03EB8E0E0023864A864998585A
:1023E000DFF85082854E585090FBF8F1995103EB7D
:1023F000830A834EDFF8409206FB010053F8097010
:102400005EF80A604EF80A00BF1B42F2107C90FB97
:10241000FCFC0526384443F8090090FBF6F008FB65
:1024200001017848195002981FFA8CFC012803EB2F
:10243000020B25F802CF164606D1ACF1020CBCF512
:10244000797F98BFCBF800100433082BC5D16E4FAD
:102450006E4DDFF888A107F04BFD3B689FED6C7A6D
:10246000C01A05EE100AF8EE457AB7EE008AC7EEFC
:10247000877AC5ED007A07F03BFDD5ED007A38602C
:10248000F4EEC87AF1EE10FA58BFF0EE487A06AAD8
:10249000C5ED007A5F4B009207AA019296E803000F
:1024A0000CCBFFF7F5F9069A5B490798642392FB7A
:1024B000F3F20A80594A90FBF3F313809AF80C3038
:1024C0002F460BB90B8013805549564B0A78002ACA
:1024D0003DD0D5ED007A30681A68C8EE277A821AA6
:1024E00070684FF0020807EE102AB8EEC77A5A68F3
:1024F00027EE277A801ABDEEC77A4B4A17EE10BA3C
:1025000007EE100AD2ED006A484AB8EEC77AB2F96F
:1025100002E0B2F9009027EE267A09FA8BF067EE16
:10252000277A90FBF8F0FDEEE77A80B217EE90CABA
:102530000EFA8CFE9EFBF8FEDFF800C110801FFA39
:102540008EFEACF802E0ACF80000A2F802E0012236
:102550000A7030687168596018609AF8083023B9B9
:102560001E4BDB79002B3FF470ACDFF8D480DFF832
:10257000D490DFF8D4B0CDF80090CDF804B098E84E
:102580000C00FFF785F9D8F804107268284B8A1AF6
:1025900007EE902A244AD8F8001092ED007A3268AB
:1025A000F8EEE77A8A1A67EE877A1A60FDEEE77A24
:1025B0009AF81020C3ED017ADFF830A012B10222A0
:1025C0008AF800209AF90020012A3FD0022A00F060
:1025D000D0803AE48C240020E20500202E25002043
:1025E000122600208C030020FA020020040500209F
:1025F00034020020F425002060030020F4020020B3
:10260000806967FF900200207C03002018030020EF
:1026100000007A44B0250020AE250020BC25002013
:102620005D02002000030020100000201C03002099
:10263000840300208096980050030020200300208F
:10264000EC020020882400204C0300207C4E002552
:1026500053F815007B4ADFF820A2D2ED007A35F856
:102660000A20DFF81C9297ED000ADFF8108205EED1
:10267000100AB8EEC57A15EE101A67EE277AFDEE4D
:10268000E77A17EE900A801A6F4A80B2A85200B219
:1026900007EE900AB8EEE77AD9ED007A049367EE78
:1026A000277A0844FDEEE77A31464A4617EE90BA9B
:1026B000FFF732F96549DFED665A91F8DA10049BAD
:1026C00097ED007A53F81520D6ED027AD9ED026A1B
:1026D00006EE101AB8EE466A7168726026EE256A38
:1026E000511A88EE066A1FFA8BFB584425F8080039
:1026F0004FF4FA6205EE101A36EE076AF8EEC55A84
:1027000087EE066A534985EE877A37EE677AE6EEFA
:10271000077AC6ED047AC6ED027A66EEA77A0493CC
:10272000FDEEE77A17EE900A04F090FF35F80A20E4
:102730004949313292B2622A35F8082098BF002008
:10274000104480B225F8080040F6B83200B204F018
:102750007DFF424A28F805000A2101FB05220235C7
:1027600056F8141B1160042D049B7FF471AFFFF722
:102770006CBB99ED009A354B19EE100AB3F9E08065
:10278000374B90FBF2F29045A8BF90461A881FFA8B
:1027900088F80FFA88F011B288420EDD95ED007AC4
:1027A000DFED307A67EE277AFDEEE77A17EE908A52
:1027B00090441FFA88F8A3F800802B4BDBF80050F8
:1027C0001B68C3EB050B5846FFF7B6FA002841F229
:1027D000931201DD904201E043429342CCBF0023BB
:1027E0000123DFED228A224E002B4BD005EE10BADA
:1027F000B8EEC50AB8EEC99A20EE280A0CF04AFBDA
:1028000020EE090A1B4B1449BDEEC00A40F6B8324F
:1028100010EE100A80B2188000B204F017FF48F6DC
:10282000A0432844984203DDA0F50C40A03804E002
:102830000028BCBF00F50C40A030306023E000BF92
:1028400060020020D40200208A020020901E002096
:10285000DB0FC94030F8FFFF48F4FFFF24030020DE
:10286000E60200200000C84258030020D302373996
:102870005C24002098020020200300207425002002
:102880000803002035603368AF4EC3F50C5328337E
:1028900007EE103AF8EEC77A002567EEA88AB0EE88
:1028A000680A0CF071FA8DED090AB0EE680A0CF0B6
:1028B000F1FA8DED080AA54ADFF8D0B2AA5E0FFA48
:1028C00088F10AA807EE902A07EE101A00EB4503DC
:1028D00053ED026A9E49B8EEC77AF8EEE77A4FF4F4
:1028E0007A72D6EE877AFDEEE77A17EE900A80B21A
:1028F00025F80B0000B204F0A9FE80B225F80B0009
:1029000000B2944B97ED000AD3ED007A049305EEE4
:10291000100AB8EEC57A314667EE277A1A46FDEE00
:10292000E77A17EE90CA1FFA8CFCCDF814C0FEF7B8
:10293000F3FF35F90B20DFF858B2DFED875A9BF82B
:10294000DA10049B97ED007AD3ED026A7368D6ED36
:10295000027ADDF814C0726006EE101AB8EE466A0C
:10296000D31A26EE256A05EE103A88EE066A8444EC
:102970007A4B7B4940F6B832F8EEC55A36EE076A14
:1029800087EE066A85EE877A37EE677AE6EE077A93
:10299000C6ED047AC6ED027A66EEA77AFDEEE77A16
:1029A00017EE900A604480B2E85200B2049304F03B
:1029B0004DFE049B58536B4B0A2202FB0533023534
:1029C00056F8142B1A60042D5B467FF474AF93F80D
:1029D000DC2032B1644A1168642291FBF2F1634A4F
:1029E0001180B3F8D830D9F800209A420EDD604B40
:1029F0001868604B1B68C01AFFF79EF942F210730B
:102A00000028B8BF404298427FF71FAA01238AF8E6
:102A10000030594B1A88554B1A80FFF716BA574B9E
:102A200093F89A71984617B1012F09D088E072780F
:102A3000534BA06803EB021359680AF077FB7CE064
:102A4000A068DFF850910AF076FB002878D0337840
:102A50004C4D022B3BD0032B44D0012B70D107F0FF
:102A600047FA6B6AC31A632B074669D9EB69042BD3
:102A70002BDC0820FEF7E4FC414D90B9F369A06817
:102A800005EB031359680AF051FB7378A06805EB56
:102A90000315A9680AF035FBF36977620133F36126
:102AA0004EE04020FEF7CCFC0028E7D098F88931B2
:102AB000002BE3D1F36905EB03135B68B3F5964F85
:102AC000DCD9304B0322DA61D8E7022036E06A789D
:102AD0002B4BD9F8080003EB021359680AF026FBC8
:102AE00003202BE02B69012B0DD0022B25D03BBB03
:102AF0002A6A254B2F6153F83210696103EBC20338
:102B00005B68AB611CE0EB69AA69934209DA6A6908
:102B1000D9F80800D15C0AF0EFFAEB690133EB61F8
:102B20000EE02A6A184901322A6251F83220002345
:102B3000EB6102B902232B6102E00420FEF77CFE68
:102B40000023736053E000BF240300202003002013
:102B500018FCFFFF64240020DB0FC940742500200F
:102B600048F4FFFF600200205C240020B42600200F
:102B70004C03002058030020EA020020941F00208C
:102B8000FC3E01088C240020383D01088A02002008
:102B9000901E0020042500207268174B01327260DD
:102BA000164A92F89D214AB15A780132D2B20521D3
:102BB000B2FBF1F101EB8101521A5A7007F098F95A
:102BC0000F4AB060002313700E4A3361D3720120A4
:102BD0000BE007F08DF9B36840F6C412C01A9042BA
:102BE00005D92020FEF71EFC0520FEF725FE0BB0C0
:102BF000BDEC048BBDE8F08F8C240020941F0020D6
:102C0000122600202E25002038B5294D2DED048BED
:102C1000D5ED008AB0EE680A04460CF0B5F8B0EEC7
:102C2000408AB0EE680A0CF035F995ED019AF0EEA5
:102C3000408AB0EE490A0CF0A7F8F0EE409AB0EEE8
:102C4000490A0CF027F9D4ED017AD4ED026A67EE57
:102C5000A80AB0EE407A60EE870A28EEE60A66EE31
:102C6000876A94ED007AE7EE290AA7EE880AE6EE75
:102C7000880A0CF0ABF9DFED0F7A9FED0F7A0F4B5E
:102C800020EE270A80EE070A93ED007A30EE070A5D
:102C9000B2EE047A80EE070A0CF0B2F8BDEC048BB9
:102CA00083B21A0444BF00F5B4739BB218B238BDA6
:102CB000B40400200000E144DB0F49408C040020F4
:102CC00038B5284CDFED287A94F84530274D00EED2
:102CD000103AB8EEC00A20EE270A0CF055F82B88FF
:102CE00007EE903AF8EEE77A27EE800A0CF088F8C3
:102CF0002D889FED1F7A1F4B07EE905AF8EEE77A6A
:102D00001880C7EE277A1C4B08209FED1C7AC7EE6F
:102D1000877A9FED1B7AC3ED007AB4F87A3007EE1C
:102D2000903AF8EEE77A174BC7EE277A9FED167ABE
:102D300067EE877A94ED107AC3ED007ADFED137AAF
:102D4000134B67EE277AB6EE007AC7EE277AC3ED0B
:102D5000007AFEF755FB18B1BDE8384003F0F8BA29
:102D600038BD00BF901E002035FA8E3C3A0000208E
:102D70000AE81C41F0040020CC24002000401C463E
:102D800000006144F02400204C3D0F44DB0F49401B
:102D9000F424002090ED010A90ED007AD0ED027A43
:102DA00020EE000A38B5A7EE070A04460D46A7EE46
:102DB000A70A0CF0B1FAB5EE400AF1EE10FA11D004
:102DC000D4ED007AC7EE807AC5ED007AD4ED017AB1
:102DD000C7EE807AC5ED017AD4ED027A87EE800ADB
:102DE00085ED020A38BD38B52DED0A8B91ED008ACC
:102DF00090ED00AAD0ED01AA90ED029AB0EE480A3B
:102E000004460D460BF0C0FFF0EE409AB0EE480AC3
:102E10000CF040F895ED018AB0EE40BAB0EE480AE9
:102E20000BF0B2FFF0EE408AB0EE480A0CF032F838
:102E300095ED02CAB0EE408AB0EE4C0A0BF0A4FF4A
:102E4000F0EE40BAB0EE4C0A0CF024F86BEE005AEB
:102E50002BEEA97AB0EE655AA7EE485AA5EEC87ACD
:102E600020EE296A6BEE2B7A2AEE877A28EEC00ACA
:102E7000F0EE466AE7EE886AAAEE007AE6EE087A95
:102E80006BEEA8BAA9EE277A6BEE687A6AEEA66AAC
:102E90006AEEA77AEAEE2B6AEAEE087A68EEA98A69
:102EA000E9EE056AE9EE287ABDEC0A8BC4ED006A0A
:102EB00084ED017AC4ED027A38BD80EAE073A3EBB9
:102EC000E0738B4206DB002801DD401A704702D018
:102ED0000844704700207047F0B506EE900A2DEDCB
:102EE000028B564BDFED567A9FED567A564DF8EE33
:102EF000668A87B068EEA78AD3ED007AF1EE677A2A
:102F0000CDED007AD3ED017A504BB3F90030F1EEFC
:102F1000677ACDED017A07EE903A4D4BF8EEE77AFD
:102F2000B3F9002067EEC77A0646CDED027A07EEC8
:102F3000902AB3F90220B3F90430F8EEE77A03A837
:102F4000CDED037A07EE902AF8EEE77A6946CDEDEB
:102F5000047A07EE903AF8EEE77ACDED057AFFF7BE
:102F600042FF95F84430DDED057A012B1BD1394B3A
:102F70005A78394B72B91A68402192FBF1F1511A13
:102F800007EE101AB8EEC77A37EE277ABDEEC77A89
:102F900083ED007A1A68402392FBF3F306EE903A31
:102FA000B8EEE67A05E02D4B1B8807EE103AB8EE36
:102FB000C77A77EEC77A2A4ACDED057AD2ED007A44
:102FC000284B294C93ED008A9DED030A276878EE83
:102FD000A77AC8EEA78ADDED057A77EEC87AA8EE63
:102FE000A78A83ED008A0BF00BFF95F83010FFF7EE
:102FF00064FF9DED040A3844206067680BF000FF11
:1030000095F83010FFF759FFB0EE480A3844606079
:10301000A7680BF0F5FE95F82F10FFF74EFF134B46
:103020001A6816441E60124B1A6838440132A060B8
:103030001A6007B0BDEC028BF0BD00BFB4040020E5
:10304000BD37863535FA8E3C901E0020F4260020D0
:10305000E82400202E250020600400203A000020F3
:10306000F4240020C8040020C0240020E404002030
:10307000AC0400202DE9F0472DED028B84B002F066
:10308000C7FF002800F0578106F018FFAC4BAD4F8A
:103090001968AD4A1860C1EB000A07EE90AAAB4967
:1030A00097F82E00B8EE676AD1ED037A002326EE7A
:1030B000276A194601AD05EB4304A54D5E5F07EE97
:1030C000906AF8EEE77AA34E67EE867AC4ED007A4E
:1030D000A14CD8B107EE900AB8EEE77AF7EE006A95
:1030E00086EE877AE45E07EE904AF8EEE77A67EEBE
:1030F000877A36EEC77AD2ED006AE6EE877AC2EDBD
:10310000007AFDEEE77A17EE904A00E0E45AF452B6
:10311000F45A0233062B14FB041102F10402C9D144
:103120008E4B8F481B88DFF87482642461435B43B5
:1031300091FBF3F4493CA4B201A9FFF754FE3B2CE8
:10314000874C5AD9874BD4ED020AB3F9003094ED7D
:10315000010A854EDFF8489207EE903AF8EEE77ADA
:10316000824BF4EEE70AF1EE10FAD4BF00220122FE
:103170005A730BF02BFF94ED027AD4ED017A86EDB1
:10318000000A27EE070A94ED008AA7EEA70A0CF0C2
:10319000C3F8B1EE488AF0EE400AB0EE480A0BF0F0
:1031A00015FF9FED738A86ED010A96ED000A20EE69
:1031B000080A0BF025FE96ED010AA9F8000020EEA2
:1031C000080A0BF01DFEA9F802000820FEF718F906
:1031D000002844D0674801A9FFF705FEB8F864311C
:1031E000644A07EE103AB8EE477AF7EE007A37EE07
:1031F000276A002387EE866A1EE0B8F8621107EEA0
:10320000101AB8EE477AF7EE007A37EE276A2246B0
:1032100087EE866A0023F15E0233062B07EE901AD2
:10322000D2ED006AF8EEE77AE6EE877A67EE866A14
:10323000E2EC016AEFD185E74F49D2ED006A595EB1
:1032400007EE901AF8EEE77A0233E6EE877A062B5D
:1032500067EE866AE2EC016AEED1464808E047482C
:1032600001A9FFF7C0FD45480146FFF793FD43481C
:10327000FFF7CAFC424B18805046FFF72DFE97F827
:103280007C30002B3ED094ED010AD4ED007A94ED11
:10329000028A3C4C20EE000AA7EEA70AA8EE080A14
:1032A0000CF03AF888EE000ADFED377AB4EEE70A60
:1032B000F1EE10FA02D80023238023E00BF028FE61
:1032C000324BD3ED007A20EE270A0BF099FDB0F5D2
:1032D000617FA8BF4FF4617007EE900AB8EEE70A6D
:1032E000DFED2B7A80EE270A0BF0D4FD154B93F817
:1032F0007C3007EE903AF8EEE77A27EE800A0BF082
:103300007FFD208098F80530012B224B0DD1224AF9
:10331000B5F904001488022114FB0101032091FB7C
:10332000F0F189B29980118001E0AA889A802A88F8
:103330001A806A885A8004B0BDEC028BBDE8F08721
:10334000A0040020901E002064040020B826002065
:10335000B8240020E8240020D02400203A000020D7
:10336000F8240020F0040020B40400202E250020C2
:103370004C3D0F44D8040020DC240020180000201D
:10338000F42600208A0400208FC2753CF02400201F
:10339000EFB6B044840400209C040020941F002059
:1033A0007C040020044A0023136053609360034AA6
:1033B0001360034A13607047C0240020AC0400204F
:1033C000E40400202DE9F84F2DED048B06F076FD86
:1033D000BB4BB3F802A0B3F800B0BA4B1A68821A1C
:1033E00009EE902A19EE901A46F2A712914240F285
:1033F000EE81B54E18603388DFF84493B34C9FEDEF
:10340000B49AB44FDFEDB48AB44DDFF83883B7EE29
:10341000008A53B3B24894F83130D9F800100268EA
:10342000DFEDB00A013BB1FBF3F1082392FBF3FEA1
:10343000CEEB02020A4492FBF3F306EE103AB8EE2A
:10344000C60A026080EE090A0BF0C2FD00232B6061
:10345000C8F800303388013B338038EE400A20EE54
:10346000280ABDEEC00A87ED000A94F83130D9F879
:103470000020DFED9C0A9C4E013BB2FBF3F306EE0D
:10348000903AB8EE660A0FFA8BFB80EE090A0BF051
:103490009FFD0FFA8AFABBF1000FB8BFCBF1000B0A
:1034A000BAF1000FB8BFCAF1000AD345A8BFDA4687
:1034B0001FFA8AFA38EE400A20EE280A0BF0A0FC28
:1034C0003B68D4ED0D7A96ED006AC01A06EE900ABC
:1034D000B8EEE60A78EE676AB8EEC67A20EE260AFB
:1034E0000FFA8AF7A7EE270A0BF08AFCFA2F7F4B18
:1034F00003DD4FF0FF321A6013E093ED007A07EE20
:10350000907AF8EEC76AB8EEE77ADFED797A37EEAF
:10351000C77A26EE877AC7EE277AFDEEE77AC3ED03
:10352000007A1B685A1EC62A724A03D8C01A106055
:10353000336025E01268002BC2EB000030601FDD15
:10354000C3F5967107EE101ADFED6B7A6B4AB8EE91
:10355000C77A06EE103A87EE277A634BF8EEC66A12
:1035600006EE100AF8EEC67A38EE476A82ED007A67
:1035700067EE867AE6EE877AFDEEE77AC3ED007AAB
:103580005F4BDFED605AD3ED007A5F4B94ED0F6A2D
:10359000D3ED026A5D4B5E4A93ED007A5D4B116894
:1035A000F8EEE66AB8EEC77AF8EE677AC6EE878A72
:1035B000914693ED007AD5ED006A336828EE877A5C
:1035C00067EEA55A27EE277AB6EE005A66EEA57A80
:1035D00027EE055AC91AE5EE257A09311229D8EDE8
:1035E000005A98BF136077EEA55A07EE903AB8EEEE
:1035F000E75A78EE467A36EE877A65EE277A85EDD9
:10360000007AE5EE867AC8ED007AFFF7CBFE424BF2
:10361000326819689FED417A1A60511A07EE901AC4
:10362000F8EEE77AF8EE699A67EE877A40F2DC52B4
:10363000C7EEA99A3A49FDEEE99A19EE900A04F00C
:1036400005F80A21FFF739FCD4ED0E7A95ED007AE2
:1036500006EE100A38EE678AB8EEC60A20EE080AAF
:10366000A7EE270A85ED000A0BF0CAFB052180466C
:10367000FFF723FC2B4B2C4D1860B7F5487F2B4FE1
:1036800080F29F802A4B1B78002B5DD1294B2A4961
:103690001868D9F800304FF4FA72C01A03F0D6FF58
:1036A0000A21FFF70AFC094B24491B798022584361
:1036B00090FBF2F04FF4967203F0C8FF46E000BFB3
:1036C0007C040020C004002062080020901E00201E
:1036D00080E6C54774040020D048874A5C04002077
:1036E000D4040020B1DC423E9404002014000020E9
:1036F00000006144D00400200000C842E80400201B
:10370000E4040020BD378635C0240020AC0400202E
:10371000D8240020CC240020C404002000247449B4
:1037200024FAFFFF78040020EC040020B0040020FD
:10373000AA040020E42400200CFEFFFFD4FEFFFFBB
:10374000CC04002080040020234B1868C8EB00083C
:10375000A07A2249224E202308FB00F090FBF3F0D0
:103760004FF4967203F072FF33682860207D1D4984
:103770001D4A08FB0030306003F068FFA47F97ED1E
:10378000007A306007EE904A38EE877AF8EEE77AF2
:103790002B6867EE877A9FED157A67EE877A42F29B
:1037A0000406FDEEE77A90FBF6F61E4417EE900A4B
:1037B0006FF0950196222E6003F048FF301A2860C2
:1037C00001E000232B60C7ED008A012000E000200B
:1037D000BDEC048BBDE8F88FBC040020D4FEFFFFD5
:1037E00090040020E0FCE6FF200319000000003BED
:1037F000F0B5012087B007F04BFA07F0F1FA002886
:10380000FBD0974B974D012200201A60FDF72AFE4E
:10381000FDF778FD0AF0C4FA0BF014F9286008F0FF
:10382000FBFE09F005F84FF40040FDF709FEA8B1D2
:103830000AF00CFB8C4B4FF400425A8314268A4C3E
:10384000636983F4004363611920013E06F061FB64
:1038500016F0FF06F3D14FF40043638303F0FEFE3E
:103860000F20FDF7D7FD02F0D7FA0120FDF7C8FDC4
:1038700010B9032006F058FB00237C4A40F2DE51C9
:1038800099520233242BF8D1794B7A4A1A600820D6
:103890006875FDF7D5FDC0B1774B93F88731042BE0
:1038A00013D8DFE803F00303070B0F00704802F0A2
:1038B000E7F90AE06E4802F0D7F806E06C4802F03B
:1038C0005BFA02E06A4802F08DF84FF40060FDF701
:1038D000B7FD10B1694803F0D7FF4FF48070FDF7D2
:1038E000AFFD20B1644B93F89B01FEF741F94FF413
:1038F0000020FDF7A5FD08B104F0D2FE604F2023A3
:103900007B83594B4FF480421A8314267B69564CB3
:1039100083F020037B61192006F0FBFA636983F4CE
:10392000804363611920013E06F0F3FA16F0FF06AA
:10393000ECD1534B20221A834FF48043638302F06F
:103940008FFEFFF7BDF901F03BFB4FF48070FDF7F0
:1039500077FD08B9002308E00820FDF771FD002875
:10396000F8D0EB68003318BF01234FF480308DF896
:103970000730FDF765FD8DF808000120FDF760FDBB
:1039800018B90820FDF75CFD00E0012000F00100FF
:103990008DF805000820FDF753FD8DF806004FF463
:1039A0000040FDF74DFD8DF804002020FDF748FD97
:1039B000314C20B963795D1F6B426B4100E00123FC
:1039C0008DF809306379591E4A424A41B3F10E001D
:1039D000434243418DF80B30B4F84E31ADF80E3010
:1039E000B4F85031ADF810304FF480404FF47A7392
:1039F0008DF80A20ADF81230FDF722FD20B11E4BE4
:103A0000B3F84A31ADF81230BDF80E30B3F5FA7F95
:103A100084BF0023ADF81230B4F88A31ADF8143009
:103A2000184B01A8B3F8D230ADF8163009F054FAAB
:103A300006F044FA144B18606379052B03D1134B3D
:103A40004FF4C8721A80124B4FF47A721A80114BDD
:103A5000C8221A80104B01225A7300F01BFDFCE7AC
:103A6000F404002004250020000C02401A26002047
:103A70004C050020B5430008941F0020004800407A
:103A800000080240901E0020700500206008002001
:103A900078080020620800202E250020054B2022F7
:103AA0005A834FF48042A3F81A244FF40042A3F83B
:103AB0001A24FEE7000802402DE9F04F854BB3F9C8
:103AC0000220B3F9003087B0002AB8BF5242002B61
:103AD000B8BF5B4200249A42B8BF1A4605922546F9
:103AE000A0462746A446A2462646DFF800B29BF829
:103AF00003301BB99BF80430002B40D0022E3ED07F
:103B0000754B7449B3F86821744B485F5B5FDFF80D
:103B1000E091514203EB400003F098FD704B99F89F
:103B20001C2035F903C005EB0903CCEB0000B3F909
:103B30002A3000EB030C99F80800CDF810C000FB08
:103B40000CF064236FF00401514390FBF3F002EB9F
:103B5000820203F07BFD634BDDF810C062498246B0
:103B6000E0580393604442F2107203F06FFD039B30
:103B700099F812C0E0500CFB00FC4FEA2C3C9BF87B
:103B8000033023B1594B1B790BB9022E40D1584B4E
:103B9000DFF840B1DFF884813BF90570554906EB49
:103BA000030907EB870099F80130000190FBF3F05F
:103BB000514BEA5E801A54F80820039310444FF4E6
:103BC0007A52CDF810C003F041FD039B48F8040081
:103BD000EB5EDDF810C0002BB8BF5B42B3F5207F71
:103BE00008DC022E09D1BBF90430002BB8BF5B42C0
:103BF000642B02DD002348F8043058F804207D23AC
:103C000092FBF3F899F80B3003FB08F84FEAA81879
:103C1000364B1A79A2B1022E12D0DDF81490C9F5F4
:103C2000FA7309FB07F109FB08F003FB0A114FF4D3
:103C3000FA7203FB0C0391FBF2F193FBF2F308E041
:103C4000DB780BB1022E02D14346394601E06346D0
:103C500051462A48284A16F800B0AA5A6FF04F0079
:103C600012FB0BFB9BFBF0FB594401912449685E5E
:103C70006A520FFA82F9C0EB0900224ADFF8A090DD
:103C8000A15854F809B0A0501F4A44F809108B44B9
:103C9000B25CCDF808B0834402FB0BF1202291FB0B
:103CA000F2F1019A581A1044184AA852184A019879
:103CB000A050184A0136A350174B4942032EE15039
:103CC00005F1020504F104047FF40FAF07B0BDE86D
:103CD000F08F00BF9C250020941F0020CC05002001
:103CE0007C0400200C050020F0D8FFFF2E250020CA
:103CF000901E002080C1FFFF840400204126002088
:103D0000C20500202C0500203E260020A82500200A
:103D1000E82500204425002090250020F005002003
:103D2000F80400202DE9F84F002425462746022FED
:103D30004A4EDFF85C8107D196F82430B8F90420A8
:103D40001B3353435B1130E0454B38F90500EB5E04
:103D5000444918444FF4FA7203F078FC424B72194C
:103D6000EB5EB2F92A20C01A831807EE103AF8EE7B
:103D7000C77AB2EE047AC7EE877A3C4AD378FDEE72
:103D8000E77A17EE901A6BB996F8233038F90500E8
:103D900012791B3343431B113AB1B27C514303EBFD
:103DA000212302E0337A4B431B11314ADFF8E4B0A0
:103DB00035F90280DFF8E090BBF800002D493E4461
:103DC000C8EB0308F27A54F8093096F801A000FB1A
:103DD00008F0C01202FB00304FF4001244F8090052
:103DE00003F034FC244BDFF8B4C0E15844F80380FE
:103DF000BBF8003044F809004FF6FF721B09B2FB14
:103E0000F3F31E4AC1EB08010AFB08FA594354F8C0
:103E1000028054F80C3044F80C808911A1504344BE
:103E2000727D0B444FEAEA1A401353431B12144AA3
:103E30000AEB00011944A952124A44F802A0124A9E
:103E40000137A050114A032FA35005F1020504F1D8
:103E500004047FF46CAFBDE8F88F00BF901E002013
:103E6000CC0500200CFEFFFF7C0400202E25002046
:103E7000840400200000E0FF640500203C050020D1
:103E8000A8250020E82500204425002090250020BA
:103E90009C25002076050020F00500205405002018
:103EA00008B5074B5A780AB100225A704FF4002027
:103EB000FDF7C6FA18B1BDE8084003F02BBF08BDF6
:103EC0002E250020084B094A1B681168591A002941
:103ED00009DB03F5F42303F590731360044B5A696F
:103EE00082F400425A6170477C05002014050020CE
:103EF000000C02402DE9F047804689469246002595
:103F0000EBB2534516D20024E3B243450DD20A4B1F
:103F10000A4E5A69102782F020025A6148463783B8
:103F200005F0F7FF01347783EEE73C2005F0F1FF61
:103F30000135E5E7BDE8F0870008024000000240D7
:103F400008B5104B1A88104B92B99A7882B15A78FA
:103F5000BAB901225A700D4B1A880D4B4FF400204C
:103F60001A80FDF76DFA60B1BDE8084003F022BE8B
:103F70005B7833B90220FF210122BDE80840FFF73A
:103F8000B9BF08BD780800202E250020F4260020A7
:103F9000182600202DE9F04FC04BB3F90600C04BA6
:103FA0002DED028BDA8C904285B00FDBB0F5FA6F05
:103FB00093F8254007DA811A4C43A2F5FA6294FB84
:103FC000F2F4643403E0C4F1640400E06424B54A0C
:103FD00093F82370B2F88A1192F95C210091524251
:103FE00092B293F8765093F8776093F82430029267
:103FF0000021019703930A46A84BDDF8008031F9B0
:1040000003C0C8EB0C0303F2F31E40F2E637BE45D3
:1040100003D8002BB8BF5B4201E04FF4FA73022AC9
:10402000DFF88C822CD025B1AB42CCBFC5EB0303AB
:104030000023642793FBF7FEDFF8CCA26FF0630B3D
:104040003AF81E900BFB0E3B0EF1010E3AF91EA042
:104050000FFA89FECEEB0A0E0EFB0BFE9EFBF7FE5F
:10406000CE4428F801E0DDF8048003FB08FE8E4B07
:104070009EFBF3F33B449BB2634393FBF7F714E0DF
:1040800026B1B342CCBFC6EB03030023DDF808E042
:1040900003FB0EF7A8F80470039F002BB8BF5B4228
:1040A0007B43814F93FBF7F764377D4BDFF85C82EE
:1040B00002EB030E64239EF8019007FB09F999FBBC
:1040C000F3F902F808909EF80B90DFF844829EF80E
:1040D00015E007FB09F999FBF3F907FB0EF702F866
:1040E0000890DDF8008097FBF3F3704FC445D3557B
:1040F0006F4F02DA7B5A5B427B520132032A01F195
:1041000002017FF479AF674E694CB6F88C114FF419
:10411000FA6203F09BFAB6F88C314FF47A75C01A44
:104120004543C3F5FA63B5FBF3F5642195FBF1F361
:1041300060486FF0630E30F813200EFB0355013317
:1041400030F9130013B2C31A5D4395FBF1F15A4DD8
:104150006B7A0A44FA80D3B3584BDFED597AB3F93E
:104160000020584BB3F90030D31A08EE903AF8EE1D
:10417000E88A68EEA78ADFED547AC8EEA78AB0EE27
:10418000680A0AF001FEB0EE408AB0EE680A0AF052
:1041900081FEB4F902E0B4F9001006EE90EA07EEF1
:1041A000901AF8EEE66AF8EEE77A20EE667AA7EE65
:1041B000887A67EE807ABDEEC77AE6EE887A17EEE7
:1041C000103AFDEEE77A238017EE903A63800220E2
:1041D000FDF736F9002858D03C4C3D4B3D4F1A882E
:1041E000236813443C4A236013780133DBB2137015
:1041F0000622B3FBF2F802FB183818F0FF0836D19C
:10420000364B1A684FF0080992FBF9F0101A344A3D
:1042100011880844186090FBF9F080B201F066FE46
:1042200096F87E31388013B32E4B1A6892FBF9F062
:10423000101A186090FBF9F080B201F079FE2A4B59
:1042400022681860294B42434FF47A7192FBF1F2D5
:10425000D3E90001801841EBE271C3E90001244A6F
:1042600000230DF0EDFB234BC4F800801860224BB7
:104270003A881B889342214B03D396F87D119142D3
:1042800001D9002200E004221A701D4B1B88002B6C
:1042900040D11C4B1B88002B41D146E01A26002040
:1042A000901E0020941F00200CFEFFFF3E260020E1
:1042B0009C2500205C2500202E250020F4260020CF
:1042C000DB0F49401826002000003443D4050020AD
:1042D00076050020A42500202405002008050020E4
:1042E000260500205005002014260020D8050020B7
:1042F000407E050054250020A6250020E005002072
:104300006008002078080020542600204126002064
:104310000C2600200220FDF773F80028B9D0204BAE
:104320005A6982F020025A610BE0AB7813B11C4B42
:1043300020225A836B7813B1194B20221A8303F081
:10434000B5FA184B18491B680A689A1A002A10DB3C
:10435000687B164A58B99070114A506903F5F423E6
:1043600080F0200003F5907350610B6001E00123A1
:10437000937002F011FA0E4B1B785BB94FF400609A
:10438000FDF75EF830B105B0BDEC028BBDE8F04F33
:1043900003F08DBA05B0BDEC028BBDE8F08F00BF15
:1043A000000802407C050020180500202E25002072
:1043B000F8010020024B184490F87F0108F0F2BC8D
:1043C000941F00202DE9F0410820FDF739F8DFF8AF
:1043D000A480234F002837D1224C06460546D8F842
:1043E0000030E8B29847A0F2EE2240F2DC5392B2DD
:1043F0009A4288BF1C4B1D4988BFB3F88A010A68DE
:104400001B4B1340002B03DA013B63F00303013322
:1044100003EB850C134B23F81C00208863880344AE
:10442000A0880344E08803441BB20420013593FBB9
:10443000F0F3082DBB5304F1080406F10206CED1B7
:1044400001320A60BDE8F0810024E0B2D8F8003003
:10445000984727F814000134082CF6D1BDE8F08104
:104460001A26002080050020941F0020E40500206B
:10447000030000804C0500200128034B14BF034AB1
:10448000034A1A60704700BF24000020B93A0008B0
:10449000253D00082DE9F84F08202DED048BFCF791
:1044A000CFFFA74DC0B195F88731042B13D8DFE8B3
:1044B00003F0030306090C0001F0DCFB0CE001F043
:1044C00001FB09E001F072FC06E001F07DFA00302A
:1044D00018BF012000E000209A499B4A0B6814682D
:1044E0001C1B002C884602DA002800F0FD8203F530
:1044F0009C4320331360FFF765FF4FF48040FCF7C7
:104500009FFF20B1914B1B780BB9FFF7C9FC4FF40B
:104510000070FCF795FF8E4F00283BD08D4E8E4CDF
:1045200096F8CE30B4F9001003EB830291421CDD03
:10453000DFF82C9299F80120BAB1B5F88A213A80B7
:104540007A80BA80B6F8D020FA8096F8CF2013444B
:1045500003EB8303994204DDFFF7A2FC002389F8F3
:1045600000307E4B1A8801321A8096F8CE30B4F9AA
:10457000002003EB83039A4209DD794E96F80190FF
:10458000B9F1000F03D1FFF78BFC86F80090238868
:10459000013323800022B5F88C01B5F88E41134613
:1045A000B95E9B088142C4BF63F07F03DBB2023275
:1045B000A142B8BF43F04003082AF1D1694CDFF8AB
:1045C000CC9122789A4205D199F80020F92A04D892
:1045D000013200E0002289F800204FF4804023706F
:1045E000FCF72EFF5B4E58B1B5F88A11B5F84C2197
:1045F000B7F90630881A834202DD0A4493420DDB84
:104600004FF48040FCF71CFF30B9B7F90620B5F82D
:104610008C319A4202DB12E0002010E0524A002363
:10462000136053609360514A13605360B6F846308C
:1046300023B1464B1B78002B40F040840120B6F894
:1046400046306BB1414B1B7853B9454B5B783BB15E
:1046500095F8913113B1FFF723FC01E00028FAD15E
:1046600099F80030142B40F0C4803D4B93F801B012
:104670009A46BBF1000F18D0B6F8463023B923781C
:104680005F2B01D1FFF70CFC95F89031002B00F067
:10469000B080B6F84630002B40F0AB8023787D2BFD
:1046A00040F0A780FFF7FCFBA3E02378572B18D13D
:1046B0002F4B4FF47A724FF480701A80FCF7C0FED3
:1046C00008B1FDF779F90420FCF79AFE10B1294BE7
:1046D0000A221A800820FCF793FEE8B9264B1880BE
:1046E0001AE00420FCF7ACFEB0B11E4B1B785A2B2D
:1046F00012D1224B1A7822B183F800B00122204B4C
:1047000009E0204B1A7882F001021A701E4B0AB1A0
:10471000022200E003221A7023785D2B00F0D78379
:104720005B2B00F0D6835E2B00F0D583B6F84630C5
:1047300073BB22786F2A2BD1FFF702FC3CE000BF4D
:10474000941F00207C0500201C050020BE250020B1
:104750001A260020901E0020EA05002048050020AF
:104760002E250020C0050020F00500200C050020AB
:104770007808002062080020F4260020E8050020C8
:10478000D2050020E1050020740500203805002036
:1047900095F890211AB113B923787E2BCCD02378C9
:1047A000972B04D1844B4FF4C8721A8004E0A72BD6
:1047B00004BF01238AF80E302378BB2B02D1B38DBE
:1047C000023303E0B72B03D1B38D023BB38509E07D
:1047D000BE2B02D1738D023303E0BD2B09D1738D43
:1047E000023B738501200146FCF794FD002389F804
:1047F00000300420FCF724FE48B3704A704B117857
:1048000071B17049497859B1B7F90600B5F88C1102
:10481000884205DD197819B96B481170322404807B
:104820005B7C53B1694B1A782AB9694A127812B97C
:10483000654A32211180012208E0654B1A7832B1B5
:10484000604A52781AB91A70624B01221A70624893
:104850000123002230F8021FA1F21554B4F5C77FDE
:104860008CBF002401249C4009B2224340F213541F
:10487000A142CCBF002401245F1EBC40224340F271
:10488000A464A142D4BF002101215C1CA1400333D8
:104890000A430D2B92B2DDD1002306EB4301484FB2
:1048A000B1F846100A420CBF00210121D95501334D
:1048B000182BF2D17B78434C4BB9484BB3F900200D
:1048C000474B93F8CE3003EB83039A420CDD022072
:1048D000FCF796FD40B1E37843B9424A1360536058
:1048E000384B0122DA7001E00023E370BB7853B14A
:1048F0000023E37023793BB93A4A13605360314B8C
:1049000001221A7100E023713B780BB90123237057
:10491000E278354B12B92B4A12791AB14FF4804222
:104920001A8302E04FF480425A830420FCF768FDAA
:1049300010B3FB788BB1A37983B9224A012191711D
:104940002A4A11682A4A11602A4AD1882A4A1180C3
:104950002A4A13602A4A136000E0A3714FF4005002
:10496000FCF76EFD40B13B792BB1E37B23B9154BCE
:104970000122DA7300E0E3730220FCF741FD10B17D
:104980007B7933B90FE00820FCF73AFD0028F7D116
:1049900043E0637943B90B4B01225A71194B1A88D2
:1049A000194B1A8000E06371BB797BB3637A73BBE8
:1049B000044B01225A722AE060080020E105002021
:1049C000BE2500202E25002060050020390500208E
:1049D000E8050020D205002020260020EA0500205E
:1049E000901E00200C050020000C0240D82400205E
:1049F000E42400209C250020EC05002090040020E9
:104A0000EC040020F4260020B42600206372FB7919
:104A10001BB19C4B1A889C4B1A802020FCF7F0FCA1
:104A2000002853D0E27A994B002A4AD0984A12784B
:104A3000042A46D9974A4FF400411183BA7A7AB1D1
:104A4000DA79002A44D101219348D9711A72934B23
:104A5000011D1A70FDF726F9914B02221A7037E0FA
:104A6000DA71904AD27A12B38F49B6F8E220B1F9DE
:104A700000000028B8BF4042904218DAB1F9021095
:104A80000029B8BF4942914211DA1A7A02BB0126C5
:104A90001E72824B85481A70854B011D1A685B682F
:104AA00043600260FDF7FEF87D4B1E7010E00023AE
:104AB00023727A4B1A785AB901221A70FCF7A4FFB4
:104AC00006E0774A0023E37123721370FFF7FAF9C7
:104AD0003B7B03B10123A3726B79082B01D00E2B12
:104AE00039D10023637236E0724C2368042B32D82C
:104AF000DFE803F0030C16202B00012308202360BD
:104B0000FCF77EFC10B101F03BFC20BB23680420C5
:104B100001332360FCF774FC10B101F041FAD0B905
:104B20002368042001332360FCF76AFC10B1FEF710
:104B300049FC80B923684FF4807001332360FCF78F
:104B40007FFC10B1FDF75EF905E000234FF4005043
:104B50002360FCF775FC05F0B1F9AA89C8F80000DC
:104B6000554B22B11968411A0029C0F2C581104481
:104B70001860FEF77FFA05F0A1F9504B50491A680A
:104B8000C8F80000821A18600A80FFF703FA0820AC
:104B9000FCF736FC4B4E002831D0434A918801F196
:104BA00045039BB28A2B1446364B474A25D83748D3
:104BB000477917B31F881388407BFA1A92B293B2D1
:104BC0001FB2B337BCBF02F5B4739BB21AB2B32A9B
:104BD000C4BFA3F5B4739BB295F85C2178B152B20F
:104BE00052425343727A9BB213FB02F36FF01D02E1
:104BF00093FBF2F31944A18001E01B881380042089
:104C0000FCF7FEFB002800F09E80204B9A79002ADA
:104C100000F09980187C244C002840F08C8096F895
:104C200079102A4F96F87820294B00295AD0B4F8E9
:104C300006E0B7F900100FFA8EF7C1EB070CBCF1D4
:104C4000000FB8BFCCF1000C94450FDD8F42C8BFF8
:104C50005242DFF88CC01FFA8EFEC8BF92B2CCF869
:104C60000000724401201870E2806CE01A7822B1D2
:104C7000184A18701768184A1760184B18680844C3
:104C800051E000BFF4260020182600202E25002029
:104C900012260020000C0240B02500202900002030
:104CA00004050020BE2500209C2500207C25002036
:104CB000F4250020C80500202805002070050020EC
:104CC00076050020901E0020B4260020EC05002070
:104CD0004A050020D8240020E4240020EC04002011
:104CE00090040020B7F90000B4F906703F1A87EA73
:104CF000E77EAEEBE77E964509DD022297FBF2F7F1
:104D00007F4A8049176001220A701A7008E01A78F9
:104D100032B17D4A197017687C4A1760794A117060
:104D20007B4B1B681844B5F84011B5F8422102F0DE
:104D30008DFCE08007E0764B628895F992111B6844
:104D400001FB0323638096F87C3053B1714BDA7812
:104D50000AB91B792BB1704B704A1188DA880A4462
:104D6000DA802020FCF74CFB002800F08680694B9D
:104D7000DA7912B91A7A002A7AD01B7B002B77D005
:104D8000674BDFED687AB3F9003008EE103AB8EE01
:104D9000C88A28EE278AB0EE480A0AF07BF8F0EEBF
:104DA000408AB0EE480A09F0EFFF5A4B1B7CB0EE88
:104DB000409A002B61D196F8DB30DFF884915A4F8E
:104DC0005A4EB2EE048A83B3594CB7F90200B4F8D4
:104DD00002A00FFA8AF3C01AFCF7AEFF99F8DB20A5
:104DE000514202F033FC5044B4F800A06080B7F99F
:104DF00000000FFA8AF3C01AFCF79EFF99F8DB2037
:104E0000514202F023FC50441FFA80FAA4F800A09B
:104E1000B4F902400FFA8AFA07EE104A07EE90AA98
:104E2000B8EEC77AF8EEE76A0BE0B7F90220B7F9F7
:104E3000007007EE102A06EE907AB8EEC77AF8EE08
:104E4000E66A68EEE67AE7EE097A26EE899AC7EE18
:104E5000887AA7EE289AFDEEE77A89EE089A17EE8F
:104E6000903ABDEEC99A338019EE103A738004E08F
:104E70002E4B00221A805A809A802E4BD8F80020A0
:104E80001968511A002937DB2B48B5F84E1190FBF1
:104E9000F1F112FA81F21A60284B1B68984700F072
:104EA00093F900F07DF94FF40020FCF7C9FA18B32C
:104EB000BDEC048BBDE8F84F02F048BF154B1B78E2
:104EC000002B3FF4BBABFFF73BF8FFF7B7BB01226A
:104ED00002E0022200E003225FFA82FB00200BF1D5
:104EE000FF33014685F8BC34FCF714FA0220282170
:104EF0005A46FEF7FFFF19E4BDEC048BBDE8F88FBE
:104F0000BC040020AA040020D8240020E4240020AF
:104F1000EC0400202E2500209C2500208A0400207F
:104F2000F426002035FA8E3C74250020CC050020A4
:104F3000582500202005002040420F0024000020BA
:104F4000901E0020074B0A2202FB0033B3F8823088
:104F50001AB2112A04DC0728DCBF034B33F81230E5
:104F600018B27047901E00201A260020074B0A2214
:104F700002FB0030B0F8863043FA01F111F0010F66
:104F80000CBF01204FF0FF30704700BF901E002083
:104F900010B500244FF48040FCF752FA064B10B1D4
:104FA000B3F84A3101E0B3F84431044AA352023461
:104FB000182CEFD110BD00BF941F00207A260020CE
:104FC000F8B5594C594D6379594F05EBC30320206F
:104FD0005B78003318BF0123BB75FCF731FA08B1C9
:104FE0000123BB756379172B19D100256319D3ED04
:104FF000047AF5EE407AF1EE10FA02D1BB7D63BB84
:1050000025E010330FCB4B4E2E4486E80F004A4B61
:105010001A7810350132C02D1A70E7D1EEE715F875
:1050200033E0454A05EBC30582F800E0D5F804C03B
:10503000BCF1000FE2D000257545DFDA3D4E2B01B3
:105040001E4463440FCB013586E80F00F4E74FF4AC
:105050008040FCF7F5F920BB1CE06279374B3849FA
:1050600013F83200087003EBC2035D68002DEED028
:1050700000238342EBDAC3EBC3016A18314FD2F845
:1050800000E047F801E07E189188B1809279B27112
:105090000133EEE7637903F0EF02082A2A4A20D1B0
:1050A00021E0254B19780129F4D9284B00228A42A6
:1050B00003F11003EEDA13ED047AF6EE007A27EE30
:1050C000277A013203ED047A13ED057A27EE277A69
:1050D00003ED057A13ED037A67EE277A43ED037A41
:1050E000E5E70E2B19D10121182B117417D10023DC
:1050F000E21892F9D21091B1124852F8D05FC5501F
:10510000C118908892798A710D4A88801178073386
:105110000131702B1170EBD101E000231374BDE855
:10512000F840FFF735BF00BF941F0020644101081D
:105130000425002020060020FD05002088450108E8
:10514000FC050020E00600202E2500202806002077
:105150002DE9F0410023461C0F4A99181033002016
:10516000C02B08619446F7D10C4B03EBC60298465E
:10517000576877B1002418F836309C4209DA2301C9
:105180000CEB03053B440FCB103585E80F000134D1
:10519000F1E7BDE8F08100BF941F002064410108E1
:1051A00010B50023D8B25C1C054B1B78834206D98E
:1051B000044B33F8101007F0D9FD2346F2E710BD79
:1051C000FD050020622600202DE9F04FB54B1A782E
:1051D000032A8BB00FD9B44BB44CB3F90420B4F903
:1051E0000400002AB8BF52426FF06301891A64328A
:1051F00002F02CFAA080AB4A1178012905D8AC4EF8
:10520000AC4D337C002B3FD14FE0A74BAA4AD88846
:10521000A64B92F9D4205C881D88B3F90430524221
:1052200003FB02FEA54B00228A4203F11003E6D2E3
:105230002EB207EE90EA06EE106A06B205EE906A0C
:1052400026B2F8EEE76A07EE906A13ED027A9C4EFA
:10525000F8EEE77AF8EEE55A67EE877A13ED047A0E
:10526000E5EE877AB8EEC66A13ED037AE6EE077AC2
:1052700013ED017AE6EE877AFDEEE77A17EE907A83
:1052800026F812700132CFE773788D4C1BB9B5F850
:105290004431238009E0844BB5F84011B3F906008E
:1052A000B5F8422102F0D2F920806A79013AD2B2EF
:1052B000172A00F228814FF00108824808FA02F20A
:1052C000104030BBD20640F11E81DFF8ECA1DFF8C0
:1052D00010929AF884B0B9F802707B4CFFF732FE56
:1052E0004FFA8BFB1BFB07FB32279BFBF7FB58445A
:1052F0009AF88EA02080B9F800904046FFF722FE71
:105300004FFA8AFA1AFB09F999FBF7F738446080DB
:10531000F9E0B37A0BB1644B00E0644B1A88ADF846
:1053200010205A88ADF812209B88ADF81430644BD9
:10533000664A1B881189ADF81630B5F88A31591ABA
:10534000ADF818105189591AADF81A109189591AE7
:10535000ADF81C10D189591AADF81E101188591AD0
:10536000ADF820105188591AADF822109188D288D2
:10537000591A9B1AADF82410ADF8263000242046A7
:10538000FFF7E0FD504B23F814000134082CF6D150
:105390004FF000084E4B1B785FFA88F4A34240F2AE
:1053A000A1804C4AE000031B13449979134621B1B4
:1053B000494F3944097D00296DD0011B0B44575CCE
:1053C0003D4A93F905A093F904B093F801900A219E
:1053D00001FB0721B1F88000B1F87E20821A92B259
:1053E000642002FB0AFA510802FB0BFB9AFBF0FA5D
:1053F0009BFBF0FBC1EB0A0AD8781FFA8AFAC1EBD3
:105400000B0BCDF808A01FFA8BFBDFF8D0A04FEAFA
:10541000490230B90AAB1A4432F8182C2AF8142081
:1054200012E00AA911443AF9142031F918EC724536
:1054300003DA10441146724602E005DD101A714687
:1054400002F004F92AF81400DFF87CC049463CF861
:10545000173003933846CDF804C0FFF787FD1D4A87
:105460003AF81430C4EBC4041444814694F90200A1
:1054700010FB03F0642390FBF3F0029B0FFA8BF117
:105480001AB202F0E3F8039BDDF804C000FB093018
:105490002CF8170002E0114B23F8141008F1010852
:1054A00078E700BFFD0500209C250020A8250020EE
:1054B0002E250020941F0020901E00202006002092
:1054C00062260020892098002A0000201A26002049
:1054D000FC050020E0060020BE250020FE0500207F
:1054E0007C0400207A4A00237A48518818440A3301
:1054F00090F9840010FB01F1642091FBF0F1502B36
:1055000022F8021FF0D12020FBF79AFF714F0028EC
:1055100044D00020FFF716FD6F4C8046208001200C
:10552000FFF710FD6D4B60801B7ABBB397F8D63048
:1055300097F88E1013F0020F694B1CD01A8897F958
:1055400084E0B3F9023049B211FB02F1CEF1000E52
:10555000322203FB0EF391FBF2F16FF0310E89B2B0
:1055600093FBFEFE8E4493FBF2F2F0441144A4F848
:105570000080084411E05A8897F984E01B881EFBDC
:1055800002FE49B232229EFBF2FE11FB03F1F0440F
:1055900091FBF2F2A4F80080104460804C4CDFF8DC
:1055A000348104F11009B4F90200B8F97E10B8F999
:1055B000802002F04BF824F8020F4C4508F10A084D
:1055C000F1D197F8D6305B0706D4464B464F1A7890
:1055D000B7F8008001230FE0444BDF7D0024043F37
:1055E000434B03EB4403E019C0B21989013407F0BF
:1055F000CBFB042CF4D1E8E793420AD237F913101D
:105600000FFA88F84145A8BF88461FFA88F8013389
:10561000F2E70024A146334A1378994554D2B5F8ED
:1056200042310FFA88F29A4204DD3A5BC8EB030379
:1056300013443B534FF48040FBF702FF2C4B824650
:1056400098B1B3F90610B5F88A212A4B385F914218
:10565000C7BFB3F84811B3F84221B3F84411B3F807
:10566000462101F0F3FF385325E03A190292385FE2
:10567000B5F84221B5F84011019301F0E7FF019B15
:10568000DFF870B0B3F90620B5F88C3138539A4280
:105690000FDA1020FBF7D4FE20B9029ABBF8403194
:1056A000138008E0029ABBF844311380012373741D
:1056B00001E086F811A0737813B90F4BE35A3B53FE
:1056C00009F101090234A6E70BB0BDE8F08F00BF75
:1056D00028000020901E00202A000020BE25002067
:1056E0007C040020FD050020622600200425002007
:1056F0001A260020941F00207A260020F0B50124ED
:10570000B0FBF4F58D4201D34C43F9E70026DCB140
:10571000B0FBF4F504FB1500B4FBF1F41EB9002D49
:1057200001DC002CF3D1092D03F101075FFA85FCA0
:1057300004DD002A0CBF5725372500E030256544DD
:105740001D7001363B46E2E71C70F0BDF0B5012448
:10575000B0FBF4F58D4201D34C43F9E70026DCB1F0
:10576000B0FBF4F504FB1500B4FBF1F41EB9002DF9
:1057700001DC002CF3D1092D03F101075FFA85FC50
:1057800004DD002A0CBF5725372500E0302565448D
:105790001D7001363B46E2E71C70F0BD2DE9F0417B
:1057A000069C002B06460F460CBF4FF020084FF01A
:1057B0003008234613F8011B09B9154603E0002AF7
:1057C000FBDD013AF6E7002D04DD30464146B847DF
:1057D000013DF8E714F8011B11B13046B847F9E76D
:1057E000BDE8F0812DE9F04F074689B0884615469F
:1057F0009B462978002900F0B780252902D0013581
:105800003846AFE06C78302C03D002354FF00009F9
:1058100003E0AC784FF001090335A4F13003092B04
:105820004FF0000619D8A4F13003DAB2092A05D8DE
:105830000A2202FB063615F8014BF4E7A4F16103D6
:10584000052B02D8A4F1570305E0A4F14103052B71
:1058500003D8A4F137030A2BEADD6C2C03BF2C78A4
:10586000012201350022632C66D006D8252C77D082
:10587000582C3FD0002C77D0BBE7732C63D002D8D4
:10588000642C11D0B5E7752C02D0782C32D0B0E75B
:105890000BF1040A05ACDBF800000A2112B100226A
:1058A000234613E0234620E00BF1040A05ACDBF8A5
:1058B000000072B1002806DA2D238DF81430404222
:1058C0000DF1150300E023460A210022FFF716FF21
:1058D0000DE0002806DA2D238DF8143040420DF13A
:1058E000150300E023460A210022FFF72FFFD346CD
:1058F00000941AE00BF1040303930DF1140ADBF892
:105900000000102132B1583C624262415346FFF719
:10591000F5FE06E0B4F158035A425A415346FFF7E8
:1059200015FFDDF80CB0CDF800A0384641463246F0
:105930004B46FFF733FF5CE738469BF800100BF14E
:105940000404C0470AE0DBF80030009338464146C3
:10595000324600230BF10404FFF720FFA34648E77B
:1059600038462146C04744E709B0BDE8F08F000043
:10597000024B1960024B1860704700BF50070020AF
:10598000540700200FB407B5074904AB086807495E
:1059900053F8042B09680193FFF724FF03B05DF867
:1059A00004EB04B0704700BF5407002050070020EC
:1059B000014B33F8100070471A260020014B0122DA
:1059C0001A70704758070020044B1878002218B14D
:1059D00003491A700A800120704700BF5807002051
:1059E000EA05002008B1014B03607047B159000877
:1059F000054B1844054B90F87F2153F822004008CE
:105A000000F5777080B27047941F00206407002073
:105A100038B5044604F052FA0F4B1A68186040F685
:105A2000C411821A8A420D4A84BF00211170137872
:105A30000BB90F2C0FD10A48002101704BB1094D51
:105A40001D44182B05F8014C03D10123117003707C
:105A500038BD0133137038BD5C0700209D0700205E
:105A600060070020840700200F4B13B5B3F88A119C
:105A7000A1F577710446490000230C4A995004337C
:105A8000202BFAD10123009309480A490A4A052329
:105A900008F0A6FE094B18610CB1094A22600822E1
:105AA0005A7502B010BD00BF941F0020640700208B
:105AB00000140140115A0008A086010004250020AE
:105AC000F1590008294B1A7810B50AB9002010BD09
:105AD00000224FF400701A70FBF7B2FC244B10B197
