:020000040800F2
:1000000020370020E19D000885C20008953A0008CD
:1000100087C2000889C200088BC2000800000000E7
:100020000000000000000000000000008DC2000879
:100030008FC200080000000091C20008D9760008B5
:10004000DD9D0008DD9D0008DD9D0008DD9D0008A8
:10005000DD9D0008DD9D0008DD9D0008DD9D000898
:10006000DD9D0008DD9D0008DD9D0008DD9D000888
:10007000DD9D0008DD9D0008DD9D0008DD9D000878
:10008000DD9D0008DD9D0008DD9D0008DD9D000868
:10009000DD9D0008DD9D0008DD9D0008DD9D000858
:1000A000A9AB0008DD9D0008DD9D00087DAB0008C0
:1000B00089AB000891AB0008DD9D000869B9000814
:1000C000CDB80008DD9D0008DD9D0008DD9D00081D
:1000D000DD9D0008ADC10008B9C10008C5C1000818
:1000E000DD9D0008DD9D000895C20008DD9D00082B
:1000F000DD9D0008DD9D00089DAB0008DD9D00082A
:10010000DD9D0008DD9D0008DD9D0008DD9D0008E7
:10011000DD9D0008DD9D0008DD9D0008DD9D0008D7
:10012000DD9D0008DD9D0008DD9D0008DD9D0008C7
:10013000DD9D0008DD9D0008DD9D0008DD9D0008B7
:10014000DD9D0008DD9D0008DD9D0008C5C200089A
:10015000DD9D0008DD9D0008DD9D0008D1C100087F
:10016000DD9D0008DD9D0008DD9D0008DD9D000887
:10017000DD9D0008DD9D0008DD9D0008DD9D000877
:10018000DD9D0008DD9D000870B50646B6FBF2F463
:100190000846154614B12046FFF7F6FF05FB146428
:1001A000024B1B5D00F8013B70BD00BFB8F30008B7
:1001B00010B50278202A034600F10100F9D0092A7F
:1001C000F7D02D2A03D10346BFEE000A04E02B2A04
:1001D00008BF0346B7EE000A9FED377A1A4613466A
:1001E00012F8011BA1F13000C4B2092C0AD805EEA7
:1001F000900AF8EEE57AF2EE046AE7EE267AB0EEBF
:10020000677AECE72E2915D1F2EE047AF0EE676AF0
:10021000134612F8011B3039C8B209280AD805EE76
:10022000901AB8EEE56A86EE276A67EEA67A37EE90
:10023000067AEDE71A7802F0DF02452A34D15A78BF
:100240002D2A02D10233012204E02B2A14BF0133EC
:1002500002330022013B002113F8010F3038C4B2F1
:10026000092C03D80A2404FB0101F5E7B1F59A7FB4
:1002700034BF0B464FF49A731946F7EE007A0729FC
:1002800005D9DFED0E6A083967EEA67AF7E703F0C5
:1002900007032BB1F2EE046A67EEA67A013BF8E79A
:1002A00022B1C7EE277A03E0F7EE007A67EE277AED
:1002B00020EE270A10BD00BF0000000020BCBE4C8D
:1002C00010B5441E14F8011F21B1034B18680AF041
:1002D0001DFBF7E710BD00BF582300200148FFF7C2
:1002E000EFBF00BFDDF3000810B50748FFF7E8FFD8
:1002F0000024064B0648E1581A190C34526805F0E0
:1003000093FAC02CF5D110BD0DF40008D8F2000806
:1003100023F4000870B507F001FA294B1A88294B1D
:100320004FF47A71B0FBF1F11B78274805F07CFAA5
:1003300001F084F8254B1968254B1A68254B53F8B2
:100340002110254B0546B2FBF3F2244805F06CFA68
:100350000024E3B2224A52F8231049B1012202FAE2
:1003600003F32B4202D01F4805F05EFA0134F0E798
:10037000022001F049F898B11B4C1C4B22781C4814
:1003800053F8221005F050FA2378022B08D1194BAC
:1003900019481B7D002B0CBF6E216F2105F044FA1C
:1003A0001648FFF78DFF164B1C880BF089FA214683
:1003B00002464FF498631348BDE8704005F034BA24
:1003C000DC230020240000202BF40008040500207A
:1003D000580000200C04010840420F0069F4000896
:1003E000EC03010892F400089008002098F300083C
:1003F00096F4000858230020A0F4000855F70008E0
:10040000DA050020A4F4000838B50C68054620463B
:100410000EF0A1F8214602462868BDE838400EF0EB
:10042000A3B8000008B50948FFF74AFF01210020E2
:1004300000F074FF0648FFF743FF0A2007F07FF93A
:100440000020BDE8084007F0A1B900BFD6F40008BD
:10045000E0F400087FB504460EF07DF8082824D1AA
:1004600000231F49E25C09681144497801F0030147
:10047000022908BF203AE2540133082BF1D10025AC
:10048000665D184831460EF059F828B101356019FB
:1004900031460EF053F818B11348FFF711FF1CE076
:1004A000082DEDD1204600F089FE1048FFF708FF27
:1004B00000230F4A1A4404A992F87F210A440949EB
:1004C000595C02F80C1C0133082BF2D100230948B7
:1004D0008DF80C3001A905F0A7F904B070BD00BF7C
:1004E00090010020EC0E0108EFF400080FF5000861
:1004F000EC1D002026F4000808B501F099FB01303E
:100500000CBF03480348BDE80840FFF7D9BE00BF51
:1005100024F500084AF500082DE9F04105460EF0E3
:100520001AF8044601F086F906468CB92948FFF707
:10053000C7FE294B53F8241041B10123A340334295
:1005400002D0264805F070F90134F2E7244821E092
:100550002846244922460EF007F858B92248234C71
:10056000FFF7AEFE54F8041F0029EFD01B4805F03A
:100570005BF9F7E72B782D2B03BF013504F1FF342E
:100580004FF001084FF000080026134B53F8267077
:1005900027B91748BDE8F041FFF792BE2846394613
:1005A00022460DF0E1FF98B90120B040B8F1000FEC
:1005B00003D001F031F90F4802E000F04FFF0E4880
:1005C000FFF77EFE39460D48BDE8F04105F02CB935
:1005D0000136DAE768F5000830F2000892F4000806
:1005E00055F70008B90101087BF500082CF2000856
:1005F00090F50008AAF50008B4F5000826F40008F4
:1006000010B504460848FFF75BFE084A0023137044
:10061000074A1360074A137004F00CFC2046BDE83B
:100620001040FFF7FFBE00BFBDF50008F901002034
:100630002C020020F801002008B50848FFF740FE12
:10064000012000F013FF0648FFF73AFE0A2007F0EA
:1006500076F80020BDE8084007F098B8D5F5000806
:10066000E2F40008F8B507460DF075FF044638B906
:100670001A4B1B485A791B4B013A53F8221028E0B9
:100680003846194922460DF06FFF60B91748184CDB
:10069000FFF716FE54F8041F19B1164805F0C4F808
:1006A000F8E7154805E000250E4B53F8256026B9FC
:1006B0001248BDE8F840FFF703BE384631462246EF
:1006C0000DF052FF01350028EED1044B0C485D714E
:1006D0003146BDE8F84005F0A7B800BFEC1D00208A
:1006E000F0F500087CF20008B901010804F60008E2
:1006F00078F2000892F4000855F7000817F6000891
:100700002FF6000810B5044620460DF024FF10F027
:10071000FF0F07D10B4B0C4893F8BC14BDE81040F9
:1007200005F082B820460DF0BFFE022808D8054B20
:10073000064C83F8BC040020014600F0EFFDE3E71F
:1007400010BD00BFEC1D002041F6000865F900084F
:1007500070B504460DF0FFFE08B9204830E0204691
:100760001F490DF04FFF00242646254678B12CB1D5
:10077000012C06D10DF098FE064602E00DF094FE25
:1007800005461749002001340DF03CFFEEE70B2D24
:1007900005D914480C21BDE8704005F045B8012C7E
:1007A00008DC114B114833F915202946BDE870408B
:1007B00005F03AB8A6F57A73B3F57A7F04D90C48F8
:1007C000BDE8704005F030B80A482946324605F0C9
:1007D0002BF8054B23F8156070BD00BF57F60008D5
:1007E0002FF9000891F60008A6240020B7F60008AB
:1007F000CFF60008F1F6000838B505460DF0ABFE5F
:10080000C0B268B90446124B124803EB44032146B8
:10081000B3F84620013405F007F8182CF3D138BDA1
:1008200028460DF041FE172804460BDC20212846FF
:100830000DF084FE0DF038FE054B03EB4404A4F8E4
:10084000460038BD04481821BDE8384004F0ECBF2C
:10085000E81C00200AF7000816F70008931E232B57
:1008600028BF0A22031E10B50C4603DA2D2001F81A
:10087000010B5842FFF788FC00230370204610BD8F
:1008800030B52DED028B87B0B0EE408A00210C22EE
:10089000044603A80DF03DFEB5EEC08ADFED2B7ACD
:1008A000F1EE10FACCBF38EE278A38EE678ADFED1A
:1008B000287A28EE278A6946BDEEC88A0A2218EEF1
:1008C000105A85EAE570A0EBE570FFF7C7FF002D31
:1008D000ACBF20232D2368468DF80C300DF03BFE75
:1008E000012807D130238DF80D308DF80E308DF8AA
:1008F0000F300CE0022805D130238DF80D308DF833
:100900000E3004E0032804BF30238DF80D30694613
:1009100003A80DF006FE03A80DF01DFE0338C5B2B6
:100920002A4603A920460DF041FE002363552046C8
:1009300008490DF0F6FD03A9204629440DF0F1FD0C
:10094000204607B0BDEC028B30BD00BF6F12033AEA
:1009500000007A44EDF4000837B5037904460D46EB
:10096000052B37D8DFE803F003060A0D111483685E
:10097000197830E0836893F900102CE083681988B7
:1009800029E08368B3F9001025E08368196822E044
:100990008368684693ED000AFFF772FF014613482B
:1009A00004F042FF05B3D4ED037A6846B8EEE70AD7
:1009B000FFF766FF01460E4804F036FF94ED040A87
:1009C0006846B8EEC00AFFF75BFF0146084804F02E
:1009D0002BFF09E00021074804F026FF25B1064857
:1009E000E168226904F020FF03B030BD9DF40008E7
:1009F0009CF4000840F700083CF700082DE9F84394
:100A00002DED028B05460DF0A6FD4F4E074620B199
:100A1000012817D12B782A2B14D14C48FFF750FC12
:100A2000002431594A4804F0FFFE30193946FFF7D7
:100A300093FF4848FFF744FC143440F6C8239C4217
:100A4000EFD17DE028463D210DF078FD00285FD0F4
:100A5000441C20460DF028FD81462046FFF7A8FBE8
:100A60000027B0EE408A14247C4356F804804046A8
:100A70000DF071FD4146024628460DF075FD002837
:100A80003CD1314B1C4494ED037AF8EEC77AB4EEB6
:100A9000E78AF1EE10FA2FDB94ED047AF8EEC77ACC
:100AA000B4EEE78AF1EE10FA26D82279052A18BFAB
:100AB00008EE109A18EE103A052A11D8DFE802F075
:100AC00003030606090DA268137009E0A2681380EB
:100AD00006E0A26882ED008A02E0A36883ED008A46
:100AE00041461D4804F0A0FEBDEC028B20460021CB
:100AF000BDE8F843FFF730BF184803E001378A2FFD
:100B0000B1D11748BDEC028BBDE8F843FFF7D8BB65
:100B100004463759294638460DF05AFD58B10C485D
:100B2000394604F081FE084800212044FFF714FFF5
:100B3000084804F079FE143440F6C8239C42E8D1FA
:100B4000BDEC028BBDE8F8831C04010843F70008E4
:100B500022F8000855F7000858F7000863F7000866
:100B600088F7000870B52DED048B5E485E4C84B0AC
:100B7000FFF7A6FB5D4804F057FE5D48FFF73CFE1B
:100B800062795C4B5C48013A264653F8221004F027
:100B90004BFED4ED047AF5EE407AF1EE10FA5FD018
:100BA0001834002514ED028AB5EE408AF1EE10FAF1
:100BB00052D00135514854ED019A94ED009AD4ED8C
:100BC000018A294604F030FEB5EEC08AF1EE10FA33
:100BD00002D54B4804F028FEB0EE480A6846FFF7FD
:100BE0004FFE0146474804F01FFEF5EEC09AF1EEB5
:100BF00010FA02D5424804F017FEB0EE690A6846C2
:100C0000FFF73EFE01463F4804F00EFEB5EEC09AE7
:100C1000F1EE10FA02D53A4804F006FEB0EE490AA9
:100C20006846FFF72DFE0146364804F0FDFDF5EE5F
:100C3000C08AF1EE10FA02D5314804F0F5FDB0EEAD
:100C4000680A6846FFF71CFE01462F4804F0ECFDD9
:100C50000C2D04F11004A5D12C48691C04F0E4FD0E
:100C600000F0E8FD2A4C054654F8041F19B1294844
:100C700004F0DAFDF8E70C46274B53F8241041B195
:100C80000123A3402B4202D0244804F0CDFD0134BF
:100C9000F2E7731804AA93F87F311344204A8A5C60
:100CA00003F8102C01310829F3D100241D488DF8D8
:100CB0000840694604F0B8FD1B4D1C48615904F01A
:100CC000B3FD28190021FFF747FE1948FFF7F8FA8E
:100CD000143440F6C8239C42EED104B0BDEC048B22
:100CE00070BD00BFDDF30008EC1D0020A5F7000873
:100CF00065F900087CF20008D5F70008E0F7000865
:100D00002FF900089DF4000826F40008E8F7000811
:100D10002CF20008FAF7000830F2000808F8000882
:100D2000EC0E010815F800081C0401081EF8000864
:100D300055F70008F0B589B004460DF00CFCC5B2BB
:100D4000002D72D17F48804CFFF7BAFA54ED027A39
:100D5000F5EE407AF1EE10FA2CD0013529467B48A9
:100D600004F062FD14ED020A04A8FFF789FD0146B4
:100D7000774804F059FD14ED010A04A8FFF780FD3F
:100D80000146734804F050FD94ED000A04A8FFF7F3
:100D900077FD01466E4804F047FD94ED010A04A872
:100DA000FFF76EFD01466B4804F03EFD0C2D04F18B
:100DB0001004CBD1DFED687A684BB0EE677AF0EEC5
:100DC000676A0022AA4203F110030DDA13ED045AF8
:100DD00053ED035A13ED026A013276EE856A77EE1F
:100DE000A57A37EE067AEDE75D48CDED016ACDEDE7
:100DF000027A8DED037AFFF763FA002408AB2344EF
:100E000013ED077ADFED577A574B5848B0EEC77AA3
:100E1000B4EEE77AF1EE10FAD8BF18460434FFF7C3
:100E20004FFA0C2CEAD1524874E020465149052271
:100E30000DF09AFB38B9504B034410300022C02803
:100E40001A61F8D17BE020464C4904220DF08CFB5E
:100E50000546204605BB20210DF070FB00286ED012
:100E6000461C30460DF077FB2C460746444B53F8A2
:100E700024500DB943484DE030462946FAB20DF0F2
:100E800073FB38B9204604F0B5F83F48294604F012
:100E9000CBFC4CE00134E9E70DF006FB461E0B2EBF
:100EA000074648DC204620210DF048FB054650B19E
:100EB000451C2846FFF77CF92F4B03EB071787EDFE
:100EC000000A012400E00446284620210DF036FBEC
:100ED000054648B1451C2846FFF76AF9264B03EB47
:100EE000061383ED050A0134284620210DF026FB68
:100EF000054648B1451C2846FFF75AF91E4B03EB3F
:100F0000061383ED060A0134284620210DF016FB56
:100F100018B91E48FFF7D4F911E00130FFF748F97E
:100F2000154B032C03EB061686ED070AF1D1184882
:100F3000FFF700FF03E017480C2104F075FC09B02F
:100F4000F0BD00BF30F80008041E00205BF8000868
:100F500061F8000826F4000800000000001E0020D0
:100F600065F800080AD7233C2CF8000828F8000888
:100F700055F7000874F80008EC1D00207AF8000806
:100F80007CF2000817F600087FF8000892F80008C5
:100F900065F90008CCF800082DE9F047674B1A788E
:100FA00086B0984642B90123654888F80030FFF7BB
:100FB00087F96448FFF784F9634D286809F0B6FCA7
:100FC000A946002800F0B7802868604C09F0B3FCFF
:100FD0000928014601D03F284FD14FF0000A25686B
:100FE0005B4F56462DB15B4839682A460DF0BCFA76
:100FF00010B9BA4606B93E46574B0C379F42F1D35B
:10100000CEB1D6F800E0DAF800C02B461EF8037027
:101010001CF80300B84201D023600CE05A1C4D4973
:1010200030B92D2B04D82027CF542260885402E0F9
:10103000CF541346EAE723680BB1564512D0474810
:10104000FFF73EF9564509D856F80C0BFFF738F96B
:10105000D9F80000092109F059FCF3E73948FFF7F6
:101060002FF9002523689D42A6D23A4BD9F80000FB
:10107000595D09F04BFC0135F4E723682BB90428CE
:1010800036D13448FFF7BCFA55E00C2801D134487A
:101090008DE70A2901D00D2944D132482D4DFFF7A3
:1010A0000FF922682A4903950023AB5404932E4B71
:1010B000009303A810220C230DF0FAF9064638B16C
:1010C00000680DF048FA0130B3682844984702E000
:1010D0002648FFF7F5F81F48002130220DF019FAD5
:1010E0000023236098F80030002B7FF462AF22E0E9
:1010F0000C28CCD07F2903D15EE72F2B3FF65CAFC5
:10110000A1F12002D2B25E2A3FF656AF13B92029D0
:101110003FF452AF5A1C22600E4A2868D15409F09D
:10112000F5FB49E77F29E8D1013B0A4A236000210A
:10113000D1540F483EE706B0BDE8F087F801002023
:10114000F4F800082CF90008582300202C02002095
:10115000D8F20008F901002098F3000831F90008DE
:1011600036F9000855F700080904000841F900089D
:1011700062F900080F4B1A78482A17D15A88B2F53D
:10118000986F13D11A79BE2A10D193F8BE24EF2A92
:101190004FF000000CD113F8012B5040064A934247
:1011A000F9D1D0F1010038BF00207047002070470E
:1011B000704700BF00000E08C0040E0870B5054659
:1011C000441E14F8011F61B1064E30460DF0B6F909
:1011D0000028F6D0861B04483044631B80F87F311A
:1011E000EFE770BDEC0E0108EC1D002008B5FFF71D
:1011F000C1FF10B90A2006F0ADFA0D4B0D49184693
:101200004FF498620DF07CF990F8BC24022A84BF58
:10121000002280F8BC2490F8BC144FF4827202FBC8
:10122000010101F5D87104480DF06AF908BD00BF4D
:10123000EC1D002000000E08E81C00202DE9F047FE
:101240002E4890F82050C47F002303FB03F1193986
:10125000694301F6C411594340F6C412614391FB3E
:10126000F2F1274A22F813100133072BEDD1254A5A
:1012700090F82130B2F84061B2F842A190F822E033
:10128000C3F1640903EB830C5C425FFA89F94FEA0E
:101290004C0CCEF16408C6EB0A0AA4B20022A1B23B
:1012A0000FB2002F04DC002914BF1D46012500E009
:1012B0004D4611FB01F101FB0EF115FB05F591FB0C
:1012C000F5F545440A217D4395FBF1F565442DB2C2
:1012D0004FF47A7105FB0AF595FBF1F50A4935449F
:1012E000555202320A34182AA4B2D8D1007803F039
:1012F0001BF8BDE8F04700F0B7BB00BFE81C0020BA
:1013000080240020EC1D0020A023002008B5FFF75A
:101310006DFFBDE80840FFF791BF0000F8B52F4B07
:1013200048221A704FF498625A80BE221A71EF2236
:1013300083F8BE240022074683F8BF241E4651B11D
:1013400093F8BC0426494FF4827202FB003000F58A
:10135000D8700DF0D5F800221346B15C0132B2F519
:10136000986F83EA0103F8D11C4A002582F8BF3444
:1013700006F0BCFEF32006F0CFFE5820022106F056
:10138000FDFE082815D1174C331903F1774303F5F7
:1013900072032046196806F027FF082805D001359A
:1013A00006F0B2FE032DE3D103E00F4B04349C4260
:1013B000EAD106F0A9FE032D02D0FFF7DBFE10B93B
:1013C0000A2006F0C7F9FFF7A1FF37B10F2014215B
:1013D0000122BDE8F84002F06BBDF8BDEC1D002015
:1013E000E81C002000000E08C0040E0838B50546B1
:1013F0000C4606F0DEF928462146FFF78FFFBDE8D0
:10140000384006F0D3B90000034B1B6818420CBFEC
:1014100000200120704700BF30020020024B1A68F4
:1014200010431860704700BF30020020024B1A685A
:1014300022EA00001860704730020020014B186853
:10144000704700BF30020020034B9B6818420CBF5E
:1014500000200120704700BFEC1D0020024B9A685D
:1014600010439860704700BFEC1D00202DE9F74342
:101470000446FFF77FFE10B1002C00F0BA81DE4A6F
:10148000DE4D10685168DE4C6B4603C34FF4986222
:10149000002128460DF03DF800214FF482722046CD
:1014A0000DF037F848232B704FF4004003236B7185
:1014B000FFF7D4FF4FF48070FFF7D0FF4FF40060C8
:1014C000FFF7CCFF0220FFF7C9FF0820FFF7C6FF98
:1014D0004020FFF7C3FF4FF41673A5F86231FA23DB
:1014E000A5F864312A23A5F86031202385F86631F8
:1014F0006E2385F87B312B2385F87C31212385F8F9
:101500007D3140F24C43A5F88C3140F26C730026DB
:10151000012704224FF4FA714FF4C87E40F2DC50E8
:10152000A5F88E3140F27E4385F8532185F8542189
:10153000A5F86811A5F876E1A5F88A0185F8BC64DC
:10154000A5F86A61A5F86C61A5F86E6185F855612A
:10155000A5F85661A5F85861A5F85A6185F85D614E
:1015600085F85E6185F85C7185F87E6185F8876134
:1015700085F8886185F8AA7185F8AB6185F8AC615A
:1015800085F8906185F8917185F89271A5F84031E0
:1015900040F23A73A5F84231A5F84EE14FF47A7360
:1015A0004FF0020EA5F8443185F89BE140F27E53DE
:1015B0004FF4E13EA98140F6FF71A5F84631C5F828
:1015C000A0E140F2EA534FF4165EA5F896111721F8
:1015D000A5F84831C5F8A4E140F2B4534FF01E0E0F
:1015E0006175A17555214FF02808A5F84A3184F896
:1015F0000BE0322384F80CE0E1704FF00B0E2D214C
:10160000A5F84C31A5F850316173237184F805E0D9
:1016100085F89A7185F8A86185F8A961AE7385F897
:101620009361267084F8018084F80280E675A673C1
:101630002676E67384F82130152384F83130714B17
:1016400063634FF0080C704B84F810C04FF0140E19
:101650004FF00E0CA3636D4B84F806E084F807C0CE
:1016600084F811E04FF0640C4FF0500EE363684BC8
:10167000A17684F81BE04FF00A094FF05A0E84F867
:101680001CC021754FF0780C4121E084236461482F
:1016900084F808E0192384F80AC084F81FE084F86D
:1016A000201084F82E20667684F8129084F8098041
:1016B000A77784F8236084F8246084F8256084F890
:1016C00022606685A685268584F82F8084F8308080
:1016D00084F8447084F84530FFF770FD4FF4487388
:1016E000A4F87A30C82384F8CF304FF49663A4F876
:1016F000D03040F2D933A4F8D23084F8766084F840
:10170000776084F8788084F8797084F87C6084F855
:10171000CE9023464FF47F72A4F87E204FF4FA62F5
:10172000A4F880201DF8062084F88420013640F2B9
:10173000DC51082EA4F8821004F10A04EAD1012237
:1017400083F8D42083F8D52083F8D62083F8DC20D2
:101750006422A3F8DE204FF49672A3F8E02028223A
:10176000A3F8E2204FF07C52C3F8E420C3F8E8204D
:101770000F22A3F8F020A3F8F220A3F8F42040F2FF
:101780006C72C820A3F8F62040F21452A3F8D800D7
:10179000A3F8FA2014201E244FF07E5283F8DA00BA
:1017A00083F8DB40A3F8EE00A3F8F810A3F8FC6080
:1017B000C3F80021522385F8BD340023EA18103302
:1017C0000021C02B1161F9D10024281900F5D8702F
:1017D0000B494FF4827204F582740CF091FEB4F55B
:1017E000437FF2D10020014603B0BDE8F043FFF78C
:1017F000FDBD03B0BDE8F083E40E0108EC1D002040
:10180000E81C00209A99193FF6287C3F3D0A773F53
:101810000000A040F50E0108024B9A6822EA000081
:1018200098607047EC1D0020014B00229A607047C1
:10183000EC1D0020014B9868704700BFEC1D002094
:1018400038B5044C00252070E56105F067FF25627E
:10185000606238BDE022002007EE100AF8EEC77A79
:101860009FED0A0A9FED0A7AF5EEC07AF1EE10FAC2
:10187000D8BFF1EE677A87EE800A08B520EE070A36
:101880000AF07CFE034B83ED000A08BD8096184BDE
:1018900035FA8E3C1000002010B5121A07EE902A7F
:1018A0005B1A2DED028BF8EEE78A07EE903A184BA3
:1018B000059CB8EEE78AD3ED007A28EE278A28EE59
:1018C000080AA8EEA80A0BF021F9DFED127A049BB2
:1018D00020EE270AF0EE480AFDEEC07AB1EE680A63
:1018E000C3ED007A0AF06CFFDFED0B7A9FED0B7A07
:1018F000E0EE077ABDEC028BFDEEE77A17EE903A48
:10190000002BBCBF03F50C43A033236010BD00BF08
:10191000100000202C7D8E3F00A00C46A00CB3458B
:1019200007EE900AB8EEE77AD2ED017A27EE277A31
:10193000D1ED007AE7EE007A10B5C1ED007A92EDB4
:10194000037AF1EE476AFDEEE77AFDEEE66ABDEE58
:10195000C77A0C4617EE102A17EE900A16EE901A68
:1019600005F088FD07EE100AF8EEC77AC4ED007A9C
:10197000FDEEE77A17EE900A10BD000030B50022A8
:1019800013460E49CC5C0D469CB12E2C04D101337C
:1019900078B11D4400242C54C95C0A246243A1F18F
:1019A0003004092C9CBF303A52180E2B03D8013357
:1019B000E7E7104630BD002030BD00BF9402002094
:1019C00038B50C4DEB7AA3B10B4B1B78042B10D917
:1019D0000A4B0B4C18685B6863602060FFF73CFFA4
:1019E000084B1A88084B1A80084B1B88A3600123F8
:1019F0002B7338BD822300203E24002020240020A9
:101A0000E823002020250020F40200209623002057
:101A100010B5002213460E480E4C002119520E48F4
:101A200019520E4814441952002020606160A060D1
:101A30000B4C1444023320606160A060094C1444D4
:101A4000042B20606160A06002F11402E3D110BD9C
:101A5000D4050020B40200209C230020B8230020DD
:101A600060020020400300203A4BDFED3B7A5879BA
:101A70003A4AD97B07EE100AB8EE477A987987EE92
:101A8000277AF2EE046A82ED007A07EE101AB8EEB9
:101A9000477A3349D16087EE277A82ED017A07EEE3
:101AA000100AB8EE477A2F4A187CD16087EE267A62
:101AB00082ED007A07EE100AB8EE477A987E87EE3C
:101AC000277A06EE100A82ED017AB8EE466A9FED9B
:101AD000267AD87986EE076A82ED026A06EE100A47
:101AE000B8EE466A214A587CD16086EE266A82EDBD
:101AF000006A06EE100AB8EE466AD87E86EE276ABD
:101B000082ED016A06EE100AB8EE466A86EE076AB2
:101B100082ED026A164A127CDAB11979154A987B6D
:101B20001B7E06EE101AB8EE466AC6EE266AC2EDB5
:101B3000006A06EE900AF8EE666AC6EEA77AC2ED73
:101B4000017A07EE903AF8EE677A87EE877A82EDAF
:101B5000027A7047E81C00200000C842E002002022
:101B60000000FA441403002000007A44B822002048
:101B700082230020C8220020F7B506460020FFF788
:101B80005FFE4FF48070FFF75FFC00283ED0204DD1
:101B90006E7005F0C3FD0024A8606C601D4D95F8C3
:101BA0009A31A3420CBF01270327FFF75DFF1A4BB1
:101BB000009403EB06162146726818483B460AF06B
:101BC00009FA174B98600120FFF73AFE95F99C310E
:101BD000042BC8BF85F89C4195F99C21531C114BDF
:101BE0000AD0114902EB420201EB420211689288CD
:101BF000C3F80A10DA8109E00C4A1168C3F806102C
:101C0000981D5168C3F80A101389038103B0F0BD11
:101C1000E0220020EC1D0020C41001080048004014
:101C20005823002000000020F90F010817100108B8
:101C30002DE9F041194B1B78042B2BD1184D202393
:101C40006B83184B4FF480425A83174CA06808F0FE
:101C50006DFE50B120262E83A068276808F06BFE29
:101C60000146384608F052FE6E8320680E4F08F099
:101C70005DFE0028E9D00B4C3868D7F808804FF497
:101C80008046268308F057FE0146404608F03EFE97
:101C90006683DAE74FF0FF30BDE8F081E0220020F4
:101CA00000080240000C02405823002073B51A4C73
:101CB000036823600B686360184D0068184EFFF7D7
:101CC000CBFD184B009395E8030094E80C000196B7
:101CD000FFF7E2FD60686968134A33681360411AD0
:101CE00007EE901A1149206891ED007A2968104A90
:101CF000F8EEE77A411A67EE877A1160FDEEE77A2F
:101D0000C2ED017A0B4A13600B4BB3F8DE200B4B8C
:101D10001A8002B070BD00BFF8020020202400200D
:101D200024030020DC220020B0220020100000202C
:101D30005C04002074030020E81C002058040020EC
:101D400044F25063984203DDA0F50C40A038704780
:101D5000034B9842BCBF00F50C40A030704700BF59
:101D6000B0B9FFFF264BF0B51D68024600F1100721
:101D700014782B1911465E7806F00406013206F03D
:101D8000FF036EB1BA42F3D10020F0BD1BB103EBEB
:101D900083035B00DBB210F8012B303A1344DBB253
:101DA0000A1A022AF2DC002281420AD91AB102EB95
:101DB00082025200D2B210F8016B303E3244D2B2ED
:101DC000F2E72E2C0FD14C1C042000210A2671436F
:101DD0002678AF197F787F0702D530390134314436
:101DE0000138F3D100E0002106484243642000FBA3
:101DF000012106240448B1FBF4F100FB0310F0BDFF
:101E00009001002040420F00809698002DE9F04F8D
:101E1000964C2DED048BA3688BB0D3B9944E3378D8
:101E2000013B042B00F2E786DFE813F0FD05FD051A
:101E3000FD05D706BA068D4B986808F07CFD8D4BE2
:101E400093F89A31012B054600F0348107D3022B19
:101E500005D0A06808F06AFD0028ECD1DEE7242D4B
:101E60000CD006D80A2D00F09A800D2D00F0978036
:101E7000E8E02A2D0AD02C2D08D0E3E07E4A00238A
:101E800013707E4A13707E4A1370ECE07B4FDFF8CC
:101E9000E8813A787B4B98F80060002199547A4A9F
:101EA000EEB919781670472919D15978502916D1E9
:101EB0009978472907D1D978472904D11979412937
:101EC00001D10121117098786E49522807D1C87844
:101ED0004D2804D10979432904BF022111701278D9
:101EE000012A02D0022A39D04EE0B21E072A4BD86E
:101EF000DFE802F0040A121820284A2E6148FFF792
:101F000031FF624B18603FE01B78532B3CD15F4B95
:101F10001A6852421A6037E05A48FFF723FF5B4BBA
:101F2000586031E01B78572B2ED1584B5A685242DB
:101F30005A6029E01A78564B302A94BF00220122B9
:101F4000DA7221E00020FFF719FD504B18721BE0F8
:101F50000020FFF713FD4D4B588115E0072E07D0E9
:101F6000082E11D10120FFF709FD484BD8810BE065
:101F70000120FFF703FD41F218434FF47A725843F2
:101F8000B0FBF2F3414A9381013600232A2D88F8F1
:101F900000603B7061D13F4A0121117063E03D4E0A
:101FA0003378002B4BD037490B78402B04D9A3F161
:101FB00037021201D2B202E01B0103F0F0024B78AB
:101FC000402B8CBF373B303BDBB213442C4A11789B
:101FD000DBB2994232D12C4B1D78012D09D0022D54
:101FE0002CD12A4B2C4A99891180DA892B4B1A80E3
:101FF00024E0DFF89C8098F80B300BB901231EE039
:10200000224A274B1168196051685960254B117A93
:10201000254F1970042053893B80FFF7F5F90028FC
:10202000ECD198F81030002BE8D0204B3A889B6810
:10203000D21A64235A431E4B1A60DFE700230022A2
:10204000327010E00D4A13780E2B03D8591C117012
:102050000C4AD5540F4B1B7823B9094A11784D40CF
:10206000157000E0002303F001037EE158230020F7
:10207000E0220020EC1D0020B002002028030020F8
:102080007003002094020020F60200202C030020A0
:102090008223002065040020BC23002024050020AA
:1020A000202400203E24002096230020E823002046
:1020B0002C230020944B19780022082900F2548127
:1020C000DFE801F00A051117253350697400622812
:1020D00001D1022205E01A70B52D40F045811A7831
:1020E00001321A7040E103221A70884B1870884B35
:1020F0000BE0864904221A70854B0A7818782A4426
:10210000D2B20A7002441A70824B1D702CE17F49D2
:1021100005221A707E4B0A7818782A44D2B20A70C7
:1021200002441A707C4B1D801EE1784906221A7009
:10213000774B0A7818782A44D2B20A7002441A708F
:10214000754B1A8802EB0525ADB2B5F5007F01D8B5
:102150001D8003E000221A806B4B1A706F4A002327
:10216000138002E169486A4A017816782944C9B2A5
:1021700001703144117069490A88C72A9CBF6848B8
:102180008554013292B20A8063490988914240F035
:10219000EB800722A5E708221A705C4B1B7883426C
:1021A00000F0E280584A00231370DEE01A70584BAA
:1021B0001B78834240F0D880564B1B78062B4AD0C0
:1021C00004D8022B12D0032B35D0CDE0122B55D0E2
:1021D000302B40F0C980524B1A79524B102A88BFDD
:1021E00010221A7019784E4A00236DE04C4B4E4A6B
:1021F00059685160996811601A694C4D4C4E4FF402
:102200007A7392FBF3F32B804A4B1B78F3724A4BA1
:10221000012204201A70FFF7F7F8002869D1337CF7
:10222000002B66D0454B2A889B68D21A64235A43F8
:10223000434B1A605DE03A4A537913F0010303D02F
:102240001379D81E434243413A4A1370002B50D1B0
:10225000374AD3724DE0324BDA7A12F0010203D0E2
:102260009A7AD11E4A424A4132490A700AB9304923
:10227000CA7293F82F20334B1A703AE0284B324E33
:102280005A6932809A69314D42F2107392FBF3F32E
:102290002B802F4B012208201A70FFF7B5F840BBA6
:1022A000234B1B7C2BB33388642B22D92A880A2327
:1022B000B2FBF3F2274B91B2198009B2B32918DDB2
:1022C000A2F5B4721A8014E08B4202F10C0210DA0B
:1022D000214812F8045C1D54204812F8035C1D5478
:1022E0001F4812F8015C1D541E4815781D54013317
:1022F000EAE711490B78BBB3154B1A78A2B3002259
:102300001A700A70012330E0F3020020F00200206E
:10231000F10200205C020020A4020020DC02002068
:102320007C0300203F24002020240020962300204E
:102330008223002050040020F2020020E823002025
:102340002C2300203E240020BC2300202405002054
:102350007803002020250020702300200E24002078
:1023600028240020702400200023002B3FF471ADAE
:102370009A4DAB68EB6005F0D1F9A8602020FFF71B
:102380004DF8974B1A78012A0CBF002201221A70CF
:10239000944BDA7A002A3FF45CAD934A1278042A0F
:1023A0007FF657AD5A7812B9197C01B91A731B7BA5
:1023B00013B90AB1FFF704FB8C4B8D4D1A784FF01F
:1023C000050E013292FBFEFE0EEB8E0ECEEB020EE0
:1023D00083F800E0874B1B780293874B03EB8E0E4C
:1023E0000023864A86499858DFF85082854E585017
:1023F00090FBF8F1995103EB830A834EDFF840928A
:1024000006FB010053F809705EF80A604EF80A00F6
:10241000BF1B42F2107C90FBFCFC0526384443F8BD
:10242000090090FBF6F008FB01017848195002986A
:102430001FFA8CFC012803EB020B25F802CF16468D
:1024400006D1ACF1020CBCF5797F98BFCBF8001037
:102450000433082BC5D16E4F6E4DDFF888A105F00F
:102460005DF93B689FED6C7AC01A05EE100AF8EE34
:10247000457AB7EE008AC7EE877AC5ED007A05F097
:102480004DF9D5ED007A3860F4EEC87AF1EE10FA25
:1024900058BFF0EE487A06AAC5ED007A5F4B00926D
:1024A00007AA019296E803000CCBFFF7F5F9069A0C
:1024B0005B490798642392FBF3F20A80594A90FB28
:1024C000F3F313809AF80C302F460BB90B8013806E
:1024D0005549564B0A78002A3DD0D5ED007A306830
:1024E0001A68C8EE277A821A70684FF0020807EE61
:1024F000102AB8EEC77A5A6827EE277A801ABDEEFE
:10250000C77A4B4A17EE10BA07EE100AD2ED006AEE
:10251000484AB8EEC77AB2F902E0B2F9009027EE65
:10252000267A09FA8BF067EE277A90FBF8F0FDEE39
:10253000E77A80B217EE90CA0EFA8CFE9EFBF8FE88
:10254000DFF800C110801FFA8EFEACF802E0ACF894
:102550000000A2F802E001220A7030687168596038
:1025600018609AF8083023B91E4BDB79002B3FF432
:1025700070ACDFF8D480DFF8D490DFF8D4B0CDF8B9
:102580000090CDF804B098E80C00FFF785F9D8F872
:1025900004107268284B8A1A07EE902A244AD8F849
:1025A000001092ED007A3268F8EEE77A8A1A67EE48
:1025B000877A1A60FDEEE77A9AF81020C3ED017A67
:1025C000DFF830A012B102228AF800209AF9002028
:1025D000012A3FD0022A00F0D0803AE4E022002015
:1025E00044050020822300203E24002064040020B3
:1025F00008030020270500203402002020240020AA
:102600004804002000030020806967FF8C0200203E
:10261000440400205404002000007A44E8230020F1
:10262000E6230020F423002008030020A802002055
:10263000100000200E0300205C040020809698000B
:10264000680300203C030020F8020020DC22002068
:10265000240300207C4E002553F815007B4ADFF848
:1026600020A2D2ED007A35F80A20DFF81C9297ED0F
:10267000000ADFF8108205EE100AB8EEC57A15EEF2
:10268000101A67EE277AFDEEE77A17EE900A801AA5
:102690006F4A80B2A85200B207EE900AB8EEE77A0D
:1026A000D9ED007A049367EE277A0844FDEEE77AC5
:1026B00031464A4617EE90BAFFF732F96549DFED29
:1026C000665A91F8DA10049B97ED007A53F81520BA
:1026D000D6ED027AD9ED026A06EE101AB8EE466A15
:1026E0007168726026EE256A511A88EE066A1FFA32
:1026F0008BFB584425F808004FF4FA6205EE101AD7
:1027000036EE076AF8EEC55A87EE066A534985EE3B
:10271000877A37EE677AE6EE077AC6ED047AC6ED79
:10272000027A66EEA77A0493FDEEE77A17EE900A36
:1027300004F0A0FE35F80A204949313292B2622AEB
:1027400035F8082098BF0020104480B225F8080012
:1027500040F6B83200B204F08DFE424A28F8050077
:102760000A2101FB0522023556F8141B1160042DC5
:10277000049B7FF471AFFFF76CBB99ED009A354B6A
:1027800019EE100AB3F9E080374B90FBF2F2904556
:10279000A8BF90461A881FFA88F80FFA88F011B27D
:1027A00088420EDD95ED007ADFED307A67EE277A0C
:1027B000FDEEE77A17EE908A90441FFA88F8A3F8A6
:1027C00000802B4BDBF800501B68C3EB050B584611
:1027D000FFF7B6FA002841F2931201DD904201E0C2
:1027E00043429342CCBF00230123DFED228A224ED5
:1027F000002B4BD005EE10BAB8EEC50AB8EEC99A58
:1028000020EE280A09F040FF20EE090A1B4B14496C
:10281000BDEEC00A40F6B83210EE100A80B2188041
:1028200000B204F027FE48F6A0432844984203DD96
:10283000A0F50C40A03804E00028BCBF00F50C4017
:10284000A030306023E000BF60020020E0020020E2
:1028500088020020E81C0020DB0FC94030F8FFFF91
:1028600048F4FFFF40030020580400200000C84245
:1028700074030020D3023739B02200205204002014
:102880003C030020B8230020140300203560336887
:10289000AF4EC3F50C53283307EE103AF8EEC77A63
:1028A000002567EEA88AB0EE680A09F067FE8DED94
:1028B000090AB0EE680A09F0E7FE8DED080AA54A9C
:1028C000DFF8D0B2AA5E0FFA88F10AA807EE902AC4
:1028D00007EE101A00EB450353ED026A9E49B8EE6D
:1028E000C77AF8EEE77A4FF47A72D6EE877AFDEE81
:1028F000E77A17EE900A80B225F80B0000B204F0D8
:10290000B9FD80B225F80B0000B2944B97ED000A98
:10291000D3ED007A049305EE100AB8EEC57A31467D
:1029200067EE277A1A46FDEEE77A17EE90CA1FFA8D
:102930008CFCCDF814C0FEF7F3FF35F90B20DFF85F
:1029400058B2DFED875A9BF8DA10049B97ED007AB6
:10295000D3ED026A7368D6ED027ADDF814C07260B6
:1029600006EE101AB8EE466AD31A26EE256A05EE70
:10297000103A88EE066A84447A4B7B4940F6B832B6
:10298000F8EEC55A36EE076A87EE066A85EE877A54
:1029900037EE677AE6EE077AC6ED047AC6ED027A7C
:1029A00066EEA77AFDEEE77A17EE900A604480B2F1
:1029B000E85200B2049304F05DFD049B58536B4B46
:1029C0000A2202FB0533023556F8142B1A60042D37
:1029D0005B467FF474AF93F8DC2032B1644A11682F
:1029E000642291FBF2F1634A1180B3F8D830D9F830
:1029F00000209A420EDD604B1868604B1B68C01ABD
:102A0000FFF79EF942F210730028B8BF4042984287
:102A10007FF71FAA01238AF80030594B1A88554BBB
:102A20001A80FFF716BA574B93F89A71984617B168
:102A3000012F09D088E07278534BA06803EB021392
:102A4000596807F07DFF7CE0A068DFF8509107F03F
:102A50007CFF002878D033784C4D022B3BD0032BE1
:102A600044D0012B70D104F059FE6B6AC31A632B5A
:102A7000074669D9EB69042B2BDC0820FEF7E4FC40
:102A8000414D90B9F369A06805EB0313596807F04D
:102A900057FF7378A06805EB0315A96807F03BFFA3
:102AA000F36977620133F3614EE04020FEF7CCFC1E
:102AB0000028E7D098F88931002BE3D1F36905EBC2
:102AC00003135B68B3F5964FDCD9304B0322DA6110
:102AD000D8E7022036E06A782B4BD9F8080003EBE0
:102AE0000213596807F02CFF03202BE02B69012B00
:102AF0000DD0022B25D03BBB2A6A254B2F6153F802
:102B00003210696103EBC2035B68AB611CE0EB69E7
:102B1000AA69934209DA6A69D9F80800D15C07F01A
:102B2000F5FEEB690133EB610EE02A6A18490132C8
:102B30002A6251F832200023EB6102B902232B6193
:102B400002E00420FEF77CFE0023736053E000BF28
:102B5000400300203C03002018FCFFFFB8220020A7
:102B6000DB0FC940B823002048F4FFFF60020020BB
:102B7000B0220020E0240020240300207403002061
:102B8000F4020020EC1D0020C4100108E022002007
:102B90002410010888020020E81C0020582300208F
:102BA0007268174B01327260164A92F89D214AB141
:102BB0005A780132D2B20521B2FBF1F101EB810169
:102BC000521A5A7004F0AAFD0F4AB0600023137025
:102BD0000E4A3361D37201200BE004F09FFDB3680D
:102BE00040F6C412C01A904205D92020FEF71EFC00
:102BF0000520FEF725FE0BB0BDEC048BBDE8F08F81
:102C0000E0220020EC1D00203E2400208223002032
:102C100038B5294D2DED048BD5ED008AB0EE680A4C
:102C2000044609F0ABFCB0EE408AB0EE680A09F049
:102C30002BFD95ED019AF0EE408AB0EE490A09F0BD
:102C40009DFCF0EE409AB0EE490A09F01DFDD4ED6E
:102C5000017AD4ED026A67EEA80AB0EE407A60EE1F
:102C6000870A28EEE60A66EE876A94ED007AE7EEB8
:102C7000290AA7EE880AE6EE880A09F0A1FDDFED31
:102C80000F7A9FED0F7A0F4B20EE270A80EE070A8E
:102C900093ED007A30EE070AB2EE047A80EE070A6E
:102CA00009F0A8FCBDEC048B83B21A0444BF00F504
:102CB000B4739BB218B238BDD00400200000E144C8
:102CC000DB0F49409004002038B5284CDFED287A0E
:102CD00094F84530274D00EE103AB8EEC00A20EEC9
:102CE000270A09F04BFC2B8807EE903AF8EEE77ABA
:102CF00027EE800A09F07EFC2D889FED1F7A1F4B7E
:102D000007EE905AF8EEE77A1880C7EE277A1C4B48
:102D100008209FED1C7AC7EE877A9FED1B7AC3EDE2
:102D2000007AB4F87A3007EE903AF8EEE77A174B6B
:102D3000C7EE277A9FED167A67EE877A94ED107AC0
:102D4000C3ED007ADFED137A134B67EE277AB6EE08
:102D5000007AC7EE277AC3ED007AFEF755FB18B16B
:102D6000BDE8384003F008BA38BD00BFE81C0020B9
:102D700035FA8E3C3C0000200AE81C41000500208A
:102D80002023002000401C46000061444423002012
:102D90004C3D0F44DB0F49404823002090ED010AD1
:102DA00090ED007AD0ED027A20EE000A38B5A7EE59
:102DB000070A04460D46A7EEA70A09F0A7FEB5EEDE
:102DC000400AF1EE10FA11D0D4ED007AC7EE807A05
:102DD000C5ED007AD4ED017AC7EE807AC5ED017AAF
:102DE000D4ED027A87EE800A85ED020A38BD38B547
:102DF0002DED0A8B91ED008A90ED00AAD0ED01AA8D
:102E000090ED029AB0EE480A04460D4609F0B6FB72
:102E1000F0EE409AB0EE480A09F036FC95ED018AD2
:102E2000B0EE40BAB0EE480A09F0A8FBF0EE408AD6
:102E3000B0EE480A09F028FC95ED02CAB0EE408ACF
:102E4000B0EE4C0A09F09AFBF0EE40BAB0EE4C0A34
:102E500009F01AFC6BEE005A2BEEA97AB0EE655A17
:102E6000A7EE485AA5EEC87A20EE296A6BEE2B7AB7
:102E70002AEE877A28EEC00AF0EE466AE7EE886A04
:102E8000AAEE007AE6EE087A6BEEA8BAA9EE277AE7
:102E90006BEE687A6AEEA66A6AEEA77AEAEE2B6AA9
:102EA000EAEE087A68EEA98AE9EE056AE9EE287A80
:102EB000BDEC0A8BC4ED006A84ED017AC4ED027AA0
:102EC00038BD80EAE073A3EBE0738B4206DB002899
:102ED00001DD401A704702D0084470470020704757
:102EE000F0B506EE900A2DED028B564BDFED567ACB
:102EF0009FED567A564DF8EE668A87B068EEA78A3F
:102F0000D3ED007AF1EE677ACDED007AD3ED017A58
:102F1000504BB3F90030F1EE677ACDED017A07EE50
:102F2000903A4D4BF8EEE77AB3F9002067EEC77A96
:102F30000646CDED027A07EE902AB3F90220B3F9E6
:102F40000430F8EEE77A03A8CDED037A07EE902A75
:102F5000F8EEE77A6946CDED047A07EE903AF8EE9E
:102F6000E77ACDED057AFFF742FF95F84430DDEDC5
:102F7000057A012B1BD1394B5A78394B72B91A6833
:102F8000402192FBF1F1511A07EE101AB8EEC77A00
:102F900037EE277ABDEEC77A83ED007A1A684023B0
:102FA00092FBF3F306EE903AB8EEE67A05E02D4B8D
:102FB0001B8807EE103AB8EEC77A77EEC77A2A4A2E
:102FC000CDED057AD2ED007A284B294C93ED008A9D
:102FD0009DED030A276878EEA77AC8EEA78ADDED93
:102FE000057A77EEC87AA8EEA78A83ED008A09F001
:102FF00001FB95F83010FFF764FF9DED040A38449B
:103000002060676809F0F6FA95F83010FFF759FF6D
:10301000B0EE480A38446060A76809F0EBFA95F80A
:103020002F10FFF74EFF134B1A6816441E60124B09
:103030001A6838440132A0601A6007B0BDEC028BF8
:10304000F0BD00BFD0040020BD37863535FA8E3C78
:10305000E81C0020202500203C23002082230020A3
:10306000A00400203C000020482300208004002011
:1030700014230020F8040020C40400202DE9F047A8
:103080002DED028B84B002F0DDFE04F02DFBAD4B84
:10309000AD4F1968AD4A1860C1EB000A07EE90AA5F
:1030A000AB4997F82E00B8EE676AD1ED037A00239A
:1030B00026EE276A194601AD05EB4304A54D5E5F78
:1030C00007EE906AF8EEE77AA34E67EE867AC4EDD3
:1030D000007AA24CD8B107EE900AB8EEE77AF7EE84
:1030E000006A86EE877AE45E07EE904AF8EEE77AA9
:1030F00067EE877A36EEC77AD2ED006AE6EE877A17
:10310000C2ED007AFDEEE77A17EE904A00E0E45A4D
:10311000F452F45A0233062B14FB041102F1040298
:10312000C9D18F4B8F481B88DFF8748264246143B8
:103130005B4391FBF3F4493CA4B201A9FFF757FEAE
:103140003B2C884C5AD9884BD4ED020AB3F9003095
:1031500094ED010A854EDFF84C9207EE903AF8EEB6
:10316000E77A834BF4EEE70AF1EE10FAD4BF0022BF
:1031700001225A7309F024FB94ED027AD4ED017A0E
:1031800086ED000A27EE070A94ED008AA7EEA70A4B
:1031900009F0BCFCB1EE488AF0EE400AB0EE480AF5
:1031A00009F00EFB9FED738A86ED010A96ED000A89
:1031B00020EE080A09F01EFA96ED010AA9F80000AF
:1031C00020EE080A09F016FAA9F802000820FEF716
:1031D0001BF9002844D0684801A9FFF708FEB8F899
:1031E0006431654A07EE103AB8EE477AF7EE007A96
:1031F00037EE276A002387EE866A1EE0B8F8621170
:1032000007EE101AB8EE477AF7EE007A37EE276A23
:10321000224687EE866A0023F15E0233062B07EE14
:10322000901AD2ED006AF8EEE77AE6EE877A67EE5A
:10323000866AE2EC016AEFD185E75049D2ED006A77
:10324000595E07EE901AF8EEE77A0233E6EE877AD7
:10325000062B67EE866AE2EC016AEED1464808E08A
:10326000474801A9FFF7C3FD45480146FFF796FD12
:103270004348FFF7CDFC434B18805046FFF730FE24
:1032800097F87C30002B3ED094ED010AD4ED007A03
:1032900094ED028A3C4C20EE000AA7EEA70AA8EEA5
:1032A000080A09F033FC88EE000ADFED387AB4EE44
:1032B000E70AF1EE10FA02D80023238023E009F098
:1032C00021FA334BD3ED007A20EE270A09F092F968
:1032D000B0F5617FA8BF4FF4617007EE900AB8EEB9
:1032E000E70ADFED2C7A80EE270A09F0CDF9164BBC
:1032F00093F87C3007EE903AF8EEE77A27EE800AF2
:1033000009F078F9208098F80530012B224B0DD177
:10331000224AB5F904001488022114FB010103209C
:1033200091FBF0F189B29980118001E0AA889A801E
:103330002A881A806A885A8004B0BDEC028BBDE8E6
:10334000F08700BFF4040020E81C00206C0400207B
:10335000E42400200C2300203C2300202423002010
:103360003C0000204C23002000050020D004002059
:10337000822300204C3D0F44E40400203023002031
:1033800014000020202500209E0400208FC2753CE0
:1033900044230020EFB6B04498040020A404002089
:1033A000EC1D002094040020044A002313605360A5
:1033B0009360034A1360034A13607047142300208C
:1033C000C4040020F80400202DE9F84F2DED048BF3
:1033D00004F08AF9BB4BB3F802A0B3F800B0BA4BC3
:1033E0001A68821A09EE902A19EE901A46F2A7126C
:1033F000914240F2EE81B54E18603388DFF8449375
:10340000B34C9FEDB49AB44FDFEDB48AB44DDFF8FE
:103410003883B7EE008A53B3B24894F83130D9F804
:1034200000100268DFEDB00A013BB1FBF3F10823A5
:1034300092FBF3FECEEB02020A4492FBF3F306EE9C
:10344000103AB8EEC60A026080EE090A09F0BAF92D
:1034500000232B60C8F800303388013B338038EEFE
:10346000400A20EE280ABDEEC00A87ED000A94F853
:103470003130D9F80020DFED9C0A9C4E013BB2FBB5
:10348000F3F306EE903AB8EE660A0FFA8BFB80EE85
:10349000090A09F097F90FFA8AFABBF1000FB8BFD1
:1034A000CBF1000BBAF1000FB8BFCAF1000AD34547
:1034B000A8BFDA461FFA8AFA38EE400A20EE280A38
:1034C00009F098F83B68D4ED0D7A96ED006AC01AC1
:1034D00006EE900AB8EEE60A78EE676AB8EEC67AAB
:1034E00020EE260A0FFA8AF7A7EE270A09F082F8DB
:1034F000FA2F7F4B03DD4FF0FF321A6013E093ED9C
:10350000007A07EE907AF8EEC76AB8EEE77ADFED58
:10351000797A37EEC77A26EE877AC7EE277AFDEEFC
:10352000E77AC3ED007A1B685A1EC62A724A03D88E
:10353000C01A1060336025E01268002BC2EB000057
:1035400030601FDDC3F5967107EE101ADFED6B7A60
:103550006B4AB8EEC77A06EE103A87EE277A634BCD
:10356000F8EEC66A06EE100AF8EEC67A38EE476A3A
:1035700082ED007A67EE867AE6EE877AFDEEE77AEC
:10358000C3ED007A5F4BDFED605AD3ED007A5F4BFD
:1035900094ED0F6AD3ED026A5D4B5E4A93ED007ABB
:1035A0005D4B1168F8EEE66AB8EEC77AF8EE677A16
:1035B000C6EE878A914693ED007AD5ED006A3368AE
:1035C00028EE877A67EEA55A27EE277AB6EE005ADC
:1035D00066EEA57A27EE055AC91AE5EE257A093175
:1035E0001229D8ED005A98BF136077EEA55A07EE5E
:1035F000903AB8EEE75A78EE467A36EE877A65EE7C
:10360000277A85ED007AE5EE867AC8ED007AFFF735
:10361000CBFE424B326819689FED417A1A60511A0D
:1036200007EE901AF8EEE77AF8EE699A67EE877A75
:1036300040F2DC52C7EEA99A3A49FDEEE99A19EE3A
:10364000900A03F017FF0A21FFF73BFCD4ED0E7A36
:1036500095ED007A06EE100A38EE678AB8EEC60AD3
:1036600020EE080AA7EE270A85ED000A08F0C2FF3F
:1036700005218046FFF725FC2B4B2C4D1860B7F534
:10368000487F2B4F80F29F802A4B1B78002B5DD107
:10369000294B2A491868D9F800304FF4FA72C01A39
:1036A00003F0E8FE0A21FFF70CFC094B24491B79C3
:1036B0008022584390FBF2F04FF4967203F0DAFE4A
:1036C00046E000BF94040020C004002092080020BF
:1036D000E81C002080E6C54784040020D048874AC3
:1036E000DC040020B0040020B1DC423EA80400202D
:1036F0002000002000006144780400200000C8423F
:10370000FC040020F8040020BD3786351423002077
:10371000C40400202C23002020230020CC040020FF
:103720000024744924FAFFFFF0040020B4040020B0
:1037300068040020C8040020382300200CFEFFFF8E
:10374000D4FEFFFFE00400208C040020234B186807
:10375000C8EB0008A07A2249224E202308FB00F083
:1037600090FBF3F04FF4967203F084FE3368286008
:10377000207D1D491D4A08FB0030306003F07AFEB1
:10378000A47F97ED007A306007EE904A38EE877A92
:10379000F8EEE77A2B6867EE877A9FED157A67EE89
:1037A000877A42F20406FDEEE77A90FBF6F61E44B5
:1037B00017EE900A6FF0950196222E6003F05AFEE4
:1037C000301A286001E000232B60C7ED008A012039
:1037D00000E00020BDEC048BBDE8F88FD804002089
:1037E000D4FEFFFF7C040020E0FCE6FF200319006C
:1037F0000000003BF0B5012087B004F05FFE04F04C
:1038000005FF0028FBD0944B944D012200201A6044
:10381000FDF72CFEFDF77AFD07F0B8FE08F00CFD71
:10382000286006F003FB06F00DFC4FF40040FDF7A6
:103830000BFEA8B107F000FF894B4FF400425A83FA
:103840001426874C636983F4004363611920013EA9
:1038500003F075FF16F0FF06F3D14FF400436383C6
:1038600003F010FE0F20FDF7D9FD02F027FA01202A
:10387000FDF7CAFD10B9032003F06CFF0023794A5D
:1038800040F2DE5199520233242BF8D1764B774A1D
:103890001A6008206875FDF7D7FDC0B1744B93F826
:1038A0008731042B13D8DFE803F00303070B0F0065
:1038B0006D4802F037F90AE06B4802F027F806E09D
:1038C000694802F0ABF902E0674801F0DDFF4FF410
:1038D0000060FDF7B9FD10B1664803F0E9FE4FF452
:1038E0008070FDF7B1FD20B1614B93F89B01FEF7AD
:1038F00043F9614F20237B83594B4FF480421A8355
:1039000014267B69564C83F020037B61192003F059
:1039100016FF636983F4804363611920013E03F05D
:103920000EFF16F0FF06ECD1534B20221A834FF402
:103930008043638302F0A8FDFFF7C6F901F092FA15
:103940004FF48070FDF780FD08B9002308E00820DF
:10395000FDF77AFD0028F8D0EB68003318BF01238B
:103960004FF480308DF80730FDF76EFD8DF80800BC
:103970000120FDF769FD18B90820FDF765FD00E09D
:10398000012000F001008DF805000820FDF75CFD26
:103990008DF806004FF40040FDF756FD8DF8040049
:1039A0002020FDF751FD324C20B963795D1F6B4239
:1039B0006B4100E001238DF809306379591E4A42BA
:1039C0004A41B3F10E00434243418DF80B30B4F845
:1039D0004E31ADF80E30B4F85031ADF810304FF430
:1039E00080404FF47A738DF80A20ADF81230FDF75D
:1039F0002BFD20B11E4BB3F84A31ADF81230BDF8A3
:103A00000E30B3F5FA7F84BF0023ADF81230B4F85E
:103A10008A31ADF81430194B01A8B3F8D230ADF8A3
:103A2000163006F063FE03F05FFE154B18606379F5
:103A3000052B03D1134B4FF4C8721A80124B4FF46D
:103A40007A721A80114BC8221A80114B01225A73C4
:103A500000F078FCFCE700BF04050020582300209C
:103A6000000C024046240020740500206542000836
:103A7000EC1D00200010014000080240E81C00205E
:103A8000480500205C0800207408002092080020EF
:103A900082230020054B20225A834FF48042A3F852
:103AA0001A244FF40042A3F81A24FEE7000802404B
:103AB000024B5A780AB100225A70704782230020C4
:103AC0002DE9F04F854BB3F90220B3F9003087B0F0
:103AD000002AB8BF5242002BB8BF5B4200249A4272
:103AE000B8BF1A4604922546A04627460394A2462C
:103AF0002646DFF800B29BF803301BB99BF8043070
:103B0000002B3FD0022E3DD0754B7449B3F868218D
:103B1000744B485F5B5FDFF8E091514203EB40007C
:103B200003F0A8FC704B99F81C2035F903C005EB95
:103B30000903CCEB0000B3F92A3000EB030C99F831
:103B40000800CDF808C000FB0CF064236FF00401FE
:103B5000514390FBF3F002EB820203F08BFC634BCA
:103B6000DDF808C062498246E0580293604442F2A0
:103B7000107203F07FFC029BE05099F8123058431A
:103B8000001303909BF8033023B15A4B1B790BB9F8
:103B9000022E3CD1584BDFF844B1DFF870813BF97D
:103BA0000570564906EB030907EB870099F80130C9
:103BB000000190FBF3F0524BEA5E801A54F80820A3
:103BC000029310444FF47A5203F054FC029B48F8DD
:103BD0000400EB5E002BB8BF5B42B3F5207F08DC2E
:103BE000022E09D1BBF90430002BB8BF5B42642B15
:103BF00002DD002348F8043058F804207D2392FBAE
:103C0000F3F899F80B3003FB08F84FEAA818394B82
:103C10001A79B2B1022E14D0049BDDF81090DDF8B1
:103C20000CC0C3F5FA7209FB08F07B4302FB0A33B0
:103C30004FF4FA7102FB0C0293FBF1F392FBF1F2E9
:103C400008E0DB780BB1022E02D142463B4601E090
:103C5000039A53462A49DFF8B8B0685A294935F91A
:103C60000BC0715C25F80B000FFA80F90591DFF8A5
:103C7000A4B0CCEB0901DFF8A0C0009154F80B9080
:103C800054F80C1089440099894454F80C1044F8F5
:103C90000B10009944F80C10DFF880C016F80CC027
:103CA0000CFB09F14FF0200CDDF8149091FBFCF1B6
:103CB000521A10FB09F06FF04F0190FBF1F0034432
:103CC000013611481344032E2B5204F1040405F16C
:103CD00002057FF40EAF07B0BDE8F08FD4230020BB
:103CE000EC1D0020D405002094040020E0050020F5
:103CF000F0D8FFFF82230020E81C002080C1FFFFD6
:103D0000980400206D240020E02300200C050020F2
:103D1000280500205C050020380500206A240020CA
:103D20002DE9F84F002425462746022F464EDFF89E
:103D3000408107D196F82430B8F904201B3353434F
:103D40005B1130E0414B38F90500EB5E4049184407
:103D50004FF4FA7203F08EFB3E4B7219EB5EB2F930
:103D60002A20C01A831807EE103AF8EEC77AB2EE8E
:103D7000047AC7EE877A384AD378FDEEE77A17EEF1
:103D8000901A6BB996F8233038F9050012791B3375
:103D900043431B113AB1B27C514303EB212302E0B0
:103DA000337A4B431B112D4ADFF8C8A035F9028046
:103DB000DFF8C490BAF8000029493E44C8EB030874
:103DC000F27A54F8093096F801B000FB08F0C012FE
:103DD00002FB00304FF4001244F8090003F04AFBE4
:103DE000204BDFF898C0E15844F80380BAF800305F
:103DF00044F809004FF6FF721B09B2FBF3F3C1EB65
:103E000008015943184B54F80C200BFB08FB54F8DD
:103E1000038044F80C804FEAEB1B89110BEB603BED
:103E20004244707DE1500A445043104B01370BEB84
:103E30002020032FE85204F1040405F102057FF469
:103E400074AFBDE8F88F00BFE81C0020D405002047
:103E50000CFEFFFF94040020822300209804002021
:103E60000000E0FFC805002050050020E0230020EE
:103E7000D4230020DA0500200C050020780500205E
:103E8000084B094A1B681168591A002909DB03F518
:103E9000F42303F590731360044B5A6982F40042D3
:103EA0005A617047F80500204C050020000C0240C4
:103EB0002DE9F0478046894692460025EBB25345EE
:103EC00016D20024E3B243450DD20A4B0A4E5A697A
:103ED000102782F020025A614846378303F02FFCF6
:103EE00001347783EEE73C2003F029FC0135E5E758
:103EF000BDE8F08700080240000002400B4B1A8822
:103F00000B4B52B99A7842B15A786AB901225A7069
:103F1000084B1A88084B1A8070475B7823B9022037
:103F2000FF210122FFF7C4BF704700BF74080020C3
:103F30008223002020250020442400202DE9F04F7A
:103F4000B34BB3F90600B34B2DED028BDA8C9042E4
:103F500085B00FDBB0F5FA6F93F8254007DA811AC8
:103F60004C43A2F5FA6294FBF2F4643403E0C4F12A
:103F7000640400E06424A84A93F82370B2F88A111C
:103F800092F95C210091524292B293F8765093F8E4
:103F9000776093F8243002920021019703930A4638
:103FA0009B4BDDF8008031F903C0C8EB0C0303F232
:103FB000F31E40F2E637BE4503D8002BB8BF5B4284
:103FC00001E04FF4FA73022ADFF858822CD025B1B1
:103FD000AB42CCBFC5EB03030023642793FBF7FE82
:103FE000DFF874A26FF0630B3AF81E900BFB0E3BE8
:103FF0000EF1010E3AF91EA00FFA89FECEEB0A0E61
:104000000EFB0BFE9EFBF7FECE4428F801E0DDF828
:10401000048003FB08FE814B9EFBF3F33B449BB201
:10402000634393FBF7F714E026B1B342CCBFC6EB72
:1040300003030023DDF808E003FB0EF7A8F8047083
:10404000039F002BB8BF5B427B43744F93FBF7F792
:104050006437704BDFF8048202EB030E64239EF892
:10406000019007FB09F999FBF3F902F808909EF813
:104070000B90DFF8EC819EF815E007FB09F999FB3E
:10408000F3F907FB0EF702F80890DDF8008097FBC4
:10409000F3F3634FC445D355624F02DA7B5A5B4258
:1040A0007B520132032A01F102017FF479AF5A4CAD
:1040B0004FF4FA62B4F88C1103F0DCF9B4F88C31E7
:1040C000584CC01A4FF47A754543C3F5FA63B5FBF3
:1040D000F3F5642195FBF1F353486FF0630630F874
:1040E000132006FB0355013330F9130013B2C31A32
:1040F0005D4395FBF1F14D4D6B7A0A44FA80D3B3E1
:104100004B4BDFED4C7AB3F900204B4BB3F9003049
:10411000D31A08EE903AF8EEE88A68EEA78ADFED47
:10412000477AC8EEA78AB0EE680A08F027FAB0EE20
:10413000408AB0EE680A08F0A7FAB4F902E0B4F9D0
:10414000001006EE90EA07EE901AF8EEE66AF8EE36
:10415000E77A20EE667AA7EE887A67EE807ABDEE7F
:10416000C77AE6EE887A17EE103AFDEEE77A2380FA
:1041700017EE903A6380324B1B881BB9314B1B887A
:104180002BB90AE00220FDF73FF90028F6D02E4BAC
:104190005A6982F020025A610BE0AB7813B12A4BC6
:1041A00020225A836B7813B1274B20221A8303F005
:1041B00091FA264B26491B680A689A1A002A10DBD6
:1041C000687B1A4A58B990701F4A506903F5F42366
:1041D00080F0200003F5907350610B6001E0012333
:1041E000937002F0EDF91B4B1B785BB94FF4006044
:1041F000FDF72AF930B105B0BDEC028BBDE8F04FF8
:1042000003F069BA05B0BDEC028BBDE8F08F00BFCA
:1042100046240020E81C0020EC1D00200CFEFFFFBF
:104220006A240020D4230020A02300208223002021
:1042300020250020DB0F49404424002000003443A7
:104240005C0800207408002000080240F8050020E7
:1042500020050020F8010020802400206D2400208B
:1042600038240020024B184490F87F0106F0A4B9CE
:10427000EC1D00202DE9F0410820FDF7E5F8DFF8FE
:10428000A480234F002837D1224C06460546D8F893
:104290000030E8B29847A0F2EE2240F2DC5392B22E
:1042A0009A4288BF1C4B1D4988BFB3F88A010A682F
:1042B0001B4B1340002B03DA013B63F00303013374
:1042C00003EB850C134B23F81C0020886388034400
:1042D000A0880344E08803441BB20420013593FB0B
:1042E000F0F3082DBB5304F1080406F10206CED109
:1042F00001320A60BDE8F0810024E0B2D8F8003055
:10430000984727F814000134082CF6D1BDE8F08155
:104310004624002086050020EC1D002030050020EA
:1043200003000080740500200128034B14BF034ADA
:10433000034A1A60704700BF28000020C13A0008F5
:10434000213D00082DE9F84F08202DED048BFDF7E5
:104350007BF8A74DC0B195F88731042B13D8DFE85F
:1043600003F0030306090C0001F0D6FB0CE001F09A
:10437000FBFA09E001F06CFC06E001F077FA00308E
:1043800018BF012000E000209A499B4A0B6814687E
:104390001C1B002C884602DA002800F0FD8203F581
:1043A0009C4320331360FFF765FF4FF48040FDF717
:1043B0004BF820B1914B1B780BB9FFF779FB4FF409
:1043C0000070FDF741F88E4F00283BD08D4E8E4C8B
:1043D00096F8CE30B4F9001003EB830291421CDD55
:1043E000DFF82C9299F80120BAB1B5F88A213A8009
:1043F0007A80BA80B6F8D020FA8096F8CF2013449D
:1044000003EB8303994204DDFFF752FB002389F895
:1044100000307E4B1A8801321A8096F8CE30B4F9FB
:10442000002003EB83039A4209DD794E96F8019050
:10443000B9F1000F03D1FFF73BFB86F8009023880A
:10444000013323800022B5F88C01B5F88E41134664
:10445000B95E9B088142C4BF63F07F03DBB20232C6
:10446000A142B8BF43F04003082AF1D1694CDFF8FC
:10447000CC9122789A4205D199F80020F92A04D8E3
:10448000013200E0002289F800204FF480402370C0
:10449000FCF7DAFF5B4E58B1B5F88A11B5F84C213C
:1044A000B7F90630881A834202DD0A4493420DDBD5
:1044B0004FF48040FCF7C8FF30B9B7F90620B5F8D3
:1044C0008C319A4202DB12E0002010E0524A0023B5
:1044D000136053609360514A13605360B6F84630DE
:1044E00023B1464B1B78002B40F039840120B6F8ED
:1044F00046306BB1414B1B7853B9454B5B783BB1B0
:1045000095F8913113B1FFF7D3FA01E00028FAD101
:1045100099F80030142B40F0C4803D4B93F801B063
:104520009A46BBF1000F18D0B6F8463023B923786D
:104530005F2B01D1FFF7BCFA95F89031002B00F00A
:10454000B080B6F84630002B40F0AB8023787D2B4E
:1045500040F0A780FFF7ACFAA3E02378572B18D1DF
:104560002F4B4FF47A724FF480701A80FCF76CFF77
:1045700008B1FDF725FA0420FCF746FF10B1294BDE
:104580000A221A800820FCF73FFFE8B9264B188062
:104590001AE00420FCF758FFB0B11E4B1B785A2BD1
:1045A00012D1224B1A7822B183F800B00122204B9D
:1045B00009E0204B1A7882F001021A701E4B0AB1F2
:1045C000022200E003221A7023785D2B00F0D083D2
:1045D0005B2B00F0CF835E2B00F0CE83B6F8463025
:1045E00073BB22786F2A2BD1FFF788FC3CE000BF19
:1045F000EC1D0020F80500201C050020F6230020FB
:1046000046240020E81C0020080500206805002042
:1046100082230020F40500200C050020E005002086
:104620007408002092080020202500201805002092
:10463000260500203405002070050020E805002034
:1046400095F890211AB113B923787E2BCCD023781A
:10465000972B04D1844B4FF4C8721A8004E0A72B27
:1046600004BF01238AF80E302378BB2B02D1B38D0F
:10467000023303E0B72B03D1B38D023BB38509E0CE
:10468000BE2B02D1738D023303E0BD2B09D1738D94
:10469000023B738501200146FCF740FE002389F8A8
:1046A00000300420FCF7D0FE48B3704A704B1178FC
:1046B00071B17049497859B1B7F90600B5F88C1154
:1046C000884205DD197819B96B48117032240480CD
:1046D0005B7C53B1694B1A782AB9694A127812B9CE
:1046E000654A32211180012208E0654B1A7832B107
:1046F000604A52781AB91A70624B01221A706248E5
:104700000123002230F8021FA1F21554B4F5C77F2F
:104710008CBF002401249C4009B2224340F2135470
:10472000A142CCBF002401245F1EBC40224340F2C2
:10473000A464A142D4BF002101215C1CA140033329
:104740000A430D2B92B2DDD1002306EB4301484F03
:10475000B1F846100A420CBF00210121D95501339E
:10476000182BF2D17B78434C4BB9484BB3F900205E
:10477000474B93F8CE3003EB83039A420CDD0220C3
:10478000FCF742FE40B1E37843B9424A13605360FC
:10479000384B0122DA7001E00023E370BB7853B19B
:1047A0000023E37023793BB93A4A13605360314BDD
:1047B00001221A7100E023713B780BB901232370A9
:1047C000E278354B12B92B4A12791AB14FF4804274
:1047D0001A8302E04FF480425A830420FCF714FE4F
:1047E00010B3FB788BB1A37983B9224A012191716F
:1047F0002A4A11682A4A11602A4AD1882A4A118015
:104800002A4A13602A4A136000E0A3714FF4005053
:10481000FCF71AFE40B13B792BB1E37B23B9154B72
:104820000122DA7300E0E3730220FCF7EDFD10B122
:104830007B7933B90FE00820FCF7E6FD0028F7D1BB
:1048400043E0637943B90B4B01225A71194B1A8823
:10485000194B1A8000E06371BB797BB3637A73BB39
:10486000044B01225A722AE05C0800203405002023
:10487000F62300208223002036050020DC050020DE
:1048800018050020260500204C24002008050020E3
:10489000E81C0020E0050020000C02402C23002032
:1048A00038230020D4230020460500207C0400206B
:1048B000B404002020250020E02400206372FB794E
:1048C0001BB19C4B1A889C4B1A802020FCF79CFD46
:1048D000002853D0E27A994B002A4AD0984A12789D
:1048E000042A46D9974A4FF400411183BA7A7AB123
:1048F000DA79002A44D101219348D9711A72934B75
:10490000011D1A70FDF7D2F9914B02221A7037E09F
:10491000DA71904AD27A12B38F49B6F8E220B1F92F
:1049200000000028B8BF4042904218DAB1F90210E6
:104930000029B8BF4942914211DA1A7A02BB012616
:104940001E72824B85481A70854B011D1A685B6880
:1049500043600260FDF7AAF97D4B1E7010E0002352
:1049600023727A4B1A785AB901221A70FDF750F85F
:1049700006E0774A0023E37123721370FFF780FA91
:104980003B7B03B10123A3726B79082B01D00E2B63
:1049900039D10023637236E0724C2368042B32D87D
:1049A000DFE803F0030C16202B000123082023600E
:1049B000FCF72AFD10B101F0F7FB20BB23680420AF
:1049C00001332360FCF720FD10B101F003FAD0B9E8
:1049D0002368042001332360FCF716FD10B1FEF7B5
:1049E000F3FC80B923684FF4807001332360FCF737
:1049F0002BFD10B1FDF70AFA05E000234FF400503B
:104A00002360FCF721FD02F06FFEAA89C8F80000C0
:104A1000554B22B11968411A0029C0F2BE811044D9
:104A20001860FEF72BFB02F05FFE504B50491A68EE
:104A3000C8F80000821A18600A80FFF77FFA082081
:104A4000FCF7E2FC4B4E002831D0434A918801F13B
:104A500045039BB28A2B1446364B474A25D8374824
:104A6000477917B31F881388407BFA1A92B293B222
:104A70001FB2B337BCBF02F5B4739BB21AB2B32AEC
:104A8000C4BFA3F5B4739BB295F85C2178B152B260
:104A900052425343727A9BB213FB02F36FF01D0232
:104AA00093FBF2F31944A18001E01B8813800420DA
:104AB000FCF7AAFC002800F09E80204B9A79002A7F
:104AC00000F09980187C244C002840F08C8096F8E7
:104AD00079102A4F96F87820294B00295AD0B4F83B
:104AE00006E0B7F900100FFA8EF7C1EB070CBCF126
:104AF000000FB8BFCCF1000C94450FDD8F42C8BF4A
:104B00005242DFF88CC01FFA8EFEC8BF92B2CCF8BA
:104B10000000724401201870E2806CE01A7822B123
:104B2000184A18701768184A1760184B1868084414
:104B300051E000BF202500204424002082230020D3
:104B40003E240020000C0240E82300202500002025
:104B500027050020F6230020D4230020C0230020B6
:104B6000202400206C050020F005002048050020CE
:104B7000DA050020E81C0020E02400204605002083
:104B8000840500202C23002038230020B4040020BA
:104B90007C040020B7F90000B4F906703F1A87EAD8
:104BA000E77EAEEBE77E964509DD022297FBF2F742
:104BB0007C4A7D49176001220A701A7008E01A7851
:104BC00032B17A4A19701768794A1760764A1170BB
:104BD000784B1B681844B5F84011B5F8422102F033
:104BE00049FCE08007E0734B628895F992111B68DD
:104BF00001FB0323638096F87C3053B16E4BDA7867
:104C00000AB91B792BB16D4B6D4A1188DA880A44B9
:104C1000DA802020FCF7F8FB002800F08680664B45
:104C2000DA7912B91A7A002A7AD01B7B002B77D056
:104C3000644BDFED657AB3F9003008EE103AB8EE58
:104C4000C88A28EE278AB0EE480A07F01DFDF0EE6C
:104C5000408AB0EE480A07F091FC574B1B7CB0EE3F
:104C6000409A002B61D196F8DB30DFF87891574FEE
:104C7000574EB2EE048A83B3564CB7F90200B4F82B
:104C800002A00FFA8AF3C01AFDF75AF899F8DB2050
:104C9000514202F0EFFB5044B4F800A06080B7F935
:104CA00000000FFA8AF3C01AFDF74AF899F8DB20E2
:104CB000514202F0DFFB50441FFA80FAA4F800A032
:104CC000B4F902400FFA8AFA07EE104A07EE90AAEA
:104CD000B8EEC77AF8EEE76A0BE0B7F90220B7F949
:104CE000007007EE102A06EE907AB8EEC77AF8EE5A
:104CF000E66A68EEE67AE7EE097A26EE899AC7EE6A
:104D0000887AA7EE289AFDEEE77A89EE089A17EEE0
:104D1000903ABDEEC99A338019EE103A738004E0E0
:104D20002B4B00221A805A809A802B4BD8F80020F7
:104D30001968511A002930DBB5F84E11274890FB4D
:104D4000F1F112FA81F21A60254B1B68984700F0C6
:104D50008DF9BDEC048BBDE8F84F00F073B9164B2C
:104D60001B78002B3FF4C2ABFFF7C8F8FFF7BEBBC0
:104D7000012202E0022200E003225FFA82FB00200F
:104D80000BF1FF33014685F8BC34FCF7C7FA02206B
:104D900028215A46FFF78CF820E4BDEC048BBDE8CF
:104DA000F88F00BFD8040020C80400202C23002066
:104DB00038230020B404002082230020D4230020C4
:104DC0009E0400202025002035FA8E3CB8230020C8
:104DD000D40500209C230020EC05002040420F0059
:104DE00028000020E81C0020074B0A2202FB0033A9
:104DF000B3F882301AB2112A04DC0728DCBF034B57
:104E000033F8123018B27047E81C00204624002006
:104E1000074B0A2202FB0030B0F8863043FA01F15A
:104E200011F0010F0CBF01204FF0FF30704700BFA1
:104E3000E81C002010B500244FF48040FCF704FB70
:104E4000064B10B1B3F84A3101E0B3F84431044ADB
:104E5000A3520234182CEFD110BD00BFEC1D00206E
:104E6000A6240020F8B5594C594D6379594F05EBEC
:104E7000C30320205B78003318BF0123BB75FCF708
:104E8000E3FA08B10123BB756379172B19D100250B
:104E90006319D3ED047AF5EE407AF1EE10FA02D1FF
:104EA000BB7D63BB25E010330FCB4B4E2E4486E811
:104EB0000F004A4B1A7810350132C02D1A70E7D115
:104EC000EEE715F833E0454A05EBC30582F800E04C
:104ED000D5F804C0BCF1000FE2D000257545DFDA3B
:104EE0003D4E2B011E4463440FCB013586E80F0075
:104EF000F4E74FF48040FCF7A7FA20BB1CE062798E
:104F0000374B384913F83200087003EBC2035D6871
:104F1000002DEED000238342EBDAC3EBC3016A1805
:104F2000314FD2F800E047F801E07E189188B18057
:104F30009279B2710133EEE7637903F0EF02082A48
:104F40002A4A20D121E0254B19780129F4D9284B90
:104F500000228A4203F11003EEDA13ED047AF6EE32
:104F6000007A27EE277A013203ED047A13ED057AF1
:104F700027EE277A03ED057A13ED037A67EE277A99
:104F800043ED037AE5E70E2B19D10121182B11749B
:104F900017D10023E21892F9D21091B1124852F8B9
:104FA000D05FC550C118908892798A710D4A888067
:104FB000117807330131702B1170EBD101E0002320
:104FC0001374BDE8F840FFF735BF00BFEC1D0020AB
:104FD000EC12010858230020200600201E060020A5
:104FE00050170108FC050020E00600208223002065
:104FF000280600202DE9F0410023461C0F4A99188D
:1050000010330020C02B08619446F7D10C4B03EB02
:10501000C6029846576877B1002418F836309C428B
:1050200009DA23010CEB03053B440FCB103585E86F
:105030000F000134F1E7BDE8F08100BFEC1D002056
:10504000EC12010810B50023D8B25C1C054B1B788C
:10505000834206D9044B33F8101005F091FA234629
:10506000F2E710BD1E0600208E2400202DE9F04F2F
:10507000B54B1A78032A8BB00FD9B44BB44CB3F9A3
:105080000420B4F90400002AB8BF52426FF0630153
:10509000891A643202F0EEF9A080AB4A1178012936
:1050A00005D8AC4EAC4D337C002B3FD14FE0A74B25
:1050B000AA4AD888A64B92F9D4205C881D88B3F9F7
:1050C0000430524203FB02FEA54B00228A4203F148
:1050D0001003E6D22EB207EE90EA06EE106A06B290
:1050E00005EE906A26B2F8EEE76A07EE906A13EDD5
:1050F000027A9C4EF8EEE77AF8EEE55A67EE877A88
:1051000013ED047AE5EE877AB8EEC66A13ED037AFA
:10511000E6EE077A13ED017AE6EE877AFDEEE77A9E
:1051200017EE907A26F812700132CFE773788D4C23
:105130001BB9B5F84431238009E0844BB5F8401120
:10514000B3F90600B5F8422102F094F920806A799B
:10515000013AD2B2172A00F228814FF001088248A2
:1051600008FA02F2104030BBD20640F11E81DFF88F
:10517000ECA1DFF810929AF884B0B9F802707B4C79
:10518000FFF732FE4FFA8BFB1BFB07FB32279BFB23
:10519000F7FB58449AF88EA02080B9F8009040465A
:1051A000FFF722FE4FFA8AFA1AFB09F999FBF7F783
:1051B00038446080F9E0B37A0BB1644B00E0644B93
:1051C0001A88ADF810205A88ADF812209B88ADF8E7
:1051D0001430644B664A1B881189ADF81630B5F857
:1051E0008A31591AADF818105189591AADF81A10A8
:1051F0009189591AADF81C10D189591AADF81E10B1
:105200001188591AADF820105188591AADF822109A
:105210009188D288591A9B1AADF82410ADF826301F
:1052200000242046FFF7E0FD504B23F81400013422
:10523000082CF6D14FF000084E4B1B785FFA88F42B
:10524000A34240F2A1804C4AE000031B1344997929
:10525000134621B1494F3944097D00296DD0011B06
:105260000B44575C3D4A93F905A093F904B093F8B9
:1052700001900A2101FB0721B1F88000B1F87E20DE
:10528000821A92B2642002FB0AFA510802FB0BFB5D
:105290009AFBF0FA9BFBF0FBC1EB0A0AD8781FFAE5
:1052A0008AFAC1EB0B0BCDF808A01FFA8BFBDFF8D5
:1052B000D0A04FEA490230B90AAB1A4432F8182C90
:1052C0002AF8142012E00AA911443AF9142031F9FD
:1052D00018EC724503DA10441146724602E005DD0F
:1052E000101A714602F0C6F82AF81400DFF87CC0E4
:1052F00049463CF8173003933846CDF804C0FFF711
:1053000087FD1D4A3AF81430C4EBC40414448146A6
:1053100094F9020010FB03F0642390FBF3F0029B6E
:105320000FFA8BF11AB202F0A5F8039BDDF804C066
:1053300000FB09302CF8170002E0114B23F8141081
:1053400008F1010878E700BF1E060020D4230020E2
:10535000E023002082230020EC1D0020E81C002018
:10536000200600208E240020892098002C00002098
:1053700046240020FC050020E0060020F623002043
:10538000FE050020940400207A4A00237A485188C0
:1053900018440A3390F9840010FB01F1642091FB5A
:1053A000F0F1502B22F8021FF0D12020FCF74CF82E
:1053B000714F002844D00020FFF716FD6F4C804647
:1053C00020800120FFF710FD6D4B60801B7ABBB37E
:1053D00097F8D63097F88E1013F0020F694B1CD057
:1053E0001A8897F984E0B3F9023049B211FB02F14F
:1053F000CEF1000E322203FB0EF391FBF2F16FF0BF
:10540000310E89B293FBFEFE8E4493FBF2F2F04420
:105410001144A4F80080084411E05A8897F984E008
:105420001B881EFB02FE49B232229EFBF2FE11FBDC
:1054300003F1F04491FBF2F2A4F800801044608084
:105440004C4CDFF8348104F11009B4F90200B8F9CA
:105450007E10B8F9802002F00DF824F8020F4C45B8
:1054600008F10A08F1D197F8D6305B0706D4464B0D
:10547000464F1A78B7F8008001230FE0444BDF7DD8
:105480000024043F434B03EB4403E019C0B21989E5
:10549000013405F083F8042CF4D1E8E793420AD2F2
:1054A00037F913100FFA88F84145A8BF88461FFA4C
:1054B00088F80133F2E70024A146334A137899456E
:1054C00054D2B5F842310FFA88F29A4204DD3A5BC1
:1054D000C8EB030313443B534FF48040FBF7B4FF86
:1054E0002C4B824698B1B3F90610B5F88A212A4BA5
:1054F000385F9142C7BFB3F84811B3F84221B3F8FF
:105500004411B3F8462101F0B5FF385325E03A19AC
:105510000292385FB5F84221B5F84011019301F0CD
:10552000A9FF019BDFF870B0B3F90620B5F88C3104
:1055300038539A420FDA1020FBF786FF20B9029AFF
:10554000BBF84031138008E0029ABBF84431138065
:105550000123737401E086F811A0737813B90F4B1F
:10556000E35A3B5309F101090234A6E70BB0BDE849
:10557000F08F00BF2A000020E81C00202C00002033
:10558000F6230020940400201E0600208E24002014
:105590005823002046240020EC1D0020A6240020D3
:1055A000F0B50124B0FBF4F58D4201D34C43F9E78B
:1055B0000026DCB1B0FBF4F504FB1500B4FBF1F4FC
:1055C0001EB9002D01DC002CF3D1092D03F10107D8
:1055D0005FFA85FC04DD002A0CBF5725372500E063
:1055E000302565441D7001363B46E2E71C70F0BD76
:1055F000F0B50124B0FBF4F58D4201D34C43F9E73B
:105600000026DCB1B0FBF4F504FB1500B4FBF1F4AB
:105610001EB9002D01DC002CF3D1092D03F1010787
:105620005FFA85FC04DD002A0CBF5725372500E012
:10563000302565441D7001363B46E2E71C70F0BD25
:105640002DE9F041069C002B06460F460CBF4FF09B
:1056500020084FF03008234613F8011B09B91546FE
:1056600003E0002AFBDD013AF6E7002D04DD3046B9
:105670004146B847013DF8E714F8011B11B1304627
:10568000B847F9E7BDE8F0812DE9F04F074689B04A
:10569000884615469B462978002900F0B7802529C1
:1056A00002D001353846AFE06C78302C03D002359B
:1056B0004FF0000903E0AC784FF001090335A4F185
:1056C0003003092B4FF0000619D8A4F13003DAB2E9
:1056D000092A05D80A2202FB063615F8014BF4E721
:1056E000A4F16103052B02D8A4F1570305E0A4F14E
:1056F0004103052B03D8A4F137030A2BEADD6C2CF8
:1057000003BF2C78012201350022632C66D006D815
:10571000252C77D0582C3FD0002C77D0BBE7732CAA
:1057200063D002D8642C11D0B5E7752C02D0782C48
:1057300032D0B0E70BF1040A05ACDBF800000A2117
:1057400012B10022234613E0234620E00BF1040AA5
:1057500005ACDBF8000072B1002806DA2D238DF8C5
:10576000143040420DF1150300E023460A210022C7
:10577000FFF716FF0DE0002806DA2D238DF8143010
:1057800040420DF1150300E023460A210022FFF7F5
:105790002FFFD34600941AE00BF1040303930DF19D
:1057A000140ADBF80000102132B1583C6242624119
:1057B0005346FFF7F5FE06E0B4F158035A425A414A
:1057C0005346FFF715FFDDF80CB0CDF800A03846C2
:1057D000414632464B46FFF733FF5CE738469BF8BD
:1057E00000100BF10404C0470AE0DBF8003000931E
:1057F00038464146324600230BF10404FFF720FFF0
:10580000A34648E738462146C04744E709B0BDE80B
:10581000F08F0000024B1960024B1860704700BF08
:1058200050070020540700200FB407B5074904AB08
:105830000868074953F8042B09680193FFF724FF10
:1058400003B05DF804EB04B0704700BF54070020BC
:1058500050070020014B33F8100070474624002009
:10586000014B01221A70704758070020044B18782A
:10587000002218B103491A700A800120704700BF46
:10588000580700200805002008B1014B036070474D
:1058900055580008054B1844054B90F87F2153F8E4
:1058A0002200400800F5777080B27047EC1D0020A0
:1058B0006407002038B5044601F016FF0F4B1A6844
:1058C000186040F6C411821A8A420D4A84BF002132
:1058D000117013780BB90F2C0FD10A4800210170F9
:1058E0004BB1094D1D44182B05F8014C03D1012380
:1058F0001170037038BD0133137038BD5C07002090
:105900009D07002060070020840700200F4B13B57F
:10591000B3F88A11A1F577710446490000230C4AB7
:1059200099500433202BFAD10023009309480A49E7
:105930000A4A052306F04EFB094B18610CB1094ACF
:10594000226008225A7502B010BD00BFEC1D002075
:105950006407002000480040B5580008A0860100F8
:105960005823002095580008294B1A7810B50AB919
:10597000002010BD00224FF400701A70FBF764FD88
:10598000244B10B19A7D1207F2D4234A5878002193
:1059900011801978214A00F0070441EA04211160BE
:1059A000997801F03F04640144EAD0005060D8784F
:1059B000800040EA9110197901F0010440EA842046
:1059C0009060587900F00F04E40144EA5101D1607D
:1059D000997901F07F04240144EA10101061D8790C
:1059E000400040EAD111187A00F0030441EA442152
:1059F0005161597A9B7A01F01F04A401DB0044EA4B
:105A0000900043EA51119061D161012010BD00BFA7
:105A1000600700208407002008050020640700209C
:105A2000124B10B501221A70044601F05DFE104AB7
:105A300013680146C31A0F48116041F2883293423D
:105A400003600D4B84BF00221A701B780B4A0F2B8A
:105A5000D45406D10A4B01221A700A4B00221A8034
:105A600010BD054A0133137010BD00BFC5070020EB
:105A7000A0070020CC070020C8070020BE2400207B
:105A8000C4070020080500201B4B1A78F0B51C46FF
:105A9000DAB11A4B1D781A4B1E780223194AD15CD1
:105AA000294101F00F01062903F1010C08D8D75C48
:105AB00012F80C20374002EB0727134A42F82170F6
:105AC0000233102BEAD10023237006280F4B02D893
:105AD0000F4A127812B9B3F88A01F0BD0D4A184482
