:020000040800F2
:10000000683E002035D10008E9F50008413D0008B0
:10001000EBF50008EDF50008EFF500080000000022
:10002000000000000000000000000000F1F50008E2
:10003000F3F5000800000000F5F50008ADA9000880
:1000400031D1000831D1000831D1000831D1000888
:1000500031D1000831D1000831D1000831D1000878
:1000600031D1000831D1000831D1000831D1000868
:1000700031D1000831D1000831D1000831D1000858
:1000800031D1000831D1000831D1000831D1000848
:1000900031D1000831D1000831D1000831D1000838
:1000A00011DF000831D1000831D10008E5DE000879
:1000B000F1DE0008F9DE000831D10008F9EC000893
:1000C0005DEC000831D1000831D1000831D10008C1
:1000D00031D1000811F500081DF5000829F50008C8
:1000E00031D1000831D10008F9F5000831D10008FC
:1000F00031D1000831D1000805DF000831D10008F6
:1001000031D10008BD97000831D1000831D1000875
:1001100031D1000831D1000831D1000831D10008B7
:1001200031D1000831D1000831D1000831D10008A7
:1001300031D1000831D1000831D1000831D1000897
:1001400031D1000831D1000831D1000829F600086A
:1001500031D10008F197000831D1000835F50008C9
:1001600031D1000831D1000831D1000831D1000867
:1001700031D1000831D1000831D1000831D1000857
:1001800031D1000831D1000838B5114D114C2B6820
:1001900022889B5CFE2B01D1002316E0FF2B09D1A6
:1001A0000D4B0D221A700D4B10225A830C4B00225E
:1001B0001A7038BD0AF01CFC2A682388094DD25CED
:1001C0000A2101FB020028600133238038BD00BFF3
:1001D0000002002004020020000000200000024075
:1001E000FD010020F801002038B5424C23788342FD
:1001F0007FD90C287DD8DFE800F0073B363140225C
:1002000022454E40272C16000D2323700AF0F0FBE8
:10021000394B1860394B10225A83394A0023137026
:10022000384A136062E0384B1A78002A61D1354AA7
:10023000364911600C22227001221A7056E0314BAF
:10024000334A1A60207022E02E4B324A1A600A2389
:100250004BE02C4B304A1A600B2346E0294B2F4AC7
:100260001A60032341E0274B2D4A1A6002233CE029
:10027000244B2C4A1A60012337E0224B2A4A1A6089
:10028000207033E01F4B294A1A60072323701A4B52
:1002900000221A602AE04FF4807001F005FA00B3E2
:1002A000234BDB7AEBB1234B1878042819D90023B0
:1002B000214905225A54CA180F255570122B03F1F3
:1002C0000205EAB204D0B0EB520F2B46F0D800E0A2
:1002D00014220A4464235370FF239370094B19605E
:1002E00002E0084B154A1A6008232370144B0022C1
:1002F0001A8038BD00000020F801002000000240F4
:10030000FD01002000020020FC010020502B01080C
:10031000802B0108782B0108832B0108622B010830
:10032000932B0108752B01085F2B01088A2B01080C
:100330003E26002022270020060200207D2B0108F7
:10034000040200202DE9F041204B214C5B7B2BB1B6
:100350002378082B02D90820FFF746FF23780D2BBE
:1003600032D01C4C23682646002B2DD01A4D2B78FA
:100370002F46A3B9194BD3F800800AF039FB80450A
:100380000DD801232B70164B22681B88D35C13B148
:10039000144B10221A83BDE8F041FFF7F5BE3B78FD
:1003A00093B10E4B1C680AF023FB84420CD80A4B15
:1003B00000221A700A4B32681B88D35C002BEAD0EB
:1003C000084B10225A83E6E7BDE8F081CE260020D4
:1003D0000000002000020020FD010020F8010020A4
:1003E000040200200000024070B50646B6FBF2F49D
:1003F0000846154614B12046FFF7F6FF05FB1464C6
:10040000024B1B5D00F8013B70BD00BF282D0108A9
:1004100010B50278202A034600F10100F9D0092A1C
:10042000F7D02D2A03D10346BFEE000A04E02B2AA1
:1004300008BF0346B7EE000A9FED377A1A46134607
:1004400012F8011BA1F13000C4B2092C0AD805EE44
:10045000900AF8EEE57AF2EE046AE7EE267AB0EE5C
:10046000677AECE72E2915D1F2EE047AF0EE676A8E
:10047000134612F8011B3039C8B209280AD805EE14
:10048000901AB8EEE56A86EE276A67EEA67A37EE2E
:10049000067AEDE71A7802F0DF02452A34D15A785D
:1004A0002D2A02D10233012204E02B2A14BF01338A
:1004B00002330022013B002113F8010F3038C4B28F
:1004C000092C03D80A2404FB0101F5E7B1F59A7F52
:1004D00034BF0B464FF49A731946F7EE007A07299A
:1004E00005D9DFED0E6A083967EEA67AF7E703F063
:1004F00007032BB1F2EE046A67EEA67A013BF8E738
:1005000022B1C7EE277A03E0F7EE007A67EE277A8A
:1005100020EE270A10BD00BF0000000020BCBE4C2A
:1005200010B5441E14F8011F21B1034B18680DF0DB
:10053000A1FBF7E710BD00BF142600200148FFF71C
:10054000EFBF00BF4D2D010810B50748FFF7E8FFCA
:100550000024064B0648E1581A190C34526805F07D
:1005600051FEC02CF5D110BD7D2D0108482C01088D
:10057000932D010870B50AF03BFA294B1A88294BD4
:100580004FF47A71B0FBF1F11B78274805F03AFE81
:1005900001F084F8254B1968254B1A68254B53F850
:1005A0002110254B0546B2FBF3F2244805F02AFE44
:1005B0000024E3B2224A52F8231049B1012202FA80
:1005C00003F32B4202D01F4805F01CFE0134F0E774
:1005D000022001F049F898B11B4C1C4B22781C48B2
:1005E00053F8221005F00EFE2378022B08D1194B88
:1005F00019481B7D002B0CBF6E216F2105F002FEF8
:100600001648FFF78DFF164B1C880EF021FB214684
:1006100002464FF499631348BDE8704005F0F2BDFF
:10062000B42600202D0000209B2D0108200500206D
:1006300058000020E43D010840420F00D92D010878
:10064000C43D0108022E01089E090020082D010862
:10065000062E010814260020102E0108C5300108BE
:10066000BC050020142E010838B50C68054620464C
:1006700011F025F9214602462868BDE8384011F0FE
:1006800027B9000008B50948FFF74AFF01210020FB
:1006900000F074FF0648FFF743FF0A200AF0B9F99B
:1006A0000020BDE808400AF0DBB900BF462E010873
:1006B000502E01087FB5044611F001F9082824D115
:1006C00000231F49E25C09681144497801F00301E5
:1006D000022908BF203AE2540133082BF1D100254A
:1006E000665D1848314611F0DDF828B10135601912
:1006F000314611F0D7F818B11348FFF711FF1CE08D
:10070000082DEDD1204600F089FE1048FFF708FFC4
:1007100000230F4A1A4404A992F882210A44094985
:10072000595C02F80C1C0133082BF2D10023094854
:100730008DF80C3001A905F065FD04B070BD00BF57
:1007400090010020144901085F2E01087F2E010846
:10075000A0200020962D010808B501F09DFB013076
:100760000CBF03480348BDE80840FFF7D9BE00BFEF
:10077000942E0108BA2E01082DE9F041054611F02A
:100780009EF8044601F08AF906468CB92948FFF71D
:10079000C7FE294B53F8241041B10123A340334233
:1007A00002D0264805F02EFD0134F2E7244821E06E
:1007B00028462449224611F08BF858B92248234C88
:1007C000FFF7AEFE54F8041F0029EFD01B4805F0D8
:1007D00019FDF7E72B782D2B03BF013504F1FF340A
:1007E0004FF001084FF000080026134B53F8267015
:1007F00027B91748BDE8F041FFF792BE28463946B1
:10080000224611F065F898B90120B040B8F1000F08
:1008100003D001F035F90F4802E000F04FFF0E4819
:10082000FFF77EFE39460D48BDE8F04105F0EABC11
:100830000136DAE7D82E0108982B0108022E0108AC
:10084000C5300108783B0108EB2E0108942B010804
:10085000002F01081A2F0108242F0108962D0108E6
:1008600010B504460848FFF75BFE084A00231370E2
:10087000074A1360074A137004F0C6FF2046BDE81C
:100880001040FFF7FFBE00BF2D2F01081D02002002
:10089000500200201C02002008B50848FFF740FE67
:1008A000012000F013FF0648FFF73AFE0A200AF085
:1008B000B0F80020BDE808400AF0D2B8452F010882
:1008C000522E0108F8B5074610F0F9FF044638B972
:1008D0001A4B1B485A791B4B013A53F8221028E057
:1008E00038461949224610F0F3FF60B91748184CF2
:1008F000FFF716FE54F8041F19B1164805F082FCE4
:10090000F8E7154805E000250E4B53F8256026B999
:100910001248BDE8F840FFF703BE3846314622468C
:1009200010F0D6FF01350028EED1044B0C485D7164
:100930003146BDE8F84005F065BC00BFA0200020AE
:10094000602F0108EC2B0108783B0108742F010887
:10095000E82B0108022E0108C5300108872F010885
:100960009F2F010810B50446204610F0A8FF10F094
:10097000FF0F07D10B4B0C4893F8C014BDE8104093
:1009800005F040BC204610F043FF022808D8054B74
:10099000064C83F8C0040020014600F0EFFDE3E7B9
:1009A00010BD00BFA0200020B12F0108D5320108E2
:1009B00070B5044610F083FF08B9204830E02046A7
:1009C0001F4910F0D3FF00242646254678B12CB1EC
:1009D000012C06D110F01CFF064602E010F018FFB3
:1009E000054617490020013410F0C0FFEEE70B2D3B
:1009F00005D914480C21BDE8704005F003BC012C5A
:100A000008DC114B114833F915202946BDE8704028
:100A100005F0F8BBA6F57A73B3F57A7F04D90C48D4
:100A2000BDE8704005F0EEBB0A482946324605F0A5
:100A3000E9FB054B23F8156070BD00BFC72F010807
:100A40009F320108013001088C270020273001085F
:100A50003F3001086130010838B5054610F02FFF1E
:100A6000C0B268B90446124B124803EB4403214656
:100A7000B3F84620013405F0C5FB182CF3D138BD7E
:100A8000284610F0C5FE172804460BDC2021284616
:100A900010F008FF10F0BCFE054B03EB4404A4F873
:100AA000460038BD04481821BDE8384005F0AABB0F
:100AB0009C1F00207A30010886300108931E232BEA
:100AC00028BF0A22031E10B50C4603DA2D2001F8B8
:100AD000010B5842FFF788FC00230370204610BD2D
:100AE00030B52DED028B87B0B0EE408A00210C228C
:100AF000044603A810F0C1FEB5EEC08ADFED2B7AE4
:100B0000F1EE10FACCBF38EE278A38EE678ADFEDB7
:100B1000287A28EE278A6946BDEEC88A0A2218EE8E
:100B2000105A85EAE570A0EBE570FFF7C7FF002DCE
:100B3000ACBF20232D2368468DF80C3010F0BFFE8B
:100B4000012807D130238DF80D308DF80E308DF847
:100B50000F300CE0022805D130238DF80D308DF8D0
:100B60000E3004E0032804BF30238DF80D306946B1
:100B700003A810F08AFE03A810F0A1FE0338C5B246
:100B80002A4603A9204610F0C5FE002363552046DF
:100B9000084910F07AFE03A92046294410F075FE9A
:100BA000204607B0BDEC028B30BD00BF6F12033A88
:100BB00000007A445D2E010837B5037904460D46DE
:100BC000052B37D8DFE803F003060A0D11148368FC
:100BD000197830E0836893F900102CE08368198855
:100BE00029E08368B3F9001025E08368196822E0E2
:100BF0008368684693ED000AFFF772FF01461348C9
:100C000005F000FB05B3D4ED037A6846B8EEE70AB9
:100C1000FFF766FF01460E4805F0F4FA94ED040A6A
:100C20006846B8EEC00AFFF75BFF0146084805F0CA
:100C3000E9FA09E00021074805F0E4FA25B1064881
:100C4000E168226905F0DEFA03B030BD0D2E01081F
:100C50000C2E0108B0300108AC3001082DE9F84332
:100C60002DED028B054610F02AFE4F4E074620B1AF
:100C7000012817D12B782A2B14D14C48FFF750FCB0
:100C8000002431594A4805F0BDFA30193946FFF7BA
:100C900093FF4848FFF744FC143440F618339C4255
:100CA000EFD17DE028463D2110F0FCFD00285FD00B
:100CB000441C204610F0ACFD81462046FFF7A8FBFF
:100CC0000027B0EE408A14247C4356F80480404646
:100CD00010F0F5FD41460246284610F0F9FD0028C7
:100CE0003CD1314B1C4494ED037AF8EEC77AB4EE54
:100CF000E78AF1EE10FA2FDB94ED047AF8EEC77A6A
:100D0000B4EEE78AF1EE10FA26D82279052A18BF48
:100D100008EE109A18EE103A052A11D8DFE802F012
:100D200003030606090DA268137009E0A268138088
:100D300006E0A26882ED008A02E0A36883ED008AE3
:100D400041461D4805F05EFABDEC028B20460021AD
:100D5000BDE8F843FFF730BF184803E001378E2F96
:100D6000B1D11748BDEC028BBDE8F843FFF7D8BB03
:100D7000044637592946384610F0DEFD58B10C4874
:100D8000394605F03FFA084800212044FFF714FFD8
:100D9000084805F037FA143440F618339C42E8D17D
:100DA000BDEC028BBDE8F883F43D0108B3300108C7
:100DB00092310108C5300108C8300108D33001085C
:100DC000F830010870B52DED048B5E485E4C84B0A0
:100DD000FFF7A6FB5D4805F015FA5D48FFF73CFEFE
:100DE00062795C4B5C48013A264653F8221005F0C4
:100DF00009FAD4ED047AF5EE407AF1EE10FA5FD0FC
:100E00001834002514ED028AB5EE408AF1EE10FA8E
:100E100052D00135514854ED019A94ED009AD4ED29
:100E2000018A294605F0EEF9B5EEC08AF1EE10FA16
:100E300002D54B4805F0E6F9B0EE480A6846FFF7E0
:100E40004FFE0146474805F0DDF9F5EEC09AF1EE98
:100E500010FA02D5424805F0D5F9B0EE690A6846A5
:100E6000FFF73EFE01463F4805F0CCF9B5EEC09ACB
:100E7000F1EE10FA02D53A4805F0C4F9B0EE490A8D
:100E80006846FFF72DFE0146364805F0BBF9F5EE42
:100E9000C08AF1EE10FA02D5314805F0B3F9B0EE90
:100EA000680A6846FFF71CFE01462F4805F0AAF9BC
:100EB0000C2D04F11004A5D12C48691C05F0A2F9F1
:100EC00000F0ECFD2A4C054654F8041F19B12948DE
:100ED00005F098F9F8E70C46274B53F8241041B178
:100EE0000123A3402B4202D0244805F08BF90134A2
:100EF000F2E7731804AA93F882311344204A8A5CFB
:100F000003F8102C01310829F3D100241D488DF875
:100F10000840694605F076F91B4D1C48615905F0FB
:100F200071F928190021FFF747FE1948FFF7F8FA71
:100F3000143440F618339C42EED104B0BDEC048B5F
:100F400070BD00BF4D2D0108A02000201531010803
:100F5000D5320108EC2B0108453101085031010858
:100F60009F3201080D2E0108962D01085831010805
:100F7000942B01086A310108982B01087831010887
:100F80001449010885310108F43D01088E3101083A
:100F9000C5300108F0B589B0044610F090FCC5B228
:100FA000002D72D17F48804CFFF7BAFA54ED027AD7
:100FB000F5EE407AF1EE10FA2CD0013529467B4847
:100FC00005F020F914ED020A04A8FFF789FD014697
:100FD000774805F017F914ED010A04A8FFF780FD22
:100FE0000146734805F00EF994ED000A04A8FFF7D6
:100FF00077FD01466E4805F005F994ED010A04A855
:10100000FFF76EFD01466B4805F0FCF80C2D04F16E
:101010001004CBD1DFED687A684BB0EE677AF0EE62
:10102000676A0022AA4203F110030DDA13ED045A95
:1010300053ED035A13ED026A013276EE856A77EEBC
:10104000A57A37EE067AEDE75D48CDED016ACDED84
:10105000027A8DED037AFFF763FA002408AB23448C
:1010600013ED077ADFED577A574B5848B0EEC77A41
:10107000B4EEE77AF1EE10FAD8BF18460434FFF761
:101080004FFA0C2CEAD1524874E02046514905220F
:1010900010F01EFC38B9504B034410300022C02819
:1010A0001A61F8D17BE020464C49042210F010FC74
:1010B0000546204605BB202110F0F4FB00286ED029
:1010C000461C304610F0FBFB2C460746444B53F8B9
:1010D00024500DB943484DE030462946FAB210F08D
:1010E000F7FB38B9204604F06FFC3F48294605F06D
:1010F00089F84CE00134E9E710F08AFB461E0B2E1C
:10110000074648DC2046202110F0CCFB054650B1B4
:10111000451C2846FFF77CF92F4B03EB071787ED9B
:10112000000A012400E004462846202110F0BAFB02
:10113000054648B1451C2846FFF76AF9264B03EBE4
:10114000061383ED050A01342846202110F0AAFB7E
:10115000054648B1451C2846FFF75AF91E4B03EBDC
:10116000061383ED060A01342846202110F09AFB6D
:1011700018B91E48FFF7D4F911E00130FFF748F91C
:10118000154B032C03EB061686ED070AF1D1184820
:10119000FFF700FF03E017480C2105F033F809B012
:1011A000F0BD00BFA0310108B8200020CB310108FC
:1011B000D1310108962D010800000000B420002064
:1011C000D53101080AD7233C9C3101089831010828
:1011D000C5300108E4310108A0200020EA310108EF
:1011E000EC2B0108872F0108EF31010802320108BA
:1011F000D53201083C3201082DE9F047674B1A78D7
:1012000086B0984642B90123654888F80030FFF758
:1012100087F96448FFF784F9634D28680CF03AFDBC
:10122000A946002800F0B7802868604C0CF037FD14
:101230000928014601D03F284FD14FF0000A256808
:101240005B4F56462DB15B4839682A4610F040FB8B
:1012500010B9BA4606B93E46574B0C379F42F1D3F8
:10126000CEB1D6F800E0DAF800C02B461EF80370C5
:101270001CF80300B84201D023600CE05A1C4D4911
:1012800030B92D2B04D82027CF542260885402E097
:10129000CF541346EAE723680BB1564512D04748AE
:1012A000FFF73EF9564509D856F80C0BFFF738F909
:1012B000D9F8000009210CF0DDFCF3E73948FFF70D
:1012C0002FF9002523689D42A6D23A4BD9F8000099
:1012D000595D0CF0CFFC0135F4E723682BB90428E5
:1012E00036D13448FFF7BCFA55E00C2801D1344818
:1012F0008DE70A2901D00D2944D132482D4DFFF741
:101300000FF922682A4903950023AB5404932E4B0E
:10131000009303A810220C2310F07EFA064638B181
:10132000006810F0CCFA0130B3682844984702E016
:101330002648FFF7F5F81F480021302210F09DFAEB
:101340000023236098F80030002B7FF462AF22E086
:101350000C28CCD07F2903D15EE72F2B3FF65CAF62
:10136000A1F12002D2B25E2A3FF656AF13B920296E
:101370003FF452AF5A1C22600E4A2868D1540CF038
:1013800079FC49E77F29E8D1013B0A4A2360002123
:10139000D1540F483EE706B0BDE8F0871C0200209C
:1013A000643201089C3201081426002050020020FB
:1013B000482C01081D020020082D0108A132010857
:1013C000A6320108C530010869060008B1320108DB
:1013D000D23201080F4B1A78482A17D15A88B2F531
:1013E000996F13D11A79BE2A10D193F8C424EF2A29
:1013F0004FF000000CD113F8012B5040064A9342E5
:10140000F9D1D0F1010038BF0020704700207047AB
:10141000704700BF00000E08C8040E0870B50546EE
:10142000441E14F8011F61B1064E304610F03AFA1E
:101430000028F6D0861B04483044631B80F88231B4
:10144000EFE770BD14490108A020002008B5FFF7A0
:10145000C1FF10B90A2009F0E7FA0D4B0D491846F3
:101460004FF4996210F000FA90F8C024022A84BF69
:10147000002280F8C02490F8C0144FF4827202FB5E
:10148000010101F5DA71044810F0EEF908BD00BF62
:10149000A020002000000E089C1F00202DE9F0472E
:1014A0002E4890F82050C47F002303FB03F1193924
:1014B000694301F6C411594340F6C412614391FBDC
:1014C000F2F1274A22F813100133072BEDD1254AF8
:1014D00090F82130B2F84061B2F842A190F822E0D1
:1014E000C3F1640903EB830C5C425FFA89F94FEAAC
:1014F0004C0CCEF16408C6EB0A0AA4B20022A1B2D9
:101500000FB2002F04DC002914BF1D46012500E0A6
:101510004D4611FB01F101FB0EF115FB05F591FBA9
:10152000F5F545440A217D4395FBF1F565442DB25F
:101530004FF47A7105FB0AF595FBF1F50A4935443C
:10154000555202320A34182AA4B2D8D1007803F0D6
:1015500043FBBDE8F04700F0BBBB00BF9C1F002071
:1015600066270020A02000206C26002008B5FFF789
:101570006DFFBDE80840FFF791BF0000F8B52F4BA5
:1015800048221A704FF499625A80BE221A71EF22D3
:1015900083F8C4240022074683F8C5241E4651B1AF
:1015A00093F8C00426494FF4827202FB003000F524
:1015B000DA7010F059F900221346B15C0132B2F52D
:1015C000996F83EA0103F8D11C4A002582F8C534DB
:1015D00009F00EFFF32009F021FF5820022109F045
:1015E0004FFF082815D1174C331903F1774303F542
:1015F00072032046196809F079FF082805D00135E3
:1016000009F004FF032DE3D103E00F4B04349C42A7
:10161000EAD109F0FBFE032D02D0FFF7DBFE10B983
:101620000A2009F001FAFFF7A1FF37B10F201421BA
:101630000122BDE8F84002F0FBBFF8BDA020002069
:101640009C1F002000000E08C8040E0838B505468F
:101650000C4609F018FA28462146FFF78FFFBDE82F
:10166000384009F00DBA0000034B1B6818420CBF4C
:1016700000200120704700BF54020020024B1A686E
:1016800010431860704700BF54020020024B1A68D4
:1016900022EA00001860704754020020014B1868CD
:1016A000704700BF54020020034B9B6818420CBFD8
:1016B00000200120704700BFA0200020024B9A6844
:1016C00010439860704700BFA02000202DE9F34729
:1016D0000446FFF77FFE10B1002C00F0BD81E04A08
:1016E000E04D10685168E04C6B4603C34FF49962BB
:1016F0000021284610F0C1F800214FF482722046E4
:1017000010F0BBF848232B704FF4004003236B719B
:10171000FFF7D4FF4FF48070FFF7D0FF4FF4006065
:10172000FFF7CCFF0820FFF7C9FF4FF41673A5F8A9
:101730006231FA23A5F864312A23A5F860314FF409
:10174000FA73A5F86831202385F866316E2385F891
:101750007D312B2385F87E31212385F87F312323AA
:1017600085F8803140F24C43A5F8903140F26C731B
:101770000026012704224FF008094FF4C870022107
:1017800040F2DC5EA5F8923140F27E4385F85321A9
:1017900085F8542185F85591A5F8780185F88A11C6
:1017A000A5F88EE185F8C064A5F86A61A5F86C61BA
:1017B000A5F86E61A5F85661A5F85861A5F85A61BB
:1017C00085F85D6185F85E6185F85C7185F88161F9
:1017D00085F88B6185F8AE7185F8AF6185F8B061E9
:1017E00085F8946185F89571A5F8403140F23A7317
:1017F000A5F8423185F89F114FF47A734FF4E13127
:10180000A5F84431A5F84E0140F27E530520C5F8F5
:10181000A4114FF41651A5F8463185F8760140F22F
:10182000EA531720C5F8A81140F6C411A5F84831AD
:10183000A98140F2B45340F6FF716075A075552040
:101840004FF02808A5F84A31A5F89A1132231E2135
:10185000E0704FF00B0C2D20A5F84C31A5F850315D
:10186000E1722173607385F8967185F89E7185F831
:10187000AC6185F8AD61AE7385F8976185F8C27487
:1018800085F8C374267084F8018084F80280E675B8
:10189000237184F805C04FF0140C84F806C084F856
:1018A000109084F811C04FF00E094FF0500C4FF01B
:1018B000640A84F8233084F8243084F82130152316
:1018C000A07684F8079084F81BC04FF00A094FF007
:1018D0005A0C84F81CA0207584F831304120634BE9
:1018E00084F808C04FF0780A84F81FC084F82000FC
:1018F00084F82510A4F826E084F82E20A673267616
:10190000E673667684F8129084F8098084F80AA059
:10191000A77784F822606685A685268584F82F80BF
:1019200084F830806363524BA363524BE363524BA2
:101930002364524884F84470192384F84530FFF733
:101940006DFD4FF44873A4F87A30C82384F8CF3083
:101950004FF49663A4F8D03040F2D933A4F8D230D3
:1019600084F8766084F8776084F8788084F87970F9
:1019700084F87C6084F8CE9023464FF47F72A4F8FC
:101980007E204FF4FA62A4F880201DF8062084F827
:101990008420013640F2DC51082EA4F8821004F1B4
:1019A0000A04EAD1012283F8D42083F8D52083F8F1
:1019B000D62083F8DC206422A3F8DE204FF4967250
:1019C000A3F8E0202822A3F8E2204FF07C52C3F8CD
:1019D000E420C3F8E8200F22A3F8F020A3F8F220B7
:1019E000A3F8F42040F26C72C820A3F8F62040F26D
:1019F0001452A3F8D800A3F8FA2014201E244FF0A4
:101A00007E5283F8DA0083F8DB40A3F8EE00A3F8F7
:101A1000F810A3F8FC60C3F80021522385F8C13404
:101A20000023EA1810330021C02B1161F9D10024E2
:101A3000281900F5DA700C494FF4827204F58274AB
:101A40000FF012FFB4F5437FF2D10020014602B03F
:101A5000BDE8F047FFF7FABD02B0BDE8F08700BF70
:101A60000C490108A02000209C1F00209A99193FD2
:101A7000F6287C3F3D0A773F0000A0401D49010841
:101A8000024B9A6822EA000098607047A02000206C
:101A9000014B00229A607047A0200020014B9868FB
:101AA000704700BFA020002038B5044C00252070EE
:101AB000E56108F09DFF2562606238BD9C2500202D
:101AC00007EE100AF8EEC77A9FED0A0A9FED0A7A30
:101AD000F5EEC07AF1EE10FAD8BFF1EE677A87EE34
:101AE000800A08B520EE070A0DF0FAFE034B83EDDD
:101AF000000A08BD8096184B35FA8E3C1400002071
:101B000010B5121A07EE902A5B1A2DED028BF8EE33
:101B1000E78A07EE903A184B059CB8EEE78AD3EDBA
:101B2000007A28EE278A28EE080AA8EEA80A0EF006
:101B30009FF9DFED127A049B20EE270AF0EE480AA7
:101B4000FDEEC07AB1EE680AC3ED007A0DF0EAFF4F
:101B5000DFED0B7A9FED0B7AE0EE077ABDEC028B9E
:101B6000FDEEE77A17EE903A002BBCBF03F50C436D
:101B7000A033236010BD00BF140000202C7D8E3FD9
:101B800000A00C46A00CB34507EE900AB8EEE77A29
:101B9000D2ED017A27EE277AD1ED007AE7EE007ACE
:101BA00010B5C1ED007A92ED037AF1EE476AFDEED1
:101BB000E77AFDEEE66ABDEEC77A0C4617EE102A0C
:101BC00017EE900A16EE901A06F000FA07EE100AC9
:101BD000F8EEC77AC4ED007AFDEEE77A17EE900AC8
:101BE00010BD000030B5002213460E49CC5C0D46F6
:101BF0009CB12E2C04D1013378B11D4400242C5407
:101C0000C95C0A246243A1F13004092C9CBF303A1C
:101C100052180E2B03D80133E7E7104630BD0020E1
:101C200030BD00BFBC02002038B50C4DEB7AA3B12B
:101C30000B4B1B78042B10D90A4B0B4C18685B68B4
:101C400063602060FFF73CFF084B1A88084B1A803E
:101C5000084B1B88A36001232B7338BD3E26002050
:101C60002227002004270020C0260020042800206E
:101C7000200300206026002010B5002213460E48E5
:101C80000E4C002119520E4819520E481444195294
:101C9000002020606160A0600B4C1444023320607F
:101CA0006160A060094C1444042B20606160A06056
:101CB00002F11402E3D110BD84050020D4020020FB
:101CC0006826002084260020840200205C03002077
:101CD0003A4BDFED3B7A58793A4AD97B07EE100A46
:101CE000B8EE477A987987EE277AF2EE046A82EDA9
:101CF000007A07EE101AB8EE477A3349D16087EEC2
:101D0000277A82ED017A07EE100AB8EE477A2F4A59
:101D1000187CD16087EE267A82ED007A07EE100AF1
:101D2000B8EE477A987E87EE277A06EE100A82EDA3
:101D3000017AB8EE466A9FED267AD87986EE076A70
:101D400082ED026A06EE100AB8EE466A214A587C15
:101D5000D16086EE266A82ED006A06EE100AB8EEC1
:101D6000466AD87E86EE276A82ED016A06EE100A80
:101D7000B8EE466A86EE076A82ED026A164A127C5F
:101D8000DAB11979154A987B1B7E06EE101AB8EE67
:101D9000466AC6EE266AC2ED006A06EE900AF8EEC2
:101DA000666AC6EEA77AC2ED017A07EE903AF8EEBF
:101DB000677A87EE877A82ED027A70479C1F00204F
:101DC0000000C842000300200000FA444403002041
:101DD00000007A44742500203E260020842500203F
:101DE000F7B506460020FFF75FFE4FF48070FFF75F
:101DF0005BFC00283ED0204D6E7008F0F9FD0024F9
:101E0000A8606C601D4D95F89E31A3420CBF012760
:101E10000327FFF75DFF1A4B009403EB06162146DC
:101E2000726818483B460DF087FA174B98600120FE
:101E3000FFF73AFE95F9A031042BC8BF85F8A04101
:101E400095F9A021531C114B0AD0114902EB420213
:101E500001EB420211689288C3F80A10DA8109E0A6
:101E60000C4A1168C3F80610981D5168C3F80A108F
:101E70001389038103B0F0BD9C250020A020002021
:101E8000EC4A010800100140142600200100002047
:101E9000454A01083B4A01082DE9F041194B1B78DE
:101EA000042B2BD1184D20236B83184B4FF4804209
:101EB0005A83174CA0680BF0EDFE50B120262E83FC
:101EC000A06827680BF0EBFE014638460BF0D2FE07
:101ED0006E8320680E4F0BF0DDFE0028E9D00B4C1E
:101EE0003868D7F808804FF4804626830BF0D7FE79
:101EF000014640460BF0BEFE6683DAE74FF0FF3046
:101F0000BDE8F0819C25002000080240000C024042
:101F10001426002073B51A4C036823600B686360B5
:101F2000184D0068184EFFF7CBFD184B009395E84D
:101F3000030094E80C000196FFF7E2FD6068696811
:101F4000134A33681360411A07EE901A114920684A
:101F500091ED007A2968104AF8EEE77A411A67EEA7
:101F6000877A1160FDEEE77AC2ED017A0B4A1360C1
:101F70000B4BB3F8DE200B4B1A8002B070BD00BFD4
:101F8000CC02002004270020880300209825002090
:101F90006C25002014000020B403002094030020CE
:101FA0009C1F0020B003002044F25063984203DDE0
:101FB000A0F50C40A0387047034B9842BCBF00F519
:101FC0000C40A030704700BFB0B9FFFF264BF0B502
:101FD0001D68024600F1100714782B1911465E782F
:101FE00006F00406013206F0FF036EB1BA42F3D1E7
:101FF0000020F0BD1BB103EB83035B00DBB210F8E4
:10200000012B303A1344DBB20A1A022AF2DC002216
:1020100081420AD91AB102EB82025200D2B210F800
:10202000016B303E3244D2B2F2E72E2C0FD14C1C61
:10203000042000210A2671432678AF197F787F0794
:1020400002D53039013431440138F3D100E00021A8
:1020500006484243642000FB012106240448B1FBEA
:10206000F4F100FB0310F0BD9001002040420F008E
:10207000809698002DE9F04F964C2DED048BA368C7
:102080008BB0D3B9944E3378013B042B00F2E78632
:10209000DFE813F0FD05FD05FD05D706BA068D4BFB
:1020A00098680BF0FCFD8D4B93F89E31012B054693
:1020B00000F0348107D3022B05D0A0680BF0EAFDB5
:1020C0000028ECD1DEE7242D0CD006D80A2D00F034
:1020D0009A800D2D00F09780E8E02A2D0AD02C2D53
:1020E00008D0E3E07E4A002313707E4A13707E4AD4
:1020F0001370ECE07B4FDFF8E8813A787B4B98F87F
:102100000060002199547A4AEEB91978167047296F
:1021100019D15978502916D19978472907D1D978FA
:10212000472904D11979412901D1012111709878E9
:102130006E49522807D1C8784D2804D1097943291E
:1021400004BF022111701278012A02D0022A39D06C
:102150004EE0B21E072A4BD8DFE802F0040A12183C
:1021600020284A2E6148FFF731FF624B18603FE09C
:102170001B78532B3CD15F4B1A6852421A6037E0F0
:102180005A48FFF723FF5B4B586031E01B78572B11
:102190002ED1584B5A6852425A6029E01A78564B51
:1021A000302A94BF00220122DA7221E00020FFF7DA
:1021B00019FD504B18721BE00020FFF713FD4D4B2B
:1021C000588115E0072E07D0082E11D10120FFF706
:1021D00009FD484BD8810BE00120FFF703FD41F2D8
:1021E00018434FF47A725843B0FBF2F3414A93819B
:1021F000013600232A2D88F800603B7061D13F4AE8
:102200000121117063E03D4E3378002B4BD03749EC
:102210000B78402B04D9A3F137021201D2B202E0AD
:102220001B0103F0F0024B78402B8CBF373B303B57
:10223000DBB213442C4A1178DBB2994232D12C4BD9
:102240001D78012D09D0022D2CD12A4B2C4A9989B9
:102250001180DA892B4B1A8024E0DFF89C8098F8F3
:102260000B300BB901231EE0224A274B116819607D
:1022700051685960254B117A254F197004205389F4
:102280003B80FFF7F1F90028ECD198F81030002BD3
:10229000E8D0204B3A889B68D21A64235A431E4BDD
:1022A0001A60DFE700230022327010E00D4A137835
:1022B0000E2B03D8591C11700C4AD5540F4B1B78A8
:1022C00023B9094A11784D40157000E0002303F04E
:1022D00001037EE1142600209C250020A020002080
:1022E00011030020840300209C030020BC02002076
:1022F00034030020240300203E260020800200201A
:1023000088260020BE050020042700202227002068
:1023100060260020C0260020E8250020944B197874
:102320000022082900F25481DFE801F00A051117A4
:10233000253350697400622801D1022205E01A7029
:10234000B52D40F045811A7801321A7040E1032220
:102350001A70884B1870884B0BE0864904221A705B
:10236000854B0A7818782A44D2B20A7002441A704F
:10237000824B1D702CE17F4905221A707E4B0A7832
:1023800018782A44D2B20A7002441A707C4B1D801D
:102390001EE1784906221A70774B0A7818782A4489
:1023A000D2B20A7002441A70754B1A8802EB0525E6
:1023B000ADB2B5F5007F01D81D8003E000221A8080
:1023C0006B4B1A706F4A0023138002E169486A4A16
:1023D000017816782944C9B20170314411706949F5
:1023E0000A88C72A9CBF68488554013292B20A8085
:1023F00063490988914240F0EB800722A5E7082253
:102400001A705C4B1B78834200F0E280584A00232C
:102410001370DEE01A70584B1B78834240F0D8806E
:10242000564B1B78062B4AD004D8022B12D0032B14
:1024300035D0CDE0122B55D0302B40F0C980524B17
:102440001A79524B102A88BF10221A7019784E4AF6
:1024500000236DE04C4B4E4A5968516099681160F9
:102460001A694C4D4C4E4FF47A7392FBF3F32B8068
:102470004A4B1B78F3724A4B012204201A70FFF773
:10248000F3F8002869D1337C002B66D0454B2A88AD
:102490009B68D21A64235A43434B1A605DE03A4A60
:1024A000537913F0010303D01379D81E43424341FB
:1024B0003A4A1370002B50D1374AD3724DE0324B59
:1024C000DA7A12F0010203D09A7AD11E4A424A41C6
:1024D00032490A700AB93049CA7293F82F20334B37
:1024E0001A703AE0284B324E5A6932809A69314D5F
:1024F00042F2107392FBF3F32B802F4B0122082042
:102500001A70FFF7B1F840BB234B1B7C2BB3338809
:10251000642B22D92A880A23B2FBF3F2274B91B20B
:10252000198009B2B32918DDA2F5B4721A8014E03B
:102530008B4202F10C0210DA214812F8045C1D549F
:10254000204812F8035C1D541F4812F8015C1D540A
:102550001E4815781D540133EAE711490B78BBB3C7
:10256000154B1A78A2B300221A700A70012330E0CA
:102570001D030020100300201E0300208102002004
:10258000BA020020FC020020C00300202327002004
:1025900004270020602600203E260020A8030020FB
:1025A0001C030020C0260020E82500202227002050
:1025B00088260020BE0500209D030020042800205E
:1025C0002C260020E62600200C270020562700207D
:1025D0000023002B3FF471AD9A4DAB68EB6008F01F
:1025E00007FAA8602020FFF749F8974B1A78012ACC
:1025F0000CBF002201221A70944BDA7A002A3FF4B1
:102600005CAD934A1278042A7FF657AD5A7812B916
:10261000197C01B91A731B7B13B90AB1FFF704FBCC
:102620008C4B8D4D1A784FF0050E013292FBFEFE59
:102630000EEB8E0ECEEB020E83F800E0874B1B787C
:102640000293874B03EB8E0E0023864A86499858E7
:10265000DFF85082854E585090FBF8F1995103EB0A
:10266000830A834EDFF8409206FB010053F809709D
:102670005EF80A604EF80A00BF1B42F2107C90FB25
:10268000FCFC0526384443F8090090FBF6F008FBF3
:1026900001017848195002981FFA8CFC012803EBBD
:1026A000020B25F802CF164606D1ACF1020CBCF5A0
:1026B000797F98BFCBF800100433082BC5D16E4F3B
:1026C0006E4DDFF888A108F093F93B689FED6C7AB6
:1026D000C01A05EE100AF8EE457AB7EE008AC7EE8A
:1026E000877AC5ED007A08F083F9D5ED007A386075
:1026F000F4EEC87AF1EE10FA58BFF0EE487A06AA66
:10270000C5ED007A5F4B009207AA019296E803009C
:102710000CCBFFF7F5F9069A5B490798642392FB07
:10272000F3F20A80594A90FBF3F313809AF80C30C5
:102730002F460BB90B8013805549564B0A78002A57
:102740003DD0D5ED007A30681A68C8EE277A821A33
:1027500070684FF0020807EE102AB8EEC77A5A6880
:1027600027EE277A801ABDEEC77A4B4A17EE10BAC9
:1027700007EE100AD2ED006A484AB8EEC77AB2F9FD
:1027800002E0B2F9009027EE267A09FA8BF067EEA4
:10279000277A90FBF8F0FDEEE77A80B217EE90CA48
:1027A0000EFA8CFE9EFBF8FEDFF800C110801FFAC7
:1027B0008EFEACF802E0ACF80000A2F802E00122C4
:1027C0000A7030687168596018609AF8083023B947
:1027D0001E4BDB79002B3FF470ACDFF8D480DFF8C0
:1027E000D490DFF8D4B0CDF80090CDF804B098E8DC
:1027F0000C00FFF785F9D8F804107268284B8A1A84
:1028000007EE902A244AD8F8001092ED007A326838
:10281000F8EEE77A8A1A67EE877A1A60FDEEE77AB1
:102820009AF81020C3ED017ADFF830A012B102222D
:102830008AF800209AF90020012A3FD0022A00F0ED
:10284000D0803AE49C2500203C0600203E26002053
:1028500022270020BC0300203E0300203A05002070
:102860005802002004270020A00300203803002085
:10287000806967FFB0020020AC03002054030020F1
:1028800000007A44C0260020BE260020CC2600206E
:10289000850300201403002014000020980300206A
:1028A000B4030020809698008C0300205803002079
:1028B000CC02002098250020880300207C4E0025B3
:1028C00053F815007B4ADFF820A2D2ED007A35F8E4
:1028D0000A20DFF81C9297ED000ADFF8108205EE5F
:1028E000100AB8EEC57A15EE101A67EE277AFDEEDB
:1028F000E77A17EE900A801A6F4A80B2A85200B2A7
:1029000007EE900AB8EEE77AD9ED007A049367EE05
:10291000277A0844FDEEE77A31464A4617EE90BA28
:10292000FFF732F96549DFED665A91F8DA10049B3A
:1029300097ED007A53F81520D6ED027AD9ED026AA8
:1029400006EE101AB8EE466A7168726026EE256AC5
:10295000511A88EE066A1FFA8BFB584425F80800C6
:102960004FF4FA6205EE101A36EE076AF8EEC55A11
:1029700087EE066A534985EE877A37EE677AE6EE88
:10298000077AC6ED047AC6ED027A66EEA77A04935A
:10299000FDEEE77A17EE900A05F018FB35F80A20ED
:1029A0004949313292B2622A35F8082098BF002096
:1029B000104480B225F8080040F6B83200B205F0A5
:1029C00005FB424A28F805000A2101FB05220235D1
:1029D00056F8141B1160042D049B7FF471AFFFF7B0
:1029E0006CBB99ED009A354B19EE100AB3F9E080F3
:1029F000374B90FBF2F29045A8BF90461A881FFA19
:102A000088F80FFA88F011B288420EDD95ED007A51
:102A1000DFED307A67EE277AFDEEE77A17EE908ADF
:102A200090441FFA88F8A3F800802B4BDBF8005085
:102A30001B68C3EB050B5846FFF7B6FA002841F2B6
:102A4000931201DD904201E043429342CCBF002348
:102A50000123DFED228A224E002B4BD005EE10BA67
:102A6000B8EEC50AB8EEC99A20EE280A0CF0BEFFEF
:102A700020EE090A1B4B1449BDEEC00A40F6B832DD
:102A800010EE100A80B2188000B205F09FFA48F6E6
:102A9000A0432844984203DDA0F50C40A03804E090
:102AA0000028BCBF00F50C40A030306023E000BF20
:102AB0008402002000030020AC0200209C1F0020A4
:102AC000DB0FC94030F8FFFF48F4FFFF5C03002034
:102AD000B00300200000C84294030020D30237391D
:102AE0006C250020B8020020580300208426002016
:102AF0004403002035603368AF4EC3F50C532833D0
:102B000007EE103AF8EEC77A002567EEA88AB0EE15
:102B1000680A0CF0E5FE8DED090AB0EE680A0CF0CB
:102B200065FF8DED080AA54ADFF8D0B2AA5E0FFA5C
:102B300088F10AA807EE902A07EE101A00EB450369
:102B400053ED026A9E49B8EEC77AF8EEE77A4FF481
:102B50007A72D6EE877AFDEEE77A17EE900A80B2A7
:102B600025F80B0000B205F031FA80B225F80B0011
:102B700000B2944B97ED000AD3ED007A049305EE72
:102B8000100AB8EEC57A314667EE277A1A46FDEE8E
:102B9000E77A17EE90CA1FFA8CFCCDF814C0FEF746
:102BA000F3FF35F90B20DFF858B2DFED875A9BF8B9
:102BB000DA10049B97ED007AD3ED026A7368D6EDC4
:102BC000027ADDF814C0726006EE101AB8EE466A9A
:102BD000D31A26EE256A05EE103A88EE066A84447A
:102BE0007A4B7B4940F6B832F8EEC55A36EE076AA2
:102BF00087EE066A85EE877A37EE677AE6EE077A21
:102C0000C6ED047AC6ED027A66EEA77AFDEEE77AA3
:102C100017EE900A604480B2E85200B2049305F0C7
:102C2000D5F9049B58536B4B0A2202FB053302353E
:102C300056F8142B1A60042D5B467FF474AF93F89A
:102C4000DC2032B1644A1168642291FBF2F1634ADC
:102C50001180B3F8D830D9F800209A420EDD604BCD
:102C60001868604B1B68C01AFFF79EF942F2107398
:102C70000028B8BF404298427FF71FAA01238AF874
:102C80000030594B1A88554B1A80FFF716BA574B2C
:102C900093F89E71984617B1012F09D088E0727899
:102CA000534BA06803EB021359680AF0FDFF7CE068
:102CB000A068DFF850910AF0FCFF002878D0337844
:102CC0004C4D022B3BD0032B44D0012B70D107F08D
:102CD0008FFE6B6AC31A632B074669D9EB69042B15
:102CE0002BDC0820FEF7E0FC414D90B9F369A068A9
:102CF00005EB031359680AF0D7FF7378A06805EB5A
:102D00000315A9680AF0BBFFF36977620133F36129
:102D10004EE04020FEF7C8FC0028E7D098F88C3140
:102D2000002BE3D1F36905EB03135B68B3F5964F12
:102D3000DCD9304B0322DA61D8E7022036E06A782A
:102D40002B4BD9F8080003EB021359680AF0ACFFCB
:102D500003202BE02B69012B0DD0022B25D03BBB90
:102D60002A6A254B2F6153F83210696103EBC203C5
:102D70005B68AB611CE0EB69AA69934209DA6A6996
:102D8000D9F80800D15C0AF075FFEB690133EB61FB
:102D90000EE02A6A184901322A6251F832200023D3
:102DA000EB6102B902232B6102E00420FEF77CFEF6
:102DB0000023736053E000BF5C0300205803002031
:102DC00018FCFFFF74250020DB0FC940842600207B
:102DD00048F4FFFF840200206C250020C427002057
:102DE000880300209403002020030020A02000205E
:102DF000EC4A01089C25002028490108AC0200206B
:102E00009C1F0020142600207268174B013272604C
:102E1000164A92F8A1214AB15A780132D2B205215C
:102E2000B2FBF1F101EB8101521A5A7007F0E0FD9B
:102E30000F4AB060002313700E4A3361D372012031
:102E40000BE007F0D5FDB36840F6C412C01A9042FB
:102E500005D92020FEF71AFC0520FEF725FE0BB051
:102E6000BDEC048BBDE8F08F9C250020A020002045
:102E7000222700203E26002038B5294D2DED048B59
:102E8000D5ED008AB0EE680A04460CF029FDB0EEDC
:102E9000408AB0EE680A0CF0A9FD95ED019AF0EEBB
:102EA000408AB0EE490A0CF01BFDF0EE409AB0EEFD
:102EB000490A0CF09BFDD4ED017AD4ED026A67EE6D
:102EC000A80AB0EE407A60EE870A28EEE60A66EEBF
:102ED000876A94ED007AE7EE290AA7EE880AE6EE03
:102EE000880A0CF01FFEDFED0F7A9FED0F7A0F4B73
:102EF00020EE270A80EE070A93ED007A30EE070AEB
:102F0000B2EE047A80EE070A0CF026FDBDEC048BCD
:102F100083B21A0444BF00F5B4739BB218B238BD33
:102F2000E80400200000E144DB0F4940C404002015
:102F300038B5284CDFED287A94F84530274D00EE5F
:102F4000103AB8EEC00A20EE270A0CF0C9FC2B8814
:102F500007EE903AF8EEE77A27EE800A0CF0FCFCD8
:102F60002D889FED1F7A1F4B07EE905AF8EEE77AF7
:102F70001880C7EE277A1C4B08209FED1C7AC7EEFD
:102F8000877A9FED1B7AC3ED007AB4F87A3007EEAA
:102F9000903AF8EEE77A174BC7EE277A9FED167A4C
:102FA00067EE877A94ED107AC3ED007ADFED137A3D
:102FB000134B67EE277AB6EE007AC7EE277AC3ED99
:102FC000007AFEF751FB18B1BDE8384003F048BE67
:102FD00038BD00BF9C1F002035FA8E3C3E0000200B
:102FE0000AE81C4118050020DC25002000401C4692
:102FF00000006144002600204C3D0F44DB0F494097
:103000000426002090ED010A90ED007AD0ED027ABE
:1030100020EE000A38B5A7EE070A04460D46A7EED3
:10302000A70A0CF025FFB5EE400AF1EE10FA11D018
:10303000D4ED007AC7EE807AC5ED007AD4ED017A3E
:10304000C7EE807AC5ED017AD4ED027A87EE800A68
:1030500085ED020A38BD38B52DED0A8B91ED008A59
:1030600090ED00AAD0ED01AA90ED029AB0EE480AC8
:1030700004460D460CF034FCF0EE409AB0EE480ADF
:103080000CF0B4FC95ED018AB0EE40BAB0EE480AFF
:103090000CF026FCF0EE408AB0EE480A0CF0A6FCDC
:1030A00095ED02CAB0EE408AB0EE4C0A0CF018FC66
:1030B000F0EE40BAB0EE4C0A0CF098FC6BEE005A01
:1030C0002BEEA97AB0EE655AA7EE485AA5EEC87A5B
:1030D00020EE296A6BEE2B7A2AEE877A28EEC00A58
:1030E000F0EE466AE7EE886AAAEE007AE6EE087A23
:1030F0006BEEA8BAA9EE277A6BEE687A6AEEA66A3A
:103100006AEEA77AEAEE2B6AEAEE087A68EEA98AF6
:10311000E9EE056AE9EE287ABDEC0A8BC4ED006A97
:1031200084ED017AC4ED027A38BD80EAE073A3EB46
:10313000E0738B4206DB002801DD401A704702D0A5
:103140000844704700207047F0B506EE900A2DED58
:10315000028B564BDFED567A9FED567A564DF8EEC0
:10316000668A87B068EEA78AD3ED007AF1EE677AB7
:10317000CDED007AD3ED017A504BB3F90030F1EE8A
:10318000677ACDED017A07EE903A4D4BF8EEE77A8B
:10319000B3F9002067EEC77A0646CDED027A07EE56
:1031A000902AB3F90220B3F90430F8EEE77A03A8C5
:1031B000CDED037A07EE902AF8EEE77A6946CDED79
:1031C000047A07EE903AF8EEE77ACDED057AFFF74C
:1031D00042FF95F84430DDED057A012B1BD1394BC8
:1031E0005A78394B72B91A68402192FBF1F1511AA1
:1031F00007EE101AB8EEC77A37EE277ABDEEC77A17
:1032000083ED007A1A68402392FBF3F306EE903ABE
:10321000B8EEE67A05E02D4B1B8807EE103AB8EEC3
:10322000C77A77EEC77A2A4ACDED057AD2ED007AD1
:10323000284B294C93ED008A9DED030A276878EE10
:10324000A77AC8EEA78ADDED057A77EEC87AA8EEF0
:10325000A78A83ED008A0CF07FFB95F83010FFF70A
:1032600064FF9DED040A3844206067680CF074FB2D
:1032700095F83010FFF759FFB0EE480A3844606007
:10328000A7680CF069FB95F82F10FFF74EFF134B62
:103290001A6816441E60124B1A6838440132A06046
:1032A0001A6007B0BDEC028BF0BD00BFE80400203F
:1032B000BD37863535FA8E3C9C1F0020042800203F
:1032C000F82500203E260020AC0400203E0000200F
:1032D000042600209C040020D025002004050020A6
:1032E0001C0500202DE9F0472DED028B84B003F082
:1032F00017FB002800F0578107F060FBAC4BAD4F87
:103300001968AD4A1860C1EB000A07EE90AAAB49F4
:1033100097F82E00B8EE676AD1ED037A002326EE07
:10332000276A194601AD05EB4304A54D5E5F07EE24
:10333000906AF8EEE77AA34E67EE867AC4ED007ADB
:10334000A14CD8B107EE900AB8EEE77AF7EE006A22
:1033500086EE877AE45E07EE904AF8EEE77A67EE4B
:10336000877A36EEC77AD2ED006AE6EE877AC2ED4A
:10337000007AFDEEE77A17EE904A00E0E45AF45244
:10338000F45A0233062B14FB041102F10402C9D1D2
:103390008E4B8F481B88DFF87482642461435B4343
:1033A00091FBF3F4493CA4B201A9FFF754FE3B2C76
:1033B000874C5AD9874BD4ED020AB3F9003094ED0B
:1033C000010A854EDFF8489207EE903AF8EEE77A68
:1033D000824BF4EEE70AF1EE10FAD4BF002201228C
:1033E0005A730CF09FFB94ED027AD4ED017A86EDCE
:1033F000000A27EE070A94ED008AA7EEA70A0CF050
:1034000037FDB1EE488AF0EE400AB0EE480A0CF003
:1034100089FB9FED738A86ED010A96ED000A20EE86
:10342000080A0CF099FA96ED010AA9F8000020EEBE
:10343000080A0CF091FAA9F802000820FEF714F926
:10344000002844D0674801A9FFF705FEB8F86431A9
:10345000644A07EE103AB8EE477AF7EE007A37EE94
:10346000276A002387EE866A1EE0B8F8621107EE2D
:10347000101AB8EE477AF7EE007A37EE276A22463E
:1034800087EE866A0023F15E0233062B07EE901A60
:10349000D2ED006AF8EEE77AE6EE877A67EE866AA2
:1034A000E2EC016AEFD185E74F49D2ED006A595E3F
:1034B00007EE901AF8EEE77A0233E6EE877A062BEB
:1034C00067EE866AE2EC016AEED1464808E04748BA
:1034D00001A9FFF7C0FD45480146FFF793FD4348AA
:1034E000FFF7CAFC424B18805046FFF72DFE97F8B5
:1034F0007C30002B3ED094ED010AD4ED007A94ED9F
:10350000028A3C4C20EE000AA7EEA70AA8EE080AA1
:103510000CF0AEFC88EE000ADFED377AB4EEE70A75
:10352000F1EE10FA02D80023238023E00CF09CFA7D
:10353000324BD3ED007A20EE270A0CF00DFAB0F5ED
:10354000617FA8BF4FF4617007EE900AB8EEE70AFA
:10355000DFED2B7A80EE270A0CF048FA154B93F832
:103560007C3007EE903AF8EEE77A27EE800A0CF00E
:10357000F3F9208098F80530012B224B0DD1224A17
:10358000B5F904001488022114FB0101032091FB0A
:10359000F0F189B29980118001E0AA889A802A8886
:1035A0001A806A885A8004B0BDEC028BBDE8F087AF
:1035B000DC0400209C1F002008050020C8270020F4
:1035C000C8250020F8250020E02500203E0000202E
:1035D0000826002018050020E80400203E260020D0
:1035E0004C3D0F4488040020EC2500201C000020E6
:1035F00004280020BA0400208FC2753C0026002059
:10360000EFB6B044B4040020DA040020A02000206B
:10361000B0040020044A0023136053609360034AFF
:103620001360034A13607047D02500201C0500205A
:10363000040500202DE9F84F2DED048B07F0BEF9AD
:10364000BB4BB3F802A0B3F800B0BA4B1A68821AA9
:1036500009EE902A19EE901A46F2A712914240F212
:10366000EE81B54E18603388DFF84493B34C9FED7C
:10367000B49AB44FDFEDB48AB44DDFF83883B7EEB7
:10368000008A53B3B24894F83130D9F80010026878
:10369000DFEDB00A013BB1FBF3F1082392FBF3FE2F
:1036A000CEEB02020A4492FBF3F306EE103AB8EEB8
:1036B000C60A026080EE090A0CF036FA00232B607D
:1036C000C8F800303388013B338038EE400A20EEE2
:1036D000280ABDEEC00A87ED000A94F83130D9F807
:1036E0000020DFED9C0A9C4E013BB2FBF3F306EE9B
:1036F000903AB8EE660A0FFA8BFB80EE090A0CF0DE
:1037000013FA0FFA8AFABBF1000FB8BFCBF1000B26
:10371000BAF1000FB8BFCAF1000AD345A8BFDA4614
:103720001FFA8AFA38EE400A20EE280A0CF014F943
:103730003B68D4ED0D7A96ED006AC01A06EE900A49
:10374000B8EEE60A78EE676AB8EEC67A20EE260A88
:103750000FFA8AF7A7EE270A0CF0FEF8FA2F7F4B34
:1037600003DD4FF0FF321A6013E093ED007A07EEAD
:10377000907AF8EEC76AB8EEE77ADFED797A37EE3D
:10378000C77A26EE877AC7EE277AFDEEE77AC3ED91
:10379000007A1B685A1EC62A724A03D8C01A1060E3
:1037A000336025E01268002BC2EB000030601FDDA3
:1037B000C3F5967107EE101ADFED6B7A6B4AB8EE1F
:1037C000C77A06EE103A87EE277A634BF8EEC66AA0
:1037D00006EE100AF8EEC67A38EE476A82ED007AF5
:1037E00067EE867AE6EE877AFDEEE77AC3ED007A39
:1037F0005F4BDFED605AD3ED007A5F4B94ED0F6ABB
:10380000D3ED026A5D4B5E4A93ED007A5D4B116821
:10381000F8EEE66AB8EEC77AF8EE677AC6EE878AFF
:10382000914693ED007AD5ED006A336828EE877AE9
:1038300067EEA55A27EE277AB6EE005A66EEA57A0D
:1038400027EE055AC91AE5EE257A09311229D8ED75
:10385000005A98BF136077EEA55A07EE903AB8EE7B
:10386000E75A78EE467A36EE877A65EE277A85ED66
:10387000007AE5EE867AC8ED007AFFF7CBFE424B80
:10388000326819689FED417A1A60511A07EE901A52
:10389000F8EEE77AF8EE699A67EE877A40F2DC5242
:1038A000C7EEA99A3A49FDEEE99A19EE900A04F09A
:1038B0008DFB0A21FFF739FCD4ED0E7A95ED007AE5
:1038C00006EE100A38EE678AB8EEC60A20EE080A3D
:1038D000A7EE270A85ED000A0CF03EF80521804688
:1038E000FFF723FC2B4B2C4D1860B7F5487F2B4F6F
:1038F00080F29F802A4B1B78002B5DD1294B2A49EF
:103900001868D9F800304FF4FA72C01A04F05EFB60
:103910000A21FFF70AFC094B24491B7980225843EE
:1039200090FBF2F04FF4967204F050FB46E000BFBB
:10393000B0040020FC0400202E0900209C1F002061
:1039400080E6C547BC040020D048874AA404002074
:1039500098040020B1DC423ECC0400201800002076
:1039600000006144940400200000C842A00400202C
:1039700004050020BD378635D02500201C05002019
:10398000E8250020DC2500201405002000247449CF
:1039900024FAFFFF00050020F4040020E4040020C6
:1039A000E0040020F42500200CFEFFFFD4FEFFFF02
:1039B000F8040020C8040020234B1868C8EB000856
:1039C000A07A2249224E202308FB00F090FBF3F05E
:1039D0004FF4967204F0FAFA33682860207D1D498E
:1039E0001D4A08FB0030306004F0F0FAA47F97ED28
:1039F000007A306007EE904A38EE877AF8EEE77A80
:103A00002B6867EE877A9FED157A67EE877A42F228
:103A10000406FDEEE77A90FBF6F61E4417EE900AD8
:103A20006FF0950196222E6004F0D0FA301A2860CB
:103A300001E000232B60C7ED008A012000E0002098
:103A4000BDEC048BBDE8F88FF0040020D4FEFFFF2E
:103A5000C0040020E0FCE6FF200319000000003B4A
:103A60002DE9F041012086B007F0AAFE07F050FFD3
:103A70000028FBD0A34BA44CA44E012200201A60C6
:103A8000FDF724FEFDF772FD0AF048FF0BF086FDFE
:103A900094F88131306033B103F0F702012A02D18A
:103AA0008DF8003004E000238DF8003084F8813177
:103AB000684609F065FB0220FDF7F6FD08B102F04B
:103AC000A3FE09F065FB09F06FFC4FF40040FDF721
:103AD000EBFDA8B10AF078FF8D4B4FF400425A83FA
:103AE00014278B4D6B6983F400436B611920013FF0
:103AF00006F08FFF17F0FF07F3D14FF400436B83FD
:103B000004F07CFA0F20FDF7B9FD02F0DBFD012087
:103B1000FDF7AAFD10B9032006F086FF00237D4AB9
:103B200040F2DE5199520233242BF8D17A4B7B4A72
:103B30001A6008207075FDF7B7FDB8B194F88A31A6
:103B4000042B13D8DFE803F00303070B0F007248C0
:103B500002F0ECFC0AE0704802F0DCFB06E06E4884
:103B600002F060FD02E06C4802F092FB4FF400604E
:103B7000FDF79AFD10B16A4804F056FB4FF48070CF
:103B8000FDF792FD18B194F89F01FEF729F94FF463
:103B90000020FDF789FD08B105F09AFA614B20225B
:103BA0005A835B4A4FF48041118314279846D8F812
:103BB0001430574D83F02003C8F81430192006F054
:103BC00028FF6B6983F480436B611920013F06F085
:103BD00020FF17F0FF07EAD1524B20221A834FF43F
:103BE00080436B8303F0C4F9FFF7A2F901F024FED0
:103BF0004FF48070FDF758FD08B9002308E0082055
:103C0000FDF752FD0028F8D0F368003318BF0123F8
:103C10004FF480308DF80730FDF746FD8DF8080031
:103C20000120FDF741FD18B90820FDF73DFD00E03A
:103C3000012000F001008DF805000820FDF734FD9B
:103C40008DF806004FF40040FDF72EFD8DF80400BE
:103C50002020FDF729FD20B963795D1F6B426B4180
:103C600000E001238DF809306379591E4A424A4128
:103C7000B3F10E00434243418DF80B30B4F84E319E
:103C8000ADF80E30B4F85031ADF810304FF480403C
:103C90004FF47A738DF80A20ADF81230FDF704FD69
:103CA00020B1194BB3F84A31ADF81230BDF80E30DF
:103CB000B3F5FA7F84BF0023ADF81230B4F88E312B
:103CC000ADF81430184B01A8B3F8D230ADF8163067
:103CD00009F0BEFE06F072FE144B18606379052BE6
:103CE00003D1134B4FF4C8721A80124B4FF47A72FF
:103CF0001A80114BC8221A80104B01225A7300F00F
:103D00007FFFFCE720050020A020002014260020D3
:103D1000000C02402C270020C0050020154B000895
:103D200000480040000802409C1F0020B005002011
:103D30002C090020400900202E0900203E260020EA
:103D4000054B20225A834FF48042A3F81A244FF4E3
:103D50000042A3F81A24FEE7000802402DE9F04FC4
:103D6000854BB3F90220B3F9003087B0002AB8BF01
:103D70005242002BB8BF5B4200249A42B8BF1A4699
:103D800005922546A0462746A446A2462646DFF8C9
:103D900000B29BF803301BB99BF80430002B40D0D5
:103DA000022E3ED0754B7449B3F86821744B485FBE
:103DB0005B5FDFF8E091514203EB400004F006F94D
:103DC000704B99F81C2035F903C005EB0903CCEBC7
:103DD0000000B3F92A3000EB030C99F80800CDF885
:103DE00010C000FB0CF064236FF00401514390FB02
:103DF000F3F002EB820204F0E9F8634BDDF810C047
:103E000062498246E0580393604442F2107204F023
:103E1000DDF8039B99F812C0E0500CFB00FC4FEA60
:103E20002C3C9BF8033023B1594B1B790BB9022E64
:103E300040D1584BDFF840B1DFF884813BF9057081
:103E4000554906EB030907EB870099F8013000019B
:103E500090FBF3F0514BEA5E801A54F8082003936C
:103E600010444FF47A52CDF810C004F0AFF8039B21
:103E700048F80400EB5EDDF810C0002BB8BF5B42D1
:103E8000B3F5207F08DC022E09D1BBF90430002BEA
:103E9000B8BF5B42642B02DD002348F8043058F8B9
:103EA00004207D2392FBF3F899F80B3003FB08F80C
:103EB0004FEAA818364B1A79A2B1022E12D0DDF8BB
:103EC0001490C9F5FA7309FB07F109FB08F003FB2D
:103ED0000A114FF4FA7203FB0C0391FBF2F193FB0E
:103EE000F2F308E0DB780BB1022E02D143463946EB
:103EF00001E0634651462A48284A16F800B0AA5AFB
:103F00006FF04F0012FB0BFB9BFBF0FB5944019140
:103F10002449685E6A520FFA82F9C0EB0900224A0E
:103F2000DFF8A090A15854F809B0A0501F4A44F8F7
:103F300009108B44B25CCDF808B0834402FB0BF14E
:103F4000202291FBF2F1019A581A1044184AA85203
:103F5000184A0198A050184A0136A350174B4942FD
:103F6000032EE15005F1020504F104047FF40FAFC4
:103F700007B0BDE8F08F00BFAC260020A0200020D5
:103F800084050020B004002040050020F0D8FFFF89
:103F90003E2600209C1F002080C1FFFFB4040020AB
:103FA00053270020900500204805002050270020BE
:103FB000B8260020F826002054260020A026002045
:103FC00040060020600500202DE9F84F002425461A
:103FD0002746022F434EDFF83C8107D196F8243064
:103FE000B8F904201B3353435B1122E038F9050074
:103FF0003D494FF4FA72400003F0E8FF3B4BEB5EA3
:10400000C01A7319B3F92A201044394AD3786BB90E
:1040100096F8233038F9051012791B334B431B11E6
:104020003AB1B27C504303EB202302E0337A43439E
:104030001B11304ADFF8E0B035F90280DFF8DC9080
:10404000BBF800002C493E44C8EB0308F27A54F850
:10405000093096F801A000FB08F0C01202FB003006
:104060004FF4001244F8090003F0B0FF234BDFF8CF
:10407000B0C0E15844F80380BBF8003044F80900B0
:104080004FF6FF721B09B2FBF3F31D4AC1EB0801A7
:104090000AFB08FA594354F8028054F80C3044F8EB
:1040A0000C808911A1504344727D0B444FEAEA1AF7
:1040B000401353431B12134A0AEB00011944A9523F
:1040C000114A44F802A0114A0137A050104A032FA8
:1040D000A35005F1020504F104047FF47AAFBDE8B2
:1040E000F88F00BF9C1F00200CFEFFFFB0040020D3
:1040F0003E260020B40400200000E0FF2C05002034
:10410000E0050020B8260020F826002054260020D4
:10411000A0260020AC260020BC0500204006002080
:1041200030060020000000002DE9F04F2DED0A8B35
:10413000D74BD84A18889FEDD89A9FEDD8CAD84F48
:10414000DFEDD8BA83B0012103F040FF07EE100A7B
:10415000B8EEC7BAD44B2BEE099A1A7939EE0CCACD
:10416000994689EE0CCA72B3B7F90030B7F902204C
:1041700083EAE371A1EBE37182EAE270A0EBE27003
:104180008842ACBF04460C46B4F5E17F1EDA884293
:10419000DFEDC67A08DD002A02DD07EE102A07E00F
:1041A000524208EE102A09E0002B04DD07EE103A17
:1041B000B8EEC78A04E05B4208EE103AB8EEC88A4F
:1041C00088EE278A04E0B0EE6B8A01E0B7EE008A41
:1041D000DFEDB49A002425462646F0EE69AADFF802
:1041E00018B335F90B300AEE103AB8EECAAAF5EE5C
:1041F000047A2AEE27AA7B5FDFEDAD7ABDEECAAA6C
:1042000008EE903AB8EECAAA99F803302AEE27AA27
:10421000F8EEE88ADA461BB9A34B1B79002B6ED067
:10422000A44BDFF8CC82B3F86821A34BEB5E07EE1A
:10423000903AF8EEE77AB0EE007AE8EE877A5142EB
:10424000FDEEE77A17EE900A03F0C0FE9B4B05EBFC
:104250000802EB5EB2F92A20C01A831807EE103A62
:1042600098F81C3007EE903A98F8083006EE903A2D
:10427000F8EEC79AF8EE677AF8EE666AB1EE047A5D
:1042800067EE877A69EEA66A9FED8D7A66EE876A99
:10429000B1EE677AFDEEE66ABDEEC77AFDEEE77A2B
:1042A00017EE101A17EE902A16EE900A03F08EFE03
:1042B000844B2344D3ED007A0193E9EE897A6FF0C1
:1042C0001D011E2207EE100AFDEEE77AF8EEC7AADE
:1042D00017EE900A03F07AFE98F81280019B07EE21
:1042E000100A09EE908AF8EEC77AF8EE699A9FED07
:1042F000767AC3ED007A67EEA99A69EE879A99F803
:104300000330002B5CD13BF90530DFF8F081DFF89A
:10431000E0B1002BB8BF5B42B3F5206F08EB04039C
:1043200002DDC3ED00BA26E00BEB0602DFED677A93
:10433000527807EE102A68EEA77AB8EE477A87EE31
:10434000877AD3ED007A019337EE4A7AE7EE097A5D
:1043500017EE900A0DF0E2FD9FED491B41EC100BAA
:104360009FED492B03F03AFE07EE100A019BF8EE91
:10437000C77AC3ED007A0BEB060208EB0403D27A8E
:10438000D3ED007A99F8043000EE102AB8EE400A16
:1043900020EE270ADFED4E7A20EE270AA3B178EE51
:1043A000EA8A30EE690AF0EE6A7AB0EE697AE8EEEF
:1043B000287AA8EE007AF0EE678AB0EE470A03E0AA
:1043C000B0EE690AF0EE6A8A424BDFED437AF35CA5
:1043D00007EE103AB8EEC77A404B27EE4A7A2344EC
:1043E000E7EE278A93ED007A83ED00AA3AEE477A4A
:1043F0003B4B87EE097A23440434D3ED007A37EE41
:10440000677A38EE800AECEE077AC3ED007A354B16
:10441000F35C07EE103AB8EEC77A013667EE677ABA
:104420009FED317AA7EE870A0BF096FA2F4B022EFA
:104430005853984605F102057FF4D1AE2C4DBAF9D8
:1044400004A095F82440B7F9043000EE10AA6400E7
:104450002834BAEECF0A5C430BF07EFA6411201ABE
:1044600007EE900A002CB8BF6442322CB8EEE78AFF
:10447000204C47DD0023A36066E000BFAFF300805F
:1044800000000000000068C000000000000068405C
:10449000BC050020A0860100BD378635AF4C593CD5
:1044A000AC260020000000003E2600200000E14372
:1044B000CDCC4C40A020002084050020B00400207A
:1044C0006F12033C240500200AD7A33D0000A0433F
:1044D0000AD7233C53270020A69B443BA805002075
:1044E000D405002050270020F7CC9238B8260020B1
:1044F0009C1F002040060020B404002098050020E6
:1045000000803B45FDEECB7A5FED036A2E492F4AD2
:1045100017EE903A23F0030307EE903AF8EEE77AAD
:104520006B7BC7EEA67A07EE103AB8EE477AA3681F
:1045300028EE077A67EE277AFDEEE77A17EE900A03
:10454000184403F043FDA060A0684FF4807240134C
:104550006FF0FF0103F03AFDBDEEC88AEA7818EE6D
:10456000103A07EE100A53439B11F8EEC78AEA7D12
:1045700007EE103AF8EEC77A12B1C2F5967201E072
:104580004FF49672FDEEE77A514217EE900A03F06F
:104590001DFD07EE100AF8EEC77A77EEA88AFDEE49
:1045A000E88A18EE903A9BB2A8F804301BB200EEED
:1045B000103AB8EEC00A0BF0CFF9A8F8040003B027
:1045C000BDEC0A8BBDE8F08F020000F0FEFFFF0F8C
:1045D00008B5094B5A7872B100225A70074B196816
:1045E00001B11A604FF40020FDF75EF818B1BDE884
:1045F000084004F055BD08BD3E260020D00500202F
:10460000084B094A1B681168591A002909DB03F590
:10461000F42303F590731360044B5A6982F400424B
:104620005A6170477005002058050020000C0240B8
:104630002DE9F0478046894692460025EBB2534566
:1046400016D20024E3B243450DD20A4B0A4E5A69F2
:10465000102782F020025A614846378306F0D9F9C4
:1046600001347783EEE73C2006F0D3F90135E5E726
:10467000BDE8F087000802400000024008B5104B7A
:104680001A88104B92B99A7882B15A78BAB9012235
:104690005A700D4B1A880D4B4FF400201A80FDF70D
:1046A00003F860B1BDE8084004F00EBC5B7833B994
:1046B0000220FF210122BDE80840FFF7B9BF08BD75
:1046C000400900203E260020042800202827002042
:1046D0002DE9F04FC24BB3F90600C24B2DED028B12
:1046E000DA8C904285B00FDBB0F5FA6F93F8254075
:1046F00007DA811A4C43A2F5FA6294FBF2F46434AF
:1047000003E0C4F1640400E06424B74A93F8237022
:10471000B2F88E1192F95C210091524292B293F854
:10472000765093F8776093F8243002920021019735
:1047300003930A46AA4BDDF8008031F903C0C8EBA9
:104740000C0303F2F31E40F2E637BE4503D8002BFC
:10475000B8BF5B4201E04FF4FA73022ADFF894829B
:104760002CD025B1AB42CCBFC5EB0303002364279B
:1047700093FBF7FEDFF8BCA26FF0630B3AF81E90D4
:104780000BFB0E3B0EF1010E3AF91EA00FFA89FE4B
:10479000CEEB0A0E0EFB0BFE9EFBF7FECE4428F876
:1047A00001E0DDF8048003FB08FE904B9EFBF3F371
:1047B0003B449BB2634393FBF7F714E026B1B3424B
:1047C000CCBFC6EB03030023DDF808E003FB0EF7C4
:1047D000A8F80470039F002BB8BF5B427B43834F54
:1047E00093FBF7F764377F4BDFF84C8202EB030E45
:1047F00064239EF8019007FB09F999FBF3F902F88D
:1048000008909EF80B90DFF834829EF815E007FBC5
:1048100009F999FBF3F907FB0EF702F80890DDF8A8
:10482000008097FBF3F3724FC445D355714F02DA02
:104830007B5A5B427B520132032A01F102017FF471
:1048400079AF694E6B4CB6F890114FF4FA6203F0F1
:10485000BDFBB6F890314FF47A75C01A4543C3F5E5
:10486000FA63B5FBF3F5642195FBF1F362486FF051
:10487000630E30F813200EFB03550133B24630F9B6
:10488000130013B2C31A5D4395FBF1F15B4D6B7AD4
:104890000A44FA80D3B35A4BDFED5A7AB3F90020B9
:1048A000594BB3F90030D31A08EE903AF8EEE88A83
:1048B00068EEA78ADFED557AC8EEA78AB0EE680ADF
:1048C0000BF00EF8B0EE408AB0EE680A0BF08EF8EE
:1048D000B4F902E0B4F9001006EE90EA07EE901A7F
:1048E000F8EEE66AF8EEE77A20EE667AA7EE887AC6
:1048F00067EE807ABDEEC77AE6EE887A17EE103A58
:10490000FDEEE77A238017EE903A63800220FCF7F1
:10491000CBFE002800F09F803D4C3E4B3E4E1A8857
:10492000236813443D4A236013780133DBB21370CC
:104930000622B3FBF2F702FB173717F0FF0747D148
:10494000DFF8FC90D9F800304FF0080893FBF8FB33
:10495000CBEB030B3846C9F800B008F013FC584401
:10496000C9F8000090FBF8F080B201F015FF9AF84A
:104970008131308063B3DFF8CC90D9F8003093FBFD
:10498000F8FACAEB030A0220C9F800A008F0FAFB03
:104990005044C9F8000090FBF8F080B201F01EFF0F
:1049A0001F4B226818601F4B50434FF47A7290FBE4
:1049B000F2FCD3E9000110EB0C0041EBEC71C3E910
:1049C0000001194A00230DF0E7FD184B276018601D
:1049D000174A338812889A4236D3012039E000BF43
:1049E0002C2700209C1F0020A02000200CFEFFFF91
:1049F00050270020AC2600206C2600203E260020F8
:104A000004280020DB0F4940282700200000344301
:104A100080050020BC050020B4260020740500207D
:104A20002427002078050020407E05006426002011
:104A30002A27002066270020532700201C2700205B
:104A4000C40500208C0500202A4A12889A4202D30D
:104A50000220FBF7C9FBFBF775FC274B1B881BB932
:104A6000264B1B882BB90AE00220FCF7FDFD00282D
:104A7000F6D0234B5A6982F020025A610BE0AB78E2
:104A800013B11F4B20225A836B7813B11C4B202289
:104A90001A8303F0DBFB1B4B1B491B680A689A1A3D
:104AA000002A10DB687B194A58B99070144A506983
:104AB00003F5F42380F0200003F5907350610B6040
:104AC00001E00123937002F0EFFA114B1B785BB900
:104AD0004FF40060FCF7E8FD30B105B0BDEC028B8F
:104AE000BDE8F04F03F0B3BB05B0BDEC028BBDE8F1
:104AF000F08F00BFB62600202C09002040090020BE
:104B00000008024070050020DC0500203E26002041
:104B10001C020020024B184490F8820108F0FEBEEF
:104B2000A02000202DE9F0410820FCF7BDFDDFF8B2
:104B3000A480234F002837D1224C06460546D8F8DA
:104B40000030E8B29847A0F2EE2240F2DC5392B275
:104B50009A4288BF1C4B1D4988BFB3F88E010A6872
:104B60001B4B1340002B03DA013B63F003030133BB
:104B700003EB850C134B23F81C0020886388034447
:104B8000A0880344E08803441BB20420013593FB52
:104B9000F0F3082DBB5304F1080406F10206CED150
:104BA00001320A60BDE8F0810024E0B2D8F800309C
:104BB000984727F814000134082CF6D1BDE8F0819D
:104BC0002C270020EE050020A02000203C0500201E
:104BD00003000080C00500200128054B03D00528F4
:104BE00003D0044A02E0044A00E0044A1A60704715
:104BF000280000205D3D0008C93F00082941000849
:104C00002DE9F04F2DED048B082083B0FCF74CFD0F
:104C1000A64DC0B195F88A31042B13D8DFE803F014
:104C2000030306090C0001F07BFC0CE001F0A0FB83
:104C300009E001F011FD06E001F01CFB003018BF97
:104C4000012000E000209A499A4A0B6814681C1B56
:104C5000002C8A4602DA002800F06E8303F59C439C
:104C600020331360FFF75EFF4FF48040FCF71CFD1C
:104C700020B1914B1B780BB9FFF7AAFC4FF40070E1
:104C8000FCF712FD8D4F00283BD08D4E8D4C96F8D1
:104C9000CE30B4F9001003EB830291421CDDDFF843
:104CA0002C8298F80120BAB1B5F88E213A807A802A
:104CB000BA80B6F8D020FA8096F8CF20134403EBE0
:104CC0008303994204DDFFF783FC002388F800305A
:104CD0007D4B1A8801321A8096F8CE30B4F9002044
:104CE00003EB83039A4209DD784E96F80180B8F110
:104CF000000F03D1FFF76CFC86F800802388013396
:104D000023800022B5F89001B5F892411346B95EB0
:104D10009B088142C4BF63F07F03DBB20232A14231
:104D2000B8BF43F04003082AF1D1694CDFF8C881CD
:104D300022789A4205D198F80020F92A04D8013245
:104D400000E0002288F800204FF480402370FCF738
:104D5000ABFC5B4E58B1B5F88E11B5F84C21B7F9E4
:104D60000630881A834202DD0A4493420DDB4FF479
:104D70008040FCF799FC28B9B7F90620B5F89031C6
:104D80009A4202DB4FF0000911E0524A00231360FF
:104D900053609360504A13605360B6F8463023B1B5
:104DA000454B1B78002B40F0DC844FF00109B6F82E
:104DB000463073B1404B1B785BB9444B5B7843B1D1
:104DC00095F8953113B1FFF703FC02E0B9F1000F3C
:104DD000F9D198F80030142B40F0C1803B4A537849
:104DE0009346C3B1B6F8463023B923785F2B01D17F
:104DF000FFF7EEFB95F89431002B00F0B080B6F889
:104E00004630002B40F0AB8023787D2B40F0A7800C
:104E1000FFF7DEFBA3E02278572A18D12F4B4FF47F
:104E20007A724FF480701A80FCF73EFC08B1FCF7F0
:104E3000FBFE0420FCF718FC10B1294B0A221A8053
:104E40000820FCF711FCF0B9264B18801BE0042069
:104E50000193FCF729FC019BA8B11D4A12785A2A3C
:104E600011D1214A117819B1137001221F4B09E0A9
:104E70001F4B1A7882F001021A701E4B0AB10222EF
:104E800000E003221A7023785D2B00F073845B2B03
:104E900000F072845E2B00F07184B6F846306BBB74
:104EA00022786F2A2AD1FFF7E9FB3BE0A0200020FF
:104EB00070050020A4050020CE2600202C2700200D
:104EC0009C1F00203E060020760500203E26002084
:104ED0003B0500204006002040050020400900203E
:104EE0002E090020042800203D060020EC050020AB
:104EF0005C05002075050020CC05002095F8942164
:104F00001AB113B923787E2BCDD02378972B04D1F7
:104F1000894B4FF4C8721A8004E0A72B04BF012309
:104F20008BF80E302378BB2B02D1B38D023303E014
:104F3000B72B03D1B38D023BB38509E0BE2B02D161
:104F4000738D023303E0BD2B09D1738D023B738552
:104F500001200146FCF712FB002388F800300420F2
:104F6000FCF7A2FB48B3754A754B117871B17549CE
:104F7000497859B1B7F90600B5F89011884205DDB6
:104F8000197819B970481170322404805B7C53B1D0
:104F90006E4B1A782AB96E4A127812B96A4A3221CF
:104FA0001180012208E06A4B1A7832B1654A5278C2
:104FB0001AB91A70674B01221A7067480123002240
:104FC00030F8021FA1F21554B4F5C77F8CBF00243E
:104FD00001249C4009B2224340F21354A142CCBFA9
:104FE0000024012403F1FF3E04FA0EF4224340F2B0
:104FF000A464A142D4BF002101215C1CA140033361
:105000000A430D2B92B2DBD1002306EB43004C493F
:10501000B0F8460002420CBF002001205854013372
:10502000182B8846F1D14B78464C4BB94B4BB3F912
:1050300000204B4B93F8CE3003EB83039A420CDDF8
:105040000220FCF711FB40B1E37843B9454A1360F5
:1050500053603C4B0122DA7001E00023E37098F8C2
:10506000023053B10023E37023793BB93D4A13600A
:105070005360344B01221A7100E0237198F800301C
:105080000BB901232370E278374B12B92D4A1279FC
:105090001AB14FF480421A8302E04FF480425A83DF
:1050A0000420FCF7E1FA20B398F803308BB1A37920
:1050B00083B9244A012191712C4A11682C4A11604C
:1050C0002C4AD1882C4A11802C4A13602C4A136038
:1050D00000E0A3714FF40050FCF7E6FA48B198F8ED
:1050E00004302BB1E37B23B9164B0122DA7300E0C5
:1050F000E3730220FCF7B8FA18B198F8053033B919
:105100000FE00820FCF7B0FA0028F6D146E06379FA
:1051100043B90C4B01225A711A4B1A881A4B1A8048
:1051200000E0637198F8063083B3637A7BBB054B6C
:1051300001225A722BE000BF2C0900205C050020E0
:10514000CE2600203E260020B40500206F0500205A
:105150003D060020EC050020322700203E060020FE
:105160009C1F002040050020000C0240E825002084
:10517000F4250020AC26002038050020C0040020C3
:10518000F404002004280020C4270020637298F84B
:1051900007301BB1824B1A88824B1A802020FCF703
:1051A00063FA002857D0E27A7F4B002A4ED07F4A1C
:1051B0001278042A4AD97E4A4FF40041118398F8A4
:1051C0000A207AB1DA79002A47D101217948D971C8
:1051D0001A72794B011D1A70FCF79CFE774B022264
:1051E0001A703AE0DA71764AD27A2AB37549B6F87B
:1051F000E220B1F900000028B8BF404290421BDA1B
:10520000B1F902100029B8BF4942914214DA1A7A62
:105210001ABB4FF0010B83F808B0674B6A481A704D
:105220006A4B011D1A685B6843600260FCF772FEFE
:10523000624B83F800B010E0002323725E4B1A78B3
:105240005AB901221A70FCF717FD06E05B4A0023E9
:10525000E37123721370FFF7D3F998F80C3003B1A0
:105260000123A3726B7903F0EF02082A01D00E2B01
:105270002FD14FF0000B4FF40070DFF82C8184F831
:1052800009B0FCF711FA20B3514BB3F9002096F89E
:10529000CE3003EB4303B2EB430F1ADDB5F88E219A
:1052A00088F80AB0012388F8033093B23B807B80F2
:1052B000BB80484BB3F8D030FB8098F80B3043B933
:1052C0003A490978052904D888F81230424B323A15
:1052D0001A801020FCF7E8F9002800F08B80637832
:1052E000002B00F08780304B1B7C002B40F082802D
:1052F0003A4CB9F1000F19D02768394E4FB905F073
:1053000077FB96F876314FF47A7202FB0300206047
:1053100008E005F06DFB874204D296F876310BB1B8
:10532000FFF756F90920FAF75FFF63E02368002BC7
:1053300060D0C4F800905DE02A4C2368042B59D853
:10534000DFE803F0030D1822520001230820236038
:10535000FCF78AF918B101F09BFC00284AD12368B8
:10536000042001332360FCF77FF918B101F0A0FAA3
:1053700000283FD12368042001332360FCF774F92F
:1053800010B1FEF757F9A8BB23684FF480700133C2
:105390002360FCF789F938B3FCF76CFE2AE000BF04
:1053A00004280020282700203E2600202227002055
:1053B000000C0240C02600202C0000203A050020EE
:1053C000CE260020AC2600208C26002004270020BA
:1053D0003E0600209C1F00202C270020D005002026
:1053E000A02000205405002000234FF4005023602B
:1053F000FCF75AF905F0E2FAAA89CAF80000AB4BAB
:1054000022B11968411A0029C0F2C98110441860FC
:10541000FDF768FF05F0D2FAA54BA6491A68CAF84D
:105420000000821A18600A80FFF752F90820FCF782
:105430001BF9A14E002831D0A04A918801F1450303
:105440009BB28A2B14469E4B9E4A25D89E4847798C
:1054500017B31F881388407BFA1A92B293B21FB217
:10546000B337BCBF02F5B4739BB21AB2B32AC4BF40
:10547000A3F5B4739BB295F85C2178B152B2524255
:105480005343727A9BB213FB02F36FF01D0293FB3E
:10549000F2F31944A18001E01B8813800420FCF77B
:1054A000E3F8002869D0884B9A79002A65D0187CE7
:1054B000824C002859D196F87910844F96F87820BC
:1054C000834B49B3B4F806E0B7F900100FFA8EF732
:1054D000C1EB070CBCF1000FB8BFCCF1000C944538
:1054E0000FDD8F42C8BF5242DFF810C21FFA8EFE96
:1054F000C8BF92B2CCF80000724401201870E2805C
:105500003BE01A7822B1734A18701768724A176024
:10551000724B1868084420E0B7F90000B4F906702F
:105520003F1A87EAE77EAEEBE77E964509DD022269
:1055300097FBF2F76A4A6B49176001220A701A70EA
:1055400008E01A7832B1634A19701768624A176026
:10555000644A1170614B1B681844B5F84011B5F8E6
:10556000422102F033FDE08007E05C4B628895F950
:1055700096111B6801FB0323638096F87C3053B1BE
:10558000514BDA780AB91B792BB14C4B564A11882A
:10559000DA880A44DA802020FCF766F8002800F058
:1055A000B480494BDA791AB91A7A002A00F0A88037
:1055B0001B7B002B00F0A480414BDFED4C7AB3F94C
:1055C000003008EE103AB8EEC88A28EE278AB0EE0E
:1055D000480A0AF00BFAF0EE408AB0EE480A0AF0E8
:1055E0007FF9394B1B7CB0EE409A002B40F08D8048
:1055F00096F8DB30DFF8C0803D4F3E4EB2EE048AB5
:1056000083B33D4CB7F90200B4F802900FFA89F366
:10561000C01AFCF7C9FC98F8DB20514202F0D6FC16
:105620004844B4F800906080B7F900000FFA89F39D
:10563000C01AFCF7B9FC98F8DB20514202F0C6FC16
:1056400048441FFA80F9A4F80090B4F902400FFA18
:1056500089F907EE104A07EE909AB8EEC77AF8EE8D
:10566000E76A0BE0B7F90220B7F9007007EE102ADD
:1056700006EE907AB8EEC77AF8EEE66A68EEE67A59
:10568000E7EE097A26EE899AC7EE887AA7EE289A7D
:10569000FDEEE77A89EE089A17EE903ABDEEC99AC8
:1056A000338019EE103A73802FE000BFC805002048
:1056B000B0050020BC0500209C1F0020AC26002067
:1056C00004280020C42700203E26002038050020A2
:1056D0006E050020E8250020F4250020F4040020B9
:1056E000F0040020E0040020BA04002035FA8E3CCB
:1056F000842600208405002068260020C0040020A5
:10570000294B00221A805A809A80284BDAF8001020
:105710001A688A1A002A1C461CDBB5F84E31244A46
:1057200092FBF3F3DAF8002012FA83F32360214BA3
:105730001B68984700F084F900F06EF94FF40020E0
:10574000FBF7B2FF58B303B0BDEC048BBDE8F04FDC
:1057500002F000BF4FF48020FBF7A6FF0028DCD149
:105760001DE0154B1B78002B3FF41FABFEF786FFA7
:10577000FFF71BBB012202E0022200E00322D2B2AB
:105780000020531E0146019285F8C034FBF7F6FE57
:1057900002202821019AFEF74BFFFFF77EBB03B0E2
:1057A000BDEC048BBDE8F08F84050020B805002017
:1057B00040420F00280000203E260020074B0A220E
:1057C00002FB0033B3F882301AB2112A04DC072836
:1057D000DCBF034B33F8123018B270479C1F002017
:1057E0002C270020074B0A2202FB0030B0F886303D
:1057F00043FA01F111F0010F0CBF01204FF0FF300F
:10580000704700BF9C1F002010B500244FF480405B
:10581000FBF74AFF064B10B1B3F84A3101E0B3F889
:105820004431044AA3520234182CEFD110BD00BFFA
:10583000A02000208C270020F8B5594C594D6379E1
:10584000594F05EBC30320205B78003318BF0123B9
:10585000BB75FBF729FF08B10123BB756379172BD3
:1058600019D100256319D3ED047AF5EE407AF1EEF3
:1058700010FA02D1BB7D63BB25E010330FCB4B4E3A
:105880002E4486E80F004A4B1A7810350132C02D9D
:105890001A70E7D1EEE715F833E0454A05EBC3058A
:1058A00082F800E0D5F804C0BCF1000FE2D000257A
:1058B0007545DFDA3D4E2B011E4463440FCB0135A5
:1058C00086E80F00F4E74FF48040FBF7EDFE20BBC5
:1058D0001CE06279374B384913F83200087003EB4B
:1058E000C2035D68002DEED000238342EBDAC3EBE8
:1058F000C3016A18314FD2F800E047F801E07E1882
:105900009188B1809279B2710133EEE7637903F047
:10591000EF02082A2A4A20D121E0254B19780129D3
:10592000F4D9284B00228A4203F11003EEDA13ED7A
:10593000047AF6EE007A27EE277A013203ED047A34
:1059400013ED057A27EE277A03ED057A13ED037A36
:1059500067EE277A43ED037AE5E70E2B19D1012193
:10596000182B117417D10023E21892F9D21091B1BB
:10597000124852F8D05FC550C118908892798A7148
:105980000D4A8880117807330131702B1170EBD1EB
:1059900001E000231374BDE8F840FFF735BF00BFF6
:1059A000A02000205C4D0108142600207006002075
:1059B0004D060020785101084C06002030070020D9
:1059C0003E260020780600202DE9F0410023461CE9
:1059D0000F4A991810330020C02B08619446F7D164
:1059E0000C4B03EBC6029846576877B1002418F8B1
:1059F00036309C4209DA23010CEB03053B440FCB04
:105A0000103585E80F000134F1E7BDE8F08100BFF3
:105A1000A02000205C4D010810B50023D8B25C1C0A
:105A2000054B1B78834206D9044B33F8101007F05E
:105A300059FF2346F2E710BD4D06002074270020D1
:105A40002DE9F04FB54B1A78032A8BB00FD9B44B20
:105A5000B44CB3F90420B4F90400002AB8BF524290
:105A60006FF06301891A643202F0B0FAA080AB4A89
:105A70001178012905D8AC4EAC4D337C002B3FD1B9
:105A80004FE0A74BAA4AD888A64B92F9D4205C884D
:105A90001D88B3F90430524203FB02FEA54B0022DD
:105AA0008A4203F11003E6D22EB207EE90EA06EE28
:105AB000106A06B205EE906A26B2F8EEE76A07EEC3
:105AC000906A13ED027A9C4EF8EEE77AF8EEE55A0A
:105AD00067EE877A13ED047AE5EE877AB8EEC66A48
