:020000040800F2
:10000000383F0020B9D400080DFA0008513D00081F
:100010000FFA000811FA000813FA000800000000A7
:1000200000000000000000000000000015FA0008B9
:1000300017FA00080000000019FA00081DAD0008BA
:10004000B5D40008B5D40008B5D40008B5D400086C
:10005000B5D40008B5D40008B5D40008B5D400085C
:10006000B5D40008B5D40008B5D40008B5D400084C
:10007000B5D40008B5D40008B5D40008B5D400083C
:10008000B5D40008B5D40008B5D40008B5D400082C
:10009000B5D40008B5D40008B5D40008B5D400081C
:1000A000D9E20008B5D40008B5D40008ADE20008D4
:1000B000B9E20008C1E20008B5D40008C1F00008A8
:1000C00025F00008B5D40008B5D40008B5D4000860
:1000D000B5D4000835F9000841F900084DF90008C9
:1000E000B5D40008B5D400081DFA0008B5D400083E
:1000F000B5D40008B5D40008CDE20008B5D4000896
:10010000B5D400082D9B0008B5D40008B5D400086C
:10011000B5D40008B5D40008B5D40008B5D400089B
:10012000B5D40008B5D40008B5D40008B5D400088B
:10013000B5D40008B5D40008B5D40008B5D400087B
:10014000B5D40008B5D40008B5D400084DFA0008AD
:10015000B5D40008619B0008B5D4000859F900081F
:10016000B5D40008B5D40008B5D40008B5D400084B
:10017000B5D40008B5D40008B5D40008B5D400083B
:10018000B5D40008B5D4000838B5114D114C2B6812
:1001900022889B5CFE2B01D1002316E0FF2B09D1A6
:1001A0000D4B0D221A700D4B10225A830C4B00225E
:1001B0001A7038BD0AF0D4FD2A682388094DD25C34
:1001C0000A2101FB020028600133238038BD00BFF3
:1001D000080200200C020020000000200000024065
:1001E000050200200002002038B5424C23788342EB
:1001F0007FD90C287DD8DFE800F0073B363140225C
:1002000022454E40272C16000D2323700AF0A8FD2E
:10021000394B1860394B10225A83394A0023137026
:10022000384A136062E0384B1A78002A61D1354AA7
:10023000364911600C22227001221A7056E0314BAF
:10024000334A1A60207022E02E4B324A1A600A2389
:100250004BE02C4B304A1A600B2346E0294B2F4AC7
:100260001A60032341E0274B2D4A1A6002233CE029
:10027000244B2C4A1A60012337E0224B2A4A1A6089
:10028000207033E01F4B294A1A60072323701A4B52
:1002900000221A602AE04FF4807001F005FA00B3E2
:1002A000234BDB7AEBB1234B1878042819D90023B0
:1002B000214905225A54CA180F255570122B03F1F3
:1002C0000205EAB204D0B0EB520F2B46F0D800E0A2
:1002D00014220A4464235370FF239370094B19605E
:1002E00002E0084B154A1A6008232370144B0022C1
:1002F0001A8038BD000000200002002000000240EB
:10030000050200200802002004020020702F0108CE
:10031000A02F0108982F0108A32F0108822F0108A0
:10032000B32F0108952F01087F2F0108AA2F01087C
:10033000EA260020E62700200E0200209D2F01085B
:100340000C0200202DE9F041204B214C5B7B2BB1AE
:100350002378082B02D90820FFF746FF23780D2BBE
:1003600032D01C4C23682646002B2DD01A4D2B78FA
:100370002F46A3B9194BD3F800800AF0F1FC804551
:100380000DD801232B70164B22681B88D35C13B148
:10039000144B10221A83BDE8F041FFF7F5BE3B78FD
:1003A00093B10E4B1C680AF0DBFC84420CD80A4B5C
:1003B00000221A700A4B32681B88D35C002BEAD0EB
:1003C000084B10225A83E6E7BDE8F081922700200F
:1003D000000000200802002005020020000200208A
:1003E0000C0200200000024070B50646B6FBF2F495
:1003F0000846154614B12046FFF7F6FF05FB1464C6
:10040000024B1B5D00F8013B70BD00BF4831010885
:1004100010B50278202A034600F10100F9D0092A1C
:10042000F7D02D2A03D10346BFEE000A04E02B2AA1
:1004300008BF0346B7EE000A9FED377A1A46134607
:1004400012F8011BA1F13000C4B2092C0AD805EE44
:10045000900AF8EEE57AF2EE046AE7EE267AB0EE5C
:10046000677AECE72E2915D1F2EE047AF0EE676A8E
:10047000134612F8011B3039C8B209280AD805EE14
:10048000901AB8EEE56A86EE276A67EEA67A37EE2E
:10049000067AEDE71A7802F0DF02452A34D15A785D
:1004A0002D2A02D10233012204E02B2A14BF01338A
:1004B00002330022013B002113F8010F3038C4B28F
:1004C000092C03D80A2404FB0101F5E7B1F59A7F52
:1004D00034BF0B464FF49A731946F7EE007A07299A
:1004E00005D9DFED0E6A083967EEA67AF7E703F063
:1004F00007032BB1F2EE046A67EEA67A013BF8E738
:1005000022B1C7EE277A03E0F7EE007A67EE277A8A
:1005100020EE270A10BD00BF0000000020BCBE4C2A
:1005200010B5441E14F8011F21B1034B18680DF0DB
:1005300085FDF7E710BD00BFC02600200148FFF78A
:10054000EFBF00BF6D31010810B50748FFF7E8FFA6
:100550000024064B0648E1581A190C34526806F07C
:1005600009F8C02CF5D110BD9D3101086830010893
:10057000B331010870B50AF0F3FB294B1A88294BF7
:100580004FF47A71B0FBF1F11B78274805F0F2FFC8
:1005900001F084F8254B1968254B1A68254B53F850
:1005A0002110254B0546B2FBF3F2244805F0E2FF8B
:1005B0000024E3B2224A52F8231049B1012202FA80
:1005C00003F32B4202D01F4805F0D4FF0134F0E7BB
:1005D000022001F049F898B11B4C1C4B22781C48B2
:1005E00053F8221005F0C6FF2378022B08D1194BCF
:1005F00019481B7D002B0CBF6E216F2105F0BAFF3F
:100600001648FFF78DFF164B1C880EF005FD21469E
:1006100002464FF499631348BDE8704005F0AABF45
:10062000782700202E000020BB310108280500207B
:100630005C0000200442010840420F00F93101082B
:10064000E441010822320108C409002028310108D0
:1006500026320108C026002030320108E5340108A6
:10066000440600203432010838B50C68054620469F
:1006700011F035FB214602462868BDE8384011F0EC
:1006800037BB000008B50948FFF74AFF01210020E9
:1006900000F074FF0648FFF743FF0A200AF071FBE1
:1006A0000020BDE808400AF093BB00BF6632010895
:1006B000703201087FB5044611F011FB082824D1DF
:1006C00000231F49E25C09681144497801F00301E5
:1006D000022908BF203AE2540133082BF1D100254A
:1006E000665D1848314611F0EDFA28B10135601900
:1006F000314611F0E7FA18B11348FFF711FF1CE07B
:10070000082DEDD1204600F089FE1048FFF708FFC4
:1007100000230F4A1A4404A992F882210A44094985
:10072000595C02F80C1C0133082BF2D10023094854
:100730008DF80C3001A905F01DFF04B070BD00BF9D
:1007400094010020344D01087F3201089F320108D6
:100750004C210020B631010808B501F09DFB0130A5
:100760000CBF03480348BDE80840FFF7D9BE00BFEF
:10077000B4320108DA3201082DE9F041054611F0E2
:10078000AEFA044601F08AF906468CB92948FFF70B
:10079000C7FE294B53F8241041B10123A340334233
:1007A00002D0264805F0E6FE0134F2E7244821E0B5
:1007B00028462449224611F09BFA58B92248234C76
:1007C000FFF7AEFE54F8041F0029EFD01B4805F0D8
:1007D000D1FEF7E72B782D2B03BF013504F1FF3451
:1007E0004FF001084FF000080026134B53F8267015
:1007F00027B91748BDE8F041FFF792BE28463946B1
:10080000224611F075FA98B90120B040B8F1000FF6
:1008100003D001F035F90F4802E000F04FFF0E4819
:10082000FFF77EFE39460D48BDE8F04105F0A2BE57
:100830000136DAE7F8320108B82F01082232010840
:10084000E5340108983F01080B330108B42F010873
:10085000203301083A33010844330108B631010856
:1008600010B504460848FFF75BFE084A00231370E2
:10087000074A1360074A137005F07EF92046BDE869
:100880001040FFF7FFBE00BF4D33010825020020D6
:10089000580200202402002008B50848FFF740FE57
:1008A000012000F013FF0648FFF73AFE0A200AF085
:1008B00068FA0020BDE808400AF08ABA65330108EA
:1008C00072320108F8B5074611F009FA044638B942
:1008D0001A4B1B485A791B4B013A53F8221028E057
:1008E00038461949224611F003FA60B91748184CE6
:1008F000FFF716FE54F8041F19B1164805F03AFE2A
:10090000F8E7154805E000250E4B53F8256026B999
:100910001248BDE8F840FFF703BE3846314622468C
:1009200011F0E6F901350028EED1044B0C485D7159
:100930003146BDE8F84005F01DBE00BF4C21002047
:10094000803301080C300108983F010894330108F6
:100950000830010822320108E5340108A7330108F4
:10096000BF33010810B50446204611F0B8F910F065
:10097000FF0F07D10B4B0C4893F8C014BDE8104093
:1009800005F0F8BD204611F053F9022808D8054BB0
:10099000064C83F8C0040020014600F0EFFDE3E7B9
:1009A00010BD00BF4C210020D1330108F5360108ED
:1009B00070B5044611F093F908B9204830E020469C
:1009C0001F4911F0E3F900242646254678B12CB1E1
:1009D000012C06D111F02CF9064602E011F028F99D
:1009E000054617490020013411F0D0F9EEE70B2D30
:1009F00005D914480C21BDE8704005F0BBBD012CA1
:100A000008DC114B114833F915202946BDE8704028
:100A100005F0B0BDA6F57A73B3F57A7F04D90C481A
:100A2000BDE8704005F0A6BD0A482946324605F0EB
:100A3000A1FD054B23F8156070BD00BFE733010829
:100A4000BF360108213401085E2800204734010820
:100A50005F3401088134010838B5054611F03FF9CB
:100A6000C0B268B90446124B124803EB4403214656
:100A7000B3F84620013405F07DFD182CF3D138BDC4
:100A8000284611F0D5F8172804460BDC202128460B
:100A900011F018F911F0CCF8054B03EB4404A4F85D
:100AA000460038BD04481821BDE8384005F062BD55
:100AB000482000209A340108A6340108931E232BF5
:100AC00028BF0A22031E10B50C4603DA2D2001F8B8
:100AD000010B5842FFF788FC00230370204610BD2D
:100AE00030B52DED028B87B0B0EE408A00210C228C
:100AF000044603A811F0D1F8B5EEC08ADFED2B7AD9
:100B0000F1EE10FACCBF38EE278A38EE678ADFEDB7
:100B1000287A28EE278A6946BDEEC88A0A2218EE8E
:100B2000105A85EAE570A0EBE570FFF7C7FF002DCE
:100B3000ACBF20232D2368468DF80C3011F0CFF880
:100B4000012807D130238DF80D308DF80E308DF847
:100B50000F300CE0022805D130238DF80D308DF8D0
:100B60000E3004E0032804BF30238DF80D306946B1
:100B700003A811F09AF803A811F0B1F80338C5B230
:100B80002A4603A9204611F0D5F8002363552046D4
:100B9000084911F08AF803A92046294411F085F884
:100BA000204607B0BDEC028B30BD00BF6F12033A88
:100BB00000007A447D32010837B5037904460D46BA
:100BC000052B37D8DFE803F003060A0D11148368FC
:100BD000197830E0836893F900102CE08368198855
:100BE00029E08368B3F9001025E08368196822E0E2
:100BF0008368684693ED000AFFF772FF01461348C9
:100C000005F0B8FC05B3D4ED037A6846B8EEE70A00
:100C1000FFF766FF01460E4805F0ACFC94ED040AB0
:100C20006846B8EEC00AFFF75BFF0146084805F0CA
:100C3000A1FC09E00021074805F09CFC25B106480D
:100C4000E168226905F096FC03B030BD2D32010841
:100C50002C320108D0340108CC3401082DE9F843C6
:100C60002DED028B054611F03AF84F4E074620B1A4
:100C7000012817D12B782A2B14D14C48FFF750FCB0
:100C8000002431594A4805F075FC30193946FFF700
:100C900093FF4848FFF744FC143440F618339C4255
:100CA000EFD17DE028463D2111F00CF800285FD0FF
:100CB000441C204610F0BCFF81462046FFF7A8FBED
:100CC0000027B0EE408A14247C4356F80480404646
:100CD00011F005F841460246284611F009F80028AF
:100CE0003CD1314B1C4494ED037AF8EEC77AB4EE54
:100CF000E78AF1EE10FA2FDB94ED047AF8EEC77A6A
:100D0000B4EEE78AF1EE10FA26D82279052A18BF48
:100D100008EE109A18EE103A052A11D8DFE802F012
:100D200003030606090DA268137009E0A268138088
:100D300006E0A26882ED008A02E0A36883ED008AE3
:100D400041461D4805F016FCBDEC028B20460021F3
:100D5000BDE8F843FFF730BF184803E001378E2F96
:100D6000B1D11748BDEC028BBDE8F843FFF7D8BB03
:100D7000044637592946384610F0EEFF58B10C4862
:100D8000394605F0F7FB084800212044FFF714FF1F
:100D9000084805F0EFFB143440F618339C42E8D1C4
:100DA000BDEC028BBDE8F88314420108D33401087E
:100DB000B2350108E5340108E8340108F3340108CC
:100DC0001835010870B52DED048B5E485E4C84B07B
:100DD000FFF7A6FB5D4805F0CDFB5D48FFF73CFE45
:100DE00062795C4B5C48013A264653F8221005F0C4
:100DF000C1FBD4ED047AF5EE407AF1EE10FA5FD043
:100E00001834002514ED028AB5EE408AF1EE10FA8E
:100E100052D00135514854ED019A94ED009AD4ED29
:100E2000018A294605F0A6FBB5EEC08AF1EE10FA5C
:100E300002D54B4805F09EFBB0EE480A6846FFF726
:100E40004FFE0146474805F095FBF5EEC09AF1EEDE
:100E500010FA02D5424805F08DFBB0EE690A6846EB
:100E6000FFF73EFE01463F4805F084FBB5EEC09A11
:100E7000F1EE10FA02D53A4805F07CFBB0EE490AD3
:100E80006846FFF72DFE0146364805F073FBF5EE88
:100E9000C08AF1EE10FA02D5314805F06BFBB0EED6
:100EA000680A6846FFF71CFE01462F4805F062FB02
:100EB0000C2D04F11004A5D12C48691C05F05AFB37
:100EC00000F0ECFD2A4C054654F8041F19B12948DE
:100ED00005F050FBF8E70C46274B53F8241041B1BE
:100EE0000123A3402B4202D0244805F043FB0134E8
:100EF000F2E7731804AA93F882311344204A8A5CFB
:100F000003F8102C01310829F3D100241D488DF875
:100F10000840694605F02EFB1B4D1C48615905F041
:100F200029FB28190021FFF747FE1948FFF7F8FAB7
:100F3000143440F618339C42EED104B0BDEC048B5F
:100F400070BD00BF6D3101084C210020353501080E
:100F5000F53601080C3001086535010870350108C7
:100F6000BF3601082D320108B63101087835010875
:100F7000B42F01088A350108B82F010898350108F7
:100F8000344D0108A535010814420108AE350108A9
:100F9000E5340108F0B589B0044610F0A0FEC5B2F2
:100FA000002D72D17F48804CFFF7BAFA54ED027AD7
:100FB000F5EE407AF1EE10FA2CD0013529467B4847
:100FC00005F0D8FA14ED020A04A8FFF789FD0146DE
:100FD000774805F0CFFA14ED010A04A8FFF780FD69
:100FE0000146734805F0C6FA94ED000A04A8FFF71D
:100FF00077FD01466E4805F0BDFA94ED010A04A89C
:10100000FFF76EFD01466B4805F0B4FA0C2D04F1B4
:101010001004CBD1DFED687A684BB0EE677AF0EE62
:10102000676A0022AA4203F110030DDA13ED045A95
:1010300053ED035A13ED026A013276EE856A77EEBC
:10104000A57A37EE067AEDE75D48CDED016ACDED84
:10105000027A8DED037AFFF763FA002408AB23448C
:1010600013ED077ADFED577A574B5848B0EEC77A41
:10107000B4EEE77AF1EE10FAD8BF18460434FFF761
:101080004FFA0C2CEAD1524874E02046514905220F
:1010900010F02EFE38B9504B034410300022C02807
:1010A0001A61F8D17BE020464C49042210F020FE62
:1010B0000546204605BB202110F004FE00286ED016
:1010C000461C304610F00BFE2C460746444B53F8A6
:1010D00024500DB943484DE030462946FAB210F08D
:1010E00007FE38B9204604F027FE3F48294605F0A0
:1010F00041FA4CE00134E9E710F09AFD461E0B2E50
:10110000074648DC2046202110F0DCFD054650B1A2
:10111000451C2846FFF77CF92F4B03EB071787ED9B
:10112000000A012400E004462846202110F0CAFDF0
:10113000054648B1451C2846FFF76AF9264B03EBE4
:10114000061383ED050A01342846202110F0BAFD6C
:10115000054648B1451C2846FFF75AF91E4B03EBDC
:10116000061383ED060A01342846202110F0AAFD5B
:1011700018B91E48FFF7D4F911E00130FFF748F91C
:10118000154B032C03EB061686ED070AF1D1184820
:10119000FFF700FF03E017480C2105F0EBF909B059
:1011A000F0BD00BFC035010864210020EB35010807
:1011B000F1350108B631010800000000602100206F
:1011C000F53501080AD7233CBC350108B8350108BC
:1011D000E5340108043601084C2100200A360108D4
:1011E0000C300108A73301080F3601082236010828
:1011F000F53601085C3601082DE9F047674B1A788F
:1012000086B0984642B90123654888F80030FFF758
:1012100087F96448FFF784F9634D28680CF01EFFD6
:10122000A946002800F0B7802868604C0CF01BFF2E
:101230000928014601D03F284FD14FF0000A256808
:101240005B4F56462DB15B4839682A4610F050FD79
:1012500010B9BA4606B93E46574B0C379F42F1D3F8
:10126000CEB1D6F800E0DAF800C02B461EF80370C5
:101270001CF80300B84201D023600CE05A1C4D4911
:1012800030B92D2B04D82027CF542260885402E097
:10129000CF541346EAE723680BB1564512D04748AE
:1012A000FFF73EF9564509D856F80C0BFFF738F909
:1012B000D9F8000009210CF0C1FEF3E73948FFF727
:1012C0002FF9002523689D42A6D23A4BD9F8000099
:1012D000595D0CF0B3FE0135F4E723682BB90428FF
:1012E00036D13448FFF7BCFA55E00C2801D1344818
:1012F0008DE70A2901D00D2944D132482D4DFFF741
:101300000FF922682A4903950023AB5404932E4B0E
:10131000009303A810220C2310F08EFC064638B16F
:10132000006810F0DCFC0130B3682844984702E004
:101330002648FFF7F5F81F480021302210F0ADFCD9
:101340000023236098F80030002B7FF462AF22E086
:101350000C28CCD07F2903D15EE72F2B3FF65CAF62
:10136000A1F12002D2B25E2A3FF656AF13B920296E
:101370003FF452AF5A1C22600E4A2868D1540CF038
:101380005DFE49E77F29E8D1013B0A4A236000213D
:10139000D1540F483EE706B0BDE8F0872402002094
:1013A00084360108BC360108C026002058020020FF
:1013B000683001082502002028310108C1360108E3
:1013C000C6360108E534010869060008D13601086F
:1013D000F23601080F4B1A78482A17D15A88B2F50D
:1013E000996F13D11A79BE2A10D193F8C424EF2A29
:1013F0004FF000000CD113F8012B5040064A9342E5
:10140000F9D1D0F1010038BF0020704700207047AB
:10141000704700BF00000E08C8040E0870B50546EE
:10142000441E14F8011F61B1064E304610F04AFC0C
:101430000028F6D0861B04483044631B80F88231B4
:10144000EFE770BD344D01084C21002008B5FFF7CF
:10145000C1FF10B90A2009F09FFC0D4B0D49184639
:101460004FF4996210F010FC90F8C024022A84BF57
:10147000002280F8C02490F8C0144FF4827202FB5E
:10148000010101F5DA71044810F0FEFB08BD00BF50
:101490004C21002000000E08482000202DE9F047D4
:1014A0002E4890F82050C47F002303FB03F1193924
:1014B000694301F6C411594340F6C412614391FBDC
:1014C000F2F1274A22F813100133072BEDD1254AF8
:1014D00090F82130B2F84061B2F842A190F822E0D1
:1014E000C3F1640903EB830C5C425FFA89F94FEAAC
:1014F0004C0CCEF16408C6EB0A0AA4B20022A1B2D9
:101500000FB2002F04DC002914BF1D46012500E0A6
:101510004D4611FB01F101FB0EF115FB05F591FBA9
:10152000F5F545440A217D4395FBF1F565442DB25F
:101530004FF47A7105FB0AF595FBF1F50A4935443C
:10154000555202320A34182AA4B2D8D1007803F0D6
:1015500079FCBDE8F04700F0BBBB00BF482000208D
:10156000382800204C2100201827002008B5FFF75C
:101570006DFFBDE80840FFF791BF0000F8B52F4BA5
:1015800048221A704FF499625A80BE221A71EF22D3
:1015900083F8C4240022074683F8C5241E4651B1AF
:1015A00093F8C00426494FF4827202FB003000F524
:1015B000DA7010F069FB00221346B15C0132B2F51B
:1015C000996F83EA0103F8D11C4A002582F8C534DB
:1015D0000AF0C6F8F3200AF0D9F8582002210AF0E0
:1015E00007F9082815D1174C331903F1774303F590
:1015F0007203204619680AF031F9082805D0013530
:101600000AF0BCF8032DE3D103E00F4B04349C42F5
:10161000EAD10AF0B3F8032D02D0FFF7DBFE10B9D0
:101620000A2009F0B9FBFFF7A1FF37B10F20142101
:101630000122BDE8F84003F031B9F8BD4C2100208B
:101640004820002000000E08C8040E0838B50546E2
:101650000C4609F0D0FB28462146FFF78FFFBDE876
:10166000384009F0C5BB0000034B1B6818420CBF93
:1016700000200120704700BF5C020020024B1A6866
:1016800010431860704700BF5C020020024B1A68CC
:1016900022EA0000186070475C020020014B1868C5
:1016A000704700BF5C020020034B9B6818420CBFD0
:1016B00000200120704700BF4C210020024B9A6897
:1016C00010439860704700BF4C2100202DE9F3477C
:1016D0000446FFF77FFE10B1002C00F0BD81E04A08
:1016E000E04D10685168E04C6B4603C34FF49962BB
:1016F0000021284610F0D1FA00214FF482722046D2
:1017000010F0CBFA48232B704FF4802003236B7129
:10171000FFF7D4FF4FF48070FFF7D0FF4FF4006065
:10172000FFF7CCFF0820FFF7C9FF4FF41673A5F8A9
:101730006231FA23A5F864312A23A5F860314FF409
:10174000FA73A5F86831202385F866316E2385F891
:101750007D312B2385F87E31212385F87F312323AA
:1017600085F8803140F24C43A5F8903140F26C731B
:101770000026012704224FF008094FF4C870022107
:1017800040F2DC5EA5F8923140F27E4385F85321A9
:1017900085F8542185F85591A5F8780185F88A11C6
:1017A000A5F88EE185F8C064A5F86A61A5F86C61BA
:1017B000A5F86E61A5F85661A5F85861A5F85A61BB
:1017C00085F85D6185F85E6185F85C7185F88161F9
:1017D00085F88B6185F8AE7185F8AF6185F8B061E9
:1017E00085F8946185F89571A5F8403140F23A7317
:1017F000A5F8423185F89F114FF47A734FF4E13127
:10180000A5F84431A5F84E0140F27E530520C5F8F5
:10181000A4114FF41651A5F8463185F8760140F22F
:10182000EA531720C5F8A81140F6C411A5F84831AD
:10183000A98140F2B45340F6FF716075A075552040
:101840004FF02808A5F84A31A5F89A1132231E2135
:10185000E0704FF00B0C2D20A5F84C31A5F850315D
:10186000E1722173607385F8967185F89E7185F831
:10187000AC6185F8AD61AE7385F8976185F8C27487
:1018800085F8C374267084F8018084F80280E675B8
:10189000237184F805C04FF0140C84F806C084F856
:1018A000109084F811C04FF00E094FF0500C4FF01B
:1018B000640A84F8233084F8243084F82130152316
:1018C000A07684F8079084F81BC04FF00A094FF007
:1018D0005A0C84F81CA0207584F831304120634BE9
:1018E00084F808C04FF0780A84F81FC084F82000FC
:1018F00084F82510A4F826E084F82E20A673267616
:10190000E673667684F8129084F8098084F80AA059
:10191000A77784F822606685A685268584F82F80BF
:1019200084F830806363524BA363524BE363524BA2
:101930002364524884F84470192384F84530FFF733
:101940006DFD4FF44873A4F87A30C82384F8CF3083
:101950004FF49663A4F8D03040F2D933A4F8D230D3
:1019600084F8766084F8776084F8788084F87970F9
:1019700084F87C6084F8CE9023464FF47F72A4F8FC
:101980007E204FF4FA62A4F880201DF8062084F827
:101990008420013640F2DC51082EA4F8821004F1B4
:1019A0000A04EAD1012283F8D42083F8D52083F8F1
:1019B000D62083F8DC206422A3F8DE204FF4967250
:1019C000A3F8E0202822A3F8E2204FF07C52C3F8CD
:1019D000E420C3F8E8200F22A3F8F020A3F8F220B7
:1019E000A3F8F42040F26C72C820A3F8F62040F26D
:1019F0001452A3F8D800A3F8FA2014201E244FF0A4
:101A00007E5283F8DA0083F8DB40A3F8EE00A3F8F7
:101A1000F810A3F8FC60C3F80021522385F8C13404
:101A20000023EA1810330021C02B1161F9D10024E2
:101A3000281900F5DA700C494FF4827204F58274AB
:101A400010F022F9B4F5437FF2D10020014602B034
:101A5000BDE8F047FFF7FABD02B0BDE8F08700BF70
:101A60002C4D01084C210020482000209A99193F54
:101A7000F6287C3F3D0A773F0000A0403D4D01081D
:101A8000024B9A6822EA0000986070474C210020BF
:101A9000014B00229A6070474C210020014B98684E
:101AA000704700BF4C21002038B5044C0025207041
:101AB000E56109F055F92562606238BD48260020CD
:101AC00007EE100AF8EEC77A9FED0A0A9FED0A7A30
:101AD000F5EEC07AF1EE10FAD8BFF1EE677A87EE34
:101AE000800A08B520EE070A0EF00CF9034B83EDCF
:101AF000000A08BD8096184B35FA8E3C1400002071
:101B000010B5121A07EE902A5B1A2DED028BF8EE33
:101B1000E78A07EE903A184B059CB8EEE78AD3EDBA
:101B2000007A28EE278A28EE080AA8EEA80A0EF006
:101B3000B1FBDFED127A049B20EE270AF0EE480A93
:101B4000FDEEC07AB1EE680AC3ED007A0EF0FCF942
:101B5000DFED0B7A9FED0B7AE0EE077ABDEC028B9E
:101B6000FDEEE77A17EE903A002BBCBF03F50C436D
:101B7000A033236010BD00BF140000202C7D8E3FD9
:101B800000A00C46A00CB34507EE900AB8EEE77A29
:101B9000D2ED017A27EE277AD1ED007AE7EE007ACE
:101BA00010B5C1ED007A92ED037AF1EE476AFDEED1
:101BB000E77AFDEEE66ABDEEC77A0C4617EE102A0C
:101BC00017EE900A16EE901A06F0B8FB07EE100A10
:101BD000F8EEC77AC4ED007AFDEEE77A17EE900AC8
:101BE00010BD000030B5002213460E49CC5C0D46F6
:101BF0009CB12E2C04D1013378B11D4400242C5407
:101C0000C95C0A246243A1F13004092C9CBF303A1C
:101C100052180E2B03D80133E7E7104630BD0020E1
:101C200030BD00BFA403002038B50C4DEB7AA3B142
:101C30000B4B1B78042B10D90A4B0B4C18685B68B4
:101C400063602060FFF73CFF084B1A88084B1A803E
:101C5000084B1B88A36001232B7338BDEA260020A4
:101C6000E6270020C827002084270020D82800204D
:101C7000020300200C27002010B5002213460E4856
:101C80000E4C002119520E4819520E481444195294
:101C9000002020606160A0600B4C1444023320607F
:101CA0006160A060094C1444042B20606160A06056
:101CB00002F11402E3D110BD10060020C002002082
:101CC00014270020302700208C0200204803002029
:101CD0003A4BDFED3B7A58793A4AD97B07EE100A46
:101CE000B8EE477A987987EE277AF2EE046A82EDA9
:101CF000007A07EE101AB8EE477A3349D16087EEC2
:101D0000277A82ED017A07EE100AB8EE477A2F4A59
:101D1000187CD16087EE267A82ED007A07EE100AF1
:101D2000B8EE477A987E87EE277A06EE100A82EDA3
:101D3000017AB8EE466A9FED267AD87986EE076A70
:101D400082ED026A06EE100AB8EE466A214A587C15
:101D5000D16086EE266A82ED006A06EE100AB8EEC1
:101D6000466AD87E86EE276A82ED016A06EE100A80
:101D7000B8EE466A86EE076A82ED026A164A127C5F
:101D8000DAB11979154A987B1B7E06EE101AB8EE67
:101D9000466AC6EE266AC2ED006A06EE900AF8EEC2
:101DA000666AC6EEA77AC2ED017A07EE903AF8EEBF
:101DB000677A87EE877A82ED027A704748200020A2
:101DC0000000C842EC0200200000FA44300300206A
:101DD00000007A4420260020EA2600203026002039
:101DE000F7B506460020FFF75FFE4FF48070FFF75F
:101DF0005BFC00283ED0204D6E7008F0B1FF00243F
:101E0000A8606C601D4D95F89E31A3420CBF012760
:101E10000327FFF75DFF1A4B009403EB06162146DC
:101E2000726818483B460DF099FC174B98600120EA
:101E3000FFF73AFE95F9A031042BC8BF85F8A04101
:101E400095F9A021531C114B0AD0114902EB420213
:101E500001EB420211689288C3F80A10DA8109E0A6
:101E60000C4A1168C3F80610981D5168C3F80A108F
:101E70001389038103B0F0BD482600204C210020C7
:101E80000C4F010800100140C02600200100002076
:101E9000EC4E0108E24E01082DE9F041194B1B7888
:101EA000042B2BD1184D20236B83184B4FF4804209
:101EB0005A83174CA0680CF0D1F850B120262E831D
:101EC000A06827680CF0CFF8014638460CF0B6F849
:101ED0006E8320680E4F0CF0C1F80028E9D00B4C3F
:101EE0003868D7F808804FF4804626830CF0BBF89A
:101EF000014640460CF0A2F86683DAE74FF0FF3067
:101F0000BDE8F0814826002000080240000C024095
:101F1000C026002073B51A4C036823600B68636009
:101F2000184D0068184EFFF7CBFD184B009395E84D
:101F3000030094E80C000196FFF7E2FD6068696811
:101F4000134A33681360411A07EE901A114920684A
:101F500091ED007A2968104AF8EEE77A411A67EEA7
:101F6000877A1160FDEEE77AC2ED017A0B4A1360C1
:101F70000B4BB3F8DE200B4B1A8002B070BD00BFD4
:101F800004030020C82700207003002044260020FE
:101F90001826002014000020BC0300207C03002031
:101FA00048200020B403002044F25063984203DD2F
:101FB000A0F50C40A0387047034B9842BCBF00F519
:101FC0000C40A030704700BFB0B9FFFF264BF0B502
:101FD0001D68024600F1100714782B1911465E782F
:101FE00006F00406013206F0FF036EB1BA42F3D1E7
:101FF0000020F0BD1BB103EB83035B00DBB210F8E4
:10200000012B303A1344DBB20A1A022AF2DC002216
:1020100081420AD91AB102EB82025200D2B210F800
:10202000016B303E3244D2B2F2E72E2C0FD14C1C61
:10203000042000210A2671432678AF197F787F0794
:1020400002D53039013431440138F3D100E00021A8
:1020500006484243642000FB012106240448B1FBEA
:10206000F4F100FB0310F0BD9401002040420F008A
:10207000809698002DE9F04F964C2DED048BA368C7
:102080008BB0D3B9944E3378013B042B00F2E78632
:10209000DFE813F0FD05FD05FD05D706BA068D4BFB
:1020A00098680BF0E0FF8D4B93F89E31012B0546AD
:1020B00000F0348107D3022B05D0A0680BF0CEFFCF
:1020C0000028ECD1DEE7242D0CD006D80A2D00F034
:1020D0009A800D2D00F09780E8E02A2D0AD02C2D53
:1020E00008D0E3E07E4A002313707E4A13707E4AD4
:1020F0001370ECE07B4FDFF8E8813A787B4B98F87F
:102100000060002199547A4AEEB91978167047296F
:1021100019D15978502916D19978472907D1D978FA
:10212000472904D11979412901D1012111709878E9
:102130006E49522807D1C8784D2804D1097943291E
:1021400004BF022111701278012A02D0022A39D06C
:102150004EE0B21E072A4BD8DFE802F0040A12183C
:1021600020284A2E6148FFF731FF624B18603FE09C
:102170001B78532B3CD15F4B1A6852421A6037E0F0
:102180005A48FFF723FF5B4B586031E01B78572B11
:102190002ED1584B5A6852425A6029E01A78564B51
:1021A000302A94BF00220122DA7221E00020FFF7DA
:1021B00019FD504B18721BE00020FFF713FD4D4B2B
:1021C000588115E0072E07D0082E11D10120FFF706
:1021D00009FD484BD8810BE00120FFF703FD41F2D8
:1021E00018434FF47A725843B0FBF2F3414A93819B
:1021F000013600232A2D88F800603B7061D13F4AE8
:102200000121117063E03D4E3378002B4BD03749EC
:102210000B78402B04D9A3F137021201D2B202E0AD
:102220001B0103F0F0024B78402B8CBF373B303B57
:10223000DBB213442C4A1178DBB2994232D12C4BD9
:102240001D78012D09D0022D2CD12A4B2C4A9989B9
:102250001180DA892B4B1A8024E0DFF89C8098F8F3
:102260000B300BB901231EE0224A274B116819607D
:1022700051685960254B117A254F197004205389F4
:102280003B80FFF7F1F90028ECD198F81030002BD3
:10229000E8D0204B3A889B68D21A64235A431E4BDD
:1022A0001A60DFE700230022327010E00D4A137835
:1022B0000E2B03D8591C11700C4AD5540F4B1B78A8
:1022C00023B9094A11784D40157000E0002303F04E
:1022D00001037EE1C0260020482600204C2100207A
:1022E00084030020B8020020FC020020A403002088
:1022F0002803002010030020EA2600208802002086
:10230000342700204C060020C8270020E6270020A4
:102310000C2700208427002094260020944B197855
:102320000022082900F25481DFE801F00A051117A4
:10233000253350697400622801D1022205E01A7029
:10234000B52D40F045811A7801321A7040E1032220
:102350001A70884B1870884B0BE0864904221A705B
:10236000854B0A7818782A44D2B20A7002441A704F
:10237000824B1D702CE17F4905221A707E4B0A7832
:1023800018782A44D2B20A7002441A707C4B1D801D
:102390001EE1784906221A70774B0A7818782A4489
:1023A000D2B20A7002441A70754B1A8802EB0525E6
:1023B000ADB2B5F5007F01D81D8003E000221A8080
:1023C0006B4B1A706F4A0023138002E169486A4A16
:1023D000017816782944C9B20170314411706949F5
:1023E0000A88C72A9CBF68488554013292B20A8085
:1023F00063490988914240F0EB800722A5E7082253
:102400001A705C4B1B78834200F0E280584A00232C
:102410001370DEE01A70584B1B78834240F0D8806E
:10242000564B1B78062B4AD004D8022B12D0032B14
:1024300035D0CDE0122B55D0302B40F0C980524B17
:102440001A79524B102A88BF10221A7019784E4AF6
:1024500000236DE04C4B4E4A5968516099681160F9
:102460001A694C4D4C4E4FF47A7392FBF3F32B8068
:102470004A4B1B78F3724A4B012204201A70FFF773
:10248000F3F8002869D1337C002B66D0454B2A88AD
:102490009B68D21A64235A43434B1A605DE03A4A60
:1024A000537913F0010303D01379D81E43424341FB
:1024B0003A4A1370002B50D1374AD3724DE0324B59
:1024C000DA7A12F0010203D09A7AD11E4A424A41C6
:1024D00032490A700AB93049CA7293F82F20334B37
:1024E0001A703AE0284B324E5A6932809A69314D5F
:1024F00042F2107392FBF3F32B802F4B0122082042
:102500001A70FFF7B1F840BB234B1B7C2BB3338809
:10251000642B22D92A880A23B2FBF3F2274B91B20B
:10252000198009B2B32918DDA2F5B4721A8014E03B
:102530008B4202F10C0210DA214812F8045C1D549F
:10254000204812F8035C1D541F4812F8015C1D540A
:102550001E4815781D540133EAE711490B78BBB3C7
:10256000154B1A78A2B300221A700A70012330E0CA
:1025700000030020FD020020FE020020890200204E
:10258000BC020020E8020020C8030020E72700204A
:10259000C82700200C270020EA26002098030020EE
:1025A000FF0200208427002094260020E627002038
:1025B000342700204C0600200C030020D8280020DF
:1025C000D8260020AA270020D02700202728002076
:1025D0000023002B3FF471AD9A4DAB68EB6008F01F
:1025E000BFFBA8602020FFF749F8974B1A78012A13
:1025F0000CBF002201221A70944BDA7A002A3FF4B1
:102600005CAD934A1278042A7FF657AD5A7812B916
:10261000197C01B91A731B7B13B90AB1FFF704FBCC
:102620008C4B8D4D1A784FF0050E013292FBFEFE59
:102630000EEB8E0ECEEB020E83F800E0874B1B787C
:102640000293874B03EB8E0E0023864A86499858E7
:10265000DFF85082854E585090FBF8F1995103EB0A
:10266000830A834EDFF8409206FB010053F809709D
:102670005EF80A604EF80A00BF1B42F2107C90FB25
:10268000FCFC0526384443F8090090FBF6F008FBF3
:1026900001017848195002981FFA8CFC012803EBBD
:1026A000020B25F802CF164606D1ACF1020CBCF5A0
:1026B000797F98BFCBF800100433082BC5D16E4F3B
:1026C0006E4DDFF888A108F04BFB3B689FED6C7AFC
:1026D000C01A05EE100AF8EE457AB7EE008AC7EE8A
:1026E000877AC5ED007A08F03BFBD5ED007A3860BB
:1026F000F4EEC87AF1EE10FA58BFF0EE487A06AA66
:10270000C5ED007A5F4B009207AA019296E803009C
:102710000CCBFFF7F5F9069A5B490798642392FB07
:10272000F3F20A80594A90FBF3F313809AF80C30C5
:102730002F460BB90B8013805549564B0A78002A57
:102740003DD0D5ED007A30681A68C8EE277A821A33
:1027500070684FF0020807EE102AB8EEC77A5A6880
:1027600027EE277A801ABDEEC77A4B4A17EE10BAC9
:1027700007EE100AD2ED006A484AB8EEC77AB2F9FD
:1027800002E0B2F9009027EE267A09FA8BF067EEA4
:10279000277A90FBF8F0FDEEE77A80B217EE90CA48
:1027A0000EFA8CFE9EFBF8FEDFF800C110801FFAC7
:1027B0008EFEACF802E0ACF80000A2F802E00122C4
:1027C0000A7030687168596018609AF8083023B947
:1027D0001E4BDB79002B3FF470ACDFF8D480DFF8C0
:1027E000D490DFF8D4B0CDF80090CDF804B098E8DC
:1027F0000C00FFF785F9D8F804107268284B8A1A84
:1028000007EE902A244AD8F8001092ED007A326838
:10281000F8EEE77A8A1A67EE877A1A60FDEEE77AB1
:102820009AF81020C3ED017ADFF830A012B102222D
:102830008AF800209AF90020012A3FD0022A00F0ED
:10284000D0803AE4482600206C060020EA260020CA
:10285000E6270020C4030020280300203C050020B8
:1028600060020020C82700209003002020030020E1
:10287000806967FF9C030020B8030020400300200C
:1028800000007A448427002082270020902700201F
:10289000290300208803002014000020800300206A
:1028A000BC0300208096980074030020440300209D
:1028B0000403002044260020700300207C4E0025E5
:1028C00053F815007B4ADFF820A2D2ED007A35F8E4
:1028D0000A20DFF81C9297ED000ADFF8108205EE5F
:1028E000100AB8EEC57A15EE101A67EE277AFDEEDB
:1028F000E77A17EE900A801A6F4A80B2A85200B2A7
:1029000007EE900AB8EEE77AD9ED007A049367EE05
:10291000277A0844FDEEE77A31464A4617EE90BA28
:10292000FFF732F96549DFED665A91F8DA10049B3A
:1029300097ED007A53F81520D6ED027AD9ED026AA8
:1029400006EE101AB8EE466A7168726026EE256AC5
:10295000511A88EE066A1FFA8BFB584425F80800C6
:102960004FF4FA6205EE101A36EE076AF8EEC55A11
:1029700087EE066A534985EE877A37EE677AE6EE88
:10298000077AC6ED047AC6ED027A66EEA77A04935A
:10299000FDEEE77A17EE900A05F0D0FC35F80A2034
:1029A0004949313292B2622A35F8082098BF002096
:1029B000104480B225F8080040F6B83200B205F0A5
:1029C000BDFC424A28F805000A2101FB0522023518
:1029D00056F8141B1160042D049B7FF471AFFFF7B0
:1029E0006CBB99ED009A354B19EE100AB3F9E080F3
:1029F000374B90FBF2F29045A8BF90461A881FFA19
:102A000088F80FFA88F011B288420EDD95ED007A51
:102A1000DFED307A67EE277AFDEEE77A17EE908ADF
:102A200090441FFA88F8A3F800802B4BDBF8005085
:102A30001B68C3EB050B5846FFF7B6FA002841F2B6
:102A4000931201DD904201E043429342CCBF002348
:102A50000123DFED228A224E002B4BD005EE10BA67
:102A6000B8EEC50AB8EEC99A20EE280A0DF0D0F9E2
:102A700020EE090A1B4B1449BDEEC00A40F6B832DD
:102A800010EE100A80B2188000B205F057FC48F62C
:102A9000A0432844984203DDA0F50C40A03804E090
:102AA0000028BCBF00F50C40A030306023E000BF20
:102AB0008C020020EC020020B402002048200020FC
:102AC000DB0FC94030F8FFFF48F4FFFF4803002048
:102AD000B40300200000C8427C030020D302373931
:102AE00018260020BA0200204403002030270020CE
:102AF0003003002035603368AF4EC3F50C532833E4
:102B000007EE103AF8EEC77A002567EEA88AB0EE15
:102B1000680A0DF0F7F88DED090AB0EE680A0DF0BD
:102B200077F98DED080AA54ADFF8D0B2AA5E0FFA50
:102B300088F10AA807EE902A07EE101A00EB450369
:102B400053ED026A9E49B8EEC77AF8EEE77A4FF481
:102B50007A72D6EE877AFDEEE77A17EE900A80B2A7
:102B600025F80B0000B205F0E9FB80B225F80B0058
:102B700000B2944B97ED000AD3ED007A049305EE72
:102B8000100AB8EEC57A314667EE277A1A46FDEE8E
:102B9000E77A17EE90CA1FFA8CFCCDF814C0FEF746
:102BA000F3FF35F90B20DFF858B2DFED875A9BF8B9
:102BB000DA10049B97ED007AD3ED026A7368D6EDC4
:102BC000027ADDF814C0726006EE101AB8EE466A9A
:102BD000D31A26EE256A05EE103A88EE066A84447A
:102BE0007A4B7B4940F6B832F8EEC55A36EE076AA2
:102BF00087EE066A85EE877A37EE677AE6EE077A21
:102C0000C6ED047AC6ED027A66EEA77AFDEEE77AA3
:102C100017EE900A604480B2E85200B2049305F0C7
:102C20008DFB049B58536B4B0A2202FB0533023584
:102C300056F8142B1A60042D5B467FF474AF93F89A
:102C4000DC2032B1644A1168642291FBF2F1634ADC
:102C50001180B3F8D830D9F800209A420EDD604BCD
:102C60001868604B1B68C01AFFF79EF942F2107398
:102C70000028B8BF404298427FF71FAA01238AF874
:102C80000030594B1A88554B1A80FFF716BA574B2C
:102C900093F89E71984617B1012F09D088E0727899
:102CA000534BA06803EB021359680BF0E1F97CE089
:102CB000A068DFF850910BF0E0F9002878D0337865
:102CC0004C4D022B3BD0032B44D0012B70D108F08C
:102CD00047F86B6AC31A632B074669D9EB69042B63
:102CE0002BDC0820FEF7E0FC414D90B9F369A068A9
:102CF00005EB031359680BF0BBF97378A06805EB7B
:102D00000315A9680BF09FF9F36977620133F3614A
:102D10004EE04020FEF7C8FC0028E7D098F88C3140
:102D2000002BE3D1F36905EB03135B68B3F5964F12
:102D3000DCD9304B0322DA61D8E7022036E06A782A
:102D40002B4BD9F8080003EB021359680BF090F9EC
:102D500003202BE02B69012B0DD0022B25D03BBB90
:102D60002A6A254B2F6153F83210696103EBC203C5
:102D70005B68AB611CE0EB69AA69934209DA6A6996
:102D8000D9F80800D15C0BF059F9EB690133EB611C
:102D90000EE02A6A184901322A6251F832200023D3
:102DA000EB6102B902232B6102E00420FEF77CFEF6
:102DB0000023736053E000BF480300204403002059
:102DC00018FCFFFF20260020DB0FC9403027002021
:102DD00048F4FFFF8C0200201826002098280020CD
:102DE000700300207C030020020300204C210020FF
:102DF0000C4F010848260020484D0108B40200206D
:102E000048200020C02600207268174B01327260F3
:102E1000164A92F8A1214AB15A780132D2B205215C
:102E2000B2FBF1F101EB8101521A5A7007F098FFE1
:102E30000F4AB060002313700E4A3361D372012031
:102E40000BE007F08DFFB36840F6C412C01A904241
:102E500005D92020FEF71AFC0520FEF725FE0BB051
:102E6000BDEC048BBDE8F08F482600204C210020EB
:102E7000E6270020EA26002038B5294D2DED048BE9
:102E8000D5ED008AB0EE680A04460CF03BFFB0EEC8
:102E9000408AB0EE680A0CF0BBFF95ED019AF0EEA7
:102EA000408AB0EE490A0CF02DFFF0EE409AB0EEE9
:102EB000490A0CF0ADFFD4ED017AD4ED026A67EE59
:102EC000A80AB0EE407A60EE870A28EEE60A66EEBF
:102ED000876A94ED007AE7EE290AA7EE880AE6EE03
:102EE000880A0DF031F8DFED0F7A9FED0F7A0F4B66
:102EF00020EE270A80EE070A93ED007A30EE070AEB
:102F0000B2EE047A80EE070A0CF038FFBDEC048BB9
:102F100083B21A0444BF00F5B4739BB218B238BD33
:102F2000FC0400200000E144DB0F4940D4040020F1
:102F300038B5284CDFED287A94F84530274D00EE5F
:102F4000103AB8EEC00A20EE270A0CF0DBFE2B8800
:102F500007EE903AF8EEE77A27EE800A0CF00EFFC3
:102F60002D889FED1F7A1F4B07EE905AF8EEE77AF7
:102F70001880C7EE277A1C4B08209FED1C7AC7EEFD
:102F8000877A9FED1B7AC3ED007AB4F87A3007EEAA
:102F9000903AF8EEE77A174BC7EE277A9FED167A4C
:102FA00067EE877A94ED107AC3ED007ADFED137A3D
:102FB000134B67EE277AB6EE007AC7EE277AC3ED99
:102FC000007AFEF751FB18B1BDE8384004F000B8B4
:102FD00038BD00BF4820002035FA8E3C400000205C
:102FE0000AE81C41240500208826002000401C46D9
:102FF00000006144AC2600204C3D0F44DB0F4940EB
:10300000B026002090ED010A90ED007AD0ED027A12
:1030100020EE000A38B5A7EE070A04460D46A7EED3
:10302000A70A0DF037F9B5EE400AF1EE10FA11D00B
:10303000D4ED007AC7EE807AC5ED007AD4ED017A3E
:10304000C7EE807AC5ED017AD4ED027A87EE800A68
:1030500085ED020A38BD38B52DED0A8B91ED008A59
:1030600090ED00AAD0ED01AA90ED029AB0EE480AC8
:1030700004460D460CF046FEF0EE409AB0EE480ACB
:103080000CF0C6FE95ED018AB0EE40BAB0EE480AEB
:103090000CF038FEF0EE408AB0EE480A0CF0B8FEB4
:1030A00095ED02CAB0EE408AB0EE4C0A0CF02AFE52
:1030B000F0EE40BAB0EE4C0A0CF0AAFE6BEE005AED
:1030C0002BEEA97AB0EE655AA7EE485AA5EEC87A5B
:1030D00020EE296A6BEE2B7A2AEE877A28EEC00A58
:1030E000F0EE466AE7EE886AAAEE007AE6EE087A23
:1030F0006BEEA8BAA9EE277A6BEE687A6AEEA66A3A
:103100006AEEA77AEAEE2B6AEAEE087A68EEA98AF6
:10311000E9EE056AE9EE287ABDEC0A8BC4ED006A97
:1031200084ED017AC4ED027A38BD80EAE073A3EB46
:10313000E0738B4206DB002801DD401A704702D0A5
:103140000844704700207047F0B506EE900A2DED58
:10315000028B564BDFED567A9FED567A564DF8EEC0
:10316000668A87B068EEA78AD3ED007AF1EE677AB7
:10317000CDED007AD3ED017A504BB3F90030F1EE8A
:10318000677ACDED017A07EE903A4D4BF8EEE77A8B
:10319000B3F9002067EEC77A0646CDED027A07EE56
:1031A000902AB3F90220B3F90430F8EEE77A03A8C5
:1031B000CDED037A07EE902AF8EEE77A6946CDED79
:1031C000047A07EE903AF8EEE77ACDED057AFFF74C
:1031D00042FF95F84430DDED057A012B1BD1394BC8
:1031E0005A78394B72B91A68402192FBF1F1511AA1
:1031F00007EE101AB8EEC77A37EE277ABDEEC77A17
:1032000083ED007A1A68402392FBF3F306EE903ABE
:10321000B8EEE67A05E02D4B1B8807EE103AB8EEC3
:10322000C77A77EEC77A2A4ACDED057AD2ED007AD1
:10323000284B294C93ED008A9DED030A276878EE10
:10324000A77AC8EEA78ADDED057A77EEC87AA8EEF0
:10325000A78A83ED008A0CF091FD95F83010FFF7F6
:1032600064FF9DED040A3844206067680CF086FD19
:1032700095F83010FFF759FFB0EE480A3844606007
:10328000A7680CF07BFD95F82F10FFF74EFF134B4E
:103290001A6816441E60124B1A6838440132A06046
:1032A0001A6007B0BDEC028BF0BD00BFFC0400202B
:1032B000BD37863535FA8E3C48200020D8280020BE
:1032C000A4260020EA260020AC04002040000020B4
:1032D000B0260020A00400207C2600201805002035
:1032E000F40400202DE9F0472DED028B84B003F0AB
:1032F000CFFC002800F0578107F018FDAC4BAD4F14
:103300001968AD4A1860C1EB000A07EE90AAAB49F4
:1033100097F82E00B8EE676AD1ED037A002326EE07
:10332000276A194601AD05EB4304A54D5E5F07EE24
:10333000906AF8EEE77AA34E67EE867AC4ED007ADB
:10334000A14CD8B107EE900AB8EEE77AF7EE006A22
:1033500086EE877AE45E07EE904AF8EEE77A67EE4B
:10336000877A36EEC77AD2ED006AE6EE877AC2ED4A
:10337000007AFDEEE77A17EE904A00E0E45AF45244
:10338000F45A0233062B14FB041102F10402C9D1D2
:103390008E4B8F481B88DFF87482642461435B4343
:1033A00091FBF3F4493CA4B201A9FFF754FE3B2C76
:1033B000874C5AD9874BD4ED020AB3F9003094ED0B
:1033C000010A854EDFF8489207EE903AF8EEE77A68
:1033D000824BF4EEE70AF1EE10FAD4BF002201228C
:1033E0005A730CF0B1FD94ED027AD4ED017A86EDBA
:1033F000000A27EE070A94ED008AA7EEA70A0CF050
:1034000049FFB1EE488AF0EE400AB0EE480A0CF0EF
:103410009BFD9FED738A86ED010A96ED000A20EE72
:10342000080A0CF0ABFC96ED010AA9F8000020EEAA
:10343000080A0CF0A3FCA9F802000820FEF714F912
:10344000002844D0674801A9FFF705FEB8F86431A9
:10345000644A07EE103AB8EE477AF7EE007A37EE94
:10346000276A002387EE866A1EE0B8F8621107EE2D
:10347000101AB8EE477AF7EE007A37EE276A22463E
:1034800087EE866A0023F15E0233062B07EE901A60
:10349000D2ED006AF8EEE77AE6EE877A67EE866AA2
:1034A000E2EC016AEFD185E74F49D2ED006A595E3F
:1034B00007EE901AF8EEE77A0233E6EE877A062BEB
:1034C00067EE866AE2EC016AEED1464808E04748BA
:1034D00001A9FFF7C0FD45480146FFF793FD4348AA
:1034E000FFF7CAFC424B18805046FFF72DFE97F8B5
:1034F0007C30002B3ED094ED010AD4ED007A94ED9F
:10350000028A3C4C20EE000AA7EEA70AA8EE080AA1
:103510000CF0C0FE88EE000ADFED377AB4EEE70A61
:10352000F1EE10FA02D80023238023E00CF0AEFC69
:10353000324BD3ED007A20EE270A0CF01FFCB0F5D9
:10354000617FA8BF4FF4617007EE900AB8EEE70AFA
:10355000DFED2B7A80EE270A0CF05AFC154B93F81E
:103560007C3007EE903AF8EEE77A27EE800A0CF00E
:1035700005FC208098F80530012B224B0DD1224A02
:10358000B5F904001488022114FB0101032091FB0A
:10359000F0F189B29980118001E0AA889A802A8886
:1035A0001A806A885A8004B0BDEC028BBDE8F087AF
:1035B0000405002048200020B80400209C2800209A
:1035C00074260020A42600208C2600204000002025
:1035D000B426002024050020FC040020EA26002058
:1035E0004C3D0F4494040020982600201C0000202D
:1035F000D8280020CA0400208FC2753CAC260020C9
:10360000EFB6B044C4040020F80400204C21002090
:10361000B4040020044A0023136053609360034AFB
:103620001360034A136070477C260020F4040020D6
:10363000180500202DE9F84F2DED048B07F076FBDF
:10364000BB4BB3F802A0B3F800B0BA4B1A68821AA9
:1036500009EE902A19EE901A46F2A712914240F212
:10366000EE81B54E18603388DFF84493B34C9FED7C
:10367000B49AB44FDFEDB48AB44DDFF83883B7EEB7
:10368000008A53B3B24894F83130D9F80010026878
:10369000DFEDB00A013BB1FBF3F1082392FBF3FE2F
:1036A000CEEB02020A4492FBF3F306EE103AB8EEB8
:1036B000C60A026080EE090A0CF048FC00232B6069
:1036C000C8F800303388013B338038EE400A20EEE2
:1036D000280ABDEEC00A87ED000A94F83130D9F807
:1036E0000020DFED9C0A9C4E013BB2FBF3F306EE9B
:1036F000903AB8EE660A0FFA8BFB80EE090A0CF0DE
:1037000025FC0FFA8AFABBF1000FB8BFCBF1000B12
:10371000BAF1000FB8BFCAF1000AD345A8BFDA4614
:103720001FFA8AFA38EE400A20EE280A0CF026FB2F
:103730003B68D4ED0D7A96ED006AC01A06EE900A49
:10374000B8EEE60A78EE676AB8EEC67A20EE260A88
:103750000FFA8AF7A7EE270A0CF010FBFA2F7F4B1F
:1037600003DD4FF0FF321A6013E093ED007A07EEAD
:10377000907AF8EEC76AB8EEE77ADFED797A37EE3D
:10378000C77A26EE877AC7EE277AFDEEE77AC3ED91
:10379000007A1B685A1EC62A724A03D8C01A1060E3
:1037A000336025E01268002BC2EB000030601FDDA3
:1037B000C3F5967107EE101ADFED6B7A6B4AB8EE1F
:1037C000C77A06EE103A87EE277A634BF8EEC66AA0
:1037D00006EE100AF8EEC67A38EE476A82ED007AF5
:1037E00067EE867AE6EE877AFDEEE77AC3ED007A39
:1037F0005F4BDFED605AD3ED007A5F4B94ED0F6ABB
:10380000D3ED026A5D4B5E4A93ED007A5D4B116821
:10381000F8EEE66AB8EEC77AF8EE677AC6EE878AFF
:10382000914693ED007AD5ED006A336828EE877AE9
:1038300067EEA55A27EE277AB6EE005A66EEA57A0D
:1038400027EE055AC91AE5EE257A09311229D8ED75
:10385000005A98BF136077EEA55A07EE903AB8EE7B
:10386000E75A78EE467A36EE877A65EE277A85ED66
:10387000007AE5EE867AC8ED007AFFF7CBFE424B80
:10388000326819689FED417A1A60511A07EE901A52
:10389000F8EEE77AF8EE699A67EE877A40F2DC5242
:1038A000C7EEA99A3A49FDEEE99A19EE900A04F09A
:1038B00045FD0A21FFF739FCD4ED0E7A95ED007A2B
:1038C00006EE100A38EE678AB8EEC60A20EE080A3D
:1038D000A7EE270A85ED000A0CF050FA0521804674
:1038E000FFF723FC2B4B2C4D1860B7F5487F2B4F6F
:1038F00080F29F802A4B1B78002B5DD1294B2A49EF
:103900001868D9F800304FF4FA72C01A04F016FDA6
:103910000A21FFF70AFC094B24491B7980225843EE
:1039200090FBF2F04FF4967204F008FD46E000BF01
:10393000B40400201C0500207C0900204820002041
:1039400080E6C547D0040020D048874AB004002054
:1039500090040020B1DC423EDC040020180000206E
:1039600000006144100500200000C842A4040020AB
:1039700018050020BD3786357C260020F404002081
:103980009426002088260020200500200024744969
:1039900024FAFFFF1405002008050020CC040020B5
:1039A000F2040020A02600200CFEFFFFD4FEFFFF43
:1039B0000C050020E0040020234B1868C8EB000829
:1039C000A07A2249224E202308FB00F090FBF3F05E
:1039D0004FF4967204F0B2FC33682860207D1D49D4
:1039E0001D4A08FB0030306004F0A8FCA47F97ED6E
:1039F000007A306007EE904A38EE877AF8EEE77A80
:103A00002B6867EE877A9FED157A67EE877A42F228
:103A10000406FDEEE77A90FBF6F61E4417EE900AD8
:103A20006FF0950196222E6004F088FC301A286011
:103A300001E000232B60C7ED008A012000E0002098
:103A4000BDEC048BBDE8F88FE4040020D4FEFFFF3A
:103A5000D8040020E0FCE6FF200319000000003B32
:103A60002DE9F041012088B008F062F808F008F96B
:103A70000028FBD0A74BA84CA84E012200201A60BA
:103A8000FDF724FEFDF772FD0BF02CF90BF098FF0B
:103A900094F88131306033B103F0F702012A02D18A
:103AA0008DF8043004E000238DF8043084F881316F
:103AB00001A809F027FD0220FDF7F6FD08B103F08B
:103AC0005BF809F027FD09F031FE4FF48020FDF787
:103AD000EBFDA8B10BF05CF9914B4FF400425A8317
:103AE00014278F4D6B6983F400436B611920013FEC
:103AF00007F047F917F0FF07F3D14FF400436B834A
:103B000004F034FC0F20FDF7B9FD02F093FF012013
:103B1000FDF7AAFD10B9032007F03EF90023814A02
:103B200040F2DE5199520233242BF8D17E4B7F4A6A
:103B30001A6008207075FDF7B7FDB8B194F88A31A6
:103B4000042B13D8DFE803F00303070B0F007648BC
:103B500002F0A4FE0AE0744802F094FD06E0724808
:103B600002F018FF02E0704802F04AFD4FF40060D6
:103B7000FDF79AFD10B16E4804F00EFD4FF4807011
:103B8000FDF792FD18B194F89F01FEF729F94FF463
:103B90000020FDF789FD08B105F052FC654B20229D
:103BA0005A835F4A4FF48041118314279846D8F80E
:103BB00014305B4D83F02003C8F81430192007F04F
:103BC000E0F86B6983F480436B611920013F07F0D3
:103BD000D8F817F0FF07EAD1564B20221A834FF48A
:103BE00080436B8303F07CFBFFF7A2F901F0DCFF5D
:103BF0004FF48070FDF758FD08B9002308E0082055
:103C0000FDF752FD0028F8D0F368003318BF0123F8
:103C100001208DF80B30FDF747FD18B90820FDF79E
:103C200043FD00E0012000F001008DF809000820AC
:103C3000FDF73AFD8DF80A004FF48020FDF734FDC2
:103C40008DF808002020FDF72FFD20B963795D1F56
:103C50006B426B4100E001238DF80C306379591EF3
:103C60004A424A41B3F10E00434243418DF80E30BF
:103C7000B4F84E31ADF81030B4F85031ADF8123020
:103C80004FF480404FF47A738DF80D20ADF8143066
:103C9000FDF70AFD20B1204BB3F84A31ADF81430DE
:103CA000BDF81030B3F5FA7F88BF00234FF48030A1
:103CB00088BFADF81430FDF7F7FC8DF81A004FF40B
:103CC0000030FDF7F1FCB4F88E31ADF816301A4B28
:103CD0008DF81B00B3F8D230ADF8183002A80AF006
:103CE0009BF807F023F8154B18606379052B03D177
:103CF000134B4FF4C8721A80124B4FF47A721A8029
:103D0000114BC8221A80114B01225A7301F01AF983
:103D1000FCE700BF280500204C210020C026002021
:103D2000000C0240F027002050060020814D0008C2
:103D300000480040000802404820002034060020CF
:103D40009C080020700900207C090020EA26002041
:103D5000054B20225A834FF48042A3F81A244FF4D3
:103D60000042A3F81A24FEE7000802402DE9F04FB4
:103D70008C4BB3F90220B3F9003087B0002AB8BFEA
:103D80005242002BB8BF5B4200249A42B8BF1A4689
:103D900004922546A04627460394A2462646DFF80D
:103DA0001CB29BF803301BB99BF80430002B3FD0AA
:103DB000022E3DD07C4B7B49B3F868217B4B485F9A
:103DC0005B5FDFF8FC91514203EB400004F0B6FA70
:103DD000774B99F81C2035F903C005EB0903CCEBB0
:103DE0000000B3F92A3000EB030C99F80800CDF875
:103DF00008C000FB0CF064236FF00401514390FBFA
:103E0000F3F002EB820204F099FA6A4BDDF808C085
:103E100069498246E0580293604442F2107204F00D
:103E20008DFA029BE05099F812305843001303902A
:103E30009BF8033023B1614B1B790BB9022E3CD1A7
:103E40005F4BDFF860B1DFF88C813BF905705D49AD
:103E500006EB030907EB870099F80130000190FB9E
:103E6000F3F0594BEA5E801A54F80820029310448C
:103E70004FF47A5204F062FA029B48F80400EB5EB9
:103E8000002BB8BF5B42B3F5207F08DC022E09D1BE
:103E9000BBF90430002BB8BF5B42642B02DD00236A
:103EA00048F8043058F804207D2392FBF3F899F881
:103EB0000B3003FB08F84FEAA818404B1A79B2B14F
:103EC000022E14D0049BDDF81090DDF80CB0C3F581
:103ED000FA7209FB08F07B4302FB0A334FF4FA71D4
:103EE00002FB0B0293FBF1F392FBF1F208E0DB78AB
:103EF0000BB1022E02D142463B4601E0039A5346E3
:103F00003149DFF8D4B0685A304935F90BC0715CDB
:103F100025F80B000FFA80F9DFF8C0B00591CCEB63
:103F20000901DFF8BCC054F80B90009154F80C1054
:103F3000894400998944CDF80490DFF8A89054F89A
:103F40000C1044F80B1016F80990DDF804B0009935
:103F500044F80C1009FB0BF14FF0200991FBF9F12B
:103F6000521A0599DFF880C010FB01F06FF04F0185
:103F700090FBF1F1194401361144032E25F80C1081
:103F800004F1040405F102057FF409AF104BBCF8FD
:103F900000201A805A809A80024AD288DA8007B0BC
:103FA000BDE8F08F642700204C210020100600207F
:103FB000B40400204C050020F0D8FFFFEA260020C2
:103FC0004820002080C1FFFFC404002024280020D6
:103FD00044270020740600204606002064050020C7
:103FE00040050020142800207C2700202DE9F74FF1
:103FF000002425462746022F464EDFF8408107D190
:1040000096F82430B8F904201B3353435B1123E0A6
:10401000414B38F90500B3F868214000514204F0E3
:104020008DF93E4BEB5EC01A7319B3F92A20104488
:104030003B4AD3786BB996F8233038F905101279DA
:104040001B334B431B113AB1B27C504303EB20238B
:1040500002E0337A43431B11324ADFF8E4B035F90A
:104060000290DFF8E0A0BBF800002F493E44C9EB06
:104070000309F27A54F80A3096F801C000FB09F0FF
:10408000C01202FB00300CFB09FC44F80A004FEAA6
:10409000EC1C4FF40012CDF804C004F04FF9234B90
:1040A00044F80A00E15844F80390BBF80030DDF80A
:1040B00004C04FF6FF721B09B2FBF3F3C1EB090119
:1040C0005943DFF884901A4B54F8092054F803A0A0
:1040D00044F809A089110CEB603C5244707DE1501A
:1040E0000A44144B504301370CEB2020032FE852B5
:1040F00004F1040405F102057FF47DAF1A880E4B2C
:104100001A805A809A80B8F80620DA8003B0BDE899
:10411000F08F00BF482000204C210020B404002074
:10412000EA260020C40400200000E0FFA4050020CF
:10413000580500207C270020442700206427002009
:104140004406002074060020700500202DE9F04F81
:104150002DED0A8BCD4BCE4A18889FEDCE9A9FED60
:10416000CECACE4FDFEDCEBA83B0012104F0E6F81F
:1041700007EE100AB8EEC7BACA4B2BEE099A1A79A5
:1041800039EE0CCA994689EE0CCA72B3B7F9003001
:10419000B7F9022083EAE371A1EBE37182EAE270EE
:1041A000A0EBE2708842ACBF04460C46B4F5E17F58
:1041B0001EDA8842DFEDBC7A08DD002A02DD07EE58
:1041C000102A07E0524208EE102A09E0002B04DD15
:1041D00007EE103AB8EEC78A04E05B4208EE103AE8
:1041E000B8EEC88A88EE278A04E0B0EE6B8A01E058
:1041F000B7EE008ADFEDAA9A002425462646F0EEA7
:1042000069AADFF8F8B235F90B300AEE103AB8EEC9
:10421000CAAAF5EE047A2AEE27AA7B5FDFEDA37A1D
:10422000BDEECAAA08EE903AB8EECAAA99F80330D1
:104230002AEE27AAF8EEE88ADA461BB9994B1B79D1
:10424000002B6ED09A4BDFF8AC82B3F86821994B03
:10425000EB5E07EE903AF8EEE77AB0EE007AE8EE21
:10426000877A5142FDEEE77A17EE900A04F066F87D
:10427000914B05EB0802EB5EB2F92A20C01A8318B5
:1042800007EE103A98F81C3007EE903A98F808308C
:1042900006EE903AF8EEC79AF8EE677AF8EE666A9C
:1042A000B1EE047A67EE877A69EEA66A9FED837AAB
:1042B00066EE876AB1EE677AFDEEE66ABDEEC77A12
:1042C000FDEEE77A17EE101A17EE902A16EE900A16
:1042D00004F034F87A4B2344D3ED007A0193E9EEED
:1042E000897A6FF01D011E2207EE100AFDEEE77AB3
:1042F000F8EEC7AA17EE900A04F020F898F812809A
:10430000019B07EE100A09EE908AF8EEC77AF8EEE4
:10431000699A9FED6C7AC3ED007A67EEA99A69EE0F
:10432000879A99F80330002B52D13BF90530DFF81A
:10433000D081DFF8C0B1002BB8BF5B42B3F5206F6E
:1043400008EB040302DDC3ED00BA1CE00BEB060230
:104350009FED5D7A527893ED000ADFED5C0A9FEDE8
:104360005C1A019307EE902A28EE877AF8EE677AB6
:10437000C7EE277A77EECA7AA7EE890A03F0E6FF3E
:10438000019B83ED000A0BEB060208EB0403D27AD3
:10439000D3ED007A99F8043000EE102AB8EE400A06
:1043A00020EE270ADFED4B7A20EE270AA3B178EE44
:1043B000EA8A30EE690AF0EE6A7AB0EE697AE8EEDF
:1043C000287AA8EE007AF0EE678AB0EE470A03E09A
:1043D000B0EE690AF0EE6A8A3F4BDFED407AF35C9B
:1043E00007EE103AB8EEC77A3D4B27EE4A7A2344DF
:1043F000E7EE278A93ED007A83ED00AA3AEE477A3A
:10440000384B87EE097A23440434D3ED007A37EE33
:10441000677A38EE800AECEE077AC3ED007A324B09
:10442000F35C07EE103AB8EEC77A013667EE677AAA
:104430009FED2E7AA7EE870A0BF0A0FC2C4B022EE4
:104440005853984605F102057FF4DBAE294DBAF9C1
:1044500004A095F82440B7F9043000EE10AA6400D7
:104460002834BAEECF0A5C430BF088FC6411201AA2
:1044700007EE900A002CB8BF6442322CB8EEE78AEF
:104480001D4C41DD0023A36060E000BF4406002016
:10449000A0860100BD378635AF4C593C642700200B
:1044A00000000000EA2600200000E143CDCC4C4093
:1044B0004C21002010060020B40400206F12033CA1
:1044C000300500200AD7A33D0000A043000040C3F0
:1044D000000040430AD7233C24280020A69B443BED
:1044E0007C0500200406002014280020F7CC923818
:1044F0007C2700204820002074060020C4040020EF
:104500001806002000803B45FDEECB7A5FED036A84
:104510002E492F4A17EE903A23F0030307EE903A04
:10452000F8EEE77A6B7BC7EEA67A07EE103AB8EEA4
:10453000477AA36828EE077A67EE277AFDEEE77AD6
:1045400017EE900A184403F0F9FEA060A0684FF43B
:10455000807240136FF0FF0103F0F0FEBDEEC88AD9
:10456000EA7818EE103A07EE100A53439B11F8EE62
:10457000C78AEA7D07EE103AF8EEC77A12B1C2F5A3
:10458000967201E04FF49672FDEEE77A514217EE13
:10459000900A03F0D3FE07EE100AF8EEC77A77EE22
:1045A000A88AFDEEE88A18EE903A9BB2A8F804308B
:1045B0001BB200EE103AB8EEC00A0BF0DFFBA8F811
:1045C000040003B0BDEC0A8BBDE8F08F020000F0E0
:1045D000FEFFFF0F2DE9F8437F4BDFED807A1B884C
:1045E0002DED068B09EE903AF8EE699A002469EEFB
:1045F000A79A25462646022EDFF83482784FF2EE3F
:10460000048A0AD198F82430B7F904200A335A43AF
:1046100007EE902AF8EEE77A28E0724B785FB3F85D
:10462000682198F82390514203F088FE6E4B6F4941
:10463000EA5AC97808EB05035B8D71B112B2801A92
:1046400000FA83F007EE900AF8EEE77AB1EE047A0A
:10465000C7EEA87A67EE877A0CE07B5F09F1140950
:1046600003FB09F907EE109AF8EEC77A9FED607A1E
:10467000C7EE877A5F4BDFF8BC91EB5EDFF8B8815D
:104680005D4F2744013608EE103AB8EEC88AB3EE03
:10469000007A28EE078A9FED597A97ED000ADFED40
:1046A000580A9FED581A28EE078A04EB090337EEE3
:1046B000C89A93ED00AA04EB080329EE297AD3EDFA
:1046C000007A67EE277AA7EEA80A03F03FFEF7EE1E
:1046D000007AC7EEA97A4C4B4C4A2344224493ED0E
:1046E000007A83ED008A4A4B87ED000A38EE477A5C
:1046F000234467EE277AF0EE408A93ED007A92ED3C
:10470000000AC3ED007A37EE000A424F82ED007ACC
:1047100030EE270AF0EE087A80EE270AE319043417
:10472000D3ED007ADFED3C0A9FED3C1A20EE270A1C
:1047300003F00CFEE9EE0A8A38EEC00A0BF01EFB0D
:1047400037494FF47A7203F0F9FD364B032E585374
:1047500005F102057FF44FAF9FED338AD9ED007A62
:104760002F49324C67EE887A4FF47A72FDEEE77A81
:1047700017EE900A03F0E2FDD8ED007A208067EE94
:10478000887A2749FDEEE77A4FF47A7217EE900A9D
:1047900003F0D4FDD7ED007A608067EE887A204977
:1047A000FDEEE77A4FF47A7217EE900A03F0C6FD39
:1047B000D7ED027AA08027EE888A1949BDEEC88A13
:1047C0004FF47A7218EE100A03F0B8FDBDEC068BB8
:1047D000E080BDE8F88300BF44060020BD37863581
:1047E000642700204C210020B4040020EA26002089
:1047F00000004842C40400201806002090C1793D02
:1048000000007AC300007A4360060020940500206F
:10481000B40500206C270020000096C300009643DA
:1048200018FCFFFF7C27002000007A44442700206A
:1048300048200020182800205827002008B5094BE0
:104840005A7872B100225A70074B196801B11A6088
:104850004FF40020FCF728FF18B1BDE8084004F031
:10486000D7BD08BDEA26002058060020084B094A9B
:104870001B681168591A002909DB03F5F42303F5B5
:1048800090731360044B5A6982F400425A61704776
:104890002C05002054060020000C02402DE9F047B2
:1048A0008046894692460025EBB2534516D2002435
:1048B000E3B243450DD20A4B0A4E5A69102782F0E3
:1048C00020025A614846378306F05BFA0134778349
:1048D000EEE73C2006F055FA0135E5E7BDE8F08744
:1048E000000802400000024008B5104B1A88104B27
:1048F00092B99A7882B15A78BAB901225A700D4B9E
:104900001A880D4B4FF400201A80FCF7CDFE60B1E1
:10491000BDE8084004F090BC5B7833B90220FF2169
:104920000122BDE80840FFF7B9BF08BD70090020AB
:10493000EA260020D8280020EC2700202DE9F04F9F
:10494000C24BB3F90600C24B2DED028BDA8C9042BC
:1049500085B00FDBB0F5FA6F93F8254007DA811ABE
:104960004C43A2F5FA6294FBF2F4643403E0C4F120
:10497000640400E06424B74A93F82370B2F88E11FF
:1049800092F95C210091524292B293F8765093F8DA
:10499000776093F8243002920021019703930A462E
:1049A000AA4BDDF8008031F903C0C8EB0C0303F219
:1049B000F31E40F2E637BE4503D8002BB8BF5B427A
:1049C00001E04FF4FA73022ADFF894822CD025B16B
:1049D000AB42CCBFC5EB03030023642793FBF7FE78
:1049E000DFF8BCA26FF0630B3AF81E900BFB0E3B96
:1049F0000EF1010E3AF91EA00FFA89FECEEB0A0E57
:104A00000EFB0BFE9EFBF7FECE4428F801E0DDF81E
:104A1000048003FB08FE904B9EFBF3F33B449BB2E8
:104A2000634393FBF7F714E026B1B342CCBFC6EB68
:104A300003030023DDF808E003FB0EF7A8F8047079
:104A4000039F002BB8BF5B427B43834F93FBF7F779
:104A500064377F4BDFF84C8202EB030E64239EF831
:104A6000019007FB09F999FBF3F902F808909EF809
:104A70000B90DFF834829EF815E007FB09F999FBEB
:104A8000F3F907FB0EF702F80890DDF8008097FBBA
:104A9000F3F3724FC445D355714F02DA7B5A5B4230
:104AA0007B520132032A01F102017FF479AF694E92
:104AB0006B4CB6F890114FF4FA6203F03FFCB6F875
:104AC00090314FF47A75C01A4543C3F5FA63B5FBCC
:104AD000F3F5642195FBF1F362486FF0630E30F853
:104AE00013200EFB03550133B24630F9130013B205
:104AF000C31A5D4395FBF1F15B4D6B7A0A44FA8072
:104B0000D3B35A4BDFED5A7AB3F90020594BB3F9BE
:104B10000030D31A08EE903AF8EEE88A68EEA78AD9
:104B2000DFED557AC8EEA78AB0EE680A0BF0EAF816
:104B3000B0EE408AB0EE680A0BF06AF9B4F902E010
:104B4000B4F9001006EE90EA07EE901AF8EEE66A65
:104B5000F8EEE77A20EE667AA7EE887A67EE807A3A
:104B6000BDEEC77AE6EE887A17EE103AFDEEE77AE8
:104B7000238017EE903A63800220FCF795FD002811
:104B800000F09F803D4C3E4B3E4E1A8823681344F4
:104B90003D4A236013780133DBB213700622B3FB66
:104BA000F2F702FB173717F0FF0747D1DFF8FC9049
:104BB000D9F800304FF0080893FBF8FBCBEB030B60
:104BC0003846C9F800B008F09FFC5844C9F8000006
:104BD00090FBF8F080B201F097FF9AF881313080B5
:104BE00063B3DFF8CC90D9F8003093FBF8FACAEB46
:104BF000030A0220C9F800A008F086FC5044C9F856
:104C0000000090FBF8F080B201F0A0FF1F4B22687B
:104C100018601F4B50434FF47A7290FBF2FCD3E9BB
:104C2000000110EB0C0041EBEC71C3E90001194AE3
:104C300000230DF0C1FE184B27601860174A338817
:104C400012889A4236D3012039E000BFF0270020B5
:104C5000482000204C2100200CFEFFFF14280020DB
:104C60006427002018270020EA260020D8280020EA
:104C7000DB0F4940EC270020000034430C060020E5
:104C800044060020782700206D060020E827002039
:104C900028060020407E050010270020EE27002077
:104CA0003828002024280020E02700208805002044
:104CB000380500202A4A12889A4202D30220FBF7C4
:104CC00093FAFBF73FFB274B1B881BB9264B1B882E
:104CD0002BB90AE00220FCF7C7FC0028F6D0234BD2
:104CE0005A6982F020025A610BE0AB7813B11F4B76
:104CF00020225A836B7813B11C4B20221A8303F0B5
:104D00005DFC1B4B1B491B680A689A1A002A10DBC2
:104D1000687B194A58B99070144A506903F5F42316
:104D200080F0200003F5907350610B6001E00123D7
:104D3000937002F071FB114B1B785BB94FF400606C
:104D4000FCF7B2FC30B105B0BDEC028BBDE8F04F12
:104D500003F035BC05B0BDEC028BBDE8F08F00BFA1
:104D60007A2700209C0800207009002000080240DB
:104D70002C050020A0050020EA26002024020020A7
:104D8000024B184490F8820108F0ACBF4C2100207F
:104D90002DE9F0410820FCF787FCDFF8A480234FC1
:104DA000002837D1224C06460546D8F80030E8B234
:104DB0009847A0F2EE2240F2DC5392B29A4288BFAA
:104DC0001C4B1D4988BFB3F88E010A681B4B13406A
:104DD000002B03DA013B63F00303013303EB850C83
:104DE000134B23F81C00208863880344A0880344E5
:104DF000E08803441BB20420013593FBF0F3082D37
:104E0000BB5304F1080406F10206CED101320A6058
:104E1000BDE8F0810024E0B2D8F80030984727F8C8
:104E200014000134082CF6D1BDE8F081F0270020F1
:104E3000C00500204C2100203C060020030000801B
:104E400050060020022830B5334A06D005285FD02E
:104E5000012814BF314B324B5BE0324B9FED327A6D
:104E60005978DD7A314C324807EE901AF8EE677ABD
:104E700006EE905AC7EE877A5D7D2E49F8EE666A97
:104E8000C4ED007ADFED2C7AC6EEA76AC0ED006AA9
:104E900006EE905AF8EE666A9D78C6EEA76AC1EDF6
:104EA000006A06EE905AF8EE666A1D7BC6EE876AC7
:104EB000C4ED016A06EE905AF8EE666A9D7DC6EE74
:104EC000A76AC0ED016A06EE905AF8EE666ADD78D0
:104ED000C6EEA76AC1ED016A06EE905AF8EE666A60
:104EE00086EE877A84ED027A5C7BDB7D07EE104AE2
:104EF000B8EE477A87EE277A80ED027A07EE103A0D
:104F0000B8EE477A0D4BC7EE277AC1ED027A00E082
:104F10000B4B136030BD00BF280000206D3D000822
:104F2000ED3F0008482000200000C842182800205B
:104F3000582700206C27002000007A44D54500083F
:104F40004D4100082DE9F04F2DED048B082083B072
:104F5000FCF7AAFBA64DC0B195F88A31042B13D8F3
:104F6000DFE803F0030306090C0001F091FC0CE0FC
:104F700001F0B6FB09E001F027FD06E001F032FB8D
:104F8000003018BF012000E000209A499A4A0B68BF
:104F900014681C1B002C8A4602DA002800F06E837D
:104FA00003F59C4320331360FFF7F2FE4FF480407B
:104FB000FCF77AFB20B1914B1B780BB9FFF73EFC55
:104FC0004FF40070FCF770FB8D4F00283BD08D4EE6
:104FD0008D4C96F8CE30B4F9001003EB8302914269
:104FE0001CDDDFF82C8298F80120BAB1B5F88E21CB
:104FF0003A807A80BA80B6F8D020FA8096F8CF202E
:10500000134403EB8303994204DDFFF717FC0023ED
:1050100088F800307D4B1A8801321A8096F8CE301D
:10502000B4F9002003EB83039A4209DD784E96F829
:105030000180B8F1000F03D1FFF700FC86F8008073
:105040002388013323800022B5F89001B5F89241FE
:105050001346B95E9B088142C4BF63F07F03DBB295
:105060000232A142B8BF43F04003082AF1D1694C93
:10507000DFF8C88122789A4205D198F80020F92AF1
:1050800004D8013200E0002288F800204FF480406C
:105090002370FCF709FB5B4E58B1B5F88E11B5F8DB
:1050A0004C21B7F90630881A834202DD0A44934244
:1050B0000DDB4FF48040FCF7F7FA28B9B7F906206A
:1050C000B5F890319A4202DB4FF0000911E0524AE4
:1050D0000023136053609360504A13605360B6F826
:1050E000463023B1454B1B78002B40F0EB844FF04A
:1050F0000109B6F8463073B1404B1B785BB9444B9D
:105100005B7843B195F8953113B1FFF797FB02E057
:10511000B9F1000FF9D198F80030142B40F0C1809C
:105120003B4A53789346C3B1B6F8463023B9237847
:105130005F2B01D1FFF782FB95F89431002B00F033
:10514000B080B6F84630002B40F0AB8023787D2B42
:1051500040F0A780FFF772FBA3E02278572A18D10E
:105160002F4B4FF47A724FF480701A80FCF79CFA40
:1051700008B1FCF759FD0420FCF776FA10B1294B71
:105180000A221A800820FCF76FFAF0B9264B188023
:105190001BE004200193FCF787FA019BA8B11D4A8C
:1051A00012785A2A11D1214A117819B113700122AB
:1051B0001F4B09E01F4B1A7882F001021A701E4B38
:1051C0000AB1022200E003221A7023785D2B00F05E
:1051D00082845B2B00F081845E2B00F08084B6F823
:1051E00046306BBB22786F2A2AD1FFF77DFB3BE06C
:1051F0004C2100202C050020400600209227002092
:10520000F02700204820002070060020160600200D
:10521000EA26002038060020740600204C050020F5
:10522000700900207C090020D82800206E0600208C
:105230005C0600205D060020000600208C05002092
:1052400095F894211AB113B923787E2BCDD0237809
:10525000972B04D1894B4FF4C8721A8004E0A72B16
:1052600004BF01238BF80E302378BB2B02D1B38D02
:10527000023303E0B72B03D1B38D023BB38509E0C2
:10528000BE2B02D1738D023303E0BD2B09D1738D88
:10529000023B738501200146FCF770F9002388F872
:1052A00000300420FCF700FA48B3754A754B1178BA
:1052B00071B17549497859B1B7F90600B5F890113F
:1052C000884205DD197819B97048117032240480BC
:1052D0005B7C53B16E4B1A782AB96E4A127812B9B8
:1052E0006A4A32211180012208E06A4B1A7832B1F1
:1052F000654A52781AB91A70674B01221A706748CA
:105300000123002230F8021FA1F21554B4F5C77F23
:105310008CBF002401249C4009B2224340F2135464
:10532000A142CCBF0024012403F1FF3E04FA0EF495
:10533000224340F2A464A142D4BF002101215C1C9D
:10534000A14003330A430D2B92B2DBD1002306EBBD
:1053500043004C49B0F8460002420CBF0020012037
:1053600058540133182B8846F1D14B78464C4BB931
:105370004B4BB3F900204B4B93F8CE3003EB830338
:105380009A420CDD0220FCF76FF940B1E37843B993
:10539000454A136053603C4B0122DA7001E0002360
:1053A000E37098F8023053B10023E37023793BB9DE
:1053B0003D4A13605360344B01221A7100E023719F
:1053C00098F800300BB901232370E278374B12B9FB
:1053D0002D4A12791AB14FF480421A8302E04FF439
:1053E00080425A830420FCF73FF920B398F8033039
:1053F0008BB1A37983B9244A012191712C4A116898
:105400002C4A11602C4AD1882C4A11802C4A1360F6
:105410002C4A136000E0A3714FF40050FCF744F9EC
:1054200048B198F804302BB1E37B23B9164B012225
:10543000DA7300E0E3730220FCF716F918B198F86C
:10544000053033B90FE00820FCF70EF90028F6D13B
:1054500046E0637943B90C4B01225A711A4B1A8802
:105460001A4B1A8000E0637198F8063083B3637AB0
:105470007BBB054B01225A722BE000BF9C08002029
:105480005D06002092270020EA2600203A06002030
:10549000B10500206E0600205C060020F6270020E3
:1054A00070060020482000204C050020000C02401F
:1054B00094260020A026002064270020300600202B
:1054C000D804002008050020D828002098280020B3
:1054D000637298F807301BB1824B1A88824B1A808E
:1054E0002020FCF7C1F8002857D0E27A7F4B002A31
:1054F0004ED07F4A1278042A4AD97E4A4FF400419E
:10550000118398F80A207AB1DA79002A47D101216B
:105510007948D9711A72794B011D1A70FCF7FAFC9F
:10552000774B02221A703AE0DA71764AD27A2AB3BD
:105530007549B6F8E220B1F900000028B8BF404232
:1055400090421BDAB1F902100029B8BF49429142DA
:1055500014DA1A7A1ABB4FF0010B83F808B0674BC4
:105560006A481A706A4B011D1A685B6843600260E2
:10557000FCF7D0FC624B83F800B010E000232372EC
:105580005E4B1A785AB901221A70FCF775FB06E0D7
:105590005B4A0023E37123721370FFF767F998F8F1
:1055A0000C3003B10123A3726B7903F0EF02082AD8
:1055B00001D00E2B2FD14FF0000B4FF40070DFF80D
:1055C0002C8184F809B0FCF76FF820B3514BB3F984
:1055D000002096F8CE3003EB4303B2EB430F1ADD05
:1055E000B5F88E2188F80AB0012388F8033093B209
:1055F0003B807B80BB80484BB3F8D030FB8098F871
:105600000B3043B93A490978052904D888F8123093
:10561000424B323A1A801020FCF746F8002800F07E
:105620008B806378002B00F08780304B1B7C002B35
:1056300040F082803A4CB9F1000F19D02768394EFA
:105640004FB905F08DFB96F876314FF47A7202FB74
:105650000300206008E005F083FB874204D296F83F
:1056600076310BB1FFF7EAF80920FAF7BDFD63E0E8
:105670002368002B60D0C4F800905DE02A4C2368BA
:10568000042B59D8DFE803F0030D18225200012340
:1056900008202360FBF7E8FF18B101F0B1FC0028F7
:1056A0004AD12368042001332360FBF7DDFF18B1E2
:1056B00001F0B6FA00283FD12368042001332360AB
:1056C000FBF7D2FF10B1FDF7B5FFA8BB23684FF47D
:1056D000807001332360FBF7E7FF38B3FCF7CAFCA7
:1056E0002AE000BFD8280020EC270020EA2600206E
:1056F000E6270020000C0240842700202D00002017
:105700003C05002092270020642700203827002035
:10571000C82700207006002048200020F027002025
:10572000580600204C2100209005002000234FF453
:1057300000502360FBF7B8FFAB4F3B78002B00F025
:105740007E8100233B70FDF7CDFDFFF7F7F80820C1
:10575000FBF78AFFA54E002838D0A54A918801F1B1
:1057600045039BB28A2B1446A24BA34A2CD8A348CC
:1057700090F805E0BEF1000F26D0B3F800E01388E2
:10578000407BC3EB0E0292B293B20FFA83FE1EF17E
:10579000B30FBCBF02F5B4739BB21AB2B32AC4BF35
:1057A000A3F5B4739BB295F85C2178B152B2524222
:1057B0005343727A9BB213FB02F36FF01D0293FB0B
:1057C000F2F31944A18001E01B8813800420FBF749
:1057D0004BFF00286FD0894B9A79002A6BD0187C38
:1057E000834C00285FD196F87910DFF83CE296F8F8
:1057F0007820834B59B3B4F806C0BEF900100FFAF5
:105800008CFEC1EB0E08B8F1000FB8BFC8F100085C
:1058100090450FDD8E45C8BF5242DFF810821FFA57
:105820008CFCC8BF92B2C8F8000062440120187016
:10583000E28040E01A7832B1724A1870D2F800E083
:10584000714AC2F800E0714B1868084423E0BEF9C1
:105850000000B4F906E0C0EB0E0E8EEAEE7CACEB75
:10586000EE7C944509DD6A4A02219EFBF1F111604C
:10587000684901220A701A700AE01A7842B1614A36
:105880001970D2F800E0604AC2F800E0614A117075
:105890005E4B1B681844B5F84011B5F8422102F080
:1058A0004DFDE08007E0594B628895F996111B6821
:1058B00001FB0323638096F87C3053B14F4BDA78B9
:1058C0000AB91B792BB14A4B534A1188DA880A442A
:1058D000DA802020FBF7C8FE002800F0B080474B9C
:1058E000DA791AB91A7A002A00F0A4801B7B002BFF
:1058F00000F0A0803F4BDFED497AB3F9003008EEAD
:10590000103AB8EEC88A28EE278AB0EE480A0AF0A4
:105910007FFAF0EE408AB0EE480A0AF0F3F9374B0E
:105920001B7CB0EE409A002B40F0898096F8DB306B
:10593000DFF8B890DFF8F880394EB2EE048A83B30E
:10594000384CB8F90200B4F802B00FFA8BF3C01A61
:10595000FCF72AFB99F8DB20514202F0EFFC584497
:10596000B4F800B06080B8F900000FFA8BF3C01AE9
:10597000FCF71AFB99F8DB20514202F0DFFC584497
:105980001FFA80FBA4F800B0B4F902400FFA8BFBB9
:1059900007EE104A07EE90BAB8EEC77AF8EEE76A5B
:1059A0000BE0B8F90220B8F9008007EE102A06EEE5
:1059B000908AB8EEC77AF8EEE66A68EEE67AE7EE25
:1059C000097A26EE899AC7EE887AA7EE289AFDEE24
:1059D000E77A89EE089A17EE903ABDEEC99A3380BD
:1059E00019EE103A73802AE02C0000204820002095
:1059F00064270020D828002098280020EA260020CC
:105A0000B005002094260020A026002008050020D4
:105A1000E4040020F2040020CA04002035FA8E3C81
:105A2000100600201427002030060020D804002093
:105A300030270020354B00221A805A809A8005F0CA
:105A400075F9AA89CAF80000314B1AB11968411AD0
:105A5000002955DB1044186005F068F92D4B2E49DC
:105A60001A68186001233B702C4BCAF80000821A98
:105A70000A801A68801A00281C461CDBB5F84E31D3
:105A8000274A92FBF3F3DAF8002012FA83F323603B
:105A9000244B1B68984700F08BF900F075F94FF420
:105AA0000020FBF701FE58B303B0BDEC048BBDE84A
:105AB000F04F02F007BF4FF48030FBF7F5FD0028F0
:105AC000DCD11DE0184B1B78002B3FF410ABFEF728
:105AD0000BFFFFF70CBB012202E0022200E00322D1
